:100000000C9465000C948D000C948D000C948D0064
:100010000C948D000C948D000C948D000C948D002C
:100020000C948D000C948D000C94A6080C948D00FB
:100030000C948D000C9433080C948D000C948D005E
:100040000C940F120C948D000C947F120C94591286
:100050000C948D000C948D000C948D000C948D00EC
:100060000C9458090C948D00000000080002010057
:100070000003040700000000000000007C3C3E5E1E
:100080002B3D3F2F5B5D3B2C2A225C0000000000D3
:10009000250028002B0000000000240027002A0073
:1000A000040404040404040402020202020203031E
:1000B0000303030301020408102040800102040826
:1000C0001020010204081020481811241FBECFEF91
:1000D000D8E0DEBFCDBF11E0A0E0B1E0E8EBF4E393
:1000E00002C005900D92A638B107D9F725E0A6E821
:1000F000B1E001C01D92A43DB207E1F710E0C5E6F2
:10010000D0E004C02197FE010E94F718C436D10741
:10011000C9F70E9459160C945A1A0C940000DC017D
:100120005996ED91FC915A973097B9F0838994894B
:10013000A589B6894285538564857585841B950B91
:10014000A60BB70B811520E89207A105B10538F081
:100150008FEF9FE7A0E0B0E0089580E090E0089581
:10016000CF93DF931F92CDB7DEB76983DC01ED91AA
:10017000FC910280F381E02D41E050E0BE016F5F11
:100180007F4F09950F90DF91CF910895E091300254
:10019000F0913102309729F01092A3021092A2023E
:1001A00009940895CF93DF93AC01E091AA02F091F6
:1001B000AB023097F1F09091A5028091A4029817BC
:1001C000C0F090E0292F30E02617370754F4D9010A
:1001D000A05FBD4FEA01C20FD31F88818C939F5F40
:1001E000F1CF1092A5026093A402CB01DF91CF91D1
:1001F0000994DF91CF9108950895E091A50280912F
:10020000A402E81730F4F0E0E05FFD4F808190E059
:1002100008958FEF9FEF08959091A5028091A40219
:10022000981750F4E92FF0E0E05FFD4F208130E0B7
:100230009F5F9093A50202C02FEF3FEFC901089581
:100240008091A40290E02091A502821B910908955B
:10025000089580E090E00895FC01818D928D0097D3
:1002600011F00C94780C0895CF93DF93EC01898DF5
:100270009A8D009739F481E090E09B838A8380E037
:1002800090E00BC0FC01138212820E94600FE98D86
:10029000FA8D22813381232B71F7DF91CF9108955D
:1002A000EF92FF920F931F93CF93DF93EC017B01AB
:1002B0008A011B821A8288EE93E0A0E0B0E08C8372
:1002C0009D83AE83BF8383E491E0998388838DE12E
:1002D00090E00E940C199A8F898F009779F02DE198
:1002E000F701DC0101900D922A95E1F74CE050E016
:1002F000B801CE010C960E944B1A188EDF91CF9157
:100300001F910F91FF90EF900895CF93DF9300D04E
:10031000CDB7DEB7CB01642F49835A830E94860A8A
:100320004981842F5A81952F0F900F90DF91CF91A3
:100330000895CF93DF931F92CDB7DEB7698361E055
:10034000CE0101960E94860A81E090E00F90DF9135
:10035000CF91089560E085E00E94D31560E086E0CB
:100360000E94D31560E087E00C94D31561E08EE025
:100370000E94D31561E081E10C94D31581110C9496
:10038000AA0161E085E00E94D31561E086E00E9449
:10039000D31561E087E00C94D31581110C94B6015C
:1003A00060E08EE00E94D31560E081E10C94D315EB
:1003B0008091B6028823A9F1409103015091040174
:1003C00060910501709106012FEB32E08091BF042E
:1003D0009091C0040E940D0C811102C080E008952C
:1003E0004091320250913302609134027091350293
:1003F000411551056105710591F02FEB32E08091B7
:10040000BF049091C0040E940D0C882339F3109210
:10041000320210923302109234021092350210927E
:10042000B60281E008958F929F92AF92BF92EF92B1
:10043000FF920F931F93CF934B015C01C42F8091C8
:10044000030190910401A0910501B0910601881566
:100450009905AA05BB0501F10E94D801811102C0CE
:1004600080E020C08FEBE82E82E0F82E00E012E062
:1004700020E030E0B501A4018091BF049091C00458
:100480000E94790B882361F380920301909204010A
:10049000A0920501B09206018091B602C82BC093CC
:1004A000B60281E0CF911F910F91FF90EF90BF9026
:1004B000AF909F908F9008954F925F926F927F922E
:1004C0008F929F92AF92BF92CF92DF92EF92FF9264
:1004D0000F931F93CF93DF93EC016A017B012801F7
:1004E0003901423051056105710510F480E073C097
:1004F00089859A85AB85BC850196A11DB11D8417A0
:100500009507A607B70790F38B889C88AD88BE88AF
:100510008F89803129F4BB27AF2D9E2D8D2D09C0E9
:10052000DB01CA0147E0B695A795979587954A954F
:10053000D1F7880E991EAA1EBB1E809103019091CF
:100540000401A0910501B091060188169906AA063A
:10055000BB0679F48F898031A1F4DD24EE24FF24D9
:10056000C601880F991FFC01E154FD4F5182408262
:1005700019C040E0C501B4010E9413028111EACF05
:10058000B5CFE894C7F8DD24EE24FF24C601880F18
:10059000991F880F991FFC01E154FD4F4082518241
:1005A000628273828091B60281608093B6028A89EA
:1005B000823080F08D819E81AF81B885880E991E32
:1005C000AA1EBB1E8092320290923302A092340285
:1005D000B092350281E0DF91CF911F910F91FF9092
:1005E000EF90DF90CF90BF90AF909F908F907F90D3
:1005F0006F905F904F9008958F929F92AF92BF92AD
:10060000CF92DF92EF92FF920F931F93CF93DF93DE
:10061000FC0181859285A385B4850196A11DB11D3C
:1006200084179507A607B70710F480E05CC083899C
:100630009489A589B689C789C03129F4852E962E5B
:10064000A72EBB2409C04A015B01C7E0B694A7945A
:1006500097948794CA95D1F7E9016A017B018F01CC
:10066000BC01CD01680D791D8A1D9B1D8090030181
:1006700090900401A0900501B090060168157905DD
:100680008A059B0599F4F80187898031A9F4B7019F
:10069000A601552766277727440F551FFA01E15415
:1006A000FD4F80819181A0E0B0E018C040E00E9441
:1006B00013028111E8CFB9CFB701A6014F775527B3
:1006C00066277727440F551F440F551FFA01E15441
:1006D000FD4F80819181A281B381BF70888399830E
:1006E000AA83BB8381E0DF91CF911F910F91FF908F
:1006F000EF90DF90CF90BF90AF909F908F90089534
:100700004F925F926F927F92AF92BF92CF92DF92A1
:10071000EF92FF920F931F93CF93DF9300D000D0FF
:10072000CDB7DEB78C0149835A836B837C83590133
:10073000C12CD12C7601412C82E0582E612C712CD9
:1007400049815A816B817C819E012F5F3F4FC80197
:100750000E94FC02882351F1D301C201F8010584F3
:1007600004C0880F991FAA1FBB1F0A94D2F7C80E96
:10077000D91EEA1EFB1E49815A816B817C818789C3
:10078000803129F088EF9FEFAFEFBFE004C088EF22
:100790009FEFA0E0B0E0481759076A077B0780F297
:1007A000F501C082D182E282F38281E00F900F9046
:1007B0000F900F90DF91CF911F910F91FF90EF90CD
:1007C000DF90CF90BF90AF907F906F905F904F90F1
:1007D0000895CF93DF931F92CDB7DEB741E050E08D
:1007E000BE016F5F7F4F0E944C0D019719F4898104
:1007F00090E002C08FEF9FEF0F90DF91CF910895AF
:10080000FC01818D928D009711F00C94E9038FEF1C
:100810009FEF08950F931F93CF93DF93FC01818D7A
:10082000928D0097B9F0EF010E94E9038C010F3F10
:100830008FEF180791F0898D9A8DFC0142855385C1
:100840006485758541505109610971090E94B60C92
:10085000C80105C080E090E002C08FEF9FEFDF91FC
:10086000CF911F910F9108958F929F92AF92BF9257
:10087000CF92DF92EF92FF920F931F93CF93DF936C
:10088000CDB7DEB7C657D1090FB6F894DEBF0FBE9D
:10089000CDBF8091A40290E02091A502821B910916
:1008A000029784F089EA95E00E940C01E091C1046E
:1008B000F091C2040190F081E02D682F81EC94E06A
:1008C0000995E7CF89EA95E00E940C018C016C0143
:1008D000990FEE08FF08F7FE2BC0E091C104F091DC
:1008E000C2040190F081E02D6DE281EC94E0099565
:1008F00022273327A9012C193D094E095F0919A2A6
:10090000CE0181967C017AE0872E912CA12CB12C0E
:10091000CA01B901A50194010E94AB18605DF701FD
:1009200062937F01211531054105510589F71AC0F0
:10093000A701960119A2CE0181967C016AE0862E5C
:10094000912CA12CB12CCA01B901A50194010E94DE
:10095000AB18605DF70162937F01211531054105F8
:10096000510589F7C7010E9407138FE691E00E94A5
:100970000713083C110509F062C30E94B6010E94EA
:10098000AA0181E080930E029091B7028091BE028D
:10099000981709F477C01092870180916F008E7DBF
:1009A00080936F000E94CD1481110E94C015809128
:1009B000800087FD1AC0809102018062809302014D
:1009C00010928100109280008091B7020E949C14C6
:1009D0008091B702863009F443C08E3209F444C0D6
:1009E000853009F043C081E03CC0209188003091FF
:1009F000890040E050E08091BC029091BD02481710
:100A00005907C8F637FD06C0B9018217930720F4CD
:100A1000BC0102C060E070E070938B0060938A00BC
:100A200037FD06C0B9018217930720F4BC0102C04C
:100A300060E070E07093890060938800C2976AE07C
:100A400070E0E0918400F0918500E817F907C8F3A1
:100A500061507109B1F74F5F5F4F21503109CBCF22
:100A600082E080930D0204C083E0FBCF10920D0260
:100A70008DB581608DBD8CB58C7F8CBD8091B702AA
:100A80008093BE021092870180916F008E7D8093CB
:100A90006F000E94CD1481110E94C0151C821B8220
:100AA00005E211E01A8309831E82CE0101960E949D
:100AB00019138B819C8123969FAF8EAF239721962C
:100AC0001FAF0EAF21978D8124968FAF24978E8113
:100AD00025968FAF25974F81588569857A85299608
:100AE0004CAF5DAF6EAF7FAF29974B855C856D8551
:100AF0007E852D964CAF5DAF6EAF7FAF2D974F8546
:100B0000588969897A8961964CAF5DAF6EAF7FAFC6
:100B100061979B8962969FAF62974C895D896E89C8
:100B20007F8966964CAF5DAF6EAF7FAF6697488D9D
:100B3000598D6A8D7B8D6A964CAF5DAF6EAF7FAF7E
:100B40006A972C8D3D8D6C963FAF2EAF6C971DA292
:100B50001CA21BA30AA31FA2811116C0A0961FAE40
:100B60001EAEA09788EE93E0A0E0B0E0A4968CAF14
:100B70009DAFAEAFBFAFA497E7961FAE1EAEE7978F
:100B8000A9961FAEA99751C042E751E0BE01615C32
:100B90007F4FCE0182960E94D9148823F9F2CE01AC
:100BA000CF960E94510E8CA19DA19C838B831A83AA
:100BB00009838EA18D838FA18E8388A599A5AAA56F
:100BC000BBA58F839887A987BA878CA59DA5AEA55D
:100BD000BFA58B879C87AD87BE8788A999A9AAA93D
:100BE000BBA98F87988BA98BBA8B8CA98B8B8DA96E
:100BF0009EA9AFA9B8AD8C8B9D8BAE8BBF8B89ADF9
:100C00009AADABADBCAD888F998FAA8FBB8F8DADE0
:100C10009EAD9D8F8C8F42E751E0BE016F5F7F4F8D
:100C2000CE01845A9F4F0E945001A0968EAD9FAD79
:100C3000A0979093B8058093B705A4968CAD9DAD11
:100C4000AEADBFADA4978093B9059093BA05A093BC
:100C5000BB05B093BC05A8968CAD9DADAEADBFAD48
:100C6000A8978093BD059093BE05A093BF05B09350
:100C7000C0058DE0ECE5F0E0EC0FFD1F3C96A1EC2B
:100C8000B5E001900D928A95E1F7E7968EAD9FADA4
:100C9000E7979093CF058093CE050E94CD148823CB
:100CA00009F421C168E070E080E090E00E94BB148C
:100CB00087E5898381E48A8386E58B8385E48C8359
:100CC0008E010F5F1F4F34E0F32EF00E85EB95E0A1
:100CD0000E940004F80121918F01022E000C330BB9
:100CE0008217930711F4FE12F1CF68E170E080E003
:100CF00090E00E94BB1485EB95E00E940004909365
:100D0000BB028093BA0285EB95E00E94000420E0CC
:100D100030E0382F8091BA029091BB02822B932B46
:100D20009093BB028093BA026CE270E080E090E0A6
:100D30000E94BB1480E490E0909389018093880125
:100D400081E08093870180910201982F9F77909393
:100D500002012091BA023091BB022B3F3F4A30F092
:100D600020EC3DE53093BB022093BA022091BA02F9
:100D70003091BB0240E050E086FF05C060E075E3C3
:100D80008CE090E004C060E07AE688E190E00E94A8
:100D9000CD186AE0629FC001639F900D112490936B
:100DA000BD028093BC0285EB95E00E9400048C019B
:100DB00085EB95E00E940A04800F911F97FD019634
:100DC0009595879540910E02209188003091890079
:100DD000141634F402C0369527954A95E2F709C0F7
:100DE000552741950CF4509502C0220F331F4A95A8
:100DF000E2F7992740E050E02817390708F046C08D
:100E0000B9016F5F7F4F6217730728F09B01861748
:100E1000970708F49C01FA01E557FE4F20834F5FC6
:100E20005F4F4034510561F740E050E0B9016F5F1A
:100E30007F4F6217730728F09B018617970708F406
:100E40009C01FA01E553FE4F20834F5F5F4F403412
:100E5000510561F710920C021092000110920101ED
:100E600010920B02F8948091BC029091BD02909375
:100E700087008093860082EB8093800089E18093D5
:100E8000810081E280936F0078942DC0B901615098
:100E900071096817790728F06217730718F49B0126
:100EA00001C09C01FA01E557FE4F20834F5F5F4F61
:100EB0004034510559F740E050E0B90161507109E3
:100EC0006817790728F06217730718F49B0101C0AF
:100ED0009C01FA01E553FE4F20834F5F5F4F403482
:100EE000510559F7B7CF68EC70E080E090E00E94C0
:100EF0001F1680E00E94CD0180E00E94BE016BE4DD
:100F000070E080E090E00E941F160E94B6010E94EF
:100F1000AA0168EC70E080E090E00E941F1680E07B
:100F20000E94CD0180E00E94BE0164E670E080E096
:100F300090E00E941F160E94B6010E94AA0166E975
:100F400070E080E090E00E941F1680E00E94CD01DA
:100F500080E00E94BE016BE470E080E090E00E94BF
:100F60001F160E94B6010E94AA016AEF70E080E09D
:100F700090E00E941F1680E00E94CD0180E00E9458
:100F8000BE0162E370E080E090E00E941F160E94C4
:100F9000B6010E94AA0168EC70E080E090E00E9437
:100FA0001F1680E00E94CD0180E00E94BE0164E631
:100FB00070E080E090E00E941F160E94B6010E943F
:100FC000AA016CE271E080E090E00E941F1680E0D0
:100FD0000E94CD0180E00E94BE0168EC70E080E0DC
:100FE00090E00E941F160E94B6010E94AA016AEFBB
:100FF00070E080E090E00E941F1680E00E94CD012A
:1010000080E00E94BE0162E370E080E090E00E9418
:101010001F160E94B6010E94AA0164EF71E080E0F1
:1010200090E00E941F1680E00E94BE016CEA7DE005
:1010300080E090E00E941F1680E00E94CD01CA5817
:10104000DF4F0FB6F894DEBF0FBECDBFDF91CF915B
:101050001F910F91FF90EF90DF90CF90BF90AF90D6
:101060009F908F9008951F920F920FB60F921124A8
:101070002F933F938F939F93EF93FF938091020160
:1010800086FD1CC020910E0227FF23C0E0910C02B8
:1010900080910B0290E4E99FF0011124E80FF11D0B
:1010A000E557FE4F808190E0332721950CF4309571
:1010B00002C0959587952A95E2F71EC090910F0280
:1010C00081E0892780930F0280910F028823D1F25B
:1010D00032C0E0910C0280910B0290E4E99FF00194
:1010E0001124E80FF11DE557FE4F808190E002C00A
:1010F000880F991F2A95E2F790938B0080938A00BE
:10110000909389008093880080910B028F5F809379
:101110000B0280910B02803470F010920B02E09170
:101120000C02F0E0E050FF4F81E0808390910C02D0
:10113000892780930C02FF91EF919F918F913F91AE
:101140002F910F900FBE0F901F9018951F920F9226
:101150000FB60F9211242F933F934F935F936F938A
:101160007F938F939F93AF93BF93EF93FF93E09100
:101170000C0281E0E827F0E0E050FF4F90819923D6
:1011800009F450C090910C02892780938A018091C4
:101190006F008F7D80936F00789485EB95E00E94BF
:1011A0008F00209188013091890128173907E8F0D4
:1011B0008091020183FF07C06CE270E080E090E064
:1011C0000E94BB142AC080916F008E7D80936F00B7
:1011D000E091CE05F091CF05309721F08581811106
:1011E0000E94C015109287011DC060918A0180E4A1
:1011F000689FB001112465577E4F8091CE05909174
:10120000CF05009721F040E450E00E944C0DE091A2
:101210008A01F0E0E050FF4F108280916F00806201
:1012200080936F00FF91EF91BF91AF919F918F914C
:101230007F916F915F914F913F912F910F900FBED2
:101240000F901F901895CF92DF92EF92FF920F931D
:101250001F93CF93DF936C017A018B01C0E0D0E044
:10126000CE15DF0589F0D8016D918D01D601ED9184
:10127000FC910190F081E02DC6010995892B11F4B4
:101280007E0102C02196ECCFC701DF91CF911F9163
:101290000F91FF90EF90DF90CF90089585ED8093B0
:1012A000BC008091BC0084FDFCCF1092A102089587
:1012B0001F920F920FB60F9211242F933F934F93CB
:1012C0005F936F937F938F939F93AF93BF93EF93AE
:1012D000FF938091B900887F803609F49CC068F53F
:1012E000883209F45BC090F4803109F454C038F4BA
:1012F000882309F4F6C0883009F44DC0F6C088315F
:1013000009F44CC0803209F45DC0EFC0803409F4A8
:1013100068C048F4803309F455C0883309F0E5C04B
:1013200080937B02D8C0803509F44FC0883509F41A
:101330005DC0883409F0D9C0D6C0883909F4C7C067
:10134000A8F4883709F467C038F4883609F463C014
:10135000803709F460C0C9C0883809F4B8C0803942
:1013600009F45FC0803809F0C0C05BC0803B09F45D
:1013700086C038F4803A09F466C0883A09F47FC020
:10138000B4C0803C09F4A7C0883C09F4A4C0883BE1
:1013900009F48AC0AAC080919E0210C090919D025B
:1013A00080919C02981770F5E0919D0281E08E0F6C
:1013B00080939D02F0E0E458FD4F80818093BB0054
:1013C00085EC86C080937B028EC0E0919D0281E017
:1013D0008E0F80939D028091BB00F0E0E458FD4F9A
:1013E000808390919D0280919C026EC0E0919D024D
:1013F00081E08E0F80939D028091BB00F0E0E45865
:10140000FD4F80838091A00281116DC081E08093A7
:101410009F0284EA61C083E08093A10210927A0265
:10142000CFCF80917A02803208F051C0E0917A02E9
:1014300081E08E0F80937A028091BB00F0E0E65A43
:10144000FD4F8083BDCF85EC8093BC001092A1023C
:1014500080917A02803230F4E0917A02F0E0E65A2C
:10146000FD4F108260917A0270E0E091A602F09147
:10147000A7028AE592E0099510927A0236C084E0CC
:101480008093A1021092590210925802E091A80292
:10149000F091A902099580915802811105C081E05F
:1014A0008093580210923802E091590281E08E0F29
:1014B00080935902F0E0E85CFD4F80818093BB008F
:1014C0009091590280915802981708F479CF85E8D5
:1014D0008093BC000AC085EC8093BC001092A102EE
:1014E00004C010927B020E944E09FF91EF91BF91C0
:1014F000AF919F918F917F916F915F914F913F91AC
:101500002F910F900FBE0F901F9018954091580289
:10151000262F30E0240F311D21323105DCF42091DB
:10152000A1022430C9F4FC0180E090E0861758F451
:10153000309158022191DC01A85CBD4FA30FB11D71
:101540002C930196F3CF80915802680F6093580254
:1015500080E0089581E0089582E008958FB7F894BF
:10156000809137028FBF089561E0FC0184810E9461
:10157000D3158091360281111092360208958EBDE6
:1015800000000DB407FEFDCF8EB508958FEF0C94CB
:10159000BF0A0F931F93CF93DF93EB010E940312B7
:1015A0008B010E94C60A8F3F49F00E940312601B04
:1015B000710B6C177D07A8F380E001C081E0DF911B
:1015C000CF911F910F910895CF93DF93EC018E81FE
:1015D000882389F08F8198859C012F5F3F4F388742
:1015E0002F838230924018F40E94C60AF3CFCE01B6
:1015F0000E94B40A1E82DF91CF9108958CBD9DBDDB
:101600000895CF93DF93EC0180913602811109C0D8
:1016100081E08093360280915E0590915F050E9483
:10162000FE0A60E08C81DF91CF910C94D315CF92AC
:10163000DF92FF920F931F93CF93DF9300D000D0E0
:10164000CDB7DEB76C01F62E29833A834B835C83DA
:101650000E94E40AC6010E94010B6CE271E0C6011F
:101660000E94C90A8F2D80640E94BF0A08E110E021
:101670005C814B813A812981DA01C901002E04C0C5
:10168000B695A795979587950A94D2F729833A83BB
:101690004B835C830E94BF0A0850110929813A815B
:1016A0004B815C81083F8FEF180731F7FF2029F04D
:1016B000E8E0FE1204C087E803C085E901C08FEFAF
:1016C0000E94BF0A10E00E94C60AF601828787FFC7
:1016D00004C01F3F11F01F5FF6CF0F900F900F90C7
:1016E0000F90DF91CF911F910F91FF90DF90CF90DE
:1016F0000895AF92BF92CF92DF92EF92FF920F9335
:101700001F93CF93DF93EC016901C801820F931FF0
:101710008130924008F070C08E81882371F08881FA
:101720009981AA81BB81481759076A077B0729F469
:101730008F819885C816D906B0F5488359836A8386
:101740007B838B85833039F089E0440F551F661FFA
:10175000771F8A95D1F79A01AB0161E1CE010E9412
:10176000170B882319F083E08D8346C00E94031273
:101770005B010E94C60A8A878F3F49F40E940312C8
:101780006A197B096D327140A0F38FE003C08E3F70
:1017900031F08DE08D83CE010E94B40A2DC01886F1
:1017A0001F8281E08E838F8198858C159D0540F482
:1017B0000E94C60A8F819885019698878F83F3CF00
:1017C0006701E00EF11ECE14DF0431F00E94C60A5C
:1017D000F60181936F01F7CF8F819885080F191F4C
:1017E00018870F838985882319F00115124048F066
:1017F000CE010E94E40A05C0CE010E94B40A80E036
:1018000001C081E0DF91CF911F910F91FF90EF9088
:10181000DF90CF90BF90AF900895EF92FF920F931B
:101820001F93CF93DF93EC017901411551056105B9
:10183000710511F482E13CC08B85833039F089E079
:10184000440F551F661F771F8A95D1F79A01AB0188
:1018500068E1CE010E94170B882311F084E028C0B4
:101860008EEF0E94BF0A87018EEFF81AF80181916E
:101870008F010E94BF0A0E151F05C1F78FEF0E944E
:10188000BF0A8FEF0E94BF0A0E94C60A8A878F7123
:10189000853031F081E18D83CE010E94B40A09C008
:1018A00068E572E0CE010E94C90A811107C085E196
:1018B0008D83CE010E94B40A80E013C020E030E0A6
:1018C000A9016DE0CE010E94170B811104C00E9496
:1018D000C60A882311F084E1EBCFCE010E94B40A3E
:1018E00081E0DF91CF911F910F91FF90EF900895CC
:1018F000CF93DF93EC018D818823A1F18C8187FF49
:101900002DC06E857F858889998941E00E941302E8
:10191000882341F1EA8980E2E89FF0011124DF0188
:10192000A154BD4F1097F1F08D81823050F44B8956
:101930005C896D897E895C964D935D936D937C93F4
:101940005F978F89988DA98DBA8DE154FD4F938F44
:10195000828FB58BA48B8C818F778C83DF91CF9115
:101960000C94D80180E0DF91CF9108958F929F92DF
:10197000AF92BF92CF92DF92EF92FF920F931F939D
:10198000CF93DF93EC018D81811102C080E077C09D
:101990000B891C892D893E890417150726073707EF
:1019A000A8F36A017B01823029F4CA86DB86EC86C3
:1019B000FD860DC0C114D104E104F10451F41E826E
:1019C0001F82188619861A861B861C861D8681E052
:1019D00056C08A849B84AC84BD84EB8DFC8D2585A8
:1019E00030E0275F3F4FB501A40141505109610923
:1019F0007109022E04C076956795579547950A940C
:101A0000D2F7D701C6010197A109B10904C0B69563
:101A1000A795979587952A95D2F784179507A607D6
:101A2000B70720F089288A288B2849F44F89588DD8
:101A3000698D7A8D4E835F836887798704C0841BA4
:101A4000950BA60BB70B4C015D018E010A5F1F4F72
:101A500081149104A104B10409F4A7CF4E815F81E0
:101A60006885798598018B8D9C8D0E94FC0291E0A0
:101A7000891A9108A108B1088111EACF87CFDF91B7
:101A8000CF911F910F91FF90EF90DF90CF90BF907B
:101A9000AF909F908F9008952F923F924F925F92B8
:101AA0006F927F928F929F92AF92BF92CF92DF926E
:101AB000EF92FF920F931F93CF93DF93EC016B0193
:101AC0004A018D81811103C08FEF9FEFD7C08C81B8
:101AD00080FFFACF4B885C886D887E884A855B855D
:101AE0006C857D85C401A0E0B0E093018201041BF8
:101AF000150B260B370B081719072A073B0718F495
:101B00004201841A950A54011E0126E0220E311C5E
:101B1000A114B10409F47EC04A855B856C857D857E
:101B20002A0181E05822ED818A019B0189E03695E6
:101B30002795179507958A95D1F78B8D9C8DE23067
:101B400061F4FC01828D938DA48DB58DBC01CD0116
:101B5000600F711F821F931F3FC0FC0174807A9435
:101B6000702241145104C9F4711017C0452B462B43
:101B7000472B49F48F89988DA98DBA8D8E839F83C9
:101B8000A887B9870AC04E815F81688579859101F0
:101B90000E94FC02882309F497CFEB8DFC8D8E8187
:101BA0009F81A885B9850297A109B109058404C060
:101BB000880F991FAA1FBB1F0A94D2F74685578525
:101BC00060897189840F951FA61FB71FBC01CD01C5
:101BD000670D711D811D911D20E032E0241935092A
:101BE00035012A153B0508F439012C8126FD04C076
:101BF0006114F2E07F0681F4009103011091040169
:101C00002091050130910601601771078207930743
:101C1000B1F402C0C40132C040E00E941302882324
:101C200009F452CFF201E154FD4FD601CF01860DE8
:101C3000971DE817F90789F021912D93FACF7601C6
:101C400083019201AB01BC018091BF049091C0045B
:101C50000E94790B882309F437CFC60CD71C8A85DC
:101C60009B85AC85BD85860D971DA11DB11D8A87FD
:101C70009B87AC87BD87A618B7084ACFDF91CF9165
:101C80001F910F91FF90EF90DF90CF90BF90AF909A
:101C90009F908F907F906F905F904F903F902F908C
:101CA0000895CF93DF93EC010E94780C882311F004
:101CB0001D8281E0DF91CF9108953F924F925F9214
:101CC0006F927F928F929F92AF92BF92CF92DF924C
:101CD000EF92FF920F931F93CF93DF93CDB7DEB7B1
:101CE0002C970FB6F894DEBF0FBECDBF5C01DC01B0
:101CF0005B968D909C905C971696CD90DD90ED90C4
:101D0000FC901997C114D104E104F10439F0BFEF3C
:101D1000CB1ADB0AEB0AFB0A312C07C0F401C080A6
:101D2000D180E280F38033243394F401818592855D
:101D3000A385B4859C01AD012F5F3F4F4F4F5F4F8F
:101D400029873A874B875C87260137011D821E82CF
:101D50001F821886F40181859285A385B4852D8123
:101D60003E814F815885281739074A075B0708F0DD
:101D700063C089859A85AB85BC858C159D05AE05AC
:101D8000BF0550F482E0C82ED12CE12CF12C92E05A
:101D9000492E512C612C712C9E012F5F3F4FB701B2
:101DA000A601C4010E94FC02882309F445C0898170
:101DB0009A81AB81BC81892B8A2B8B2B41F0260128
:101DC00037019FEF491A590A690A790A05C0C414F4
:101DD000D504E604F70491F02D813E814F815885AA
:101DE0002F5F3F4F4F4F5F4F2D833E834F83588769
:101DF0003FEFC31AD30AE30AF30AACCF0FEF1FEF8A
:101E00002FEF3FE0B301A201C4010E945C028823CE
:101E100099F0D50116964D915D916D917C91199730
:101E2000411551056105710549F093018201C40115
:101E30000E945C02811102C080E02AC0D501169682
:101E40004D925D926D927C921997332051F0D3019F
:101E5000C2010196A11DB11DF40180839183A2836B
:101E6000B383F5018789908DA18DB28D892B8A2B43
:101E70008B2B69F4D50157964D925D926D927C92B1
:101E80005A9714968C911497806814968C9381E0DD
:101E90002C960FB6F894DEBF0FBECDBFDF91CF9169
:101EA0001F910F91FF90EF90DF90CF90BF90AF9078
:101EB0009F908F907F906F905F904F903F9008958C
:101EC0002F923F924F925F926F927F928F929F924A
:101ED000AF92BF92CF92DF92EF92FF920F931F9338
:101EE000CF93DF9300D000D0CDB7DEB78C015B017C
:101EF0001A01DC0115968C9115978130C9F414965E
:101F00008C9181FF15C082FF1BC0F8014389548961
:101F10006589768982859385A485B585841795071B
:101F2000A607B70769F0C8010E94B60C811108C066
:101F300081E090E0F8019383828380E090E039C1F2
:101F4000610183C0D8015B968D919C915C97FC01E7
:101F5000248121502A013B0139E0769467945794FB
:101F600047943A95D1F7722E74207A01F1E0FF225E
:101F7000772009F476C080E092E08E199F0946012F
:101F80008C159D0508F44C01D8015B962D913C9170
:101F90005C9716968D919D910D90BC91A02D029706
:101FA000A109B109F901058404C0880F991FAA1F6E
:101FB000BB1F0A94D2F74685578560897189840FC3
:101FC000951FA61FB71F9C01AD01270D311D411D97
:101FD000511D29013A01811432E0930609F088C0AD
:101FE0008091030190910401A0910501B091060137
:101FF00084159505A605B70559F48FEF9FEFDC0111
:102000008093030190930401A0930501B09306010E
:102010009501B301A2018091BF049091C0040E9478
:102020000D0C882309F484CF9EEFB91AC818D9087B
:10203000F80182859385A485B585880D991DA11D1C
:10204000B11D82879387A487B587D8011A964D91D1
:102050005D916D917C911D97C114D10409F072CFEF
:1020600087C0E114F10409F086CF16964D915D9179
:102070006D917C911997411551056105710559F4D0
:1020800057968D919D910D90BC91A02D0097A10523
:10209000B10541F521C09E012F5F3F4F0E94FC0218
:1020A000882309F44BCF89819A81AB81BC81F801E7
:1020B000238D348DF9012789203129F048EF5FEF16
:1020C0006FEF7FE004C048EF5FEF60E070E08417DF
:1020D0009507A607B70730F0C8010E945D0E811171
:1020E0004ACF26CFF80186839783A087B18743CF55
:1020F000E114F10429F5D8011A964D915D916D9185
:102100007C911D9753968D919D910D90BC91A02D22
:10211000481759076A077B0798F00E94D80188235F
:1021200009F406CF40920301509204016092050128
:10213000709206018091B60281608093B60208C059
:1021400041E0C301B2010E941302882309F4F0CEDA
:10215000D501F701E154FD4FCF01880D991DE81716
:10216000F90719F02D912193FACFA80CB91C5ECF75
:1021700053968D919D910D90BC91A02D841795073C
:10218000A607B70740F4F801438B548B658B768B19
:10219000848180688483D80114968C9183FD02C069
:1021A000C10107C0C8010E94780C882309F4C0CE81
:1021B000F7CF0F900F900F900F90DF91CF911F915D
:1021C0000F91FF90EF90DF90CF90BF90AF909F90D6
:1021D0008F907F906F905F904F903F902F900895D9
:1021E000CF93DF931F92CDB7DEB7698341E050E014
:1021F000BE016F5F7F4F0E94600F0F90DF91CF9104
:102200000895FC01538D448D252F30E0842F90E0FC
:10221000821B930B541710F0CF96089501970895E1
:10222000FC01918D828D981761F0828DDF01A80FDE
:10223000B11D5D968C91928D9F5F9F73928F90E000
:1022400008958FEF9FEF0895FC01918D828D98176F
:1022500031F0828DE80FF11D858D90E008958FEFAC
:102260009FEF0895FC01918D228D892F90E0805C75
:102270009F4F821B91098F739927089581EC94E0F9
:102280000E94321121E0892B09F420E0822F089569
:10229000FC01848DDF01A80FB11DA35ABF4F2C9103
:1022A000848D90E001968F739927848FA689B789D2
:1022B0002C93A089B1898C9180648C93938D848DAB
:1022C000981306C00288F389E02D80818F7D80837A
:1022D0000895EF92FF920F931F93CF93DF93EC013A
:1022E00081E0888F9B8D8C8D981305C0E889F989D2
:1022F000808185FD24C0F62E0B8D10E00F5F1F4FEF
:102300000F731127E02E8C8DE8120CC00FB607FC5E
:10231000FACFE889F989808185FFF5CFCE010E9447
:102320004811F1CF8B8DFE01E80FF11DE35AFF4FED
:10233000F0820B8FEA89FB898081806207C0EE8979
:10234000FF896083E889F98980818064808381E0E6
:1023500090E0DF91CF911F910F91FF90EF90089542
:10236000CF93DF93EC01888D8823C9F0EA89FB893C
:10237000808185FD05C0A889B9898C9186FD0FC033
:102380000FB607FCF5CF808185FFF2CFA889B98908
:102390008C9185FFEDCFCE010E944811E7CFDF91F0
:1023A000CF91089580E090E0892B29F00E943E11A2
:1023B00081110C94000008950E94391A3FB7F894D7
:1023C0008091B2029091B302A091B402B091B50293
:1023D00026B5A89B05C02F3F19F00196A11DB11D80
:1023E0003FBFBA2FA92F982F8827820F911DA11DBB
:1023F000B11DBC01CD0142E0660F771F881F991FF8
:102400004A95D1F708952FB7F8946091AE02709174
:10241000AF028091B0029091B1022FBF08951F9238
:102420000F920FB60F9211242F933F938F939F9388
:10243000AF93BF938091AE029091AF02A091B00292
:10244000B091B1023091AD0223E0230F2D3720F47B
:102450000196A11DB11D05C026E8230F0296A11DFE
:10246000B11D2093AD028093AE029093AF02A09372
:10247000B002B093B1028091B2029091B302A091E8
:10248000B402B091B5020196A11DB11D8093B202B4
:102490009093B302A093B402B093B502BF91AF91F1
:1024A0009F918F913F912F910F900FBE0F901F9092
:1024B00018951F920F920FB60F9211242F933F93EE
:1024C0004F935F936F937F938F939F93AF93BF933C
:1024D000EF93FF9381EC94E00E944811FF91EF91FC
:1024E000BF91AF919F918F917F916F915F914F912C
:1024F0003F912F910F900FBE0F901F9018951F9234
:102500000F920FB60F9211242F938F939F93EF93F7
:10251000FF93E091D104F091D2048081E091D7043F
:10252000F091D80482FD12C090818091DA048F5F0F
:102530008F732091DB04821751F0E091DA04F0E010
:10254000EF53FB4F958F8093DA0401C08081FF9198
:10255000EF919F918F912F910F900FBE0F901F9031
:102560001895CF93DF93EC016A8B809103019091D2
:102570000401A0910501B09106018E879F87A88B69
:10258000B98B80E2689FF0011124E154FD4F44892A
:10259000558960E070E0BA01552744274F8B588F6A
:1025A000698F7A8F828D938DA0E0B0E0482B592BF4
:1025B0006A2B7B2B4F8B588F698F7A8F838588711D
:1025C00051F4848D958DA68DB78D8B8B9C8BAD8BA7
:1025D000BE8B81E00EC0803111F080E015C09E01FD
:1025E0002D5E3F4F8B8D9C8D0E9480038823A9F325
:1025F00084E08D8381E08C831E821F821886198679
:102600001A861B861C861D86DF91CF910895009740
:1026100069F0FC0101900020E9F73197AF01481BF8
:10262000590BBC0181EC94E00C94230980E090E00C
:102630000895CF93DF93FC012581222311F080E0E0
:1026400049C0EC01809183058031C1F482E085832B
:10265000178A108E118E128E8091840590918505B7
:10266000A0E0B0E025E0880F991FAA1FBB1F2A95A4
:10267000D1F7838B948BA58BB68B19C08032F9F67A
:1026800083E0858340918605509187056091880598
:1026900070918905478B508F618F728F9F012D5EDE
:1026A0003F4F8CE695E00E948003882341F28CE640
:1026B00095E09C8F8B8F81E08C831E821F82188611
:1026C00019861A861B861C861D861E861F86188AFA
:1026D000198A1A8ADF91CF9108958F929F92AF92B3
:1026E000BF92CF92DF92EF92FF92CF93DF93C82FEA
:1026F00080E695E09093C0048093BF04CC2369F1F9
:10270000C53010F080E00DC140E060E070E0CB012A
:102710000E9413028823B1F320E1C29FC00111245B
:1027200081559D4FFC01E254FE4F20812F7751F7D8
:102730003C96408151816281738144365105610527
:10274000710500F33497C080D180E280F380C1141A
:10275000D104E104F10421F4D5CFC12CD12C7601B0
:1027600040E0C701B6010E941302882359F280910C
:10277000CA029091CB028115924021F6A091CF021E
:10278000AA2309F4BFCF6091CD027091CE026115EA
:10279000710509F4B7CF2091CC02222309F4B2CFFE
:1027A000A0937E052093700580E030E0E1E0F0E04A
:1027B000C82FAF01082E02C0440F551F0A94E2F73C
:1027C0002417350741F0982F8F5F983089F789E0FB
:1027D0008093790597CF809379052091D502309128
:1027E000D6022115310519F040E050E008C02091D3
:1027F000E3023091E4024091E5025091E602209319
:10280000710530937205409373055093740546012A
:102810005701860E971EA11CB11C80927F059092D5
:102820008005A0928105B0928205E091D002F091DE
:10283000D102F0938505E0938405B0E00E94EC1886
:10284000860E971EA81EB91E809286059092870557
:10285000A0928805B092890585E0EE0FFF1F8A954A
:10286000E1F7E150FE4FEF2FFF27E6958E0E9F1EFA
:10287000A11CB11C80927A0590927B05A0927C05E8
:10288000B0927D052091D2023091D30221153105FD
:1028900021F0A90160E070E008C04091DF02509192
:1028A000E0026091E1027091E202D701C60188194D
:1028B0009909AA09BB09840F951FA61FB71F04C059
:1028C000B695A79597958795CA95D2F78093750584
:1028D00090937605A0937705B0937805853F2FE018
:1028E0009207A105B10510F48CE018C0853F9F4FF9
:1028F000A105B10510F480E111C08091EB02909127
:10290000EC02A091ED02B091EE02809386059093C7
:102910008705A0938805B093890580E2809383059D
:1029200081E0DF91CF91FF90EF90DF90CF90BF904B
:10293000AF909F908F90089590E0FC01EC54FF4F72
:102940002491FC01E056FF4F8491882399F090E098
:10295000880F991FFC01EA56FF4FA591B491FC0125
:10296000E457FF4F859194918FB7F894EC91E22B47
:10297000EC938FBF08952091CE053091CF0521159E
:10298000310541F0AB01BC01C9010E94B60C91E0D8
:10299000811101C090E0892F0895E091CE05F0915A
:1029A000CF05309729F08581882311F081E00895C3
:1029B0000895AF92BF92CF92DF92EF92FF920F9362
:1029C0001F93CF93DF93CDB7DEB72B970FB6F89455
:1029D000DEBF0FBECDBF7C01CE0101966C01FC01B4
:1029E00090E28BE08C0D91938E13FDCFDA0120E005
:1029F00037E09D91992339F19E3219F0ECE7F0E030
:102A00000AC03A3009F4AAC028E03AE0F2CF319681
:102A1000891709F4A3C084918111F9CF321708F402
:102A20009DC08FED890F8E3508F098C081E0820F30
:102A3000F601E20FF11D2FE9290F2A3108F4905217
:102A40009083282FD6CF8981803209F487C08B01EB
:102A5000FB01838D948DF701948F838FFB01168288
:102A60001782108611861286138614861586A12C6D
:102A7000F80182859385A485B58543895489658944
:102A8000768984179507A607B70708F067C025E081
:102A9000B695A795979587952A95D1F7F82FFF704A
:102AA000BF2EF8018581823008F458C0C8010E9409
:102AB000E90397FD53C0F80182859385A485B58508
:102AC0004F96A11DB11D82879387A487B587F0E239
:102AD000BF9EC0011124BC0161547D4F6115710579
:102AE000E9F1FB0120812223B9F1253EE1F04BE021
:102AF00050E0C6010E943E1A892B09F0B9CF6B2D18
:102B0000C7012B960FB6F894DEBF0FBECDBFDF9185
:102B1000CF911F910F91FF90EF90DF90CF90BF90DA
:102B2000AF900C94B112A11014C0F701B28A409179
:102B300003015091040160910501709106014687DF
:102B40005787608B718BFC01E154FD4F8081882396
:102B500029F0AA24A3948CCFAA2039F380E02B96E5
:102B60000FB6F894DEBF0FBECDBFDF91CF911F919E
:102B70000F91FF90EF90DF90CF90BF90AF900895AE
:102B80008091CE059091CF05009761F00E94510E83
:102B90008091CE059091CF050E94A1191092CF058A
:102BA0001092CE05089590E0FC01E859FF4F349152
:102BB000FC01EC54FF4F2491FC01E056FF4FE491DF
:102BC000EE2309F43BC0332339F1333091F038F46C
:102BD0003130A9F0323001F584B58F7D12C0373025
:102BE00091F03830A1F03430B9F4809180008F7DBD
:102BF00003C0809180008F77809380000DC084B5E2
:102C00008F7784BD09C08091B0008F7703C0809119
:102C1000B0008F7D8093B000F0E0EE0FFF1FE4570F
:102C2000FF4FA591B4918FB7F894EC91611103C057
:102C300020952E2301C02E2B2C938FBF08958F92A9
:102C40009F92AF92BF92CF92DF92EF92FF926B0171
:102C50007C010E94DE114B015C01C114D104E1042E
:102C6000F104F1F00E94DE11DC01CB018819990911
:102C7000AA09BB09883E9340A105B10570F321E084
:102C8000C21AD108E108F10888EE880E83E0981E88
:102C9000A11CB11CC114D104E104F10419F7DDCF6A
:102CA000FF90EF90DF90CF90BF90AF909F908F906C
:102CB0000895789484B5826084BD84B5816084BDB4
:102CC00085B5826085BD85B5816085BD80916E00CA
:102CD000816080936E0010928100809181008260FB
:102CE0008093810080918100816080938100809138
:102CF00080008160809380008091B1008460809327
:102D0000B1008091B00081608093B00080917A0022
:102D1000846080937A0080917A00826080937A0048
:102D200080917A00816080937A0080917A00806837
:102D300080937A001092C10084E00E949C1485E088
:102D40000E949C1486E00E949C1487E00E949C14C0
:102D50008EE00E949C1481E10E949C1461E084E05A
:102D60000E94D31561E085E00E94D31561E086E002
:102D70000E94D31561E087E00E94D31560E08EE0E9
:102D80000E94D31560E081E10E94D31589E0809311
:102D9000B70280E18093BA0086EC90E09093A9029C
:102DA0008093A80282ED90E09093A7028093A60200
:102DB0001092A5021092A4021092A3021092A202F5
:102DC0001092A10281E08093A00210929F0261E024
:102DD00082E10E94D31561E083E10E94D3158091C6
:102DE000B9008E7F8093B9008091B9008D7F809368
:102DF000B90088E48093B80085E48093BC0084E344
:102E000094E09093AB028093AA02E091D104F091F8
:102E1000D20482E08083E091CD04F091CE04108250
:102E2000E091CF04F091D0048FEC80831092D9040C
:102E3000E091D504F091D60486E08083E091D3043C
:102E4000F091D404808180618083E091D304F0917B
:102E5000D404808188608083E091D304F091D4040D
:102E6000808180688083E091D304F091D4048081D4
:102E70008F7D808380918F05882321F08AE895E0FB
:102E80000E94510E10926B05109269051092660512
:102E90001092650588E0809364050E940312EB019F
:102EA000809164050E949C1461E0809164050E94F9
:102EB000D3151FB7F8948091AC02811124C0EAEABF
:102EC000F0E08491EEEBF0E09491E82FF0E0EE0F6B
:102ED000FF1FEA56FF4FA591B491EC91E92321F42D
:102EE00061E08AE00E94D3158AE00E949C148CB5B0
:102EF00080618CBD8CB580648CBD8DE00E949C147B
:102F00008BE00E949C148091AC028F5F8093AC0296
:102F10001FBF82E580935E0510925F0580915E057C
:102F200090915F050E94FE0A1AE08FEF0E94BF0A8F
:102F30001150D9F780E695E00E94010B20E030E0C7
:102F4000A90160E080E695E00E94170B182F80939E
:102F50006A05813049F00E9403126C1B7D0B613DB4
:102F6000774060F381E054C02AEA31E040E050E06D
:102F700068E080E695E00E94170B82FF03C0109383
:102F80006B050EC014E00E94C60A80936A051150BA
:102F9000D1F78A3A11F082E03BC082E080936B0562
:102FA00080916B05823021F0C12CD12C760105C0B7
:102FB000C12CD12CE12C80E4F82E20E030E0A901D6
:102FC00067E380E695E00E94170BA701960169E28E
:102FD00080E695E00E94170B80936A05882349F0EC
:102FE0000E9403126C1B7D0B613D774030F388E03B
:102FF0000FC080916B05823001F520E030E0A9011F
:103000006AE380E695E00E94170B882341F086E092
:103010008093650580E695E00E94B40A28C00E946E
:10302000C60A807C803C19F483E080936B050E9483
:10303000C60A0E94C60A0E94C60A80E695E00E945F
:10304000B40A80E580935E0510925F0581E00E94DE
:103050006D13882339F08AE895E00E9419138823BC
:1030600031F00DC080E00E946D138111F4CF8EE726
:1030700091E00E9407138FE691E00E94071364E637
:1030800070E080E090E00E941F160E94D211F7CFFE
:10309000E1ECF4E01382128288EE93E0A0E0B0E06D
:1030A00084839583A683B78323E131E03183208332
:1030B00025EC30E03587248724EC30E037872687FD
:1030C00020EC30E0318B208B21EC30E0338B228BF5
:1030D00022EC30E0358B248B26EC30E0378B268BCE
:1030E000118E128E138E148EEEE5F5E020E520830E
:1030F0001182E0E6F5E0158216821186138642E021
:1031000050E060E070E0448755876687778713A2B8
:1031100015A614A625E231E033A722A717A6E9EAEF
:10312000F5E01382128284839583A683B78321E31B
:1031300031E031832083E5EBF5E013821282848352
:103140009583A683B78383E491E091838083128E75
:10315000118E14860895A1E21A2EAA1BBB1BFD0135
:103160000DC0AA1FBB1FEE1FFF1FA217B307E40766
:10317000F50720F0A21BB30BE40BF50B661F771FBE
:10318000881F991F1A9469F760957095809590959E
:103190009B01AC01BD01CF010895052E97FB1EF4E4
:1031A00000940E94E41857FD07D00E94AB1807FC5A
:1031B00003D04EF40C94E418509540953095219529
:1031C0003F4F4F4F5F4F0895909580957095619553
:1031D0007F4F8F4F9F4F08950E94FD18A59F900D20
:1031E000B49F900DA49F800D911D11240895EE0FA2
:1031F000FF1F0590F491E02D0994A29FB001B39FA9
:10320000C001A39F700D811D1124911DB29F700DEF
:10321000811D1124911D0895CF93DF938230910574
:1032200010F482E090E0E091D205F091D30520E027
:1032300030E0C0E0D0E0309711F140815181481773
:103240005907C0F04817590761F48281938120978C
:1032500019F09B838A832BC09093D3058093D2056A
:1032600026C02115310519F04217530718F49A01A9
:10327000BE01DF01EF010280F381E02DDCCF2115DB
:10328000310509F1281B390B2430310590F41296D1
:103290008D919C9113976115710521F0FB0193832A
:1032A000828304C09093D3058093D205FD013296AA
:1032B00044C0FD01E20FF31F819391932250310925
:1032C0002D933C933AC02091D0053091D105232B0A
:1032D00041F42091090130910A013093D1052093E6
:1032E000D00520910701309108012115310541F4E5
:1032F0002DB73EB740910B0150910C01241B350BAB
:10330000E091D005F091D105E217F307A0F42E1B50
:103310003F0B2817390778F0AC014E5F5F4F241739
:10332000350748F04E0F5F1F5093D1054093D005ED
:103330008193919302C0E0E0F0E0CF01DF91CF9163
:1033400008950F931F93CF93DF93009709F48CC0D8
:10335000FC013297138212820091D2051091D3059D
:103360000115110581F420813181820F931F209175
:10337000D0053091D1052817390779F5F093D1059B
:10338000E093D00571C0D80140E050E0AE17BF0710
:1033900050F412962D913C911397AD0121153105F2
:1033A00009F1D901F3CF9D01DA01338322836081D2
:1033B0007181860F971F8217930769F4EC012881AA
:1033C0003981260F371F2E5F3F4F318320838A813B
:1033D0009B8193838283452B29F4F093D305E0935B
:1033E000D20542C01396FC93EE931297ED014991DA
:1033F00059919E01240F351FE217F30771F4808164
:103400009181840F951F029611969C938E938281D1
:10341000938113969C938E931297E0E0F0E0D8018D
:1034200012968D919C911397009719F0F8018C01D9
:10343000F6CF8D919C9198012E5F3F4F820F931F85
:103440002091D0053091D1052817390769F43097BC
:1034500029F41092D3051092D20502C01382128271
:103460001093D1050093D005DF91CF911F910F915B
:10347000089581E090E0F8940C945A1AFB01DC0165
:1034800004C08D910190801921F441505040C8F73B
:10349000881B990B0895FB01DC014150504048F016
:1034A00001900D920020C9F701C01D92415050407B
:0834B000E0F70895F894FFCF46
:1034B800010160FFFFFFFF0000D40580000000004D
:1034C800000000691123090111B0113211101124F3
:1034D8001100000000F01023092901280100000054
:1034E80000990185012901FC0020010C01FD000063
:1034F800000000B000340129012C018F0000040AEB
:103508000400000000DC11230929012801DC11DC7A
:1035180011DC1100000000DC112309290128010D2C
:103528000A007468756E6465722E7761760053447C
:06353800206661696C00D1
:00000001FF
