:100000000C94DE000C9406010C9406010C9406017D
:100010000C9406010C9406010C9406010C94060144
:100020000C9406010C9406010C9406010C94060134
:100030000C9406010C9406010C9406010C94060124
:100040000C9400040C9406010C9470040C944A0463
:100050000C9406010C9406010C9406010C94060104
:100060000C9406010C9406010000000023002600F9
:10007000290000000008000201000003040700003E
:1000800000000000000000000000250028002B00F8
:1000900000000000240027002A00040404040404D3
:1000A0000404020202020202030303030303010227
:1000B00004081020408001020408102001020408F6
:1000C0001020556E6B6E6F776E206572726F7200C6
:1000D00041204D49464152452050494343207265D5
:1000E00073706F6E6465642077697468204E414B4D
:1000F0002E00546865204352435F4120646F65734E
:10010000206E6F74206D617463682E00496E766195
:100110006C696420617267756D656E742E00496E3E
:100120007465726E616C206572726F7220696E20E8
:1001300074686520636F64652E2053686F756C6406
:10014000206E6F742068617070656E2E00412062B1
:100150007566666572206973206E6F7420626967C8
:1001600020656E6F7567682E0054696D656F7574D4
:1001700020696E20636F6D6D756E69636174696F60
:100180006E2E00436F6C6C697373696F6E206465CB
:100190007465637465642E004572726F7220696EB7
:1001A00020636F6D6D756E69636174696F6E2E008B
:1001B000537563636573732E0000A30911241FBE7A
:1001C000CFEFD8E0DEBFCDBF12E0A0E0B1E0E8E1C4
:1001D000F8E102C005900D92A630B107D9F722E0F0
:1001E000A6E0B2E001C01D92A73EB207E1F710E021
:1001F000CEEDD0E004C02197FE010E94F60BCD3D6C
:10020000D107C9F70E94DA090C940A0C0C9400007B
:1002100090E0FC01E255FF4F2491FC01E656FF4FB0
:100220008491882399F090E0880F991FFC01E05792
:10023000FF4FA591B491FC01EA57FF4F859194912E
:100240008FB7F894EC91E22BEC938FBF0895833035
:1002500081F028F4813099F08230A1F00895873040
:10026000A9F08830B9F08430D1F4809180008F7D7E
:1002700003C0809180008F7780938000089584B5BB
:100280008F7702C084B58F7D84BD08958091B000C2
:100290008F7703C08091B0008F7D8093B000089568
:1002A0003FB7F8948091E3029091E402A091E502B7
:1002B000B091E60226B5A89B05C02F3F19F0019624
:1002C000A11DB11D3FBFBA2FA92F982F8827820FDC
:1002D000911DA11DB11DBC01CD0142E0660F771F2C
:1002E000881F991F4A95D1F708958F929F92AF92D8
:1002F000BF92CF92DF92EF92FF926B017C010E943E
:1003000050014B015C01C114D104E104F104F1F08E
:100310000E945001DC01CB0188199909AA09BB0987
:10032000883E9340A105B10570F321E0C21AD108BF
:10033000E108F10888EE880E83E0981EA11CB11C2C
:10034000C114D104E104F10419F7DDCFFF90EF905F
:10035000DF90CF90BF90AF909F908F9008958CE0EA
:1003600092E00E94D30421E0892B09F420E0822F3F
:1003700008958F92AF92BF92CF92DF92EF92FF9249
:100380000F93CF93DF93CDB7DEB764970FB6F89492
:10039000DEBF0FBECDBF062FE62EF12CA701BC019C
:1003A000CE0101960E94010C21E030E02C0F3D1F90
:1003B0002E0D3F1D402FBE016F5F7F4F89EA92E0F7
:1003C0000E94C705811125C082E18C8B1B8A0E5FBC
:1003D0001F92812CCE0143965C0101966C014397DC
:1003E0007C019C0140E36CE089EA92E00E941306E4
:1003F0000F9081110EC08C89813051F48B8984302B
:1004000039F481E099819A3009F480E0819501C046
:1004100081E064960FB6F894DEBF0FBECDBFDF91CA
:10042000CF910F91FF90EF90DF90CF90BF90AF9062
:100430008F900895EF92FF920F931F93CF93DF93C6
:10044000EC0181E0888F9B8D8C8D981305C0E88925
:10045000F989808185FD24C0F62E0B8D10E00F5F99
:100460001F4F0F731127E02E8C8DE8120CC00FB6B2
:1004700007FCFACFE889F989808185FFF5CFCE01A5
:100480000E942805F1CF8B8DFE01E80FF11DE35A84
:10049000FF4FF0820B8FEA89FB898081806207C061
:1004A000EE89FF896083E889F9898081806480838F
:1004B00081E090E0DF91CF911F910F91FF90EF903D
:1004C0000895CF93DF93EC01888D8823C9F0EA89E2
:1004D000FB89808185FD05C0A889B9898C9186FD3D
:1004E0000FC00FB607FCF5CF808185FFF2CFA8893A
:1004F000B9898C9185FFEDCFCE010E942805E7CF09
:10050000DF91CF910895009769F0FC0101900020E0
:10051000E9F73197AF01481B590BBC018CE092E021
:100520000C94E90480E090E008958F929F92AF923E
:10053000BF92CF92DF92EF92FF920F931F93CF93D0
:10054000DF93CDB7DEB7A1970FB6F894DEBF0FBE2D
:10055000CDBF6C01990FEE08FF08F7FE31C0E091A6
:100560000C02F0910D020190F081E02D6DE28CE023
:1005700092E009958C0122273327A9012C193D0906
:100580004E095F0919A2CE0181967C019AE0892E5D
:10059000912CA12CB12CCA01B901A50194010E9492
:1005A000D40B605DF70162937F0121153105410590
:1005B000510589F7CF010E948302800F911F1DC052
:1005C000A701960119A28E010F5D1F4F8AE0C82E68
:1005D000D12CE12CF12CCA01B901A70196010E948E
:1005E000D40B605DF80162938F012115310541053F
:1005F000510589F7CF010E948302A1960FB6F894A6
:10060000DEBF0FBECDBFDF91CF911F910F91FF9045
:10061000EF90DF90CF90BF90AF909F908F90089514
:10062000CF93DF930E948302EC018CE291E00E9461
:1006300083028C0F9D1FDF91CF9108950F931F931D
:10064000CF93DF938C01C0E0D0E0F801EC0FFD1FE9
:100650006491662371F0E0910C02F0910D0201901B
:10066000F081E02D8CE092E00995892B11F0219624
:10067000ECCF8CE291E00E9483028C0F9D1FDF91F2
:10068000CF911F910F9108958F92AF92BF92CF9209
:10069000DF92EF92FF920F93CF93DF93CDB7DEB748
:1006A0002C970FB6F894DEBF0FBECDBF90E69983AE
:1006B0008A83DE011396E6E0F2E086E08E0F9191E8
:1006C0009D938E13FCCFE091AB02F0E0E855FD4F17
:1006D000DE011996CE010D9621912D93A817B90729
:1006E000D9F71F92812CA12CB12CC12CD12CE12C3B
:1006F000F12C0CE09E012F5F3F4F40E16EE089EA54
:1007000092E00E9413060F902C960FB6F894DEBF6D
:100710000FBECDBFDF91CF910F91FF90EF90DF9093
:10072000CF90BF90AF908F9008951F93CF93DF939A
:10073000282F30E0F901EE58FF4F8491F901E2557E
:10074000FF4FD491F901E656FF4FC491CC23C9F075
:10075000162F81110E942701EC2FF0E0EE0FFF1FF2
:10076000EA57FF4FA591B4918FB7F894111105C0C6
:100770009C91ED2FE095E92302C0EC91ED2BEC93D9
:100780008FBFDF91CF911F910895CF92DF92EF92AB
:10079000FF920F931F93CF93DF9300D0CDB7DEB7B7
:1007A0008C01F62E83E590E049835A830E948005F0
:1007B00060E0F80186850E94950382E10E94790538
:1007C0004981E42EC42E5A81D52E8C2D8E198F1579
:1007D00030F4F60181916F010E947905F6CF61E056
:1007E000F80186850E9495030F900F90DF91CF91BD
:1007F0001F910F91FF90EF90DF90CF900C947805B0
:100800001F920F920FB60F9211242F933F938F9345
:100810009F93AF93BF938091DF029091E002A091EC
:10082000E102B091E2023091DE0223E0230F2D3786
:1008300020F40196A11DB11D05C026E8230F0296E4
:10084000A11DB11D2093DE028093DF029093E00290
:10085000A093E102B093E2028091E3029091E4025E
:10086000A091E502B091E6020196A11DB11D809311
:10087000E3029093E402A093E502B093E602BF91F5
:10088000AF919F918F913F912F910F900FBE0F903D
:100890001F9018951F920F920FB60F9211242F934D
:1008A0003F934F935F936F937F938F939F93AF93F8
:1008B000BF93EF93FF938CE092E00E942805FF9195
:1008C000EF91BF91AF919F918F917F916F915F91C8
:1008D0004F913F912F910F900FBE0F901F90189541
:1008E0001F920F920FB60F9211242F938F939F9305
:1008F000EF93FF93E0911C02F0911D028081E09143
:100900002202F091230282FD12C090818091250283
:100910008F5F8F7320912602821751F0E09125029C
:10092000F0E0E45FFD4F958F8093250201C0808148
:10093000FF91EF919F918F912F910F900FBE0F908C
:100940001F901895FC01538D448D252F30E0842F86
:1009500090E0821B930B541710F0CF9608950197E7
:100960000895FC01918D828D981761F0828DDF01D1
:10097000A80FB11D5D968C91928D9F5F9F73928F92
:1009800090E008958FEF9FEF0895FC01918D828D87
:10099000981731F0828DE80FF11D858D90E0089554
:1009A0008FEF9FEF0895FC01918D228D892F90E0AC
:1009B000805C9F4F821B91098F739927089580E077
:1009C00090E0892B29F00E94AF0181110C94000066
:1009D0000895CF92DF92EF92FF920F931F93CF93E0
:1009E000DF936C017A018B01C0E0D0E0CE15DF050A
:1009F00089F0D8016D918D01D601ED91FC910190A6
:100A0000F081E02DC6010995892B11F47E0102C009
:100A10002196ECCFC701DF91CF911F910F91FF90ED
:100A2000EF90DF90CF900895089580E090E00895D2
:100A3000DC01ED91FD91BD010190F081E02D40E0E0
:100A4000099591E0811190E0892F08950E94FC0B97
:100A5000FC01848DDF01A80FB11DA35ABF4F2C915B
:100A6000848D90E001968F739927848FA689B7892A
:100A70002C93A089B1898C9180648C93938D848D03
:100A8000981306C00288F389E02D80818F7D8083D2
:100A900008958430D9F050F4813091F030F18230F3
:100AA00091F08330F9F489E691E008958630A1F061
:100AB00080F08730A1F08F3FA9F480ED90E0089599
:100AC00088E991E0089583E891E008958DE491E04C
:100AD00008958EE191E008958CE091E0089582EF11
:100AE00090E0089582EC90E0089580EB91E0089505
:100AF00008958EBD00000DB407FEFDCF8EB508959C
:100B00008CBD9DBD08951F93CF93DF93EC01162FED
:100B100083E590E00E94800560E08E850E94950349
:100B2000812F80680E94790580E00E947905182F46
:100B300061E08E850E949503812FDF91CF911F91F7
:100B40000895EF92FF921F93CF93DF931F92CDB73B
:100B5000DEB77C01162F83E590E049830E94800573
:100B600060E0F70186850E949503812F0E94790538
:100B70004981842F0E94790561E0F70186850F90F5
:100B8000DF91CF911F91FF90EF900C949503CF923E
:100B9000DF92EF92FF920F931F93CF93DF93EC01BD
:100BA0006B01142F790140E062E00E94A10544E04E
:100BB0006AE0CE010E94A10540E864E1CE010E94F6
:100BC000A105A601612FCE010E94C50343E062E0AA
:100BD000CE010E94A10508E813E16AE0CE010E945F
:100BE000830582FF13C040E062E0CE010E94A105B0
:100BF00064E4CE010E948305F701808362E4CE01A4
:100C00000E948305F701818380E004C0015011092F
:100C100021F783E0DF91CF911F910F91FF90EF902B
:100C2000DF90CF9008953F924F925F926F927F92A4
:100C30008F929F92AF92BF92CF92DF92EF92FF92EC
:100C40000F931F93CF93DF9300D0CDB7DEB73C0156
:100C5000162F942E2901A114B10419F0F501408139
:100C600001C040E0342EF0E18F9E300C112440E0B2
:100C700062E0C3010E94A1054FE768E0C3010E9442
:100C8000A10540E864E1C3010E94A105A201602F13
:100C9000C3010E94C503432D6AE1C3010E94A1055F
:100CA000412F62E0C3010E94A1051C3051F46AE1AA
:100CB000C3010E948305482F40686AE1C3010E9476
:100CC000A10500ED17E068E0C3010E948305982F9D
:100CD000992139F480FD03C001501109A1F783E087
:100CE000A2C06CE0C3010E948305982E837109F0B5
:100CF00099C0E114F10409F45AC0C114D10409F4F3
:100D000056C064E1C3010E948305182FF60180815B
:100D1000811708F481C010831123F1F183E590E07D
:100D20000E94800560E0F30186850E94950382E9B8
:100D30000E9479058820A1F08FEF90E02C0101C07E
:100D4000440C8A94EAF782E90E9479058421409450
:100D5000F70190814922482A40828824839401C067
:100D6000812C55245A94510E282D30E08701020F12
:100D7000131F851438F482E90E947905F8018083F5
:100D80008394F2CF80E00E947905F801808361E0CE
:100D9000F30186850E94950368E1C3010E948305E3
:100DA0008770A114B10421F0F501808301C080E0B7
:100DB00093FC34C0E114F10499F1C114D10481F120
:100DC0009E89992369F1F6014081413019F48430FC
:100DD00019F420C0423010F487E025C08111FCCF07
:100DE00042509E012F5F3F4FB701C3010E94C705CC
:100DF000811119C0F6018081E80EF11CF7013297CC
:100E0000908189819813E8CF319690818A819813D7
:100E1000E3CF06C08FEF07C084E005C082E003C0C7
:100E200080E001C081E00F900F90DF91CF911F9182
:100E30000F91FF90EF90DF90CF90BF90AF909F9079
:100E40008F907F906F905F904F903F9008952F927A
:100E50003F924F925F926F927F928F929F92AF924A
:100E6000BF92CF92DF92EF92FF920F931F93CF9397
:100E7000DF93CDB7DEB72D970FB6F894DEBF0FBE68
:100E8000CDBF413508F010C14C872B013C016CE10E
:100E90000E948305482F4F776CE1C3010E94A10592
:100EA00051E0523091F05330F1F0513009F000C16F
:100EB00083E989832C852223D9F081E0F201908196
:100EC000953008F480E0912C18C085E98983FC8571
:100ED000FF2381F081E0F2019081983008F480E0F6
:100EE00043E0942E0AC087E9898336E0932E04C03C
:100EF000912C02C023E0922E80E01C85F8EF9F9E8B
:100F0000100D112417FD10E0882321F098E89B8331
:100F100043E001C042E021E0912F977009F420E006
:100F2000912F959595959595290F29F4882309F486
:100F300099C0185F97C0811102C094E001C093E08E
:100F4000291708F4922F20E030E0692D70E0E42F9B
:100F5000E20FA1E0B0E0AC0FBD1FAE0FB11DF90173
:100F6000E60FF71FE40DF51DE181EC932F5F3F4F76
:100F7000291768F3DBCF8111E9C010320CF09AC059
:100F800010E220E72A839C818B8189279D81892714
:100F90009E8189278F839E01285F3F4F47E0BE01D6
:100FA0006F5F7F4FC3015D870E94C7055D8581111B
:100FB000CDC01B8633E03A87CE0107961C0109E0BD
:100FC0008B84482D4295407F480D6AE1C3015D87BF
:100FD0000E94A1051F929E01255F3F4F5901CE013E
:100FE0000A966C0171012A50310940E36CE0C3019B
:100FF0000E9413060F905D85823009F0BCCF6CE132
:10100000C3010E9483055D8585FD50C08F7109F481
:1010100080E2282F30E0612F110F770B62177307E2
:101020000CF046C0182FC9010197877099272595A4
:101030002595259531E0320F21E0009709F420E055
:10104000230FE1E0F0E0EC0FFD1FE20FF11D21E0C6
:1010500030E002C0220F331F8A95E2F7C901908168
:10106000892B808310320CF08CCF912F97709B8747
:10107000212F25952595259582E0820F392FE0E1D6
:101080008E9F300D11243A8301E0911101C000E0E0
:10109000080F22242394312C2C0E3D1E280E311CC7
:1010A00087E0821B8A878CCF86E050C082E04EC0EA
:1010B00085E04CC08B81883809F045C033E023E0DF
:1010C00080E090E0692D70E0FC01E60FF71FE40D71
:1010D000F51D432F480FA1E0B0E0AC0FBD1FA40FDA
:1010E000B11D4C9141830196821770F38A8583303C
:1010F00031F58B85811123C09E012D5F3F4F41E06B
:10110000B101C3015D870E94C7055D8581111EC0C5
:101110009B81F1018181981314C09C818281981375
:1011200010C0808182FF02C05F5FBBCEF201838767
:10113000852F880F580F5F5F508380E007C081E0E4
:1011400005C087E003C032E024E0BACF2D960FB689
:10115000F894DEBF0FBECDBFDF91CF911F910F91ED
:10116000FF90EF90DF90CF90BF90AF909F908F90C7
:101170007F906F905F904F903F902F9008956F9267
:101180007F928F92AF92BF92CF92DF92EF92FF92B7
:101190000F93CF93DF9300D000D01F92CDB7DEB76F
:1011A0003C0182E08D8340E064E2C3010E94A1051E
:1011B00040E066E2C3010E94A10546E268E4C30183
:1011C0000E94A10586E28C838D81823048F16CE11A
:1011D000C3010E948305482F4F776CE1C3010E9431
:1011E000A10587E08B831F92812CCE0103965C01C1
:1011F00002966C0104977C0101E09E012C5F3F4F39
:1012000040E36CE0C3010E9413060F9081110BC0F4
:101210008D81823039F481E09B81911104C008C036
:1012200084E001C081E091E0823019F090E001C0DB
:1012300091E0892F0F900F900F900F900F90DF91FA
:10124000CF910F91FF90EF90DF90CF90BF90AF9034
:101250008F907F906F9008956F927F928F92AF9250
:10126000BF92CF92DF92EF92FF920F931F93CF9393
:10127000DF931F92CDB7DEB7182F3B01282F392FF0
:1012800037FF02C02D5F3F4F822F83600E944403CF
:10129000082F882359F08DEB91E00E948302802F64
:1012A0000E9449050E941E0383E033C082E18983C6
:1012B00061147104A9F180E3F30180831183930128
:1012C0002E5F3F4F42E0B30189EA92E00E94C705DA
:1012D000811128C081E08F93812CA12CB12CCE01EB
:1012E00001966C01730104E0930140E36CE089EA2C
:1012F00092E00E941306182F0F90882361F080EE71
:1013000091E00E948302812F0E9449050E941E03E2
:1013100084E090E009C087EF91E00E94100304C0D0
:1013200014E0EDCF182FEBCF0F90DF91CF911F91ED
:101330000F91FF90EF90DF90CF90BF90AF908F9084
:101340007F906F900895ECE0F2E01382128288EEB5
:1013500093E0A0E0B0E084839583A683B78384E123
:1013600091E09183808385EC90E09587848784EC7D
:1013700090E09787868780EC90E0918B808B81EC62
:1013800090E0938B828B82EC90E0958B848B86EC43
:1013900090E0978B868B118E128E138E148EE9EA55
:1013A000F2E086E291E0918380838AE0868785E09F
:1013B00087870895CF93DF9300D0CDB7DEB77894B9
:1013C00084B5826084BD84B5816084BD85B582604A
:1013D00085BD85B5816085BD80916E0081608093FB
:1013E0006E00109281008091810082608093810064
:1013F0008091810081608093810080918000816074
:10140000809380008091B10084608093B1008091CE
:10141000B00081608093B00080917A0084608093F6
:101420007A0080917A00826080937A0080917A00BD
:10143000816080937A0080917A00806880937A003E
:101440001092C100E0911C02F0911D0282E08083A5
:10145000E0911802F09119021082E0911A02F091C5
:101460001B028FEC808310922402E0912002F09105
:10147000210286E08083E0911E02F0911F028081AC
:1014800080618083E0911E02F0911F02808188605C
:101490008083E0911E02F0911F028081806880832A
:1014A000E0911E02F0911F0280818F7D80831FB723
:1014B000F8948091B902811124C0E4EAF0E08491AB
:1014C000E8EBF0E09491E82FF0E0EE0FFF1FE0571B
:1014D000FF4FA591B491EC91E92321F461E08AE0FA
:1014E0000E9495038AE00E9408018CB580618CBD42
:1014F0008CB580648CBD8DE00E9408018BE00E9459
:1015000008018091B9028F5F8093B9021FBF80915B
:10151000B7020E94080161E08091B7020E94950322
:101520008091B8028F3F69F44FE062E089EA92E06F
:101530000E94A10562E370E080E090E00E947501E6
:1015400024C00E9408012091B80230E0F901EE5851
:10155000FF4F8491F901E255FF4F0491F901E656DE
:10156000FF4F1491112309F413C181110E94270127
:10157000E12FF0E0EE0FFF1FE859FF4FA591B49166
:10158000EC91E02309F404C1CFCF62E089EA92E054
:101590000E94830584FDF9CF40E064E289EA92E08D
:1015A0000E94A10540E066E289EA92E00E94A1055E
:1015B00046E268E489EA92E00E94A10540E864E519
:1015C00089EA92E00E94A10549EA66E589EA92E08B
:1015D0000E94A10543E068E589EA92E00E94A10526
:1015E00048EE6AE589EA92E00E94A10540E46AE2D9
:1015F00089EA92E00E94A1054DE362E289EA92E065
:101600000E94A10568E289EA92E00E948305982F72
:101610009370933039F0482F436068E289EA92E092
:101620000E94A10588E00E9408018FE291E00E94DB
:1016300010038FEF809306028093070280930802C5
:101640008093090280930A0280930B0290EAD92EBC
:1016500022E0C22E89EA92E00E94BF08882309F4A2
:1016600094C089EA92E00E941805882309F48DC08D
:101670008AE491E00E9410036CEC72E082E090E05A
:101680000E942C0988E591E00E9483028091CC029F
:10169000813471F461E088E00E94950368EE73E0A4
:1016A00080E090E00E94750160E088E00E94950370
:1016B0008AEBE82E82E0F82E8701F80161918F0114
:1016C0008CE092E00E941A02F2E00A3C1F07A9F7A0
:1016D00082E090E00E94950285E691E00E9410036E
:1016E00083E00E944403182F882319F087E791E0D4
:1016F00014C0D982CA8262E0CE0101960E94B9016B
:10170000182F811106C060E180E091E00E94B901CC
:10171000182F112351F083E991E00E948302812F59
:101720000E9449050E941E0304C08BEA91E00E94BA
:1017300010036AEB72E082E090E00E942C0988E5D9
:1017400091E00E9483028091BA02813471F461E0D9
:1017500088E00E94950368EE73E080E090E00E94CC
:10176000750160E088E00E949503F70161917F01B7
:101770008CE092E00E941A02FAECEF16F2E0FF060B
:10178000A1F78EE291E00E9410030E94DF0462CF75
:1017900061E08091B8020E94950362E370E080E00E
:1017A00090E00E947501F8CEA1E21A2EAA1BBB1B85
:1017B000FD010DC0AA1FBB1FEE1FFF1FA217B3071D
:1017C000E407F50720F0A21BB30BE40BF50B661F33
:1017D000771F881F991F1A9469F7609570958095F7
:1017E00090959B01AC01BD01CF010895EE0FFF1F45
:1017F0000590F491E02D099481E090E0F8940C9428
:101800000A0CFB01DC0102C001900D9241505040D6
:08181000D8F70895F894FFCF0A
:10181800415F5F5F5F5F5F5F5F5F5F5F5F5F5F004D
:10182800000000001A02E904A2046102D304B10412
:10183800C504000000002707BF0818050D0A00535B
:1018480063616E2061204D494641524520436C61D9
:1018580073736963206361726400636172642073E7
:10186800656C6563746564007265616420626C6FA1
:10187800636B3A20002069732061206461746120E1
:10188800626C6F636B3A005043445F4175746865DE
:101898006E7469636174652829206661696C656482
:1018A8003A20004D49464152455F57726974652890
:1018B80029206661696C65643A2000626C6F636B0D
:1018C80020776173207772697474656E00504344A1
:1018D8005F41757468656E74696361746528292051
:1018E8006661696C6564202872656164293A200024
:1018F8004D49464152455F726561642829206661F9
:10190800696C65643A2000626C6F636B2077617361
:061918002072656164000D
:00000001FF
