:100000000C9465000C948D000C948D000C948D0064
:100010000C948D000C948D000C948D000C948D002C
:100020000C948D000C948D000C94CE070C948D00D4
:100030000C948D000C945B070C948D000C948D0037
:100040000C948E090C948D000C94FE090C94D80924
:100050000C948D000C948D000C948D000C948D00EC
:100060000C94300A0C948D0000000008000201007E
:100070000003040700000000000000007C3C3E5E1E
:100080002B3D3F2F5B5D3B2C2A225C0000000000D3
:10009000250028002B0000000000240027002A0073
:1000A000040404040404040402020202020203031E
:1000B0000303030301020408102040800102040826
:1000C0001020010204081020461711241FBECFEF94
:1000D000D8E0DEBFCDBF11E0A0E0B1E0E4EBF2E399
:1000E00002C005900D92A238B107D9F725E0A2E829
:1000F000B1E001C01D92A03DB207E1F710E0C5E6F6
:10010000D0E004C02197FE010E94F517C436D10744
:10011000C9F70E9481150C9458190C940000DC0159
:100120005996ED91FC915A973097B9F0838994894B
:10013000A589B6894285538564857585841B950B91
:10014000A60BB70B811520E89207A105B10538F081
:100150008FEF9FE7A0E0B0E0089580E090E0089581
:10016000CF93DF931F92CDB7DEB76983DC01ED91AA
:10017000FC910280F381E02D41E050E0BE016F5F11
:100180007F4F09950F90DF91CF910895E0912C0258
:10019000F0912D02309729F0109233021092320222
:1001A00009940895CF93DF93AC01E0913602F0916A
:1001B00037023097F1F09091350280913402981710
:1001C000C0F090E0292F30E02617370754F4D9010A
:1001D000A45FBD4FEA01C20FD31F88818C939F5F3C
:1001E000F1CF1092350260933402CB01DF91CF91B1
:1001F0000994DF91CF9108950895E091350280919F
:100200003402E81730F4F0E0E45FFD4F808190E0C5
:1002100008958FEF9FEF08959091350280913402F9
:10022000981750F4E92FF0E0E45FFD4F208130E0B3
:100230009F5F9093350202C02FEF3FEFC9010895F1
:100240008091340290E020913502821B910908953B
:10025000089580E090E00895FC01818D928D0097D3
:1002600011F00C94F8100895CF93DF93EC01898D71
:100270009A8D009739F481E090E09B838A8380E037
:1002800090E00BC0FC01138212820E94E013E98D02
:10029000FA8D22813381232B71F7DF91CF9108955D
:1002A000EF92FF920F931F93CF93DF93EC017B01AB
:1002B0008A011B821A8288EE93E0A0E0B0E08C8372
:1002C0009D83AE83BF8383E491E0998388838DE12E
:1002D00090E00E940A189A8F898F009779F02DE19B
:1002E000F701DC0101900D922A95E1F74CE050E016
:1002F000B801CE010C960E944919188EDF91CF915A
:100300001F910F91FF90EF900895CF93DF9300D04E
:10031000CDB7DEB7CB01642F49835A830E945E0BB1
:100320004981842F5A81952F0F900F90DF91CF91A3
:100330000895CF93DF931F92CDB7DEB7698361E055
:10034000CE0101960E945E0B81E090E00F90DF915C
:10035000CF9108958091B0028823A9F140910301C3
:1003600050910401609105017091060129EB32E082
:100370008091B9049091BA040E948D10811102C03D
:1003800080E0089540912E0250912F02609130023A
:1003900070913102411551056105710591F029EB0C
:1003A00032E08091B9049091BA040E948D108823A4
:1003B00039F310922E0210922F02109230021092F6
:1003C00031021092B00281E008958F929F92AF9215
:1003D000BF92EF92FF920F931F93CF934B015C015B
:1003E000C42F8091030190910401A0910501B09167
:1003F000060188159905AA05BB0501F10E94AA010D
:10040000811102C080E020C089EBE82E82E0F82E46
:1004100000E012E020E030E0B501A4018091B904D1
:100420009091BA040E94F90F882361F3809203012E
:1004300090920401A0920501B09206018091B00251
:10044000C82BC093B00281E0CF911F910F91FF9014
:10045000EF90BF90AF909F908F9008954F925F92D2
:100460006F927F928F929F92AF92BF92CF92DF92C4
:10047000EF92FF920F931F93CF93DF93EC016A01EA
:100480007B0128013901423051056105710510F4E5
:1004900080E073C089859A85AB85BC850196A11DD6
:1004A000B11D84179507A607B70790F38B889C8822
:1004B000AD88BE888F89803129F4BB27AF2D9E2D52
:1004C0008D2D09C0DB01CA0147E0B695A795979528
:1004D00087954A95D1F7880E991EAA1EBB1E80915A
:1004E000030190910401A0910501B09106018816C5
:1004F0009906AA06BB0679F48F898031A1F4DD2420
:10050000EE24FF24C601880F991FFC01E754FD4F1C
:100510005182408219C040E0C501B4010E94E5014A
:100520008111EACFB5CFE894C7F8DD24EE24FF248B
:10053000C601880F991F880F991FFC01E754FD4FD2
:1005400040825182628273828091B0028160809386
:10055000B0028A89823080F08D819E81AF81B8851A
:10056000880E991EAA1EBB1E80922E0290922F0208
:10057000A0923002B092310281E0DF91CF911F91C1
:100580000F91FF90EF90DF90CF90BF90AF909F9032
:100590008F907F906F905F904F9008958F929F9271
:1005A000AF92BF92CF92DF92EF92FF920F931F9381
:1005B000CF93DF93FC0181859285A385B485019655
:1005C000A11DB11D84179507A607B70710F480E099
:1005D0005CC083899489A589B689C789C03129F40B
:1005E000852E962EA72EBB2409C04A015B01C7E0C9
:1005F000B694A79497948794CA95D1F7E9016A01B4
:100600007B018F01BC01CD01680D791D8A1D9B1DE9
:100610008090030190900401A0900501B090060124
:10062000681579058A059B0599F4F8018789803159
:10063000A9F4B701A601552766277727440F551F50
:10064000FA01E754FD4F80819181A0E0B0E018C02D
:1006500040E00E94E5018111E8CFB9CFB701A601C2
:100660004F77552766277727440F551F440F551F8F
:10067000FA01E754FD4F80819181A281B381BF705F
:1006800088839983AA83BB8381E0DF91CF911F91F7
:100690000F91FF90EF90DF90CF90BF90AF909F9021
:1006A0008F9008954F925F926F927F92AF92BF9218
:1006B000CF92DF92EF92FF920F931F93CF93DF932E
:1006C00000D000D0CDB7DEB78C0149835A836B834D
:1006D0007C835901C12CD12C7601412C82E0582E0B
:1006E000612C712C49815A816B817C819E012F5F25
:1006F0003F4FC8010E94CE02882351F1D301C201AD
:10070000F801058404C0880F991FAA1FBB1F0A9413
:10071000D2F7C80ED91EEA1EFB1E49815A816B8191
:100720007C818789803129F088EF9FEFAFEFBFE0B0
:1007300004C088EF9FEFA0E0B0E0481759076A07B0
:100740007B0780F2F501C082D182E282F38281E0F0
:100750000F900F900F900F90DF91CF911F910F91FD
:10076000FF90EF90DF90CF90BF90AF907F906F9011
:100770005F904F900895CF93DF931F92CDB7DEB770
:1007800041E050E0BE016F5F7F4F0E94CC110197A6
:1007900019F4898190E002C08FEF9FEF0F90DF91F5
:1007A000CF910895FC01818D928D009711F00C94EA
:1007B000BB038FEF9FEF08950F931F93CF93DF93AA
:1007C000FC01818D928D0097B9F0EF010E94BB036F
:1007D0008C010F3F8FEF180791F0898D9A8DFC01E6
:1007E00042855385648575854150510961097109B8
:1007F0000E943611C80105C080E090E002C08FEF72
:100800009FEFDF91CF911F910F9108958F929F924B
:10081000AF92BF92CF92DF92EF92FF920F931F930E
:10082000CF93DF93CDB7DEB7C657D1090FB6F89493
:10083000DEBF0FBECDBF8091340290E02091350223
:10084000821B9109029784F083EA95E00E940C01D3
:10085000E091BB04F091BC040190F081E02D682F81
:100860008BEB94E00995E7CF83EA95E00E940C01B9
:100870008C016C01990FEE08FF08F7FE2BC0E09188
:10088000BB04F091BC040190F081E02D6DE28BEB94
:1008900094E0099522273327A9012C193D094E0917
:1008A0005F0919A2CE0181967C017AE0872E912CF6
:1008B000A12CB12CCA01B901A50194010E94A9176C
:1008C000605DF70162937F012115310541055105F6
:1008D00089F71AC0A701960119A2CE0181967C0161
:1008E0006AE0862E912CA12CB12CCA01B901A50178
:1008F00094010E94A917605DF70162937F012115A1
:1009000031054105510589F7C7010E94DC0B8FE6CF
:1009100091E00E94DC0B083C110509F0B8C281E0AF
:1009200080930A029091B1028091B802981709F45D
:1009300077C01092830180916F008E7D80936F004D
:100940000E94A20D81110E94950E8091800087FD6A
:100950001AC080910201806280930201109281008E
:10096000109280008091B1020E94710D8091B102BD
:10097000863009F443C08E3209F444C0853009F052
:1009800043C081E03CC0209188003091890040E064
:1009900050E08091B6029091B70248175907C8F607
:1009A00037FD06C0B9018217930720F4BC0102C0CD
:1009B00060E070E070938B0060938A0037FD06C0A2
:1009C000B9018217930720F4BC0102C060E070E017
:1009D0007093890060938800C2976AE070E0E091AC
:1009E0008400F0918500E817F907C8F36150710998
:1009F000B1F74F5F5F4F21503109CBCF82E0809339
:100A0000090204C083E0FBCF109209028DB581601A
:100A10008DBD8CB58C7F8CBD8091B1028093B80266
:100A20001092830180916F008E7D80936F000E94F1
:100A3000A20D81110E94950E1C821B8205E211E01D
:100A40001A8309831E82CE0101960E94EE0B8B81D0
:100A50009C8123969FAF8EAF239721961FAF0EAF39
:100A600021978D8124968FAF24978E8125968FAF05
:100A700025974F81588569857A8529964CAF5DAF5A
:100A80006EAF7FAF29974B855C856D857E852D96F2
:100A90004CAF5DAF6EAF7FAF2D974F855889698999
:100AA0007A8961964CAF5DAF6EAF7FAF61979B89DE
:100AB00062969FAF62974C895D896E897F89669641
:100AC0004CAF5DAF6EAF7FAF6697488D598D6A8D25
:100AD0007B8D6A964CAF5DAF6EAF7FAF6A972C8D02
:100AE0003D8D6C963FAF2EAF6C971DA21CA21BA331
:100AF0000AA31FA2811116C0A0961FAE1EAEA0971A
:100B000088EE93E0A0E0B0E0A4968CAF9DAFAEAFCE
:100B1000BFAFA497E7961FAE1EAEE797A9961FAE8C
:100B2000A99751C042E751E0BE01615C7F4FCE0101
:100B300082960E94AE0D8823F9F2CE01CF960E94D4
:100B4000D1128CA19DA19C838B831A8309838EA1D2
:100B50008D838FA18E8388A599A5AAA5BBA58F8318
:100B60009887A987BA878CA59DA5AEA5BFA58B87B9
:100B70009C87AD87BE8788A999A9AAA9BBA98F8799
:100B8000988BA98BBA8B8CA98B8B8DA99EA9AFA9A9
:100B9000B8AD8C8B9D8BAE8BBF8B89AD9AADABAD59
:100BA000BCAD888F998FAA8FBB8F8DAD9EAD9D8F69
:100BB0008C8F42E751E0BE016F5F7F4FCE01845AB8
:100BC0009F4F0E945001A0968EAD9FADA09790932D
:100BD000B2058093B105A4968CAD9DADAEADBFAD11
:100BE000A4978093B3059093B405A093B505B093F3
:100BF000B605A8968CAD9DADAEADBFADA897809360
:100C0000B7059093B805A093B905B093BA058DE0E8
:100C1000ECE5F0E0EC0FFD1F3C96ABEBB5E001908E
:100C20000D928A95E1F7E7968EAD9FADE797909389
:100C3000C9058093C8050E94A20D882309F421C12B
:100C400068E070E080E090E00E94900D87E5898385
:100C500081E48A8386E58B8385E48C838E010F5F34
:100C60001F4F34E0F32EF00E8FEA95E00E94D2037E
:100C7000F80121918F01022E000C330B821793078C
:100C800011F4FE12F1CF68E170E080E090E00E9484
:100C9000900D8FEA95E00E94D2039093B502809365
:100CA000B4028FEA95E00E94D20320E030E0382FB2
:100CB0008091B4029091B502822B932B9093B50250
:100CC0008093B4026CE270E080E090E00E94900DAE
:100CD00080E490E0909385018093840181E080938B
:100CE000830180910201982F9F77909302012091B8
:100CF000B4023091B5022B3F3F4A30F020EC3DE585
:100D00003093B5022093B4022091B4023091B50221
:100D100040E050E086FF05C060E075E38CE090E0C5
:100D200004C060E07AE688E190E00E94CB176AE0B8
:100D3000629FC001639F900D11249093B70280932E
:100D4000B6028FEA95E00E94D2038C018FEA95E00B
:100D50000E94DC03800F911F97FD01969595879562
:100D600040910A022091880030918900141634F4D1
:100D700002C0369527954A95E2F709C05527419557
:100D80000CF4509502C0220F331F4A95E2F79927C1
:100D900040E050E02817390708F046C0B9016F5FFE
:100DA0007F4F6217730728F09B018617970708F497
:100DB0009C01FA01E957FE4F20834F5F5F4F40349B
:100DC000510561F740E050E0B9016F5F7F4F621756
:100DD000730728F09B018617970708F49C01FA0116
:100DE000E953FE4F20834F5F5F4F4034510561F759
:100DF0001092080210920001109201011092070255
:100E0000F8948091B6029091B702909387008093F6
:100E1000860082EB8093800089E18093810081E2EB
:100E200080936F0078942DC0B901615071096817E3
:100E3000790728F06217730718F49B0101C09C0121
:100E4000FA01E957FE4F20834F5F5F4F4034510551
:100E500059F740E050E0B90161507109681779070E
:100E600028F06217730718F49B0101C09C01FA0176
:100E7000E953FE4F20834F5F5F4F4034510559F7D0
:100E8000B7CF60EA7FE080E090E00E94F40ECA589D
:100E9000DF4F0FB6F894DEBF0FBECDBFDF91CF910D
:100EA0001F910F91FF90EF90DF90CF90BF90AF9088
:100EB0009F908F9008951F920F920FB60F9211245A
:100EC0002F933F938F939F93EF93FF938091020112
:100ED00086FD1CC020910A0227FF23C0E091080272
:100EE0008091070290E4E99FF0011124E80FF11DC1
:100EF000E957FE4F808190E0332721950CF430951F
:100F000002C0959587952A95E2F71EC090910B0235
:100F100081E0892780930B0280910B028823D1F214
:100F200032C0E09108028091070290E4E99FF0014D
:100F30001124E80FF11DE957FE4F808190E002C0B7
:100F4000880F991F2A95E2F790938B0080938A006F
:100F50009093890080938800809107028F5F80932F
:100F6000070280910702803470F010920702E0912E
:100F70000802F0E0E050FF4F81E08083909108028A
:100F8000892780930802FF91EF919F918F913F9164
:100F90002F910F900FBE0F901F9018951F920F92D8
:100FA0000FB60F9211242F933F934F935F936F933C
:100FB0007F938F939F93AF93BF93EF93FF93E091B2
:100FC000080281E0E827F0E0E050FF4F908199238C
:100FD00009F450C09091080289278093860180917E
:100FE0006F008F7D80936F0078948FEA95E00E9468
:100FF0008F00209184013091850128173907E8F08E
:101000008091020183FF07C06CE270E080E090E015
:101010000E94900D2AC080916F008E7D80936F009A
:10102000E091C805F091C905309721F085818111C3
:101030000E94950E109283011DC06091860180E48C
:10104000689FB001112469577E4F8091C805909127
:10105000C905009721F040E450E00E94CC11E091D6
:101060008601F0E0E050FF4F108280916F008062B7
:1010700080936F00FF91EF91BF91AF919F918F91FE
:101080007F916F915F914F913F912F910F900FBE84
:101090000F901F901895FC01538D448D252F30E043
:1010A000842F90E0821B930B541710F0CF96089575
:1010B00001970895FC01918D828D981761F0828DC2
:1010C000DF01A80FB11D5D968C91928D9F5F9F737C
:1010D000928F90E008958FEF9FEF0895FC01918D1E
:1010E000828D981731F0828DE80FF11D858D90E08B
:1010F00008958FEF9FEF0895FC01918D228D892F28
:1011000090E0805C9F4F821B91098F73992708950F
:101110008BEB94E00E947C0821E0892B09F420E00D
:10112000822F0895FC01848DDF01A80FB11DA35A01
:10113000BF4F2C91848D90E001968F739927848FF7
:10114000A689B7892C93A089B1898C9180648C93EE
:10115000938D848D981306C00288F389E02D8081D9
:101160008F7D80830895EF92FF920F931F93CF930B
:10117000DF93EC0181E0888F9B8D8C8D981305C0E7
:10118000E889F989808185FD24C0F62E0B8D10E059
:101190000F5F1F4F0F731127E02E8C8DE8120CC0CC
:1011A0000FB607FCFACFE889F989808185FFF5CF72
:1011B000CE010E949208F1CF8B8DFE01E80FF11D48
:1011C000E35AFF4FF0820B8FEA89FB8980818062AE
:1011D00007C0EE89FF896083E889F989808180648E
:1011E000808381E090E0DF91CF911F910F91FF907C
:1011F000EF900895CF93DF93EC01888D8823C9F099
:10120000EA89FB89808185FD05C0A889B9898C910F
:1012100086FD0FC00FB607FCF5CF808185FFF2CFAA
:10122000A889B9898C9185FFEDCFCE010E949208E3
:10123000E7CFDF91CF91089580E090E0892B29F0EE
:101240000E94880881110C9400000895CF92DF92CB
:10125000EF92FF920F931F93CF93DF936C017A016C
:101260008B01C0E0D0E0CE15DF0589F0D8016D918B
:101270008D01D601ED91FC910190F081E02DC60128
:101280000995892B11F47E0102C02196ECCFC7018C
:10129000DF91CF911F910F91FF90EF90DF90CF9052
:1012A000089585ED8093BC008091BC0084FDFCCF47
:1012B0001092A10208950E9437193FB7F8948091C7
:1012C000AC029091AD02A091AE02B091AF0226B5F2
:1012D000A89B05C02F3F19F00196A11DB11D3FBF6E
:1012E000BA2FA92F982F8827820F911DA11DB11DFC
:1012F000BC01CD0142E0660F771F881F991F4A95F8
:10130000D1F708952FB7F8946091A8027091A902BF
:101310008091AA029091AB022FBF08951F920F9265
:101320000FB60F9211242F933F938F939F93AF93F8
:10133000BF938091A8029091A902A091AA02B091B6
:10134000AB023091A70223E0230F2D3720F4019642
:10135000A11DB11D05C026E8230F0296A11DB11DD8
:101360002093A7028093A8029093A902A093AA02B7
:10137000B093AB028091AC029091AD02A091AE020D
:10138000B091AF020196A11DB11D8093AC02909364
:10139000AD02A093AE02B093AF02BF91AF919F9107
:1013A0008F913F912F910F900FBE0F901F90189526
:1013B0001F920F920FB60F9211242F933F934F93CA
:1013C0005F936F937F938F939F93AF93BF93EF93AD
:1013D000FF938BEB94E00E949208FF91EF91BF91F5
:1013E000AF919F918F917F916F915F914F913F91BD
:1013F0002F910F900FBE0F901F9018951F920F9274
:101400000FB60F9211242F938F939F93EF93FF9317
:10141000E091CB04F091CC048081E091D104F09173
:10142000D20482FD12C090818091D4048F5F8F73AB
:101430002091D504821751F0E091D404F0E0E554F6
:10144000FB4F958F8093D40401C08081FF91EF9171
:101450009F918F912F910F900FBE0F901F90189515
:101460001F920F920FB60F9211242F933F934F9319
:101470005F936F937F938F939F93AF93BF93EF93FC
:10148000FF938091B900887F803609F49CC068F58D
:10149000883209F45BC090F4803109F454C038F408
:1014A000882309F4F6C0883009F44DC0F6C08831AD
:1014B00009F44CC0803209F45DC0EFC0803409F4F7
:1014C00068C048F4803309F455C0883309F0E5C09A
:1014D00080937B02D8C0803509F44FC0883509F469
:1014E0005DC0883409F0D9C0D6C0883909F4C7C0B6
:1014F000A8F4883709F467C038F4883609F463C063
:10150000803709F460C0C9C0883809F4B8C0803990
:1015100009F45FC0803809F0C0C05BC0803B09F4AB
:1015200086C038F4803A09F466C0883A09F47FC06E
:10153000B4C0803C09F4A7C0883C09F4A4C0883B2F
:1015400009F48AC0AAC080919E0210C090919D02A9
:1015500080919C02981770F5E0919D0281E08E0FBA
:1015600080939D02F0E0E458FD4F80818093BB00A2
:1015700085EC86C080937B028EC0E0919D0281E065
:101580008E0F80939D028091BB00F0E0E458FD4FE8
:10159000808390919D0280919C026EC0E0919D029B
:1015A00081E08E0F80939D028091BB00F0E0E458B3
:1015B000FD4F80838091A00281116DC081E08093F6
:1015C0009F0284EA61C083E08093A10210927A02B4
:1015D000CFCF80917A02803208F051C0E0917A0238
:1015E00081E08E0F80937A028091BB00F0E0E65A92
:1015F000FD4F8083BDCF85EC8093BC001092A1028B
:1016000080917A02803230F4E0917A02F0E0E65A7A
:10161000FD4F108260917A0270E0E091A202F09199
:10162000A3028AE592E0099510927A0236C084E01E
:101630008093A1021092590210925802E091A402E4
:10164000F091A502099580915802811105C081E0B1
:101650008093580210923802E091590281E08E0F77
:1016600080935902F0E0E85CFD4F80818093BB00DD
:101670009091590280915802981708F479CF85E823
:101680008093BC000AC085EC8093BC001092A1023C
:1016900004C010927B020E945109FF91EF91BF910B
:1016A000AF919F918F917F916F915F914F913F91FA
:1016B0002F910F900FBE0F901F90189540915802D8
:1016C000262F30E0240F311D21323105DCF420912A
:1016D000A1022430C9F4FC0180E090E0861758F4A0
:1016E000309158022191DC01A85CBD4FA30FB11DC0
:1016F0002C930196F3CF80915802680F60935802A3
:1017000080E0089581E0089582E00895CF93DF930B
:10171000EC016A8B8091030190910401A091050175
:10172000B09106018E879F87A88BB98B80E2689F56
:10173000F0011124E754FD4F4489558960E070E0C1
:10174000BA01552744274F8B588F698F7A8F828D26
:10175000938DA0E0B0E0482B592B6A2B7B2B4F8B4D
:10176000588F698F7A8F8385887151F4848D958D18
:10177000A68DB78D8B8B9C8BAD8BBE8B81E00EC005
:10178000803111F080E015C09E012D5E3F4F8B8DA2
:101790009C8D0E9452038823A9F384E08D8381E00D
:1017A0008C831E821F82188619861A861B861C86C9
:1017B0001D86DF91CF910895009769F0FC0101909B
:1017C0000020E9F73197AF01481B590BBC018BEBA7
:1017D00094E00C94260980E090E00895CF93DF9385
:1017E000FC012581222311F080E049C0EC018091A9
:1017F0007D058031C1F482E08583178A108E118EB9
:10180000128E80917E0590917F05A0E0B0E025E0EA
:10181000880F991FAA1FBB1F2A95D1F7838B948B22
:10182000A58BB68B19C08032F9F683E08583409191
:101830008005509181056091820570918305478BE9
:10184000508F618F728F9F012D5E3F4F86E695E02E
:101850000E945203882341F286E695E09C8F8B8F8D
:1018600081E08C831E821F82188619861A861B8649
:101870001C861D861E861F86188A198A1A8ADF9181
:10188000CF9108958F929F92AF92BF92CF92DF92A5
:10189000EF92FF92CF93DF93C82F8AE595E0909364
:1018A000BA048093B904CC2369F1C53010F080E00C
:1018B0000DC140E060E070E0CB010E94E5018823AB
:1018C000B1F320E1C29FC001112487559D4FFC0157
:1018D000E254FE4F20812F7751F73C964081518191
:1018E00062817381443651056105710500F33497B7
:1018F000C080D180E280F380C114D104E104F104FE
:1019000021F4D5CFC12CD12C760140E0C701B6011E
:101910000E94E501882359F28091C4029091C5028A
:101920008115924021F6A091C902AA2309F4BFCFE4
:101930006091C7027091C8026115710509F4B7CFB3
:101940002091C602222309F4B2CFA09378052093F8
:101950006A0580E030E0E1E0F0E0C82FAF01082E3A
:1019600002C0440F551F0A94E2F72417350741F0CF
:10197000982F8F5F983089F789E08093730597CF10
:10198000809373052091CF023091D002211531054B
:1019900019F040E050E008C02091DD023091DE02F5
:1019A0004091DF025091E00220936B0530936C056B
:1019B00040936D0550936E0546015701860E971EA4
:1019C000A11CB11C8092790590927A05A0927B05AA
:1019D000B0927C05E091CA02F091CB02F0937F05B2
:1019E000E0937E05B0E00E94EA17860E971EA81EBF
:1019F000B91E8092800590928105A0928205B092D6
:101A0000830585E0EE0FFF1F8A95E1F7E150FE4F59
:101A1000EF2FFF27E6958E0E9F1EA11CB11C809212
:101A2000740590927505A0927605B0927705209185
:101A3000CC023091CD022115310521F0A90160E0E1
:101A400070E008C04091D9025091DA026091DB0247
:101A50007091DC02D701C60188199909AA09BB094E
:101A6000840F951FA61FB71F04C0B695A79597951D
:101A70008795CA95D2F780936F0590937005A093D0
:101A80007105B0937205853F2FE09207A105B1055E
:101A900010F48CE018C0853F9F4FA105B10510F4EC
:101AA00080E111C08091E5029091E602A091E702E9
:101AB000B091E8028093800590938105A093820500
:101AC000B093830580E280937D0581E0DF91CF9123
:101AD000FF90EF90DF90CF90BF90AF909F908F904E
:101AE000089590E0FC01EC54FF4F2491FC01E05676
:101AF000FF4F8491882399F090E0880F991FFC0193
:101B0000EA56FF4FA591B491FC01E457FF4F859130
:101B100094918FB7F894EC91E22BEC938FBF0895DA
:101B20002091C8053091C9052115310541F0AB015F
:101B3000BC01C9010E94361191E0811101C090E001
:101B4000892F0895E091C805F091C905309729F0D3
:101B50008581882311F081E008950895AF92BF92A6
:101B6000CF92DF92EF92FF920F931F93CF93DF9369
:101B7000CDB7DEB72B970FB6F894DEBF0FBECDBF43
:101B80007C01CE0101966C01FC0190E28BE08C0D92
:101B900091938E13FDCFDA0120E037E09D919923D8
:101BA00039F19E3219F0ECE7F0E00AC03A3009F45E
:101BB000AAC028E03AE0F2CF3196891709F4A3C011
:101BC00084918111F9CF321708F49DC08FED890FF0
:101BD0008E3508F098C081E0820FF601E20FF11D0A
:101BE0002FE9290F2A3108F490529083282FD6CF5D
:101BF0008981803209F487C08B01FB01838D948D2C
:101C0000F701948F838FFB0116821782108611864D
:101C10001286138614861586A12CF8018285938579
:101C2000A485B58543895489658976898417950784
:101C3000A607B70708F067C025E0B695A795979562
:101C400087952A95D1F7F82FFF70BF2EF80185816F
:101C5000823008F458C0C8010E94BB0397FD53C0EE
:101C6000F80182859385A485B5854F96A11DB11D88
:101C700082879387A487B587F0E2BF9EC0011124B5
:101C8000BC0167547D4F61157105E9F1FB012081AD
:101C90002223B9F1253EE1F04BE050E0C6010E945D
:101CA0003C19892B09F0B9CF6B2DC7012B960FB6C4
:101CB000F894DEBF0FBECDBFDF91CF911F910F9182
:101CC000FF90EF90DF90CF90BF90AF900C94860B79
:101CD000A11014C0F701B28A409103015091040190
:101CE000609105017091060146875787608B718B63
:101CF000FC01E754FD4F8081882329F0AA24A39496
:101D00008CCFAA2039F380E02B960FB6F894DEBF73
:101D10000FBECDBFDF91CF911F910F91FF90EF903C
:101D2000DF90CF90BF90AF9008958091C8059091BB
:101D3000C905009761F00E94D1128091C805909169
:101D4000C9050E949F181092C9051092C8050895F0
:101D500090E0FC01E859FF4F3491FC01EC54FF4F37
:101D60002491FC01E056FF4FE491EE2309F43BC0BF
:101D7000332339F1333091F038F43130A9F0323077
:101D800001F584B58F7D12C0373091F03830A1F065
:101D90003430B9F4809180008F7D03C08091800041
:101DA0008F77809380000DC084B58F7784BD09C084
:101DB0008091B0008F7703C08091B0008F7D8093B9
:101DC000B000F0E0EE0FFF1FE457FF4FA591B49174
:101DD0008FB7F894EC91611103C020952E2301C0B8
:101DE0002E2B2C938FBF08958F929F92AF92BF920C
:101DF000CF92DF92EF92FF926B017C010E945D090E
:101E00004B015C01C114D104E104F104F1F00E9422
:101E10005D09DC01CB0188199909AA09BB09883E33
:101E20009340A105B10570F321E0C21AD108E10881
:101E3000F10888EE880E83E0981EA11CB11CC11425
:101E4000D104E104F10419F7DDCFFF90EF90DF90AA
:101E5000CF90BF90AF909F908F9008958FB7F894D8
:101E60008091CB058FBF089561E0FC0184810E94C1
:101E7000A80E8091CA0581111092CA0508958EBDE1
:101E800000000DB407FEFDCF8EB508958FEF0C94C2
:101E90003F0F0F931F93CF93DF93EB010E948209B3
:101EA0008B010E94460F8F3F49F00E948209601B00
:101EB000710B6C177D07A8F380E001C081E0DF9112
:101EC000CF911F910F910895CF93DF93EC018E81F5
:101ED000882389F08F8198859C012F5F3F4F388739
:101EE0002F838230924018F40E94460FF3CFCE0128
:101EF0000E94340F1E82DF91CF9108958CBD9DBD4D
:101F00000895CF93DF93EC018091CA05811109C038
:101F100081E08093CA0580915805909159050E94EF
:101F20007E0F60E08C81DF91CF910C94A80ECF9250
:101F3000DF92FF920F931F93CF93DF9300D000D0D7
:101F4000CDB7DEB76C01F62E29833A834B835C83D1
:101F50000E94640FC6010E94810F6CE271E0C6010D
:101F60000E94490F8F2D80640E943F0F08E110E00E
:101F70005C814B813A812981DA01C901002E04C0BC
:101F8000B695A795979587950A94D2F729833A83B2
:101F90004B835C830E943F0F0850110929813A81CD
:101FA0004B815C81083F8FEF180731F7FF2029F044
:101FB000E8E0FE1204C087E803C085E901C08FEFA6
:101FC0000E943F0F10E00E94460FF601828787FFB4
:101FD00004C01F3F11F01F5FF6CF0F900F900F90BE
:101FE0000F90DF91CF911F910F91FF90DF90CF90D5
:101FF0000895AF92BF92CF92DF92EF92FF920F932C
:102000001F93CF93DF93EC016901C801820F931FE7
:102010008130924008F070C08E81882371F08881F1
:102020009981AA81BB81481759076A077B0729F460
:102030008F819885C816D906B0F5488359836A837D
:102040007B838B85833039F089E0440F551F661FF1
:10205000771F8A95D1F79A01AB0161E1CE010E9409
:10206000970F882319F083E08D8346C00E94820970
:102070005B010E94460F8A878F3F49F40E948209C4
:102080006A197B096D327140A0F38FE003C08E3F67
:1020900031F08DE08D83CE010E94340F2DC0188663
:1020A0001F8281E08E838F8198858C159D0540F479
:1020B0000E94460F8F819885019698878F83F3CF72
:1020C0006701E00EF11ECE14DF0431F00E94460FCE
:1020D000F60181936F01F7CF8F819885080F191F43
:1020E00018870F838985882319F00115124048F05D
:1020F000CE010E94640F05C0CE010E94340F80E023
:1021000001C081E0DF91CF911F910F91FF90EF907F
:10211000DF90CF90BF90AF900895EF92FF920F9312
:102120001F93CF93DF93EC017901411551056105B0
:10213000710511F482E13CC08B85833039F089E070
:10214000440F551F661F771F8A95D1F79A01AB017F
:1021500068E1CE010E94970F882311F084E028C027
:102160008EEF0E943F0F87018EEFF81AF8018191E0
:102170008F010E943F0F0E151F05C1F78FEF0E94C0
:102180003F0F8FEF0E943F0F0E94460F8A878F718B
:10219000853031F081E18D83CE010E94340F09C07A
:1021A00068E572E0CE010E94490F811107C085E108
:1021B0008D83CE010E94340F80E013C020E030E018
:1021C000A9016DE0CE010E94970F811104C00E9409
:1021D000460F882311F084E1EBCFCE010E94340F2B
:1021E00081E0DF91CF911F910F91FF90EF900895C3
:1021F000CF93DF93EC018D818823A1F18C8187FF40
:102200002DC06E857F858889998941E00E94E5010E
:10221000882341F1EA8980E2E89FF0011124DF017F
:10222000A754BD4F1097F1F08D81823050F44B8947
:102230005C896D897E895C964D935D936D937C93EB
:102240005F978F89988DA98DBA8DE754FD4F938F35
:10225000828FB58BA48B8C818F778C83DF91CF910C
:102260000C94AA0180E0DF91CF9108958F929F9204
:10227000AF92BF92CF92DF92EF92FF920F931F9394
:10228000CF93DF93EC018D81811102C080E077C094
:102290000B891C892D893E890417150726073707E6
:1022A000A8F36A017B01823029F4CA86DB86EC86BA
:1022B000FD860DC0C114D104E104F10451F41E8265
:1022C0001F82188619861A861B861C861D8681E049
:1022D00056C08A849B84AC84BD84EB8DFC8D25859F
:1022E00030E0275F3F4FB501A4014150510961091A
:1022F0007109022E04C076956795579547950A9403
:10230000D2F7D701C6010197A109B10904C0B6955A
:10231000A795979587952A95D2F784179507A607CD
:10232000B70720F089288A288B2849F44F89588DCF
:10233000698D7A8D4E835F836887798704C0841B9B
:10234000950BA60BB70B4C015D018E010A5F1F4F69
:1023500081149104A104B10409F4A7CF4E815F81D7
:102360006885798598018B8D9C8D0E94CE0291E0C5
:10237000891A9108A108B1088111EACF87CFDF91AE
:10238000CF911F910F91FF90EF90DF90CF90BF9072
:10239000AF909F908F9008952F923F924F925F92AF
:1023A0006F927F928F929F92AF92BF92CF92DF9265
:1023B000EF92FF920F931F93CF93DF93EC016B018A
:1023C0004A018D81811103C08FEF9FEFD7C08C81AF
:1023D00080FFFACF4B885C886D887E884A855B8554
:1023E0006C857D85C401A0E0B0E093018201041BEF
:1023F000150B260B370B081719072A073B0718F48C
:102400004201841A950A54011E0126E0220E311C55
:10241000A114B10409F47EC04A855B856C857D8575
:102420002A0181E05822ED818A019B0189E03695DD
:102430002795179507958A95D1F78B8D9C8DE2305E
:1024400061F4FC01828D938DA48DB58DBC01CD010D
:10245000600F711F821F931F3FC0FC0174807A942C
:10246000702241145104C9F4711017C0452B462B3A
:10247000472B49F48F89988DA98DBA8D8E839F83C0
:10248000A887B9870AC04E815F81688579859101E7
:102490000E94CE02882309F497CFEB8DFC8D8E81AC
:1024A0009F81A885B9850297A109B109058404C057
:1024B000880F991FAA1FBB1F0A94D2F7468557851C
:1024C00060897189840F951FA61FB71FBC01CD01BC
:1024D000670D711D811D911D20E032E02419350921
:1024E00035012A153B0508F439012C8126FD04C06D
:1024F0006114F2E07F0681F4009103011091040160
:10250000209105013091060160177107820793073A
:10251000B1F402C0C40132C040E00E94E50188234A
:1025200009F452CFF201E754FD4FD601CF01860DD9
:10253000971DE817F90789F021912D93FACF7601BD
:1025400083019201AB01BC018091B9049091BA045E
:102550000E94F90F882309F437CFC60CD71C8A854F
:102560009B85AC85BD85860D971DA11DB11D8A87F4
:102570009B87AC87BD87A618B7084ACFDF91CF915C
:102580001F910F91FF90EF90DF90CF90BF90AF9091
:102590009F908F907F906F905F904F903F902F9083
:1025A0000895CF93DF93EC010E94F810882311F077
:1025B0001D8281E0DF91CF9108953F924F925F920B
:1025C0006F927F928F929F92AF92BF92CF92DF9243
:1025D000EF92FF920F931F93CF93DF93CDB7DEB7A8
:1025E0002C970FB6F894DEBF0FBECDBF5C01DC01A7
:1025F0005B968D909C905C971696CD90DD90ED90BB
:10260000FC901997C114D104E104F10439F0BFEF33
:10261000CB1ADB0AEB0AFB0A312C07C0F401C0809D
:10262000D180E280F38033243394F4018185928554
:10263000A385B4859C01AD012F5F3F4F4F4F5F4F86
:1026400029873A874B875C87260137011D821E82C6
:102650001F821886F40181859285A385B4852D811A
:102660003E814F815885281739074A075B0708F0D4
:1026700063C089859A85AB85BC858C159D05AE05A3
:10268000BF0550F482E0C82ED12CE12CF12C92E051
:10269000492E512C612C712C9E012F5F3F4FB701A9
:1026A000A601C4010E94CE02882309F445C0898195
:1026B0009A81AB81BC81892B8A2B8B2B41F026011F
:1026C00037019FEF491A590A690A790A05C0C414EB
:1026D000D504E604F70491F02D813E814F815885A1
:1026E0002F5F3F4F4F4F5F4F2D833E834F83588760
:1026F0003FEFC31AD30AE30AF30AACCF0FEF1FEF81
:102700002FEF3FE0B301A201C4010E942E028823F3
:1027100099F0D50116964D915D916D917C91199727
:10272000411551056105710549F093018201C4010C
:102730000E942E02811102C080E02AC0D5011696A7
:102740004D925D926D927C921997332051F0D30196
:10275000C2010196A11DB11DF40180839183A28362
:10276000B383F5018789908DA18DB28D892B8A2B3A
:102770008B2B69F4D50157964D925D926D927C92A8
:102780005A9714968C911497806814968C9381E0D4
:102790002C960FB6F894DEBF0FBECDBFDF91CF9160
:1027A0001F910F91FF90EF90DF90CF90BF90AF906F
:1027B0009F908F907F906F905F904F903F90089583
:1027C0002F923F924F925F926F927F928F929F9241
:1027D000AF92BF92CF92DF92EF92FF920F931F932F
:1027E000CF93DF9300D000D0CDB7DEB78C015B0173
:1027F0001A01DC0115968C9115978130C9F4149655
:102800008C9181FF15C082FF1BC0F8014389548958
:102810006589768982859385A485B5858417950712
:10282000A607B70769F0C8010E943611811108C0D8
:1028300081E090E0F8019383828380E090E039C1E9
:10284000610183C0D8015B968D919C915C97FC01DE
:10285000248121502A013B0139E0769467945794F2
:1028600047943A95D1F7722E74207A01F1E0FF2255
:10287000772009F476C080E092E08E199F09460126
:102880008C159D0508F44C01D8015B962D913C9167
:102890005C9716968D919D910D90BC91A02D0297FD
:1028A000A109B109F901058404C0880F991FAA1F65
:1028B000BB1F0A94D2F74685578560897189840FBA
:1028C000951FA61FB71F9C01AD01270D311D411D8E
:1028D000511D29013A01811432E0930609F088C0A4
:1028E0008091030190910401A0910501B09106012E
:1028F00084159505A605B70559F48FEF9FEFDC0108
:102900008093030190930401A0930501B093060105
:102910009501B301A2018091B9049091BA040E947B
:102920008D10882309F484CF9EEFB91AC818D908EE
:10293000F80182859385A485B585880D991DA11D13
:10294000B11D82879387A487B587D8011A964D91C8
:102950005D916D917C911D97C114D10409F072CFE6
:1029600087C0E114F10409F086CF16964D915D9170
:102970006D917C911997411551056105710559F4C7
:1029800057968D919D910D90BC91A02D0097A1051A
:10299000B10541F521C09E012F5F3F4F0E94CE023D
:1029A000882309F44BCF89819A81AB81BC81F801DE
:1029B000238D348DF9012789203129F048EF5FEF0D
:1029C0006FEF7FE004C048EF5FEF60E070E08417D6
:1029D0009507A607B70730F0C8010E94DD128111E4
:1029E0004ACF26CFF80186839783A087B18743CF4C
:1029F000E114F10429F5D8011A964D915D916D917C
:102A00007C911D9753968D919D910D90BC91A02D19
:102A1000481759076A077B0798F00E94AA01882384
:102A200009F406CF4092030150920401609205011F
:102A3000709206018091B00281608093B00208C05C
:102A400041E0C301B2010E94E501882309F4F0CE00
:102A5000D501F701E754FD4FCF01880D991DE81707
:102A6000F90719F02D912193FACFA80CB91C5ECF6C
:102A700053968D919D910D90BC91A02D8417950733
:102A8000A607B70740F4F801438B548B658B768B10
:102A9000848180688483D80114968C9183FD02C060
:102AA000C10107C0C8010E94F810882309F4C0CEF4
:102AB000F7CF0F900F900F900F90DF91CF911F9154
:102AC0000F91FF90EF90DF90CF90BF90AF909F90CD
:102AD0008F907F906F905F904F903F902F900895D0
:102AE000CF93DF931F92CDB7DEB7698341E050E00B
:102AF000BE016F5F7F4F0E94E0130F90DF91CF9177
:102B00000895789484B5826084BD84B5816084BD65
:102B100085B5826085BD85B5816085BD80916E007B
:102B2000816080936E0010928100809181008260AC
:102B300080938100809181008160809381008091E9
:102B400080008160809380008091B10084608093D8
:102B5000B1008091B00081608093B00080917A00D4
:102B6000846080937A0080917A00826080937A00FA
:102B700080917A00816080937A0080917A008068E9
:102B800080937A001092C10089E08093B10280E1C5
:102B90008093BA0086EC90E09093A5028093A40203
:102BA00082ED90E09093A3028093A20210923502EE
:102BB0001092340210923302109232021092A1024B
:102BC00081E08093A00210929F0261E082E10E9466
:102BD000A80E61E083E10E94A80E8091B9008E7F6B
:102BE0008093B9008091B9008D7F8093B90088E40B
:102BF0008093B80085E48093BC0086E094E09093D5
:102C0000370280933602E091CB04F091CC0482E04D
:102C10008083E091C704F091C8041082E091C90458
:102C2000F091CA048FEC80831092D304E091CF041A
:102C3000F091D00486E08083E091CD04F091CE0441
:102C4000808180618083E091CD04F091CE04808109
:102C500088608083E091CD04F091CE04808180680B
:102C60008083E091CD04F091CE0480818F7D8083BC
:102C700080918905882321F084E895E00E94D11293
:102C800010926505109263051092600510925F0521
:102C900088E080935E050E948209EB0180915E05C9
:102CA0000E94710D61E080915E050E94A80E1FB721
:102CB000F8948091A602811124C0EAEAF0E08491A0
:102CC000EEEBF0E09491E82FF0E0EE0FFF1FEA56F4
:102CD000FF4FA591B491EC91E92321F461E08AE0E2
:102CE0000E94A80E8AE00E94710D8CB580618CBD97
:102CF0008CB580648CBD8DE00E94710D8BE00E94CC
:102D0000710D8091A6028F5F8093A6021FBF82E59E
:102D10008093580510925905809158059091590556
:102D20000E947E0F1AE08FEF0E943F0F1150D9F7DB
:102D30008AE595E00E94810F20E030E0A90160E083
:102D40008AE595E00E94970F182F809364058130E3
:102D500049F00E9482096C1B7D0B613D774060F356
:102D600081E054C02AEA31E040E050E068E08AE5C2
:102D700095E00E94970F82FF03C0109365050EC077
:102D800014E00E94460F809364051150D1F78A3AEF
:102D900011F082E03BC082E080936505809165057B
:102DA000823021F0C12CD12C760105C0C12CD12C50
:102DB000E12C80E4F82E20E030E0A90167E38AE509
:102DC00095E00E94970FA701960169E28AE595E0D8
:102DD0000E94970F80936405882349F00E9482091E
:102DE0006C1B7D0B613D774030F388E00FC0809114
:102DF0006505823001F520E030E0A9016AE38AE54B
:102E000095E00E94970F882341F086E080935F054C
:102E10008AE595E00E94340F28C00E94460F807C0E
:102E2000803C19F483E0809365050E94460F0E9460
:102E3000460F0E94460F8AE595E00E94340F80E518
:102E4000809358051092590581E00E94420C882316
:102E500039F084E895E00E94EE0B882331F00DC034
:102E600080E00E94420C8111F4CF8AE791E00E9439
:102E7000DC0B8FE691E00E94DC0B64E670E080E002
:102E800090E00E94F40E0E941C09F7CFEBEBF4E0F7
:102E90001382128288EE93E0A0E0B0E084839583F1
:102EA000A683B78323E131E03183208325EC30E032
:102EB0003587248724EC30E03787268720EC30E004
:102EC000318B208B21EC30E0338B228B22EC30E0F5
:102ED000358B248B26EC30E0378B268B118E128EAF
:102EE000138E148EE8E5F5E020E520831182EAE5F3
:102EF000F5E0158216821186138642E050E060E00C
:102F000070E0448755876687778713A215A614A6B5
:102F100025E231E033A722A717A6E3EAF5E0138202
:102F2000128284839583A683B78321E331E03183C2
:102F30002083EFEAF5E01382128284839583A683CF
:102F4000B78383E491E091838083128E118E14867F
:102F50000895A1E21A2EAA1BBB1BFD010DC0AA1FDA
:102F6000BB1FEE1FFF1FA217B307E407F50720F0F2
:102F7000A21BB30BE40BF50B661F771F881F991F6D
:102F80001A9469F760957095809590959B01AC01B6
:102F9000BD01CF010895052E97FB1EF400940E94F9
:102FA000E21757FD07D00E94A91707FC03D04EF483
:102FB0000C94E21750954095309521953F4F4F4F17
:102FC0005F4F089590958095709561957F4F8F4FD5
:102FD0009F4F08950E94FB17A59F900DB49F900DE1
:102FE000A49F800D911D11240895EE0FFF1F0590E1
:102FF000F491E02D0994A29FB001B39FC001A39F5B
:10300000700D811D1124911DB29F700D811D112421
:10301000911D0895CF93DF938230910510F482E0E3
:1030200090E0E091CE05F091CF0520E030E0C0E0E7
:10303000D0E0309711F14081518148175907C0F015
:103040004817590761F482819381209719F09B8377
:103050008A832BC09093CF058093CE0526C021157F
:10306000310519F04217530718F49A01BE01DF0128
:10307000EF010280F381E02DDCCF2115310509F14C
:10308000281B390B2430310590F412968D919C91B8
:1030900013976115710521F0FB019383828304C0AE
:1030A0009093CF058093CE05FD01329644C0FD017B
:1030B000E20FF31F81939193225031092D933C939A
:1030C0003AC02091CC053091CD05232B41F42091BD
:1030D000090130910A013093CD052093CC05209150
:1030E0000701309108012115310541F42DB73EB794
:1030F00040910B0150910C01241B350BE091CC0544
:10310000F091CD05E217F307A0F42E1B3F0B281713
:10311000390778F0AC014E5F5F4F2417350748F050
:103120004E0F5F1F5093CD054093CC058193919333
:1031300002C0E0E0F0E0CF01DF91CF9108950F935E
:103140001F93CF93DF93009709F48CC0FC01329753
:10315000138212820091CE051091CF050115110541
:1031600081F420813181820F931F2091CC05309111
:10317000CD052817390779F5F093CD05E093CC05F7
:1031800071C0D80140E050E0AE17BF0750F412966E
:103190002D913C911397AD012115310509F1D9010C
:1031A000F3CF9D01DA013383228360817181860F21
:1031B000971F8217930769F4EC0128813981260F44
:1031C000371F2E5F3F4F318320838A819B819383FA
:1031D0008283452B29F4F093CF05E093CE0542C0BE
:1031E0001396FC93EE931297ED01499159919E012C
:1031F000240F351FE217F30771F480819181840F4A
:10320000951F029611969C938E93828193811396BB
:103210009C938E931297E0E0F0E0D80112968D9186
:103220009C911397009719F0F8018C01F6CF8D91BE
:103230009C9198012E5F3F4F820F931F2091CC05E8
:103240003091CD052817390769F4309729F4109289
:10325000CF051092CE0502C0138212821093CD05C5
:103260000093CC05DF91CF911F910F91089581E0DC
:1032700090E0F8940C945819FB01DC0104C08D9186
:103280000190801921F441505040C8F7881B990BD8
:103290000895FB01DC014150504048F001900D922F
:1032A0000020C9F701C01D9241505040E0F7089539
:0432B000F894FFCFC0
:1032B400010160FFFFFFFF0000D005800000000057
:1032C400000000B30826094B08FA087C085A086E67
:1032D40008000000007015260929012801000000DB
:1032E40000990185012901FC0020010C01FD000069
:1032F400000000B000340129012C018F00D203DC4E
:1033040003000000005B092609290128015B095B11
:10331400095B09000000005B092609290128010D49
:103324000A00656E642E77617600534420666169F5
:023334006C002B
:00000001FF
