:100000000C9465000C948D000C948D000C948D0064
:100010000C948D000C948D000C948D000C948D002C
:100020000C948D000C948D000C94870B0C948D0017
:100030000C948D000C94140B0C948D000C948D007A
:100040000C94470D0C948D000C94B70D0C94910DED
:100050000C948D000C948D000C948D000C948D00EC
:100060000C94E90D0C948D000000000800020100C2
:100070000003040700000000000000007C3C3E5E1E
:100080002B3D3F2F5B5D3B2C2A225C0000000000D3
:10009000250028002B0000000000240027002A0073
:1000A000040404040404040402020202020203031E
:1000B0000303030301020408102040800102040826
:1000C00010200102040810204A1811241FBECFEF8F
:1000D000D8E0DEBFCDBF11E0A0E0B1E0E2EDF4E397
:1000E00002C005900D92A239B107D9F725E0A2E927
:1000F000B1E001C01D92A03EB207E1F710E0C5E6F5
:10010000D0E004C02197FE010E94F918C436D1073F
:10011000C9F70E9470160C94671A0C940000DC0159
:100120005996ED91FC915A973097B9F0838994894B
:10013000A589B6894285538564857585841B950B91
:10014000A60BB70B811520E89207A105B10538F081
:100150008FEF9FE7A0E0B0E0089580E090E0089581
:10016000CF93DF931F92CDB7DEB76983DC01ED91AA
:10017000FC910280F381E02D41E050E0BE016F5F11
:100180007F4F09950F90DF91CF910895E091B501D0
:10019000F091B601309729F01092BE011092BD0186
:1001A00009940895CF93DF93AC01E091C101F091E0
:1001B000C2013097F1F09091C0018091BF01981772
:1001C000C0F090E0292F30E02617370754F4D9010A
:1001D000AB56BE4FEA01C20FD31F88818C939F5F3D
:1001E000F1CF1092C0016093BF01CB01DF91CF919D
:1001F0000994DF91CF9108950895E091C001809115
:10020000BF01E81730F4F0E0EB56FE4F808190E03C
:1002100008958FEF9FEF08959091C0018091BF01E5
:10022000981750F4E92FF0E0EB56FE4F208130E0B4
:100230009F5F9093C00102C02FEF3FEFC901089567
:100240008091BF0190E02091C001821B9109089527
:10025000089580E090E00895CF93DF9300D0CDB76C
:10026000DEB7CB01642F49835A830E94170F49815F
:10027000842F5A81952F0F900F90DF91CF91089581
:10028000CF93DF931F92CDB7DEB7698361E0CE01D4
:1002900001960E94170F81E090E00F90DF91CF91BF
:1002A00008958F929F92AF92BF92CF92DF92EF927A
:1002B000FF920F931F93CF93DF93CDB7DEB7A19734
:1002C0000FB6F894DEBF0FBECDBF8091BF0190E0A6
:1002D0002091C001821B9109029784F085EB95E083
:1002E0000E940C01E091CD04F091CE040190F081C8
:1002F000E02D682F8DEC94E00995E7CF85EB95E034
:100300000E940C018C016C01990FEE08FF08F7FEAA
:100310002BC0E091CD04F091CE040190F081E02D4E
:100320006DE28DEC94E0099522273327A9012C1961
:100330003D094E095F0919A2CE0181967C019AE020
:10034000892E912CA12CB12CCA01B901A5019401CF
:100350000E94AD18605DF70162937F0121153105A0
:100360004105510589F71AC0A701960119A2CE01CE
:1003700081967C018AE0882E912CA12CB12CCA0197
:10038000B901A50194010E94AD18605DF701629367
:100390007F01211531054105510589F7C7010E94EB
:1003A00048148DE691E00E944814083C110509F5B7
:1003B00061E086E00E94C21361E087E00E94C21300
:1003C00081E08093BD0280E791E00E94391068E8E7
:1003D00073E180E090E00E940E1460E086E00E94ED
:1003E000C21360E087E00E94C2138AE791E00E9496
:1003F0003910A1960FB6F894DEBF0FBECDBFDF91C6
:10040000CF911F910F91FF90EF90DF90CF90BF9011
:10041000AF909F908F9008958FB7F8948091BC0112
:100420008FBF089561E0FC0184810E94C213809116
:10043000BB0181111092BB0108958EBD00000DB467
:1004400007FEFDCF8EB508958FEF0C941D020F931C
:100450001F93CF93DF93EB010E943B0D8B010E9412
:1004600024028F3F49F00E943B0D601B710B6C17FB
:100470007D07A8F380E001C081E0DF91CF911F915B
:100480000F910895CF93DF93EC018E81882389F03B
:100490008F8198859C012F5F3F4F38872F83823053
:1004A000924018F40E942402F3CFCE010E9412025F
:1004B0001E82DF91CF9108958CBD9DBD0895CF938D
:1004C000DF93EC018091BB01811109C081E0809331
:1004D000BB0180916A0590916B050E945C0260E00F
:1004E0008C81DF91CF910C94C213CF92DF92FF9257
:1004F0000F931F93CF93DF9300D000D0CDB7DEB71B
:100500006C01F62E29833A834B835C830E9442025E
:10051000C6010E945F026CE271E0C6010E942702E0
:100520008F2D80640E941D0208E110E05C814B81E8
:100530003A812981DA01C901002E04C0B695A79538
:10054000979587950A94D2F729833A834B835C83E6
:100550000E941D020850110929813A814B815C815A
:10056000083F8FEF180731F7FF2029F0E8E0FE126F
:1005700004C087E803C085E901C08FEF0E941D0217
:1005800010E00E942402F601828787FF04C01F3F0B
:1005900011F01F5FF6CF0F900F900F900F90DF912B
:1005A000CF911F910F91FF90DF90CF900895AF9260
:1005B000BF92CF92DF92EF92FF920F931F93CF9350
:1005C000DF93EC016901C801820F931F81309240D3
:1005D00008F070C08E81882371F088819981AA818A
:1005E000BB81481759076A077B0729F48F819885D3
:1005F000C816D906B0F5488359836A837B838B85F7
:10060000833039F089E0440F551F661F771F8A95A4
:10061000D1F79A01AB0161E1CE010E9475028823F6
:1006200019F083E08D8346C00E943B0D5B010E9460
:1006300024028A878F3F49F40E943B0D6A197B0987
:100640006D327140A0F38FE003C08E3F31F08DE03A
:100650008D83CE010E9412022DC018861F8281E078
:100660008E838F8198858C159D0540F40E9424020D
:100670008F819885019698878F83F3CF6701E00E6D
:10068000F11ECE14DF0431F00E942402F6018193A2
:100690006F01F7CF8F819885080F191F18870F8377
:1006A0008985882319F00115124048F0CE010E9477
:1006B000420205C0CE010E94120280E001C081E02A
:1006C000DF91CF911F910F91FF90EF90DF90CF902E
:1006D000BF90AF900895EF92FF920F931F93CF9327
:1006E000DF93EC017901411551056105710511F4A4
:1006F00082E13CC08B85833039F089E0440F551F7F
:10070000661F771F8A95D1F79A01AB0168E1CE0188
:100710000E947502882311F084E028C08EEF0E94A9
:100720001D0287018EEFF81AF80181918F010E9456
:100730001D020E151F05C1F78FEF0E941D028FEFDE
:100740000E941D020E9424028A878F71853031F039
:1007500081E18D83CE010E94120209C068E572E03A
:10076000CE010E942702811107C085E18D83CE0151
:100770000E94120280E013C020E030E0A9016DE089
:10078000CE010E947502811104C00E9424028823B8
:1007900011F084E1EBCFCE010E94120281E0DF91E3
:1007A000CF911F910F91FF90EF9008958091C20219
:1007B0008823A9F140910301509104016091050142
:1007C000709106012BEC32E08091CB049091CC0427
:1007D0000E946B03811102C080E008954091B7012F
:1007E0005091B8016091B9017091BA01411551055C
:1007F0006105710591F02BEC32E08091CB04909172
:10080000CC040E946B03882339F31092B701109235
:10081000B8011092B9011092BA011092C20281E09F
:1008200008958F929F92AF92BF92EF92FF920F9393
:100830001F93CF934B015C01C42F809103019091D2
:100840000401A0910501B091060188159905AA053A
:10085000BB0501F10E94D603811102C080E020C0D7
:100860008BECE82E82E0F82E00E012E020E030E091
:10087000B501A4018091CB049091CC040E94D702D1
:10088000882361F38092030190920401A0920501F4
:10089000B09206018091C202C82BC093C20281E0CF
:1008A000CF911F910F91FF90EF90BF90AF909F90CD
:1008B0008F900895CF93DF93EC018D818823A1F170
:1008C0008C8187FF2DC06E857F858889998941E05D
:1008D0000E941104882341F1EA8980E2E89FF00137
:1008E0001124DF01A553BD4F1097F1F08D818230A7
:1008F00050F44B895C896D897E895C964D935D933C
:100900006D937C935F978F89988DA98DBA8DE553F0
:10091000FD4F938F828FB58BA48B8C818F778C83C7
:10092000DF91CF910C94D60380E0DF91CF910895B1
:10093000CF93DF93EC010E945A04882311F01D82AB
:1009400081E0DF91CF910895FC01818D928D009718
:1009500011F00C945A0408954F925F926F927F9217
:100960008F929F92AF92BF92CF92DF92EF92FF92BF
:100970000F931F93CF93DF93EC016A017B01280152
:100980003901423051056105710510F480E073C0F2
:1009900089859A85AB85BC850196A11DB11D8417FB
:1009A0009507A607B70790F38B889C88AD88BE880B
:1009B0008F89803129F4BB27AF2D9E2D8D2D09C045
:1009C000DB01CA0147E0B695A795979587954A95AB
:1009D000D1F7880E991EAA1EBB1E8091030190912B
:1009E0000401A0910501B091060188169906AA0696
:1009F000BB0679F48F898031A1F4DD24EE24FF2435
:100A0000C601880F991FFC01E553FD4F51824082BA
:100A100019C040E0C501B4010E9411048111EACF60
:100A2000B5CFE894C7F8DD24EE24FF24C601880F73
:100A3000991F880F991FFC01E553FD4F4082518299
:100A4000628273828091C20281608093C2028A892D
:100A5000823080F08D819E81AF81B885880E991E8D
:100A6000AA1EBB1E8092B7019092B801A092B90154
:100A7000B092BA0181E0DF91CF911F910F91FF9069
:100A8000EF90DF90CF90BF90AF909F908F907F902E
:100A90006F905F904F9008958F929F92AF92BF9208
:100AA000CF92DF92EF92FF920F931F93CF93DF933A
:100AB000FC0181859285A385B4850196A11DB11D98
:100AC00084179507A607B70710F480E05CC08389F8
:100AD0009489A589B689C789C03129F4852E962EB7
:100AE000A72EBB2409C04A015B01C7E0B694A794B6
:100AF00097948794CA95D1F7E9016A017B018F0128
:100B0000BC01CD01680D791D8A1D9B1D80900301DC
:100B100090900401A0900501B09006016815790538
:100B20008A059B0599F4F80187898031A9F4B701FA
:100B3000A601552766277727440F551FFA01E5536D
:100B4000FD4F80819181A0E0B0E018C040E00E949C
:100B500011048111E8CFB9CFB701A6014F7755270E
:100B600066277727440F551F440F551FFA01E55399
:100B7000FD4F80819181A281B381BF708883998369
:100B8000AA83BB8381E0DF91CF911F910F91FF90EA
:100B9000EF90DF90CF90BF90AF909F908F9008958F
:100BA0008F929F92AF92BF92CF92DF92EF92FF927D
:100BB0000F931F93CF93DF93EC018D81811102C0BE
:100BC00080E077C00B891C892D893E8904171507A1
:100BD00026073707A8F36A017B01823029F4CA8609
:100BE000DB86EC86FD860DC0C114D104E104F1045E
:100BF00051F41E821F82188619861A861B861C864F
:100C00001D8681E056C08A849B84AC84BD84EB8DB4
:100C1000FC8D258530E0275F3F4FB501A401415091
:100C2000510961097109022E04C07695679557959F
:100C300047950A94D2F7D701C6010197A109B109D6
:100C400004C0B695A795979587952A95D2F78417EE
:100C50009507A607B70720F089288A288B2849F42A
:100C60004F89588D698D7A8D4E835F836887798728
:100C700004C0841B950BA60BB70B4C015D018E01C4
:100C80000A5F1F4F81149104A104B10409F4A7CF96
:100C90004E815F816885798598018B8D9C8D0E943E
:100CA0004C0591E0891A9108A108B1088111EACF99
:100CB00087CFDF91CF911F910F91FF90EF90DF9041
:100CC000CF90BF90AF909F908F9008952F923F92BA
:100CD0004F925F926F927F928F929F92AF92BF924C
:100CE000CF92DF92EF92FF920F931F93CF93DF93F8
:100CF000EC016B014A018D81811103C08FEF9FEFE1
:100D0000D7C08C8180FFFACF4B885C886D887E8845
:100D10004A855B856C857D85C401A0E0B0E09301C8
:100D20008201041B150B260B370B081719072A071E
:100D30003B0718F44201841A950A54011E0126E06B
:100D4000220E311CA114B10409F47EC04A855B85D2
:100D50006C857D852A0181E05822ED818A019B0105
:100D600089E036952795179507958A95D1F78B8D4C
:100D70009C8DE23061F4FC01828D938DA48DB58D44
:100D8000BC01CD01600F711F821F931F3FC0FC018A
:100D900074807A94702241145104C9F4711017C000
:100DA000452B462B472B49F48F89988DA98DBA8DF9
:100DB0008E839F83A887B9870AC04E815F8168852B
:100DC000798591010E944C05882309F497CFEB8D1A
:100DD000FC8D8E819F81A885B9850297A109B109F3
:100DE000058404C0880F991FAA1FBB1F0A94D2F75D
:100DF0004685578560897189840F951FA61FB71F87
:100E0000BC01CD01670D711D811D911D20E032E0F7
:100E10002419350935012A153B0508F439012C81BF
:100E200026FD04C06114F2E07F0681F40091030105
:100E3000109104012091050130910601601771079E
:100E400082079307B1F402C0C40132C040E00E949F
:100E50001104882309F452CFF201E553FD4FD60166
:100E6000CF01860D971DE817F90789F021912D9381
:100E7000FACF760183019201AB01BC018091CB04D2
:100E80009091CC040E94D702882309F437CFC60C76
:100E9000D71C8A859B85AC85BD85860D971DA11DB8
:100EA000B11D8A879B87AC87BD87A618B7084ACF34
:100EB000DF91CF911F910F91FF90EF90DF90CF9036
:100EC000BF90AF909F908F907F906F905F904F906A
:100ED0003F902F9008953F924F925F926F927F9232
:100EE0008F929F92AF92BF92CF92DF92EF92FF923A
:100EF0000F931F93CF93DF93CDB7DEB72C970FB629
:100F0000F894DEBF0FBECDBF5C01DC015B968D9017
:100F10009C905C971696CD90DD90ED90FC90199783
:100F2000C114D104E104F10439F0BFEFCB1ADB0A9C
:100F3000EB0AFB0A312C07C0F401C080D180E280AB
:100F4000F38033243394F40181859285A385B4859D
:100F50009C01AD012F5F3F4F4F4F5F4F29873A876D
:100F60004B875C87260137011D821E821F821886EF
:100F7000F40181859285A385B4852D813E814F81C1
:100F80005885281739074A075B0708F063C0898529
:100F90009A85AB85BC858C159D05AE05BF0550F4C3
:100FA00082E0C82ED12CE12CF12C92E0492E512C5C
:100FB000612C712C9E012F5F3F4FB701A601C40128
:100FC0000E944C05882309F445C089819A81AB8130
:100FD000BC81892B8A2B8B2B41F0260137019FEF97
:100FE000491A590A690A790A05C0C414D504E604E5
:100FF000F70491F02D813E814F8158852F5F3F4F3F
:101000004F4F5F4F2D833E834F8358873FEFC31A67
:10101000D30AE30AF30AACCF0FEF1FEF2FEF3FE045
:10102000B301A201C4010E94AC04882399F0D50148
:1010300016964D915D916D917C91199741155105D1
:101040006105710549F093018201C4010E94AC045D
:10105000811102C080E02AC0D50116964D925D92A2
:101060006D927C921997332051F0D301C201019601
:10107000A11DB11DF40180839183A283B383F50187
:101080008789908DA18DB28D892B8A2B8B2B69F44A
:10109000D50157964D925D926D927C925A97149617
:1010A0008C911497806814968C9381E02C960FB6DF
:1010B000F894DEBF0FBECDBFDF91CF911F910F918E
:1010C000FF90EF90DF90CF90BF90AF909F908F9068
:1010D0007F906F905F904F903F9008952F923F9236
:1010E0004F925F926F927F928F929F92AF92BF9238
:1010F000CF92DF92EF92FF920F931F93CF93DF93E4
:1011000000D000D0CDB7DEB78C015B011A01DC0145
:1011100015968C9115978130C9F414968C9181FFA6
:1011200015C082FF1BC0F8014389548965897689FF
:1011300082859385A485B58584179507A607B7078B
:1011400069F0C8010E94D005811108C081E090E0DB
:10115000F8019383828380E090E039C1610183C00C
:10116000D8015B968D919C915C97FC012481215064
:101170002A013B0139E076946794579447943A9555
:10118000D1F7722E74207A01F1E0FF22772009F462
:1011900076C080E092E08E199F0946018C159D056E
:1011A00008F44C01D8015B962D913C915C97169602
:1011B0008D919D910D90BC91A02D0297A109B1092F
:1011C000F901058404C0880F991FAA1FBB1F0A9448
:1011D000D2F74685578560897189840F951FA61FB0
:1011E000B71F9C01AD01270D311D411D511D290166
:1011F0003A01811432E0930609F088C0809103011E
:1012000090910401A0910501B09106018415950506
:10121000A605B70559F48FEF9FEFDC01809303011A
:1012200090930401A0930501B09306019501B301C9
:10123000A2018091CB049091CC040E946B0388237F
:1012400009F484CF9EEFB91AC818D908F80182852D
:101250009385A485B585880D991DA11DB11D828733
:101260009387A487B587D8011A964D915D916D91AA
:101270007C911D97C114D10409F072CF87C0E1148D
:10128000F10409F086CF16964D915D916D917C9198
:101290001997411551056105710559F457968D91BE
:1012A0009D910D90BC91A02D0097A105B10541F530
:1012B00021C09E012F5F3F4F0E944C05882309F4F7
:1012C0004BCF89819A81AB81BC81F801238D348D0C
:1012D000F9012789203129F048EF5FEF6FEF7FE0B8
:1012E00004C048EF5FEF60E070E084179507A60741
:1012F000B70730F0C8010E946B0781114ACF26CF93
:10130000F80186839783A087B18743CFE114F10466
:1013100029F5D8011A964D915D916D917C911D979B
:1013200053968D919D910D90BC91A02D4817590712
:101330006A077B0798F00E94D603882309F406CF3A
:1013400040920301509204016092050170920601DF
:101350008091C20281608093C20208C041E0C30153
:10136000B2010E941104882309F4F0CED501F701DF
:10137000E553FD4FCF01880D991DE817F90719F0C6
:101380002D912193FACFA80CB91C5ECF53968D9165
:101390009D910D90BC91A02D84179507A607B707C6
:1013A00040F4F801438B548B658B768B8481806885
:1013B0008483D80114968C9183FD02C0C10107C0BB
:1013C000C8010E945A04882309F4C0CEF7CF0F90B9
:1013D0000F900F900F90DF91CF911F910F91FF9081
:1013E000EF90DF90CF90BF90AF909F908F907F90C5
:1013F0006F905F904F903F902F900895CF93DF9321
:101400001F92CDB7DEB7698341E050E0BE016F5F48
:101410007F4F0E946E080F90DF91CF910895CF9378
:10142000DF93EC01898D9A8D009739F481E090E08B
:101430009B838A8380E090E00BC0FC0113821282C0
:101440000E946E08E98DFA8D22813381232B71F77A
:10145000DF91CF9108954F925F926F927F92AF92FA
:10146000BF92CF92DF92EF92FF920F931F93CF9391
:10147000DF9300D000D0CDB7DEB78C0149835A830B
:101480006B837C835901C12CD12C7601412C82E0E5
:10149000582E612C712C49815A816B817C819E016F
:1014A0002F5F3F4FC8010E944C05882351F1D301A3
:1014B000C201F801058404C0880F991FAA1FBB1F31
:1014C0000A94D2F7C80ED91EEA1EFB1E49815A8122
:1014D0006B817C818789803129F088EF9FEFAFEFA6
:1014E000BFE004C088EF9FEFA0E0B0E048175907C5
:1014F0006A077B0780F2F501C082D182E282F38223
:1015000081E00F900F900F900F90DF91CF911F917E
:101510000F91FF90EF90DF90CF90BF90AF907F90B2
:101520006F905F904F900895EF92FF920F931F93EB
:10153000CF93DF93EC017B018A011B821A8288EE34
:1015400093E0A0E0B0E08C839D83AE83BF8381E411
:1015500091E0998388838DE190E00E940E199A8F23
:10156000898F009779F02DE1F701DC0101900D9250
:101570002A95E1F74CE050E0B801CE010C960E94AC
:10158000581A188EDF91CF911F910F91FF90EF9015
:101590000895CF93DF931F92CDB7DEB741E050E0BF
:1015A000BE016F5F7F4F0E946606019719F4898123
:1015B00090E002C08FEF9FEF0F90DF91CF910895E1
:1015C000FC01818D928D009711F00C94C90A8FEF68
:1015D0009FEF08950F931F93CF93DF93FC01818DAD
:1015E000928D0097B9F0EF010E94C90A8C010F3F5C
:1015F0008FEF180791F0898D9A8DFC0142855385F4
:101600006485758541505109610971090E94D005B1
:10161000C80105C080E090E002C08FEF9FEFDF912E
:10162000CF911F910F9108951F920F920FB60F92B5
:1016300011242F933F938F939F93EF93FF93809168
:10164000020186FD1CC02091BD0227FF23C0E0914E
:101650003C0280913B0290E4E99FF0011124E80FE5
:10166000F11DE35CFD4F808190E0332721950CF460
:10167000309502C0959587952A95E2F71EC0909106
:10168000940181E0892780939401809194018823BB
:10169000D1F232C0E0913C0280913B0290E4E99F9C
:1016A000F0011124E80FF11DE35CFD4F808190E013
:1016B00002C0880F991F2A95E2F790938B008093C0
:1016C0008A00909389008093880080913B028F5F0D
:1016D00080933B0280913B02803470F010923B0279
:1016E000E0913C02F0E0E050FF4F81E08083909178
:1016F0003C02892780933C02FF91EF919F918F914B
:101700003F912F910F900FBE0F901F9018951F9231
:101710000F920FB60F9211242F933F934F935F9325
:101720006F937F938F939F93AF93BF93EF93FF93A9
:10173000E0913C0281E0E827F0E0E050FF4F90812B
:10174000992309F450C090913C028927809393011A
:1017500080916F008F7D80936F00789481EC95E08D
:101760000E948F002091BE023091BF0228173907D6
:10177000E8F08091020183FF07C06CE270E080E036
:1017800090E00E94FC152AC080916F008E7D8093AE
:101790006F00E091DA05F091DB05309721F085814B
:1017A00081110E9426101092C0021DC06091930109
:1017B00080E4689FB0011124635C7D4F8091DA055D
:1017C0009091DB05009721F040E450E00E9466060E
:1017D000E0919301F0E0E050FF4F108280916F00A4
:1017E000806280936F00FF91EF91BF91AF919F91C5
:1017F0008F917F916F915F914F913F912F910F90BA
:101800000FBE0F901F901895FC01538D448D252F0E
:1018100030E0842F90E0821B930B541710F0CF968A
:10182000089501970895FC01918D828D981761F0BC
:10183000828DDF01A80FB11D5D968C91928D9F5F07
:101840009F73928F90E008958FEF9FEF0895FC01B2
:10185000918D828D981731F0828DE80FF11D858D65
:1018600090E008958FEF9FEF0895FC01918D228DF8
:10187000892F90E0805C9F4F821B91098F7399277D
:1018800008958DEC94E00E94350C21E0892B09F439
:1018900020E0822F0895FC01848DDF01A80FB11D87
:1018A000A35ABF4F2C91848D90E001968F73992796
:1018B000848FA689B7892C93A089B1898C91806483
:1018C0008C93938D848D981306C00288F389E02D44
:1018D00080818F7D80830895EF92FF920F931F93F5
:1018E000CF93DF93EC0181E0888F9B8D8C8D9813D3
:1018F00005C0E889F989808185FD24C0F62E0B8D0D
:1019000010E00F5F1F4F0F731127E02E8C8DE81230
:101910000CC00FB607FCFACFE889F989808185FFF2
:10192000F5CFCE010E944B0CF1CF8B8DFE01E80F5D
:10193000F11DE35AFF4FF0820B8FEA89FB8980810A
:10194000806207C0EE89FF896083E889F989808118
:101950008064808381E090E0DF91CF911F910F91AF
:10196000FF90EF900895CF93DF93EC01888D88234B
:10197000C9F0EA89FB89808185FD05C0A889B989FC
:101980008C9186FD0FC00FB607FCF5CF808185FFD7
:10199000F2CFA889B9898C9185FFEDCFCE010E9445
:1019A0004B0CE7CFDF91CF91089580E090E0892B39
:1019B00029F00E94410C81110C9400000895CF92EF
:1019C000DF92EF92FF920F931F93CF93DF936C01FF
:1019D0007A018B01C0E0D0E0CE15DF0589F0D80197
:1019E0006D918D01D601ED91FC910190F081E02D7A
:1019F000C6010995892B11F47E0102C02196ECCF16
:101A0000C701DF91CF911F910F91FF90EF90DF9071
:101A1000CF90089585ED8093BC008091BC0084FD3B
:101A2000FCCF10922C0208950E943B1A3FB7F89405
:101A30008091370290913802A0913902B0913A0218
:101A400026B5A89B05C02F3F19F00196A11DB11D19
:101A50003FBFBA2FA92F982F8827820F911DA11D54
:101A6000B11DBC01CD0142E0660F771F881F991F91
:101A70004A95D1F708952FB7F89460913302709189
:101A8000340280913502909136022FBF08951F9243
:101A90000F920FB60F9211242F933F938F939F9322
:101AA000AF93BF938091330290913402A09135029D
:101AB000B09136023091320223E0230F2D3720F40B
:101AC0000196A11DB11D05C026E8230F0296A11D98
:101AD000B11D209332028093330290933402A0937D
:101AE0003502B09336028091370290913802A0916E
:101AF0003902B0913A020196A11DB11D80933702BF
:101B000090933802A0933902B0933A02BF91AF91FB
:101B10009F918F913F912F910F900FBE0F901F902B
:101B200018951F920F920FB60F9211242F933F9387
:101B30004F935F936F937F938F939F93AF93BF93D5
:101B4000EF93FF938DEC94E00E944B0CFF91EF918B
:101B5000BF91AF919F918F917F916F915F914F91C5
:101B60003F912F910F900FBE0F901F9018951F92CD
:101B70000F920FB60F9211242F938F939F93EF9391
:101B8000FF93E091DD04F091DE048081E091E304B5
:101B9000F091E40482FD12C090818091E6048F5F91
:101BA0008F732091E704821751F0E091E604F0E092
:101BB000E353FB4F958F8093E60401C08081FF9132
:101BC000EF919F918F912F910F900FBE0F901F90CB
:101BD00018951F920F920FB60F9211242F933F93D7
:101BE0004F935F936F937F938F939F93AF93BF9325
:101BF000EF93FF938091B900887F803609F49CC0F1
:101C000068F5883209F45BC090F4803109F454C05F
:101C100038F4882309F4F6C0883009F44DC0F6C0C2
:101C2000883109F44CC0803209F45DC0EFC08034C3
:101C300009F468C048F4803309F455C0883309F0CA
:101C4000E5C080930602D8C0803509F44FC08835BE
:101C500009F45DC0883409F0D9C0D6C0883909F4C8
:101C6000C7C0A8F4883709F467C038F4883609F487
:101C700063C0803709F460C0C9C0883809F4B8C0AF
:101C8000803909F45FC0803809F0C0C05BC0803B78
:101C900009F486C038F4803A09F466C0883A09F439
:101CA0007FC0B4C0803C09F4A7C0883C09F4A4C03C
:101CB000883B09F48AC0AAC08091290210C0909183
:101CC000280280912702981770F5E091280281E0A0
:101CD0008E0F80932802F0E0E95FFD4F80818093B2
:101CE000BB0085EC86C0809306028EC0E09128027E
:101CF00081E08E0F809328028091BB00F0E0E95FC5
:101D0000FD4F808390912802809127026EC0E09160
:101D1000280281E08E0F809328028091BB00F0E0C2
:101D2000E95FFD4F808380912B0281116DC081E0BE
:101D300080932A0284EA61C083E080932C0210928F
:101D40000502CFCF80910502803208F051C0E091AA
:101D5000050281E08E0F809305028091BB00F0E0C8
:101D6000EB51FE4F8083BDCF85EC8093BC00109279
:101D70002C0280910502803230F4E0910502F0E0FF
:101D8000EB51FE4F10826091050270E0E0912D0250
:101D9000F0912E0285EE91E009951092050236C071
:101DA00084E080932C021092E4011092E301E09110
:101DB0002F02F091300209958091E301811105C055
:101DC00081E08093E3011092C301E091E40181E09E
:101DD0008E0F8093E401F0E0ED53FE4F80818093FD
:101DE000BB009091E4018091E301981708F479CF4A
:101DF00085E88093BC000AC085EC8093BC001092FB
:101E00002C0204C0109206020E940A0DFF91EF916D
:101E1000BF91AF919F918F917F916F915F914F9102
:101E20003F912F910F900FBE0F901F9018954091EA
:101E3000E301262F30E0240F311D21323105DCF47F
:101E400020912C022430C9F4FC0180E090E0861738
:101E500058F43091E3012191DC01AD53BE4FA30F43
:101E6000B11D2C930196F3CF8091E301680F60932D
:101E7000E30180E0089581E0089582E00895AF9243
:101E8000BF92CF92DF92EF92FF920F931F93CF9367
:101E9000DF93CDB7DEB72B970FB6F894DEBF0FBE3A
:101EA000CDBF7C01CE0101966C01FC0190E28BE07C
:101EB0008C0D91938E13FDCFDA0120E037E09D91D8
:101EC000992339F19E3219F0ECE7F0E00AC03A307C
:101ED00009F4AAC028E03AE0F2CF3196891709F454
:101EE000A3C084918111F9CF321708F49DC08FED02
:101EF000890F8E3508F098C081E0820FF601E20F5D
:101F0000F11D2FE9290F2A3108F490529083282FD0
:101F1000D6CF8981803209F487C08B01FB01838D84
:101F2000948DF701948F838FFB01168217821086A0
:101F300011861286138614861586A12CF8018285D7
:101F40009385A485B58543895489658976898417E5
:101F50009507A607B70708F067C025E0B695A795CF
:101F6000979587952A95D1F7F82FFF70BF2EF80126
:101F70008581823008F458C0C8010E94C90A97FDC3
:101F800053C0F80182859385A485B5854F96A11D20
:101F9000B11D82879387A487B587F0E2BF9EC001F9
:101FA0001124BC0165537D4F61157105E9F1FB01F9
:101FB00020812223B9F1253EE1F04BE050E0C6013B
:101FC0000E94401A892B09F0B9CF6B2DC7012B96BF
:101FD0000FB6F894DEBF0FBECDBFDF91CF911F913A
:101FE0000F91FF90EF90DF90CF90BF90AF900C9447
:101FF0001A16A11014C0F701B28A40910301509142
:102000000401609105017091060146875787608B36
:10201000718BFC01E553FD4F8081882329F0AA24B0
:10202000A3948CCFAA2039F380E02B960FB6F894B6
:10203000DEBF0FBECDBFDF91CF911F910F91FF90FB
:10204000EF90DF90CF90BF90AF9008958091DA0528
:102050009091DB05009761F00E9498048091DA0569
:102060009091DB050E94A3191092DB051092DA050E
:1020700008954F925F926F927F928F929F92AF924C
:10208000BF92CF92DF92EF92FF920F931F93CF9365
:10209000DF93CDB7DEB7C257D1090FB6F894DEBFD4
:1020A0000FBECDBF4C019091C3028091CA02981718
:1020B00009F477C01092C00280916F008E7D8093EA
:1020C0006F000E940E1681110E94261080918000E0
:1020D00087FD1AC0809102018062809302011092F4
:1020E0008100109280008091C3020E94DD158091D2
:1020F000C302863009F443C08E3209F444C08530EF
:1021000009F043C081E03CC02091880030918900F3
:1021100040E050E08091C8029091C90248175907E9
:10212000C8F637FD06C0B9018217930720F4BC0139
:1021300002C060E070E070938B0060938A0037FD0E
:1021400006C0B9018217930720F4BC0102C060E009
:1021500070E07093890060938800C2976AE070E035
:10216000E0918400F0918500E817F907C8F3615009
:102170007109B1F74F5F5F4F21503109CBCF82E03A
:102180008093C10204C083E0FBCF1092C1028DB5E1
:1021900081608DBD8CB58C7F8CBD8091C302809396
:1021A000CA021092C00280916F008E7D80936F00F2
:1021B0000E940E1681110E94261019A218A283E215
:1021C00091E09F8F8E8F1BA21C821B829A83898332
:1021D0001E82CE014E960E945A143401CE01019601
:1021E0006C018E01025E1F4F2C016FE270E0C30193
:1021F0000E944D1A009709F441C0F30120812F324B
:1022000021F4FFEF6F1A7F0AF0CF86198D3008F0A6
:102210008CE0E82EF12CA701B301CE01885A9F4F24
:102220000E94581AE8E5F0E0EC0FFD1FEE0DFF1DCF
:102230001082C6010E949804F6018581882351F01E
:102240001EAE1DAE83E291E09CAF8BAF21961FAE18
:10225000219762C0AE01485A5F4FB801C6010E9483
:102260003F0F882369F36E0C7F1CC8010E949804FD
:10227000902F812F8601C92ED82EB7CF5301A818D1
:10228000B908F801828193819EAF8DAF83E291E01E
:102290009CAF8BAF84818FAF858121968FAF2197C3
:1022A00086819781A085B18525968CAF9DAFAEAF15
:1022B000BFAF259782859385A485B58529968CAF78
:1022C0009DAFAEAFBFAF299786859785A089B189AD
:1022D0002D968CAF9DAFAEAFBFAF2D9782892E9656
:1022E0008FAF2E9783899489A589B68962968CAF22
:1022F0009DAFAEAFBFAF62978789908DA18DB28D34
:1023000066968CAF9DAFAEAFBFAF6697838D948D51
:1023100068969FAF8EAF6897A80CB91CF5018081B5
:1023200081114DC08DAD9EAD9C838B8383E291E086
:102330009A8389838FAD8D8321968FAD21978E836C
:1023400025968CAD9DADAEADBFAD25978F8398879B
:10235000A987BA8729968CAD9DADAEADBFAD299743
:102360008B879C87AD87BE872D968CAD9DADAEAD1E
:10237000BFAD2D978F87988BA98BBA8B2E968FAD7B
:102380002E978B8B62968CAD9DADAEADBFAD629737
:102390008C8B9D8BAE8BBF8B66968CAD9DADAEADA1
:1023A000BFAD6697888F998FAA8FBB8F68968EADC9
:1023B0009FAD68979D8F8C8F4FE851E069C019A23F
:1023C00018A203E211E01F8F0E8F1BA221968FAD82
:1023D0002197811116C06C961FAE1EAE6C9788EEC9
:1023E00093E0A0E0B0E0A0968CAF9DAFAEAFBFAFE2
:1023F000A097E3961FAE1EAEE397A5961FAEA597D6
:102400004DC0A501BE01655C7F4FCE014E960E9476
:102410003F0F882301F3CE01CB960E94980488A138
:1024200099A19C838B831A8309838AA18D838BA1B5
:102430008E838CA19DA1AEA1BFA18F839887A98710
:10244000BA8788A599A5AAA5BBA58B879C87AD87C8
:10245000BE878CA59DA5AEA5BFA58F87988BA98BA0
:10246000BA8B88A98B8B89A99AA9ABA9BCA98C8B9B
:102470009D8BAE8BBF8B8DA99EA9AFA9B8AD888F60
:10248000998FAA8FBB8F89AD9AAD9D8F8C8FA50137
:10249000B201CE01885A9F4F0E94940A6C968EAD6D
:1024A0009FAD6C979093C4058093C305A0968CADA7
:1024B0009DADAEADBFADA0978093C5059093C60509
:1024C000A093C705B093C805A4968CAD9DADAEADE5
:1024D000BFADA4978093C9059093CA05A093CB057F
:1024E000B093CC058DE0E8E5F0E0EC0FFD1F3C96E5
:1024F000ADECB5E001900D928A95E1F7E3968EADD3
:102500009FADE3979093DB058093DA050E940E164A
:10251000882309F41FC168E070E080E090E00E9429
:10252000FC1587E5898381E48A8386E58B8385E4CE
:102530008C83820134E0F32EF40C81EC95E00E9450
:10254000E00AF80121918F01022E000C330B821753
:10255000930711F4FE12F1CF68E170E080E090E0A3
:102560000E94FC1581EC95E00E94E00A9093C7025E
:102570008093C60281EC95E00E94E00A20E030E002
:10258000382F8091C6029091C702822B932B909393
:10259000C7028093C6026CE270E080E090E00E9487
:1025A000FC1580E490E09093BF028093BE0281E02E
:1025B0008093C00280910201982F9F77909302012F
:1025C0002091C6023091C7022B3F3F4A30F020ECE9
:1025D0003DE53093C7022093C6022091C602309198
:1025E000C70240E050E086FF05C060E075E38CE084
:1025F00090E004C060E07AE688E190E00E94CF18A5
:102600006AE0629FC001639F900D11249093C902FC
:102610008093C80281EC95E00E94E00A8C0181EC75
:1026200095E00E94EA0A800F911F97FD019695950B
:1026300087954091BD022091880030918900141641
:1026400034F402C0369527954A95E2F709C055271C
:1026500041950CF4509502C0220F331F4A95E2F7C2
:10266000992740E050E02817390708F046C0B90123
:102670006F5F7F4F6217730728F09B0186179707DC
:1026800008F49C01FA01E35CFD4F20834F5F5F4F2C
:102690004034510561F740E050E0B9016F5F7F4F72
:1026A0006217730728F09B018617970708F49C01AF
:1026B000FA01E358FD4F20834F5F5F4F40345105CF
:1026C00061F710923C0210920001109201011092E9
:1026D0003B02F8948091C8029091C90290938700C0
:1026E0008093860082EB8093800089E18093810053
:1026F00081E280936F0078942DC0B9016150710917
:102700006817790728F06217730718F49B0101C056
:102710009C01FA01E35CFD4F20834F5F5F4F403423
:10272000510559F740E050E0B9016150710968174F
:10273000790728F06217730718F49B0101C09C0108
:10274000FA01E358FD4F20834F5F5F4F403451053E
:1027500059F7B7CFCE58DF4F0FB6F894DEBF0FBE94
:10276000CDBFDF91CF911F910F91FF90EF90DF9040
:10277000CF90BF90AF909F908F907F906F905F9021
:102780004F90089590E0FC01E859FF4F3491FC010F
:10279000EC54FF4F2491FC01E056FF4FE491EE23EF
:1027A00009F43BC0332339F1333091F038F4313040
:1027B000A9F0323001F584B58F7D12C0373091F029
:1027C0003830A1F03430B9F4809180008F7D03C09F
:1027D000809180008F77809380000DC084B58F77C3
:1027E00084BD09C08091B0008F7703C08091B00094
:1027F0008F7D8093B000F0E0EE0FFF1FE457FF4F96
:10280000A591B4918FB7F894EC91611103C0209514
:102810002E2301C02E2B2C938FBF08958F929F9251
:10282000AF92BF92CF92DF92EF92FF926B017C0149
:102830000E94160D4B015C01C114D104E104F104A6
:10284000F1F00E94160DDC01CB0188199909AA0943
:10285000BB09883E9340A105B10570F321E0C21A7F
:10286000D108E108F10888EE880E83E0981EA11CCB
:10287000B11CC114D104E104F10419F7DDCFFF90BC
:10288000EF90DF90CF90BF90AF909F908F90089582
:10289000009769F0FC0101900020E9F73197AF0142
:1028A000481B590BBC018DEC94E00C94DF0C80E0CC
:1028B00090E00895CF93DF93FC012581222311F04E
:1028C00080E049C0EC0180918F058031C1F482E045
:1028D0008583178A108E118E128E809190059091AB
:1028E0009105A0E0B0E025E0880F991FAA1FBB1F4B
:1028F0002A95D1F7838B948BA58BB68B19C0803228
:10290000F9F683E08583409192055091930560919B
:10291000940570919505478B508F618F728F9F0141
:102920002D5E3F4F88E795E00E942B0A882341F2F5
:1029300088E795E09C8F8B8F81E08C831E821F82BD
:10294000188619861A861B861C861D861E861F867B
:10295000188A198A1A8ADF91CF9108958F929F92CF
:10296000AF92BF92CF92DF92EF92FF92CF93DF931D
:10297000C82F8CE695E09093CC048093CB04CC23B5
:1029800069F1C53010F080E00DC140E060E070E01A
:10299000CB010E9411048823B1F320E1C29FC00142
:1029A000112485549D4FFC01E254FE4F20812F7766
:1029B00051F73C96408151816281738144365105C3
:1029C0006105710500F33497C080D180E280F38007
:1029D000C114D104E104F10421F4D5CFC12CD12CD0
:1029E000760140E0C701B6010E941104882359F224
:1029F0008091D6029091D7028115924021F6A09144
:102A0000DB02AA2309F4BFCF6091D9027091DA02E8
:102A10006115710509F4B7CF2091D802222309F47A
:102A2000B2CFA0938A0520937C0580E030E0E1E0FE
:102A3000F0E0C82FAF01082E02C0440F551F0A94C2
:102A4000E2F72417350741F0982F8F5F983089F708
:102A500089E08093850597CF809385052091E102D9
:102A60003091E2022115310519F040E050E008C034
:102A70002091EF023091F0024091F1025091F20268
:102A800020937D0530937E0540937F05509380050C
:102A900046015701860E971EA11CB11C80928B0522
:102AA00090928C05A0928D05B0928E05E091DC028B
:102AB000F091DD02F0939105E0939005B0E00E9463
:102AC000EE18860E971EA81EB91E8092920590924F
:102AD0009305A0929405B092950585E0EE0FFF1F37
:102AE0008A95E1F7E150FE4FEF2FFF27E6958E0E16
:102AF0009F1EA11CB11C8092860590928705A09212
:102B00008805B09289052091DE023091DF022115FF
:102B1000310521F0A90160E070E008C04091EB02AE
:102B20005091EC026091ED027091EE02D701C60166
:102B300088199909AA09BB09840F951FA61FB71FF9
:102B400004C0B695A79597958795CA95D2F78093B7
:102B5000810590938205A0938305B0938405853FFA
:102B60002FE09207A105B10510F48CE018C0853F55
:102B70009F4FA105B10510F480E111C08091F702CB
:102B80009091F802A091F902B091FA028093920517
:102B900090939305A0939405B093950580E280935C
:102BA0008F0581E0DF91CF91FF90EF90DF90CF9084
:102BB000BF90AF909F908F90089590E0FC01EC54EF
:102BC000FF4F2491FC01E056FF4F8491882399F038
:102BD00090E0880F991FFC01EA56FF4FA591B49130
:102BE000FC01E457FF4F859194918FB7F894EC91D5
:102BF000E22BEC938FBF08952091DA053091DB052D
:102C00002115310541F0AB01BC01C9010E94D0057D
:102C100091E0811101C090E0892F0895E091DA05DB
:102C2000F091DB05309729F08581882311F081E050
:102C300008950895CF93DF93EC016A8B809103018F
:102C400090910401A0910501B09106018E879F87A4
:102C5000A88BB98B80E2689FF0011124E553FD4FEA
:102C60004489558960E070E0BA01552744274F8BAD
:102C7000588F698F7A8F828D938DA0E0B0E0482BBA
:102C8000592B6A2B7B2B4F8B588F698F7A8F8385BB
:102C9000887151F4848D958DA68DB78D8B8B9C8B0F
:102CA000AD8BBE8B81E00EC0803111F080E015C08D
:102CB0009E012D5E3F4F8B8D9C8D0E942B0A882399
:102CC000A9F384E08D8381E08C831E821F821886A5
:102CD00019861A861B861C861D86DF91CF91089562
:102CE000789484B5826084BD84B5816084BD85B5E7
:102CF000826085BD85B5816085BD80916E008160F3
:102D000080936E0010928100809181008260809398
:102D1000810080918100816080938100809180009A
:102D20008160809380008091B10084608093B100C5
:102D30008091B00081608093B00080917A008460BF
:102D400080937A0080917A00826080937A008091EB
:102D50007A00816080937A0080917A008068809305
:102D60007A001092C10089E08093C30286E00E943D
:102D7000DD1587E00E94DD1560E086E00E94C21349
:102D800060E087E00E94C21380E18093BA0086EC85
:102D900090E09093300280932F0282ED90E0909328
:102DA0002E0280932D021092C0011092BF0110924A
:102DB000BE011092BD0110922C0281E080932B0283
:102DC00010922A0261E082E10E94C21361E083E175
:102DD0000E94C2138091B9008E7F8093B9008091C8
:102DE000B9008D7F8093B90088E48093B80085E4B2
:102DF0008093BC0081E591E09093C2018093C10172
:102E0000E091DD04F091DE0482E08083E091D9045A
:102E1000F091DA041082E091DB04F091DC048FEC95
:102E200080831092E504E091E104F091E20486E0F1
:102E30008083E091DF04F091E004808180618083F1
:102E4000E091DF04F091E004808188608083E0916C
:102E5000DF04F091E004808180688083E091DF04EA
:102E6000F091E00480818F7D808380919B05882391
:102E700021F086E995E00E9498041092770510925F
:102E80007505109272051092710588E080937005A7
:102E90000E943B0DEB01809170050E94DD1561E001
:102EA000809170050E94C2131FB7F894809131027F
:102EB000811124C0EAEAF0E08491EEEBF0E0949115
:102EC000E82FF0E0EE0FFF1FEA56FF4FA591B491F7
:102ED000EC91E92321F461E08AE00E94C2138AE0C8
:102EE0000E94DD158CB580618CBD8CB580648CBD75
:102EF0008DE00E94DD158BE00E94DD15809131028E
:102F00008F5F809331021FBF82E580936A05109224
:102F10006B0580916A0590916B050E945C021AE036
:102F20008FEF0E941D021150D9F78CE695E00E94A8
:102F30005F0220E030E0A90160E08CE695E00E94AD
:102F40007502182F80937605813049F00E943B0D61
:102F50006C1B7D0B613D774060F381E054C02AEA31
:102F600031E040E050E068E08CE695E00E947502B8
:102F700082FF03C0109377050EC014E00E94240264
:102F8000809376051150D1F78A3A11F082E03BC068
:102F900082E08093770580917705823021F0C12C03
:102FA000D12C760105C0C12CD12CE12C80E4F82E67
:102FB00020E030E0A90167E38CE695E00E9475020D
:102FC000A701960169E28CE695E00E947502809364
:102FD0007605882349F00E943B0D6C1B7D0B613DFB
:102FE000774030F388E00FC080917705823001F59B
:102FF00020E030E0A9016AE38CE695E00E947502CA
:10300000882341F086E0809371058CE695E00E946C
:10301000120228C00E942402807C803C19F483E0C4
:10302000809377050E9424020E9424020E942402B9
:103030008CE695E00E94120280E580936A0510926A
:103040006B0581E00E94AE14882339F086E995E093
:103050000E945A14882331F00DC080E00E94AE1403
:103060008111F4CF87E891E00E9448148DE691E049
:103070000E944814C1E0C093BD028AE791E00E941B
:10308000391060E477E78BE190E00E940E140E9413
:10309000D50CF1CFEDECF4E01382128288EE93E0D0
:1030A000A0E0B0E084839583A683B78321E131E07B
:1030B0003183208325EC30E03587248724EC30E011
:1030C0003787268720EC30E0318B208B21EC30E0F5
:1030D000338B228B22EC30E0358B248B26EC30E0D6
:1030E000378B268B118E128E138E148EEAE6F5E046
:1030F00020E520831182ECE6F5E015821682118628
:10310000138642E050E060E070E0448755876687B0
:10311000778713A215A614A623E231E033A722A7CE
:1031200017A6E5EBF5E01382128284839583A683CC
:10313000B7832FE231E031832083E1ECF5E01382A5
:10314000128284839583A683B78381E491E091837F
:103150008083128E118E14860895A1E21A2EAA1B66
:10316000BB1BFD010DC0AA1FBB1FEE1FFF1FA21737
:10317000B307E407F50720F0A21BB30BE40BF50B34
:10318000661F771F881F991F1A9469F760957095BD
:10319000809590959B01AC01BD01CF010895052E4E
:1031A00097FB1EF400940E94E61857FD07D00E947A
:1031B000AD1807FC03D04EF40C94E61850954095DA
:1031C000309521953F4F4F4F5F4F089590958095D3
:1031D000709561957F4F8F4F9F4F08950E94FF1804
:1031E000A59F900DB49F900DA49F800D911D11245B
:1031F0000895EE0FFF1F0590F491E02D0994A29F12
:10320000B001B39FC001A39F700D811D1124911DBA
:10321000B29F700D811D1124911D0895CF93DF93EE
:103220008230910510F482E090E0E091DE05F091AB
:10323000DF0520E030E0C0E0D0E0309711F14081C0
:10324000518148175907C0F04817590761F4828126
:103250009381209719F09B838A832BC09093DF057D
:103260008093DE0526C02115310519F0421753075A
:1032700018F49A01BE01DF01EF010280F381E02D15
:10328000DCCF2115310509F1281B390B243031051C
:1032900090F412968D919C9113976115710521F010
:1032A000FB019383828304C09093DF058093DE0546
:1032B000FD01329644C0FD01E20FF31F819391930B
:1032C000225031092D933C933AC02091DC05309176
:1032D000DD05232B41F42091090130910A0130933F
:1032E000DD052093DC0520910701309108012115AF
:1032F000310541F42DB73EB740910B0150910C01BF
:10330000241B350BE091DC05F091DD05E217F30796
:10331000A0F42E1B3F0B2817390778F0AC014E5F45
:103320005F4F2417350748F04E0F5F1F5093DD05A0
:103330004093DC058193919302C0E0E0F0E0CF017F
:10334000DF91CF9108950F931F93CF93DF93009751
:1033500009F48CC0FC013297138212820091DE05C1
:103360001091DF050115110581F420813181820F53
:10337000931F2091DC053091DD052817390779F579
:10338000F093DD05E093DC0571C0D80140E050E02A
:10339000AE17BF0750F412962D913C911397AD01D3
:1033A0002115310509F1D901F3CF9D01DA013383EC
:1033B000228360817181860F971F8217930769F4BA
:1033C000EC0128813981260F371F2E5F3F4F318353
:1033D00020838A819B8193838283452B29F4F093F8
:1033E000DF05E093DE0542C01396FC93EE9312973F
:1033F000ED01499159919E01240F351FE217F30702
:1034000071F480819181840F951F029611969C938F
:103410008E938281938113969C938E931297E0E012
:10342000F0E0D80112968D919C911397009719F0B6
:10343000F8018C01F6CF8D919C9198012E5F3F4F42
:10344000820F931F2091DC053091DD052817390785
:1034500069F4309729F41092DF051092DE0502C05E
:10346000138212821093DD050093DC05DF91CF916A
:103470001F910F91089581E090E0F8940C94671AE1
:10348000FB01DC0104C08D910190801921F44150B1
:103490005040C8F7881B990B0895FC01819186174D
:1034A00021F08823D9F7992708953197CF010895FE
:1034B000FB01DC014150504048F001900D9200208A
:1034C000C9F701C01D9241505040E0F70895F894AB
:0234D000FFCF2C
:1034D200010160FFFFFFFF0000E005800000000027
:1034E200006C0CDF0C040CB30C350C130C270C0015
:1034F200000000FE09DF0C29012801000000004045
:10350200012C012901FC0020010C01FD000000003A
:1035120000B0000F0A2901A4048F00E00AEA0A00A1
:10352200000000140DDF0C29012801140D140D14E4
:103532000D00000000140DDF0C290128010D0A0006
:10354200776F6C66322E776176007477696C696783
:1035520068742E776176005344206661696C002F8F
:02356200000067
:00000001FF
