:100000000C94F2010C941A020C941A020C941A0229
:100010000C941A020C941A020C941A020C941A02F0
:100020000C941A020C941A020C941A020C941A02E0
:100030000C941A020C941A020C941A020C941A02D0
:100040000C94750D0C941A020C946A0B0C94440BCE
:100050000C941A020C941A020C941A020C941A02B0
:100060000C9458040C941A02556E6B6E6F776E20C8
:100070006572726F720041204D49464152452050D1
:1000800049434320726573706F6E646564207769BD
:100090007468204E414B2E00546865204352435FE4
:1000A0004120646F6573206E6F74206D61746368A6
:1000B0002E00496E76616C696420617267756D65AA
:1000C0006E742E00496E7465726E616C206572727A
:1000D0006F7220696E2074686520636F64652E20DE
:1000E00053686F756C64206E6F7420686170706502
:1000F0006E2E004120627566666572206973206EFF
:100100006F742062696720656E6F7567682E005492
:10011000696D656F757420696E20636F6D6D756EA6
:1001200069636174696F6E2E00436F6C6C697373E1
:10013000696F6E2064657465637465642E00457232
:10014000726F7220696E20636F6D6D756E69636189
:1001500074696F6E2E00537563636573732E0000B0
:100160000000002300260029004245574152453A2D
:1001700020446174612077696C6C2062652077721D
:10018000697474656E20746F2074686520504943EB
:10019000432C20696E20736563746F7220233100D5
:1001A0005573696E67206B65792028666F722041F0
:1001B00020616E642042293A005363616E20612001
:1001C0004D494641524520436C6173736963205029
:1001D00049434300556E6B6E6F776E20747970657E
:1001E0000053414B20696E646963617465732055E7
:1001F0004944206973206E6F7420636F6D706C6565
:1002000074652E004D494641524520544E50335896
:100210005858004D4946415245204445534669725D
:1002200065004D494641524520506C7573004D495B
:100230004641524520556C7472616C696768742040
:100240006F7220556C7472616C696768742043002A
:100250004D494641524520344B42004D494641529A
:100260004520314B42004D4946415245204D696E73
:10027000692C203332302062797465730050494311
:100280004320636F6D706C69616E74207769746868
:100290002049534F2F4945432031383039322028E7
:1002A0004E464329005049434320636F6D706C698B
:1002B000616E7420776974682049534F2F49454314
:1002C0002031343434332D34003A004461746120D9
:1002D000696E20626C6F636B20004D494641524548
:1002E0005F526561642829206661696C65643A2003
:1002F00000202E2E2E0052656164696E67206461B5
:1003000074612066726F6D20626C6F636B200050A9
:1003100043445F41757468656E74696361746528F0
:1003200029206661696C65643A20004175746865CE
:100330006E7469636174696E67207573696E672096
:100340006B657920412E2E2E0054686973207361ED
:100350006D706C65206F6E6C7920776F726B732097
:1003600077697468204D494641524520436C61735A
:100370007369632063617264732E005049434320A4
:10038000747970653A200043617264205549443A9B
:100390000000000008000201000003040700000044
:1003A000000000000000000000250028002B0000D5
:1003B000000000240027002A0004040404040404AC
:1003C0000402020202020203030303030301020404
:1003D00008102040800102040810200102040810C7
:1003E0002000CD1011241FBECFEFD8E0DEBFCDBF5F
:1003F00011E0A0E0B1E0EAECF2E202C005900D925B
:10040000AC39B107D9F723E0ACE9B1E001C01D92E6
:10041000A231B207E1F711E0C2EFD1E004C02197A9
:10042000FE010E945811C13FD107C9F70E94BF0DBC
:100430000C9463110C940000FC01918D228D892F86
:1004400090E0805C9F4F821B91098F7399270895DC
:1004500080E090E0892B29F00E94D10A81110C9450
:1004600000000895CF92DF92EF92FF920F931F93B7
:10047000CF93DF936C017A018B01C0E0D0E0CE1501
:10048000DF0589F0D8016D918D01D601ED91FC91C8
:100490000190F081E02DC6010995892B11F47E01B0
:1004A00002C02196ECCFC701DF91CF911F910F9130
:1004B000FF90EF90DF90CF90089585ED8093BC0082
:1004C0008091BC0084FDFCCF1092120208954091EF
:1004D000C001262F30E0240F311D21323105DCF41C
:1004E000209112022430C9F4FC0180E090E08617CC
:1004F00058F43091C0012191DC01A256BE4FA30FE8
:10050000B11D2C930196F3CF8091C001680F6093C9
:10051000C00180E0089581E0089582E00895089583
:1005200081E090E030919D0120919C01321710F400
:1005300080E090E0919581959109089580919D01C9
:1005400090919C01891730F48F5F80939D0180E02A
:1005500090E008958FEF9FEF089580919C0190E0C7
:1005600020919D01821B91090895CF92DF92EF9215
:10057000FF920F931F93CF93DF937C01262F972F2A
:100580008A0180911302882391F0C62FD72F6E0124
:10059000C40ED51ECC15DD0571F06991D701ED9122
:1005A000FC910190F081E02DC7010995F3CF642FF4
:1005B000822F0E946702C801DF91CF911F910F9196
:1005C000FF90EF90DF90CF900895CF93DF931F922D
:1005D000CDB7DEB76983209113022223D1F0209199
:1005E0003602203240F021E030E0FC0133832283E8
:1005F00080E090E015C080911402E82FF0E0EB5EFF
:10060000FD4F998190838F5F80931402809336020F
:1006100005C061E0CE0101960E94670281E090E092
:100620000F90DF91CF910895DC01ED91FD91BD0117
:100630000190F081E02D40E0099591E0811190E07A
:10064000892F089521E001C0220F6A95EAF7DC01A5
:100650001C962C931C971A965C934E931997ED91C8
:10066000FC910484F585E02D60E00994DC01ED91B6
:10067000FC910684F785E02D41E0099581E090E04A
:10068000089508950895089580E090E008950E94E7
:100690005E11FC0123812223B9F091819095692399
:1006A0006083828191E090931302809335021092CF
:1006B00014021092360284ED92E00E94E5020E943C
:1006C0002B0C282F30E002C020E030E081E090E0E9
:1006D000232B11F080E090E00895EF92FF920F93AA
:1006E0001F93CF938C01FC01759684E0C0E060FFFE
:1006F00002C09081C92B6695815031968111F7CF48
:10070000413011F4F8014489F8018585C82BC42BC8
:100710007801FEE0EF0EF11CF80162896C2BC70135
:100720000E944903F801628960956C23C701CF914B
:100730001F910F91FF90EF900C9449030F931F931B
:10074000CF93DF93062F0F70423019F440E0602FF3
:1007500010C0142F262FEC0130E0B90184E075950C
:1007600067958A95E1F7CE010E946D03412F602FB6
:10077000CE01DF91CF911F910F910C946D03FC017D
:1007800084858823A9F0218532852115310519F446
:10079000611106C007C02130310521F4611102C08A
:1007A000858701C015866585CF010E960C94490397
:1007B0000895FC01848DDF01A80FB11DA35ABF4F1E
:1007C0002C91848D90E001968F739927848FA68950
:1007D000B7892C93A089B1898C9180648C93938D77
:1007E000848D981306C00288F389E02D80818F7D67
:1007F000808308956115710579F0FB010190002057
:10080000E9F73197AF01461B570BDC01ED91FC91E5
:100810000280F381E02D099480E090E008954F92EA
:100820005F926F927F92EF92FF920F931F93CF93FD
:10083000DF93CDB7DEB7A1970FB6F894DEBF0FBE3A
:10084000CDBF7C01FA01CB0119A2223008F42AE0C5
:100850008E010F5D1F4F422E512C612C712CBF0158
:10086000A30192010E943611F901CA010150110938
:100870006A3014F4605D01C0695CD8016C93232B6D
:10088000242B252B61F7B801C7010E94FA03A1961A
:100890000FB6F894DEBF0FBECDBFDF91CF911F9191
:1008A0000F91FF90EF907F906F905F904F90089521
:1008B0001F920F920FB60F9211242F933F934F93D5
:1008C0005F936F937F938F939F93AF93BF93EF93B8
:1008D000FF938091B900887F803609F49CC068F549
:1008E000883209F45BC090F4803109F454C038F4C4
:1008F000882309F4F6C0883009F44DC0F6C0883169
:1009000009F44CC0803209F45DC0EFC0803409F4B2
:1009100068C048F4803309F455C0883309F0E5C055
:1009200080931002D8C0803509F44FC0883509F48F
:100930005DC0883409F0D9C0D6C0883909F4C7C071
:10094000A8F4883709F467C038F4883609F463C01E
:10095000803709F460C0C9C0883809F4B8C080394C
:1009600009F45FC0803809F0C0C05BC0803B09F467
:1009700086C038F4803A09F466C0883A09F47FC02A
:10098000B4C0803C09F4A7C0883C09F4A4C0883BEB
:1009900009F48AC0AAC08091ED0110C090910F02A5
:1009A00080910E02981770F5E0910F0281E08E0F92
:1009B00080930F02F0E0E251FE4F80818093BB00F4
:1009C00085EC86C0809310028EC0E0910F0281E01A
:1009D0008E0F80930F028091BB00F0E0E251FE4F3A
:1009E000808390910F0280910E026EC0E0910F0201
:1009F00081E08E0F80930F028091BB00F0E0E25106
:100A0000FE4F80838091110281116DC081E080933F
:100A1000EC0184EA61C083E0809312021092E40149
:100A2000CFCF8091E401803208F051C0E091E40121
:100A300081E08E0F8093E4018091BB00F0E0EC53E5
:100A4000FE4F8083BDCF85EC8093BC0010921202D4
:100A50008091E401803230F4E091E401F0E0EC5365
:100A6000FE4F10826091E40170E0E091C201F091CC
:100A7000C30184EC91E009951092E40136C084E052
:100A8000809312021092C1011092C001E091BE0148
:100A9000F091BF0109958091C001811105C081E0ED
:100AA0008093C00110929E01E091C10181E08E0F00
:100AB0008093C101F0E0E256FE4F80818093BB003D
:100AC0009091C1018091C001981708F479CF85E811
:100AD0008093BC000AC085EC8093BC001092120287
:100AE00004C0109210020E945D02FF91EF91BF912D
:100AF000AF919F918F917F916F915F914F913F91B6
:100B00002F910F900FBE0F901F9018958430D9F041
:100B100050F4813091F030F1823091F08330F9F46B
:100B20008FE091E008958630A1F080F08730A1F049
:100B30008F3FA9F486E790E008958EE391E0089551
:100B400089E291E0089583EF90E0089584EC90E0CD
:100B5000089582EB90E0089588E990E0089588E692
:100B600090E0089586E591E0089508958EBD000017
:100B70000DB407FEFDCF8EB508958CBD9DBD0895C3
:100B80001F93CF93DF93EC01162F83E590E00E9433
:100B9000BD0560E08E850E94D00C812F80680E9488
:100BA000B60580E00E94B605182F61E08E850E9490
:100BB000D00C812FDF91CF911F910895EF92FF927A
:100BC0001F93CF93DF931F92CDB7DEB77C01162F13
:100BD00083E590E049830E94BD0560E0F7018685CA
:100BE0000E94D00C812F0E94B6054981842F0E945B
:100BF000B60561E0F70186850F90DF91CF911F91D7
:100C0000FF90EF900C94D00CCF92DF92EF92FF9276
:100C10000F931F93CF93DF93EC016B01142F790196
:100C200040E062E00E94DE0544E06AE0CE010E94FE
:100C3000DE0540E864E1CE010E94DE05A601612FD9
:100C4000CE010E94000D43E062E0CE010E94DE056D
:100C500008E813E16AE0CE010E94C00582FF13C0DC
:100C600040E062E0CE010E94DE0564E4CE010E9415
:100C7000C005F701808362E4CE010E94C005F70140
:100C8000818380E004C00150110921F783E0DF91E6
:100C9000CF911F910F91FF90EF90DF90CF9008952B
:100CA0003F924F925F926F927F928F929F92AF92FC
:100CB000BF92CF92DF92EF92FF920F931F93CF9349
:100CC000DF9300D0CDB7DEB73C01162F942E29015B
:100CD000A114B10419F0F501408101C040E0342EA7
:100CE000F0E18F9E300C112440E062E0C3010E94CD
:100CF000DE054FE768E0C3010E94DE0540E864E1DD
:100D0000C3010E94DE05A201602FC3010E94000DF5
:100D1000432D6AE1C3010E94DE05412F62E0C30159
:100D20000E94DE051C3051F46AE1C3010E94C00537
:100D3000482F40686AE1C3010E94DE0500ED17E01C
:100D400068E0C3010E94C005982F992139F480FD05
:100D500003C001501109A1F783E0A2C06CE0C301F8
:100D60000E94C005982E837109F099C0E114F10426
:100D700009F45AC0C114D10409F456C064E1C30196
:100D80000E94C005182FF6018081811708F481C0E8
:100D900010831123F1F183E590E00E94BD0560E02E
:100DA000F30186850E94D00C82E90E94B605882056
:100DB000A1F08FEF90E02C0101C0440C8A94EAF777
:100DC00082E90E94B60584214094F701908149226E
:100DD000482A40828824839401C0812C55245A9447
:100DE000510E282D30E08701020F131F851438F4AF
:100DF00082E90E94B605F80180838394F2CF80E0F7
:100E00000E94B605F801808361E0F30186850E94A7
:100E1000D00C68E1C3010E94C0058770A114B10421
:100E200021F0F501808301C080E093FC34C0E1141F
:100E3000F10499F1C114D10481F19E89992369F1DA
:100E4000F6014081413019F4843019F420C0423059
:100E500010F487E025C08111FCCF42509E012F5F26
:100E60003F4FB701C3010E940406811119C0F6016A
:100E70008081E80EF11CF7013297908189819813E7
:100E8000E8CF319690818A819813E3CF06C08FEF27
:100E900007C084E005C082E003C080E001C081E0BB
:100EA0000F900F90DF91CF911F910F91FF90EF90D6
:100EB000DF90CF90BF90AF909F908F907F906F907A
:100EC0005F904F903F900895EF92FF921F93CF93C2
:100ED000DF931F92CDB7DEB77C01162F49830E94A6
:100EE000C005498140954823612FC7010F90DF91CC
:100EF000CF911F91FF90EF900C94DE056F927F923F
:100F00008F92AF92BF92CF92DF92EF92FF920F93A8
:100F1000CF93DF9300D000D01F92CDB7DEB73C0156
:100F200082E08D8340E064E2C3010E94DE0540E080
:100F300066E2C3010E94DE0546E268E4C3010E9446
:100F4000DE0586E28C838D81823020F140E86CE101
:100F5000C3010E94640787E08B831F92812CCE011E
:100F600003965C0102966C0104977C0101E09E01EE
:100F70002C5F3F4F40E36CE0C3010E9450060F908E
:100F800081110BC08D81823039F481E09B819111F8
:100F900004C008C084E001C081E091E0823019F013
:100FA00090E001C091E0892F0F900F900F900F906B
:100FB0000F90DF91CF910F91FF90EF90DF90CF9046
:100FC000BF90AF908F907F906F9008952F923F9237
:100FD0004F925F926F927F928F929F92AF92BF9249
:100FE000CF92DF92EF92FF920F931F93CF93DF93F5
:100FF000CDB7DEB72D970FB6F894DEBF0FBECDBFCD
:10100000413508F00BC14C872B013C0140E86CE1F5
:101010000E94640751E0523091F05330F1F05130AA
:1010200009F000C183E989832C852223D9F081E06E
:10103000F2019081953008F480E0912C18C085E988
:101040008983FC85FF2381F081E0F2019081983053
:1010500008F480E043E0942E0AC087E9898336E0F3
:10106000932E04C0912C02C023E0922E80E01C85B8
:10107000F8EF9F9E100D112417FD10E0882321F03A
:1010800098E89B8343E001C042E021E0912F9770F4
:1010900009F420E0912F959595959595290F29F4C0
:1010A000882309F499C0185F97C0811102C094E0A9
:1010B00001C093E0291708F4922F20E030E0692D59
:1010C00070E0E42FE20FA1E0B0E0AC0FBD1FAE0F67
:1010D000B11DF901E60FF71FE40DF51DE181EC9359
:1010E0002F5F3F4F291768F3DBCF8111E9C0103222
:1010F0000CF09AC010E220E72A839C818B8189271B
:101100009D8189279E8189278F839E01285F3F4F7C
:1011100047E0BE016F5F7F4FC3015D870E940406F9
:101120005D858111CDC01B8633E03A87CE010796DD
:101130001C0109E08B84482D4295407F480D6AE1EF
:10114000C3015D870E94DE051F929E01255F3F4F10
:101150005901CE010A966C0171012A50310940E310
:101160006CE0C3010E9450060F905D85823009F04B
:10117000BCCF6CE1C3010E94C0055D8585FD50C0F8
:101180008F7109F480E2282F30E0612F110F770B67
:10119000621773070CF046C0182FC90101978770BA
:1011A000992725952595259531E0320F21E0009767
:1011B00009F420E0230FE1E0F0E0EC0FFD1FE20F67
:1011C000F11D21E030E002C0220F331F8A95E2F7C3
:1011D000C9019081892B808310320CF08CCF912F24
:1011E00097709B87212F25952595259582E0820F65
:1011F000392FE0E18E9F300D11243A8301E09111E7
:1012000001C000E0080F22242394312C2C0E3D1E37
:10121000280E311C87E0821B8A878CCF86E050C065
:1012200082E04EC085E04CC08B81883809F045C013
:1012300033E023E080E090E0692D70E0FC01E60FF0
:10124000F71FE40DF51D432F480FA1E0B0E0AC0FF0
:10125000BD1FA40FB11D4C9141830196821770F3FD
:101260008A85833031F58B85811123C09E012D5FE6
:101270003F4F41E0B101C3015D870E9404065D85D7
:1012800081111EC09B81F1018181981314C09C8142
:101290008281981310C0808182FF02C05F5FBBCE45
:1012A000F2018387852F880F580F5F5F508380E09E
:1012B00007C081E005C087E003C032E024E0BACF78
:1012C0002D960FB6F894DEBF0FBECDBFDF91CF9144
:1012D0001F910F91FF90EF90DF90CF90BF90AF9054
:1012E0009F908F907F906F905F904F903F902F9046
:1012F0000895DC01ED91FC910684F785E02D40E036
:10130000099461E00E9479098BE39FE10197F1F76D
:1013100008950F931F93CF93DF93EC01423018F0A1
:101320008C8188608C834F836887222329F0413029
:1013300019F48C8184608C8364E670E080E090E036
:101340000E943B0D6C8164FD31C0E881F981068407
:10135000F785E02D42E063E0CE0109958BE496E449
:101360000197F1F7E881F9810684F785E02D42E0E5
:1013700063E0CE01099503E512E0C8010197F1F79A
:10138000E881F9810684F785E02D42E063E0CE0133
:101390000995C8010197F1F7E881F9810684F7857D
:1013A000E02D42E062E0CE01099517C06062CE01F7
:1013B0000E9479098BE496E40197F1F76C816062F1
:1013C000CE010E94790903E512E0C8010197F1F707
:1013D0006C816062CE010E947909C8010197F1F722
:1013E0006C816062CE010E9479098BEE90E00197DA
:1013F000F1F784E08D836CE0CE010E947909CE0183
:101400000E94810982E08E8366E0CE010E94790904
:10141000E881F9810484F585E02D6FEFCE01DF913D
:10142000CF911F910F910994EF92FF920F931F9309
:10143000CF93DF93EC01062FF42EE22E8B85888B61
:1014400010929D0110929C0110921402109236028B
:101450001092120211E0109311021092EC0161E05F
:1014600082E10E94D00C61E083E10E94D00C809167
:10147000B9008E7F8093B9008091B9008D7F8093F1
:10148000B90088E48093B80085E48093BC00888923
:1014900010931302809335021092140210923602B8
:1014A0000E942B0C91E0811190E0998B992329F0F7
:1014B00084ED92E00E949E028E878989882339F00C
:1014C0001F861C8260E0CE010E960E9449032E2DDD
:1014D0004F2D602FCE01DF91CF911F910F91FF9083
:1014E000EF900C948909EF92FF920F931F93CF9383
:1014F000DF93162F082FEC018C2F801B8117C8F467
:101500007E018881803118F066E871E002C063E8EE
:1015100071E087E392E00E94FA032196F70140818F
:1015200050E060E070E020E187E392E00E940F0469
:10153000E3CFDF91CF911F910F91FF90EF9008952E
:10154000FC01538D448D252F30E0842F90E0821BC9
:10155000930B541710F0CF96089501970895FC014E
:10156000918D828D981761F0828DDF01A80FB11DDA
:101570005D968C91928D9F5F9F73928F90E00895FE
:101580008FEF9FEF0895FC01918D828D981731F0B8
:10159000828DE80FF11D858D90E008958FEF9FEF0C
:1015A000089587E392E00E941C0221E0892B09F450
:1015B00020E0822F0895EF92FF920F931F93CF9315
:1015C000DF93EC0181E0888F9B8D8C8D981305C093
:1015D000E889F989808185FD24C0F62E0B8D10E005
:1015E0000F5F1F4F0F731127E02E8C8DE8120CC078
:1015F0000FB607FCFACFE889F989808185FFF5CF1E
:10160000CE010E94D903F1CF8B8DFE01E80FF11DB1
:10161000E35AFF4FF0820B8FEA89FB898081806259
:1016200007C0EE89FF896083E889F9898081806439
:10163000808381E090E0DF91CF911F910F91FF9027
:10164000EF900895CF93DF93EC01888D8823C9F044
:10165000EA89FB89808185FD05C0A889B9898C91BB
:1016600086FD0FC00FB607FCF5CF808185FFF2CF56
:10167000A889B9898C9185FFEDCFCE010E94D9034D
:10168000E7CFDF91CF9108951F920F920FB60F927F
:1016900011242F933F934F935F936F937F938F9377
:1016A0009F93AF93BF93EF93FF9387E392E00E94E2
:1016B000D903FF91EF91BF91AF919F918F917F914E
:1016C0006F915F914F913F912F910F900FBE0F90AF
:1016D0001F9018951F920F920FB60F9211242F93FF
:1016E0008F939F93EF93FF93E0914702F09148020D
:1016F0008081E0914D02F0914E0282FD12C09081F6
:10170000809150028F5F8F7320915102821751F0A8
:10171000E0915002F0E0E95CFD4F958F809350021C
:1017200001C08081FF91EF919F918F912F910F9038
:101730000FBE0F901F9018953FB7F89480910E033D
:1017400090910F03A0911003B091110326B5A89BAF
:1017500005C02F3F19F00196A11DB11D3FBFBA2F43
:10176000A92F982F8827820F911DA11DB11DBC01A3
:10177000CD0142E0660F771F881F991F4A95D1F768
:101780000895CF93DF93CDB7DEB728970FB6F894BF
:10179000DEBF0FBECDBF1D8290E49E8324E12F8368
:1017A00024E5288719829A8390E19B8390E59C83A6
:1017B0002091E702821710F08FEF820F3091E8023C
:1017C00090E0FE01E80FF91F303121F4243011F4CC
:1017D000618101C06581606880EE92E028960FB655
:1017E000F894DEBF0FBECDBFDF91CF910C94790985
:1017F00068E971E087E392E00C94FA030F931F937A
:10180000CF93DF938C01C0E0D0E0F801EC0FFD1F17
:101810006491662371F0E0913702F09138020190F3
:10182000F081E02D87E392E00995892B11F0219654
:10183000ECCFCE01DF91CF911F910F910895CF93FF
:10184000DF930E94FE0BEC010E94F80B8C0F9D1F92
:10185000DF91CF9108952091360290913502213287
:1018600008F04AC0809112028111FCCF32E030931F
:10187000120231E0309311023FEF309310021092C8
:101880000F0220930E02A5E1B2E04EEE51E0FA0104
:101890003E2F341B321718F43D913193F9CF10923B
:1018A000ED012091ED01990F922B9093ED01909114
:1018B000EC01913061F41092EC019091ED01909364
:1018C000BB009091BC0093FDF8CF95EC01C095EE64
:1018D0009093BC00909112029230E1F3909110022B
:1018E0009F3F79F080911002803241F08091100288
:1018F000803331F084E005C081E003C082E001C0A4
:1019000083E010921402109236021092130208958E
:1019100090E0FC01E353FC4F2491FC01E754FC4FA1
:101920008491882399F090E0880F991FFC01E1557C
:10193000FC4FA591B491FC01EB55FC4F859194911E
:101940008FB7F894EC91E22BEC938FBF089583301E
:1019500081F028F4813099F08230A1F00895873029
:10196000A9F08830B9F08430D1F4809180008F7D67
:1019700003C0809180008F7780938000089584B5A4
:101980008F7702C084B58F7D84BD08958091B000AB
:101990008F7703C08091B0008F7D8093B000089551
:1019A0001F93CF93DF93282F30E0F901EF56FC4FC0
:1019B0008491F901E353FC4FD491F901E754FC4FB2
:1019C000C491CC23C9F0162F81110E94A70CEC2FD3
:1019D000F0E0EE0FFF1FEB55FC4FA591B4918FB7D0
:1019E000F894111105C09C91ED2FE095E92302C0F8
:1019F000EC91ED2BEC938FBFDF91CF911F91089568
:101A0000CF92DF92EF92FF920F931F93CF93DF93CA
:101A100000D0CDB7DEB78C01F62E83E590E0498388
:101A20005A830E94BD0560E0F80186850E94D00CB3
:101A300082E10E94B6054981E42EC42E5A81D52E3A
:101A40008C2D8E198F1530F4F60181916F010E9453
:101A5000B605F6CF61E0F80186850E94D00C0F90A4
:101A60000F90DF91CF911F910F91FF90EF90DF903A
:101A7000CF900C94B5058F929F92AF92BF92CF9268
:101A8000DF92EF92FF926B017C010E949C0B4B0155
:101A90005C01C114D104E104F104F1F00E949C0B3B
:101AA000DC01CB0188199909AA09BB09883E93403A
:101AB000A105B10570F321E0C21AD108E108F108CF
:101AC00088EE880E83E0981EA11CB11CC114D104BD
:101AD000E104F10419F7DDCFFF90EF90DF90CF9094
:101AE000BF90AF909F908F9008951F920F920FB666
:101AF0000F9211242F933F938F939F93AF93BF9394
:101B000080910A0390910B03A0910C03B0910D03F7
:101B10003091090323E0230F2D3720F40196A11DF6
:101B2000B11D05C026E8230F0296A11DB11D20930B
:101B3000090380930A0390930B03A0930C03B093C3
:101B40000D0380910E0390910F03A0911003B091AB
:101B500011030196A11DB11D80930E0390930F03F5
:101B6000A0931003B0931103BF91AF919F918F91F8
:101B70003F912F910F900FBE0F901F901895CF930C
:101B8000DF93CDB7DEB767970FB6F894DEBF0FBE11
:101B9000CDBF789484B5826084BD84B5816084BDF6
:101BA00085B5826085BD85B5816085BD80916E00FB
:101BB000816080936E00109281008091810082602C
:101BC0008093810080918100816080938100809169
:101BD00080008160809380008091B1008460809358
:101BE000B1008091B00081608093B00080917A0054
:101BF000846080937A0080917A00826080937A007A
:101C000080917A00816080937A0080917A00806868
:101C100080937A001092C100E0914702F09148024F
:101C200082E08083E0914302F09144021082E091CF
:101C30004502F09146028FEC808310924F02E091B2
:101C40004B02F0914C0286E08083E0914902F091D2
:101C50004A02808180618083E0914902F0914A02CA
:101C6000808188608083E0914902F0914A028081FE
:101C700080688083E0914902F0914A0280818F7DE3
:101C800080831FB7F8948091E501811124C0E3ECB3
:101C9000F3E08491E7EDF3E09491E82FF0E0EE0FAC
:101CA000FF1FE155FC4FA591B491EC91E92321F47C
:101CB00061E08AE00E94D00C8AE00E94880C8CB51A
:101CC00080618CBD8CB580648CBD8DE00E94880CD9
:101CD0008BE00E94880C8091E5018F5F8093E50185
:101CE0001FBF809107030E94880C61E08091070369
:101CF0000E94D00C809108038F3F69F44FE062E0AE
:101D000089EF92E00E94DE0562E370E080E090E0FF
:101D10000E943B0D24C00E94880C2091080330E0F3
:101D2000F901EF56FC4F8491F901E353FC4F949075
:101D3000F901E754FC4F1491112309F41EC28111DB
:101D40000E94A70CE12FF0E0EE0FFF1FE15AFE4FBB
:101D5000A591B491EC91E92109F40FC2CFCF62E0D3
:101D600089EF92E00E94C00584FDF9CF40E064E273
:101D700089EF92E00E94DE0540E066E289EF92E0A2
:101D80000E94DE0546E268E489EF92E00E94DE05EB
:101D900040E864E589EF92E00E94DE0549EA66E5E5
:101DA00089EF92E00E94DE0543E068E589EF92E06A
:101DB0000E94DE0548EE6AE589EF92E00E94DE05AA
:101DC00040E46AE289EF92E00E94DE054DE362E2C0
:101DD00089EF92E00E94DE0568E289EF92E00E94BE
:101DE000C005982F9370933039F0482F436068E214
:101DF00089EF92E00E94DE0520E042E060E180EEA3
:101E000092E00E94140AE091E002F091E102048461
:101E1000F585E02D6FEF80EE92E009958FEF8093CE
:101E2000E6018093E7018093E8018093E9018093C4
:101E3000EA018093EB0189EB91E00E941F0C80EA9C
:101E400091E00E94FE0B66E086EE91E00E94730A2C
:101E50000E94F80B89E691E00E941F0C80E00E942E
:101E6000C10B68E871E080EE92E00E94FA0386EE12
:101E700091E096E0992E980E3E018DE0680E711C5F
:101E800089EF92E00E947E07882309F473C189EFED
:101E900092E00E941403882309F46CC10E94F80B9D
:101EA00087E893E00E94FE0B6091FB028CEF92E0CA
:101EB0000E94730A0E94F80B8BE793E00E94FE0BCE
:101EC000E0910603EF77E134B0F5F0E0E050FF4F2A
:101ED0001081153021F178F4123089F128F4113095
:101EE00059F585EA92E02DC01330B1F0143021F598
:101EF0008BE592E026C01830C1F038F4163091F02E
:101F00001730D1F482E292E01CC0193089F01F3FF3
:101F100099F481EE91E015C086E692E012C080E56A
:101F200092E00FC08EE292E00CC083E192E009C023
:101F300084E092E006C010E084ED91E002C08DE7FD
:101F400092E00E941F0C1350133018F089E493E0C4
:101F50003BC082E18F8B8BE293E00E941F0C80E6F6
:101F6000898387E08A83DE011396E6EEF1E08191B2
:101F70008D939E12FCCFE091FB02F0E0E850FD4F04
:101F8000DE01199681918D93A615B705D9F71F9299
:101F9000812CA12CB12CC12CD12CE12CF12C0CE0EA
:101FA0009E012F5F3F4F40E16EE089EF92E00E947B
:101FB0005006182F0F90882351F08FE093E00E9475
:101FC000FE0B812F0E9486050E941F0CD3C086EF56
:101FD00092E00E94FE0B2AE044E050E060E070E0F6
:101FE00087E392E00E940F0481EF92E00E941F0CB1
:101FF0008F89823108F4CDC080E3898384E08A83AD
:102000009E012D5F3F4F42E0BE016F5F7F4F89EF22
:1020100092E00E9404068111BEC081E08F93812C62
:10202000A12CB12CFE0177966F01CE0101967C01A7
:1020300004E09C0140E36CE089EF92E00E945006CE
:10204000182F0F90882349F08AED92E00E94FE0B32
:10205000812F0E9486050E941F0C8BEC92E00E944B
:10206000FE0B2AE044E050E060E070E087E392E09D
:102070000E940F0489EC92E00E941F0C60E1CE01E7
:1020800001960E94730A0E94F80B0E94F80B0E94AE
:10209000F80B80EE92E00E94810980E00E94C10B63
:1020A000FE0131967F0110E066E871E080EE92E07B
:1020B0000E94FA036701F7018081803118F06AE914
:1020C00071E002C064E871E080EE92E00E94FA03E1
:1020D000FFEFEF1AFF0AF601408150E060E070E088
:1020E00020E180EE92E00E940F041F5F1A3031F071
:1020F0001530D1F681E00E94C10BD6CF68EB7BE0B2
:1021000080E090E00E943B0D80EE92E00E94810909
:1021100080E00E94C10B68E871E080EE92E00E94CE
:10212000FA0380E58B8B1C8A9E012B5E3F4F42E0B9
:10213000BE016D5E7F4F89EF92E00E94040681111F
:1021400013C01F92812CA12CB12CC12CD12CE12CBD
:10215000F12C04E09E012D5E3F4F40E36CE089EFDF
:1021600092E00E9450060F9048E060E189EF92E013
:102170000E9464070E94280283CE61E080910803D8
:102180000E94D00C62E370E080E090E00E943B0D82
:10219000EDCD14E059CF182F57CFE7E3F2E01382CB
:1021A000128288EE93E0A0E0B0E084839583A6835A
:1021B000B78325E431E03183208325EC30E0358797
:1021C000248724EC30E03787268720EC30E0318B01
:1021D000208B21EC30E0338B228B22EC30E0358BEE
:1021E000248B26EC30E0378B268B118E128E138ECB
:1021F000148EE4EDF2E01382128284839583A68329
:10220000B78387E591E091838083E9EFF2E08DE782
:1022100091E0918380838AE0868789E08787E0EE7A
:10222000F2E01382128289E691E091838083108A22
:102230008FEF87871686118A87E283871486158633
:102240001286118684E0828B82E0838B81E0848B0E
:1022500080E1858B80E2868B80E4878B80E8808FAD
:1022600040E050E063E0CF010C942203A1E21A2E7B
:10227000AA1BBB1BFD010DC0AA1FBB1FEE1FFF1F2A
:10228000A217B307E407F50720F0A21BB30BE40B7A
:10229000F50B661F771F881F991F1A9469F76095C1
:1022A0007095809590959B01AC01BD01CF0108957B
:1022B000EE0FFF1F0590F491E02D099481E090E06E
:0A22C000F8940C946311F894FFCF1A
:1022CA0006090000FF0000000403000000000000EF
:1022DA0007070000000000000500000000000000E1
:1022EA0001000000000000000000000000000000E3
:1022FA0000000000000000000000000000000000D4
:10230A000200000000DB0A3202A00A220B1C02AF04
:10231A000AC30A00000000E502B50244038F02ADB9
:10232A00029E029002000000003603320244034378
:10233A0003140A2203BF039E0300000000E6077E7F
:10234A000714032030002000506C65617365205328
:0C235A0063616E20546167000D0A0000F2
:00000001FF
