:100000000C94F2010C941A020C941A020C941A0229
:100010000C941A020C941A020C941A020C941A02F0
:100020000C941A020C941A020C941A020C941A02E0
:100030000C941A020C941A020C941A020C941A02D0
:100040000C943D090C941A020C94B4030C948E0386
:100050000C941A020C941A020C941A020C941A02B0
:100060000C941A020C941A02556E6B6E6F776E2008
:100070006572726F720041204D49464152452050D1
:1000800049434320726573706F6E646564207769BD
:100090007468204E414B2E00546865204352435FE4
:1000A0004120646F6573206E6F74206D61746368A6
:1000B0002E00496E76616C696420617267756D65AA
:1000C0006E742E00496E7465726E616C206572727A
:1000D0006F7220696E2074686520636F64652E20DE
:1000E00053686F756C64206E6F7420686170706502
:1000F0006E2E004120627566666572206973206EFF
:100100006F742062696720656E6F7567682E005492
:10011000696D656F757420696E20636F6D6D756EA6
:1001200069636174696F6E2E00436F6C6C697373E1
:10013000696F6E2064657465637465642E00457232
:10014000726F7220696E20636F6D6D756E69636189
:1001500074696F6E2E00537563636573732E0000B0
:100160000000002300260029004245574152453A2D
:1001700020446174612077696C6C2062652077721D
:10018000697474656E20746F2074686520504943EB
:10019000432C20696E20736563746F7220233100D5
:1001A0005573696E67206B65792028666F722041F0
:1001B00020616E642042293A005363616E20612001
:1001C0004D494641524520436C6173736963205029
:1001D00049434300556E6B6E6F776E20747970657E
:1001E0000053414B20696E646963617465732055E7
:1001F0004944206973206E6F7420636F6D706C6565
:1002000074652E004D494641524520544E50335896
:100210005858004D4946415245204445534669725D
:1002200065004D494641524520506C7573004D495B
:100230004641524520556C7472616C696768742040
:100240006F7220556C7472616C696768742043002A
:100250004D494641524520344B42004D494641529A
:100260004520314B42004D4946415245204D696E73
:10027000692C203332302062797465730050494311
:100280004320636F6D706C69616E74207769746868
:100290002049534F2F4945432031383039322028E7
:1002A0004E464329005049434320636F6D706C698B
:1002B000616E7420776974682049534F2F49454314
:1002C0002031343434332D34003A004461746120D9
:1002D000696E20626C6F636B20004D494641524548
:1002E0005F526561642829206661696C65643A2003
:1002F00000202E2E2E0052656164696E67206461B5
:1003000074612066726F6D20626C6F636B200050A9
:1003100043445F41757468656E74696361746528F0
:1003200029206661696C65643A20004175746865CE
:100330006E7469636174696E67207573696E672096
:100340006B657920412E2E2E0054686973207361ED
:100350006D706C65206F6E6C7920776F726B732097
:1003600077697468204D494641524520436C61735A
:100370007369632063617264732E005049434320A4
:10038000747970653A200043617264205549443A9B
:100390000000000008000201000003040700000044
:1003A000000000000000000000250028002B0000D5
:1003B000000000240027002A0004040404040404AC
:1003C0000402020202020203030303030301020404
:1003D00008102040800102040810200102040810C7
:1003E0002000250C11241FBECFEFD8E0DEBFCDBF0B
:1003F00011E0A0E0B1E0E6E1F9E102C005900D9264
:10040000A636B107D9F722E0A6E6B1E001C01D92F9
:10041000A332B207E1F711E0C2EFD1E004C02197A7
:10042000FE010E947E0CC13FD107C9F70E948709D7
:100430000C94890C0C940000FC01538D448D252FE5
:1004400030E0842F90E0821B930B541710F0CF966E
:10045000089501970895FC01918D828D981761F0A0
:10046000828DDF01A80FB11D5D968C91928D9F5FEB
:100470009F73928F90E008958FEF9FEF0895FC0196
:10048000918D828D981731F0828DE80FF11D858D49
:1004900090E008958FEF9FEF0895FC01918D228DDC
:1004A000892F90E0805C9F4F821B91098F73992761
:1004B00008958DE691E00E944D0221E0892B09F418
:1004C00020E0822F0895FC01848DDF01A80FB11D6B
:1004D000A35ABF4F2C91848D90E001968F7399277A
:1004E000848FA689B7892C93A089B1898C91806467
:1004F0008C93938D848D981306C00288F389E02D28
:1005000080818F7D80830895EF92FF920F931F93D8
:10051000CF93DF93EC0181E0888F9B8D8C8D9813B6
:1005200005C0E889F989808185FD24C0F62E0B8DF0
:1005300010E00F5F1F4F0F731127E02E8C8DE81214
:100540000CC00FB607FCFACFE889F989808185FFD6
:10055000F5CFCE010E946302F1CF8B8DFE01E80F33
:10056000F11DE35AFF4FF0820B8FEA89FB898081EE
:10057000806207C0EE89FF896083E889F9898081FC
:100580008064808381E090E0DF91CF911F910F9193
:10059000FF90EF900895CF93DF93EC01888D88232F
:1005A000C9F0EA89FB89808185FD05C0A889B989E0
:1005B0008C9186FD0FC00FB607FCF5CF808185FFBB
:1005C000F2CFA889B9898C9185FFEDCFCE010E9429
:1005D0006302E7CFDF91CF91089580E090E0892B0F
:1005E00029F00E94590281110C9400000895CF92C5
:1005F000DF92EF92FF920F931F93CF93DF936C01E3
:100600007A018B01C0E0D0E0CE15DF0589F0D8017A
:100610006D918D01D601ED91FC910190F081E02D5D
:10062000C6010995892B11F47E0102C02196ECCFF9
:10063000C701DF91CF911F910F91FF90EF90DF9055
:10064000CF900895089580E090E00895DC01ED9149
:10065000FD91BD010190F081E02D40E0099591E010
:10066000811190E0892F08958430D9F050F48130C1
:1006700091F030F1823091F08330F9F48FE091E025
:1006800008958630A1F080F08730A1F08F3FA9F463
:1006900086E790E008958EE391E0089589E291E085
:1006A000089583EF90E0089584EC90E0089582EB44
:1006B00090E0089588E990E0089588E690E0089534
:1006C00086E591E008950E94840CEF92FF920F93CB
:1006D0001F93CF93DF93162F082FEC018C2F801BD5
:1006E0008117A8F47E018881803118F080E691E0BE
:1006F00002C08DE591E00E94CF072196F70160814D
:1007000070E080E090E040E10E94E107E7CFDF91F8
:10071000CF911F910F91FF90EF9008951F920F922C
:100720000FB60F9211242F933F934F935F936F93C4
:100730007F938F939F93AF93BF93EF93FF938DE638
:1007400091E00E946302FF91EF91BF91AF919F9161
:100750008F917F916F915F914F913F912F910F906A
:100760000FBE0F901F9018951F920F920FB60F9209
:1007700011242F938F939F93EF93FF93E0917D012B
:10078000F0917E018081E0918301F091840182FDEE
:1007900012C09081809186018F5F8F7320918701B5
:1007A000821751F0E0918601F0E0E359FE4F958FFA
:1007B0008093860101C08081FF91EF919F918F917D
:1007C0002F910F900FBE0F901F90189508958EBD1A
:1007D00000000DB407FEFDCF8EB508958CBD9DBD04
:1007E00008951F93CF93DF93EC01162F83E590E0DC
:1007F0000E94EE0360E08E850E94D208812F8068FF
:100800000E94E70380E00E94E703182F61E08E85D5
:100810000E94D208812FDF91CF911F910895EF920E
:10082000FF921F93CF93DF931F92CDB7DEB77C016A
:10083000162F83E590E049830E94EE0360E0F70104
:1008400086850E94D208812F0E94E7034981842F68
:100850000E94E70361E0F70186850F90DF91CF9159
:100860001F91FF90EF900C94D208CF92DF92EF92FD
:10087000FF920F931F93CF93DF93EC016B01142F23
:10088000790140E062E00E940F0444E06AE0CE019A
:100890000E940F0440E864E1CE010E940F04A6010B
:1008A000612FCE010E94020943E062E0CE010E9466
:1008B0000F0408E813E16AE0CE010E94F10382FF11
:1008C00013C040E062E0CE010E940F0464E4CE0158
:1008D0000E94F103F701808362E4CE010E94F103DC
:1008E000F701818380E004C00150110921F783E002
:1008F000DF91CF911F910F91FF90EF90DF90CF90FC
:1009000008953F924F925F926F927F928F929F9243
:10091000AF92BF92CF92DF92EF92FF920F931F930D
:10092000CF93DF9300D0CDB7DEB73C01162F942EC6
:100930002901A114B10419F0F501408101C040E082
:10094000342EF0E18F9E300C112440E062E0C301B0
:100950000E940F044FE768E0C3010E940F0440E8C3
:1009600064E1C3010E940F04A201602FC3010E9431
:100970000209432D6AE1C3010E940F04412F62E086
:10098000C3010E940F041C3051F46AE1C3010E94AC
:10099000F103482F40686AE1C3010E940F0400ED93
:1009A00017E068E0C3010E94F103982F992139F400
:1009B00080FD03C001501109A1F783E0A2C06CE0E3
:1009C000C3010E94F103982E837109F099C0E114CC
:1009D000F10409F45AC0C114D10409F456C064E109
:1009E000C3010E94F103182FF6018081811708F4DA
:1009F00081C010831123F1F183E590E00E94EE03A2
:100A000060E0F30186850E94D20882E90E94E70334
:100A10008820A1F08FEF90E02C0101C0440C8A9453
:100A2000EAF782E90E94E70384214094F70190816C
:100A30004922482A40828824839401C0812C55246D
:100A40005A94510E282D30E08701020F131F851490
:100A500038F482E90E94E703F80180838394F2CF9F
:100A600080E00E94E703F801808361E0F30186855E
:100A70000E94D20868E1C3010E94F1038770A114AB
:100A8000B10421F0F501808301C080E093FC34C003
:100A9000E114F10499F1C114D10481F19E899923E3
:100AA00069F1F6014081413019F4843019F420C015
:100AB000423010F487E025C08111FCCF42509E01E6
:100AC0002F5F3F4FB701C3010E943504811119C048
:100AD000F6018081E80EF11CF7013297908189813F
:100AE0009813E8CF319690818A819813E3CF06C09E
:100AF0008FEF07C084E005C082E003C080E001C042
:100B000081E00F900F90DF91CF911F910F91FF9097
:100B1000EF90DF90CF90BF90AF909F908F907F909D
:100B20006F905F904F903F900895EF92FF921F93C8
:100B3000CF93DF931F92CDB7DEB77C01162F498389
:100B40000E94F103498140954823612FC7010F900E
:100B5000DF91CF911F91FF90EF900C940F046F9253
:100B60007F928F92AF92BF92CF92DF92EF92FF92DD
:100B70000F93CF93DF9300D000D01F92CDB7DEB795
:100B80003C0182E08D8340E064E2C3010E940F04D7
:100B900040E066E2C3010E940F0446E268E4C3013C
:100BA0000E940F0486E28C838D81823020F140E820
:100BB0006CE1C3010E94950587E08B831F92812C15
:100BC000CE0103965C0102966C0104977C0101E062
:100BD0009E012C5F3F4F40E36CE0C3010E94810403
:100BE0000F9081110BC08D81823039F481E09B819F
:100BF000911104C008C084E001C081E091E082301E
:100C000019F090E001C091E0892F0F900F900F90A4
:100C10000F900F90DF91CF910F91FF90EF90DF90A9
:100C2000CF90BF90AF908F907F906F9008952F924C
:100C30003F924F925F926F927F928F929F92AF926C
:100C4000BF92CF92DF92EF92FF920F931F93CF93B9
:100C5000DF93CDB7DEB72D970FB6F894DEBF0FBE8A
:100C6000CDBF413508F00BC14C872B013C0140E85A
:100C70006CE10E94950551E0523091F05330F1F053
:100C8000513009F000C183E989832C852223D9F0F2
:100C900081E0F2019081953008F480E0912C18C039
:100CA00085E98983FC85FF2381F081E0F201908151
:100CB000983008F480E043E0942E0AC087E98983E5
:100CC00036E0932E04C0912C02C023E0922E80E0E7
:100CD0001C85F8EF9F9E100D112417FD10E088234E
:100CE00021F098E89B8343E001C042E021E0912F8E
:100CF000977009F420E0912F959595959595290F7A
:100D000029F4882309F499C0185F97C0811102C0A3
:100D100094E001C093E0291708F4922F20E030E01E
:100D2000692D70E0E42FE20FA1E0B0E0AC0FBD1F31
:100D3000AE0FB11DF901E60FF71FE40DF51DE181BE
:100D4000EC932F5F3F4F291768F3DBCF8111E9C088
:100D500010320CF09AC010E220E72A839C818B812C
:100D600089279D8189279E8189278F839E01285FFE
:100D70003F4F47E0BE016F5F7F4FC3015D870E9419
:100D800035045D858111CDC01B8633E03A87CE01E5
:100D900007961C0109E08B84482D4295407F480D41
:100DA0006AE1C3015D870E940F041F929E01255FC7
:100DB0003F4F5901CE010A966C0171012A50310949
:100DC00040E36CE0C3010E9481040F905D85823096
:100DD00009F0BCCF6CE1C3010E94F1035D8585FD84
:100DE00050C08F7109F480E2282F30E0612F110F7D
:100DF000770B621773070CF046C0182FC9010197D3
:100E00008770992725952595259531E0320F21E0AA
:100E1000009709F420E0230FE1E0F0E0EC0FFD1F64
:100E2000E20FF11D21E030E002C0220F331F8A954E
:100E3000E2F7C9019081892B808310320CF08CCFAE
:100E4000912F97709B87212F25952595259582E0D9
:100E5000820F392FE0E18E9F300D11243A8301E09B
:100E6000911101C000E0080F22242394312C2C0E94
:100E70003D1E280E311C87E0821B8A878CCF86E0BE
:100E800050C082E04EC085E04CC08B81883809F0AC
:100E900045C033E023E080E090E0692D70E0FC0184
:100EA000E60FF71FE40DF51D432F480FA1E0B0E05A
:100EB000AC0FBD1FA40FB11D4C9141830196821749
:100EC00070F38A85833031F58B85811123C09E01B3
:100ED0002D5F3F4F41E0B101C3015D870E943504A2
:100EE0005D8581111EC09B81F1018181981314C021
:100EF0009C818281981310C0808182FF02C05F5F55
:100F0000BBCEF2018387852F880F580F5F5F508318
:100F100080E007C081E005C087E003C032E024E044
:100F2000BACF2D960FB6F894DEBF0FBECDBFDF91BE
:100F3000CF911F910F91FF90EF90DF90CF90BF90D6
:100F4000AF909F908F907F906F905F904F903F9069
:100F50002F9008953FB7F89480911F02909120023E
:100F6000A0912102B091220226B5A89B05C02F3F77
:100F700019F00196A11DB11D3FBFBA2FA92F982FBF
:100F80008827820F911DA11DB11DBC01CD0142E03A
:100F9000660F771F881F991F4A95D1F7089500970C
:100FA00069F0FC0101900020E9F73197AF01481B7F
:100FB000590BBC018DE691E00C94F70280E090E0C3
:100FC00008958F929F92AF92BF920F931F93CF93EA
:100FD000DF93CDB7DEB7A1970FB6F894DEBF0FBE93
:100FE000CDBF19A2423008F44AE08E010F5D1F4FB9
:100FF000842E912CA12CB12CA50194010E945C0C93
:10100000E62FB901CA0101501109EA3014F4E05D7C
:1010100001C0E95CD801EC93232B242B252B61F72D
:10102000C8010E94CF07A1960FB6F894DEBF0FBE8D
:10103000CDBFDF91CF911F910F91BF90AF909F9047
:101040008F90089582E691E00C94CF070F931F9341
:10105000CF93DF938C01C0E0D0E0F801EC0FFD1FCF
:101060006491662371F0E0916D01F0916E01019041
:10107000F081E02D8DE691E00995892B11F0219604
:10108000ECCFCE01DF91CF911F910F910895CF93B7
:10109000DF930E942608EC010E9422088C0F9D1FFE
:1010A000DF91CF9108958F929F92AF92BF92CF928E
:1010B000DF92EF92FF920E94AA074B015C0182E34C
:1010C000C82ED12CE12CF12C0E94AA07DC01CB0107
:1010D00088199909AA09BB09883E9340A105B10561
:1010E00058F021E0C21AD108E108F10888EE880E14
:1010F00083E0981EA11CB11CC114D104E104F104C9
:1011000019F7FF90EF90DF90CF90BF90AF909F9036
:101110008F90089590E0FC01E353FC4F2491FC0173
:10112000E754FC4F8491882399F090E0880F991F31
:10113000FC01E155FC4FA591B491FC01EB55FC4F2E
:10114000859194918FB7F894EC91E22BEC938FBF3B
:101150000895833081F028F4813099F08230A1F035
:1011600008958730A9F08830B9F08430D1F48091A7
:1011700080008F7D03C0809180008F7780938000F6
:10118000089584B58F7702C084B58F7D84BD08959E
:101190008091B0008F7703C08091B0008F7D8093E5
:1011A000B00008951F93CF93DF93282F30E0F9010B
:1011B000EF56FC4F8491F901E353FC4FD491F901B0
:1011C000E754FC4FC491CC23C9F0162F81110E9423
:1011D000A908EC2FF0E0EE0FFF1FEB55FC4FA59197
:1011E000B4918FB7F894111105C09C91ED2FE09543
:1011F000E92302C0EC91ED2BEC938FBFDF91CF91EF
:101200001F910895CF92DF92EF92FF920F931F9359
:10121000CF93DF9300D0CDB7DEB78C01F62E83E5F8
:1012200090E049835A830E94EE0360E0F8018685CE
:101230000E94D20882E10E94E7034981E42EC42E75
:101240005A81D52E8C2D8E198F1530F4F60181918F
:101250006F010E94E703F6CF61E0F80186850E94E6
:10126000D2080F900F90DF91CF911F910F91FF90B7
:10127000EF90DF90CF900C94E6031F920F920FB681
:101280000F9211242F933F938F939F93AF93BF930C
:1012900080911B0290911C02A0911D02B0911E0230
:1012A00030911A0223E0230F2D3720F40196A11D5F
:1012B000B11D05C026E8230F0296A11DB11D209384
:1012C0001A0280931B0290931C02A0931D02B093FC
:1012D0001E0280911F0290912002A0912102B091E4
:1012E00022020196A11DB11D80931F02909320023E
:1012F000A0932102B0932202BF91AF919F918F9151
:101300003F912F910F900FBE0F901F901895CF9384
:10131000DF93CDB7DEB767970FB6F894DEBF0FBE89
:10132000CDBF789484B5826084BD84B5816084BD6E
:1013300085B5826085BD85B5816085BD80916E0073
:10134000816080936E0010928100809181008260A4
:1013500080938100809181008160809381008091E1
:1013600080008160809380008091B10084608093D0
:10137000B1008091B00081608093B00080917A00CC
:10138000846080937A0080917A00826080937A00F2
:1013900080917A00816080937A0080917A008068E1
:1013A00080937A001092C100E0917D01F0917E015E
:1013B00082E08083E0917901F0917A011082E091DE
:1013C0007B01F0917C018FEC808310928501E0918C
:1013D0008101F091820186E08083E0917F01F091AC
:1013E0008001808180618083E0917F01F0918001A4
:1013F000808188608083E0917F01F091800180810D
:1014000080688083E0917F01F091800180818F7DF1
:1014100080831FB7F89480916601811124C0E3ECAA
:10142000F3E08491E7EDF3E09491E82FF0E0EE0F24
:10143000FF1FE155FC4FA591B491EC91E92321F4F4
:1014400061E08AE00E94D2088AE00E948A088CB596
:1014500080618CBD8CB580648CBD8DE00E948A0853
:101460008BE00E948A08809166018F5F80936601FD
:101470001FBF809118020E948A0861E080911802C3
:101480000E94D208809119028F3F49F44FE062E038
:101490008AE092E00E940F040E94530824C00E9438
:1014A0008A082091190230E0F901EF56FC4F84912F
:1014B000F901E353FC4F9490F901E754FC4F149168
:1014C000112309F4B6C181110E94A908E12FF0E0AF
:1014D000EE0FFF1FE15AFE4FA591B491EC91E92167
:1014E00009F4A7C1D3CF62E08AE092E00E94F10341
:1014F00084FDF9CF40E064E28AE092E00E940F04AC
:1015000040E066E28AE092E00E940F0446E268E46E
:101510008AE092E00E940F0440E864E58AE092E0ED
:101520000E940F0449EA66E58AE092E00E940F04F7
:1015300043E068E58AE092E00E940F0448EE6AE525
:101540008AE092E00E940F0440E46AE28AE092E0BE
:101550000E940F044DE362E28AE092E00E940F04D1
:1015600068E28AE092E00E94F103982F9370933032
:1015700039F0482F436068E28AE092E00E940F044D
:101580008FEF809367018093680180936901809356
:101590006A0180936B0180936C0189EB91E00E945A
:1015A000470880EA91E00E94260866E087E691E01D
:1015B0000E9465030E94220889E691E00E94470884
:1015C00087E691E096E0992E980E3E018DE0680E38
:1015D000711C8AE092E00E94AF05882309F426C1BD
:1015E0008AE092E00E942603882309F41FC10E942A
:1015F000220887E893E00E94260860910C028DE0A3
:1016000092E00E9465030E9422088BE793E00E940B
:101610002608E0911702EF77E134B0F5F0E0E050F2
:10162000FF4F1081153021F178F4123089F128F440
:10163000113059F585EA92E02DC01330B1F0143025
:1016400021F58BE592E026C01830C1F038F4163051
:1016500091F01730D1F482E292E01CC0193089F089
:101660001F3F99F481EE91E015C086E692E012C02A
:1016700080E592E00FC08EE292E00CC083E192E040
:1016800009C084E092E006C010E084ED91E002C061
:101690008DE792E00E9447081350133018F089E458
:1016A00093E03BC082E18F8B8BE293E00E9447087E
:1016B00080E6898387E08A83DE011396E7E6F1E01E
:1016C00081918D939E12FCCFE0910C02F0E0E75FD8
:1016D000FD4FDE01199681918D93A615B705D9F7B7
:1016E0001F92812CA12CB12CC12CD12CE12CF12CDE
:1016F0000CE09E012F5F3F4F40E16EE08AE092E0F8
:101700000E948104182F0F90882351F08FE093E0FE
:101710000E942608812F0E9434030E94470886C039
:1017200086EF92E00E9426084AE064E070E080E0E4
:1017300090E00E94E10781EF92E00E9447088F89C4
:10174000823108F47EC080E3898384E08A839E012D
:101750002D5F3F4F42E0BE016F5F7F4F8AE092E016
:101760000E94350481116FC081E08F93812CA12CE0
:10177000B12CCE0147966C0146977C0104E09C0198
:1017800040E36CE08AE092E00E948104182F0F9001
:10179000882349F08AED92E00E942608812F0E945A
:1017A00034030E9447088BEC92E00E9426084AE02E
:1017B00064E070E080E090E00E94E10789EC92E054
:1017C0000E94470860E1CE0101960E9465030E94D5
:1017D00022080E9422080E94220880E58B8B1C8A26
:1017E0009E012B5E3F4F42E0BE016D5E7F4F8AE05F
:1017F00092E00E943504811113C01F92812CA12C0C
:10180000B12CC12CD12CE12CF12C04E09E012D5ED9
:101810003F4F40E36CE08AE092E00E9481040F9029
:1018200048E060E18AE092E00E9495050E94ED02A6
:10183000D0CE61E0809119020E94D2080E94530824
:1018400059CE14E0A7CF182FA5CFEDE6F1E0138213
:10185000128288EE93E0A0E0B0E084839583A683B3
:10186000B78385E491E09183808385EC90E0958750
:10187000848784EC90E09787868780EC90E0918B5A
:10188000808B81EC90E0938B828B82EC90E0958B47
:10189000848B86EC90E0978B868B118E128E138E44
:1018A000148EEAE0F2E087E591E0918380838AE09C
:1018B000868789E087870895A1E21A2EAA1BBB1BA1
:1018C000FD010DC0AA1FBB1FEE1FFF1FA217B3070C
:1018D000E407F50720F0A21BB30BE40BF50B661F22
:1018E000771F881F991F1A9469F7609570958095E6
:1018F00090959B01AC01BD01CF010895EE0FFF1F34
:101900000590F491E02D099481E090E0F8940C9416
:06191000890CF894FFCFE2
:1019160006090000FF0000000403000000000000AC
:10192600070700000000000005000000000000009E
:1019360001000000000000000000000000000000A0
:101946000000000000000000000000000000000091
:1019560002000000008402F7021C02CB024D022B9B
:10196600023F02000000001706AF052603203000E4
:0619760020000D0A000034
:00000001FF
