:100000000C9465000C948D000C948D000C948D0064
:100010000C948D000C948D000C948D000C948D002C
:100020000C948D000C948D000C9467040C948D003E
:100030000C948D000C94F4030C948D000C948D00A2
:100040000C9407030C948D000C9477030C945103CB
:100050000C948D000C948D000C948D000C948D00EC
:100060000C948D000C948D0000000008000201002B
:100070000003040700000000000000000000000072
:10008000250028002B0000000000240027002A0083
:10009000040404040404040402020202020203032E
:1000A0000303030301020408102040800102040836
:1000B00010200102040810207C3C3E5E2B3D3F2FA7
:1000C0005B5D3B2C2A225C001C1411241FBECFEF69
:1000D000D8E0DEBFCDBF11E0A0E0B1E0E8E4FCE293
:1000E00002C005900D92A237B107D9F725E0A2E72B
:1000F000B1E001C01D92AE31B207E1F710E0C5E6F4
:10010000D0E004C02197FE010E94BF14C436D1077D
:10011000C9F70E94D40F0C9422160C940000FC0125
:10012000538D448D252F30E0842F90E0821B930B5C
:10013000541710F0CF96089501970895FC01918D02
:10014000828D981761F0828DDF01A80FB11D5D9639
:100150008C91928D9F5F9F73928F90E008958FEFA7
:100160009FEF0895FC01918D828D981731F0828D5B
:10017000E80FF11D858D90E008958FEF9FEF0895B2
:10018000FC01918D228D892F90E0805C9F4F821B16
:1001900091098F739927089585E194E00E94C0002A
:1001A00021E0892B09F420E0822F0895FC01848D41
:1001B000DF01A80FB11DA35ABF4F2C91848D90E091
:1001C00001968F739927848FA689B7892C93A0896C
:1001D000B1898C9180648C93938D848D981306C023
:1001E0000288F389E02D80818F7D80830895EF92CE
:1001F000FF920F931F93CF93DF93EC0181E0888FE1
:100200009B8D8C8D981305C0E889F989808185FDC7
:1002100024C0F62E0B8D10E00F5F1F4F0F731127B8
:10022000E02E8C8DE8120CC00FB607FCFACFE889DF
:10023000F989808185FFF5CFCE010E94D600F1CFEC
:100240008B8DFE01E80FF11DE35AFF4FF0820B8FFB
:10025000EA89FB898081806207C0EE89FF8960831B
:10026000E889F98980818064808381E090E0DF9172
:10027000CF911F910F91FF90EF900895CF93DF934F
:10028000EC01888D8823C9F0EA89FB89808185FD8E
:1002900005C0A889B9898C9186FD0FC00FB607FCEF
:1002A000F5CF808185FFF2CFA889B9898C9185FF30
:1002B000EDCFCE010E94D600E7CFDF91CF91089518
:1002C00080E090E0892B29F00E94CC0081110C94F1
:1002D00000000895CF92DF92EF92FF920F931F9349
:1002E000CF93DF936C017A018B01C0E0D0E0CE1593
:1002F000DF0589F0D8016D918D01D601ED91FC915A
:100300000190F081E02DC6010995892B11F47E0141
:1003100002C02196ECCFC701DF91CF911F910F91C1
:10032000FF90EF90DF90CF900895DC015996ED910A
:10033000FC915A973097B9F083899489A589B68939
:100340004285538564857585841B950BA60BB70B79
:10035000811520E89207A105B10538F08FEF9FE7DE
:10036000A0E0B0E0089580E090E00895CF93DF939F
:100370001F92CDB7DEB76983DC01ED91FC9102805D
:10038000F381E02D41E050E0BE016F5F7F4F0995A2
:100390000F90DF91CF910895089580E090E0089547
:1003A0000E940116FC01818D928D009711F00C9432
:1003B000BE090895CF93DF93EC01898D9A8D009744
:1003C00039F481E090E09B838A8380E090E00BC069
:1003D000FC01138212820E94CA0DE98DFA8D2281DE
:1003E0003381232B71F7DF91CF910895EF92FF9224
:1003F0000F931F93CF93DF93EC017B018A011B8244
:100400001A8288EE93E0A0E0B0E08C839D83AE83F7
:10041000BF8382E391E0998388838DE190E00E941D
:10042000D4149A8F898F009779F02DE1F701DC01C0
:1004300001900D922A95E1F74CE050E0B801CE0111
:100440000C960E941316188EDF91CF911F910F9179
:10045000FF90EF90089580910A028823A9F14091BE
:1004600003015091040160910501709106012BE098
:1004700032E080910802909109020E9415088111D2
:1004800002C080E0089540911605509117056091D3
:10049000180570911905411551056105710591F017
:1004A0002BE032E080910802909109020E94150829
:1004B000882339F31092160510921705109218052B
:1004C0001092190510920A0281E008958F929F926E
:1004D000AF92BF92EF92FF920F931F93CF934B0176
:1004E0005C01C42F8091030190910401A09105014A
:1004F000B091060188159905AA05BB0501F10E9476
:100500002B02811102C080E020C08BE0E82E82E047
:10051000F82E00E012E020E030E0B501A401809167
:100520000802909109020E949A08882361F3809240
:10053000030190920401A0920501B09206018091FE
:100540000A02C82BC0930A0281E0CF911F910F913C
:10055000FF90EF90BF90AF909F908F90089590E0A4
:10056000FC01E859FF4F3491FC01EC55FF4F2491F9
:10057000FC01E057FF4FE491EE2309F43BC0332325
:1005800039F1333091F038F43130A9F0323001F5DF
:1005900084B58F7D12C0373091F03830A1F03430FF
:1005A000B9F4809180008F7D03C0809180008F77A7
:1005B000809380000DC084B58F7784BD09C0809181
:1005C000B0008F7703C08091B0008F7D8093B00022
:1005D000F0E0EE0FFF1FE458FF4FA591B4918FB7E5
:1005E000F894EC91611103C020952E2301C02E2BAD
:1005F0002C938FBF08952FB7F894609102027091E9
:10060000030280910402909105022FBF08951F926A
:100610000F920FB60F9211242F933F938F939F93B6
:10062000AF93BF938091020290910302A0910402C4
:10063000B09105023091010223E0230F2D3720F401
:100640000196A11DB11D05C026E8230F0296A11D2C
:10065000B11D209301028093020290930302A093A4
:100660000402B09305028091FD019091FE01A091DA
:10067000FF01B09100020196A11DB11D8093FD0103
:100680009093FE01A093FF01B0930002BF91AF9140
:100690009F918F913F912F910F900FBE0F901F90C0
:1006A00018951F920F920FB60F9211242F933F931C
:1006B0004F935F936F937F938F939F93AF93BF936A
:1006C000EF93FF9385E194E00E94D600FF91EF91B4
:1006D000BF91AF919F918F917F916F915F914F915A
:1006E0003F912F910F900FBE0F901F9018951F9262
:1006F0000F920FB60F9211242F938F939F93EF9326
:10070000FF93E0912504F09126048081E0912B0471
:10071000F0912C0482FD12C0908180912E048F5F95
:100720008F7320912F04821751F0E0912E04F0E096
:10073000EB5EFB4F958F80932E0401C08081FF916B
:10074000EF919F918F912F910F900FBE0F901F905F
:100750001895CF93DF931F92CDB7DEB741E050E0FD
:10076000BE016F5F7F4F0E94C20B019719F4898110
:1007700090E002C08FEF9FEF0F90DF91CF9108952F
:10078000FC01818D928D009711F00C94A9038FEFDD
:100790009FEF08950F931F93CF93DF93FC01818DFB
:1007A000928D0097B9F0EF010E94A9038C010F3FD1
:1007B0008FEF180791F0898D9A8DFC014285538542
:1007C0006485758541505109610971090E942C0B9E
:1007D000C80105C080E090E002C08FEF9FEFDF917D
:1007E000CF911F910F9108951F920F920FB60F9204
:1007F00011242F933F938F939F93EF93FF938091B7
:10080000020186FD1CC02091F80127FF23C0E09162
:1008100077018091760190E4E99FF0011124E80FBF
:10082000F11DE858FE4F808190E0332721950CF4AC
:10083000309502C0959587952A95E2F71EC0909154
:10084000740181E089278093740180917401882369
:10085000D1F232C0E09177018091760190E4E99F76
:10086000F0011124E80FF11DE858FE4F808190E05F
:1008700002C0880F991F2A95E2F790938B0080930E
:100880008A009093890080938800809176018F5F21
:100890008093760180917601803470F01092760119
:1008A000E0917701F0E0E050FF4F81E0808390918C
:1008B0007701892780937701FF91EF919F918F9125
:1008C0003F912F910F900FBE0F901F9018951F9280
:1008D0000F920FB60F9211242F933F934F935F9374
:1008E0006F937F938F939F93AF93BF93EF93FF93F8
:1008F000E091770181E0E827F0E0E050FF4F908140
:10090000992309F450C0909177018927809373014E
:1009100080916F008F7D80936F0078948BEF94E0CF
:100920000E9495012091F9013091FA0128173907A9
:10093000E8F08091020183FF07C06CE270E080E084
:1009400090E00E943A052AC080916F008E7D8093CE
:100950006F00E0911405F0911505309721F0858125
:1009600081110E9493061092FB011DC060917301DA
:1009700080E4689FB001112468587E4F809114056F
:1009800090911505009721F040E450E00E94C20BC1
:10099000E0917301F0E0E050FF4F108280916F0012
:1009A000806280936F00FF91EF91BF91AF919F9113
:1009B0008F917F916F915F914F913F912F910F9008
:1009C0000FBE0F901F901895CF93DF93EC016A8BA9
:1009D0008091030190910401A0910501B09106015D
:1009E0008E879F87A88BB98B80E2689FF0011124C6
:1009F000E55FFD4F4489558960E070E0BA015527F5
:100A000044274F8B588F698F7A8F828D938DA0E00A
:100A1000B0E0482B592B6A2B7B2B4F8B588F698F5B
:100A20007A8F8385887151F4848D958DA68DB78DCD
:100A30008B8B9C8BAD8BBE8B81E00EC0803111F017
:100A400080E015C09E012D5E3F4F8B8D9C8D0E94D6
:100A50006B0F8823A9F384E08D8381E08C831E8251
:100A60001F82188619861A861B861C861D86DF91B2
:100A7000CF91089520911405309115052115310568
:100A800041F0AB01BC01C9010E942C0B91E0811126
:100A900001C090E0892F0895E0911405F0911505AB
:100AA000309729F08581882311F081E00895089519
:100AB000AF92BF92CF92DF92EF92FF920F931F936C
:100AC000CF93DF93CDB7DEB72B970FB6F894DEBF89
:100AD0000FBECDBF7C01CE0101966C01FC0190E2FE
:100AE0008BE08C0D91938E13FDCFDA0120E037E07F
:100AF0009D91992339F19E3219F0E8EBF0E00AC09C
:100B00003A3009F4AAC028E03AE0F2CF31968917CA
:100B100009F4A3C084918111F9CF321708F49DC064
:100B20008FED890F8E3508F098C081E0820FF601B5
:100B3000E20FF11D2FE9290F2A3108F4905290831A
:100B4000282FD6CF8981803209F487C08B01FB0121
:100B5000838D948DF701948F838FFB01168217820A
:100B6000108611861286138614861586A12CF8012C
:100B700082859385A485B58543895489658976895D
:100B800084179507A607B70708F067C025E0B69554
:100B9000A795979587952A95D1F7F82FFF70BF2EC7
:100BA000F8018581823008F458C0C8010E94A90369
:100BB00097FD53C0F80182859385A485B5854F962E
:100BC000A11DB11D82879387A487B587F0E2BF9EE0
:100BD000C0011124BC01655F7D4F61157105E9F10C
:100BE000FB0120812223B9F1253EE1F04BE050E0EA
:100BF000C6010E940616892B09F0B9CF6B2DC701DB
:100C00002B960FB6F894DEBF0FBECDBFDF91CF910C
:100C10001F910F91FF90EF90DF90CF90BF90AF901A
:100C20000C94E404A11014C0F701B28A40910301AE
:100C30005091040160910501709106014687578724
:100C4000608B718BFC01E55FFD4F8081882329F06B
:100C5000AA24A3948CCFAA2039F380E02B960FB658
:100C6000F894DEBF0FBECDBFDF91CF911F910F91E2
:100C7000FF90EF90DF90CF90BF90AF900895CF930B
:100C8000DF93FC012581222311F080E049C0EC01B3
:100C90008091D5048031C1F482E08583178A108E5B
:100CA000118E128E8091D6049091D704A0E0B0E00E
:100CB00025E0880F991FAA1FBB1F2A95D1F7838BA8
:100CC000948BA58BB68B19C08032F9F683E08583AF
:100CD0004091D8045091D9046091DA047091DB04FA
:100CE000478B508F618F728F9F012D5E3F4F8EEB30
:100CF00094E00E946B0F882341F28EEB94E09C8F6E
:100D00008B8F81E08C831E821F82188619861A863B
:100D10001B861C861D861E861F86188A198A1A8ABB
:100D2000DF91CF910895809114059091150500975A
:100D300061F00E94FC0980911405909115050E94B4
:100D400069151092150510921405089590E0FC01A4
:100D5000EC55FF4F2491FC01E057FF4F849188230D
:100D600099F090E0880F991FFC01EA57FF4FA59179
:100D7000B491FC01E458FF4F859194918FB7F8949A
:100D8000EC91E22BEC938FBF08958F929F92AF92DC
:100D9000BF92CF92DF92EF92FF92CF93DF93C82F53
:100DA00082EB94E09093090280930802CC2369F1CE
:100DB000C53010F080E00DC140E060E070E0CB0194
:100DC0000E9466028823B1F320E1C29FC001112472
:100DD00085509E4FFC01E254FE4F20812F7751F742
:100DE0003C96408151816281738144365105610591
:100DF000710500F33497C080D180E280F380C11484
:100E0000D104E104F10421F4D5CFC12CD12C760119
:100E100040E0C701B6010E946602882359F2809122
:100E20001602909117028115924021F6A0911B02A3
:100E3000AA2309F4BFCF6091190270911A026115BB
:100E4000710509F4B7CF20911802222309F4B2CF1B
:100E5000A093D0042093C20480E030E0E1E0F0E011
:100E6000C82FAF01082E02C0440F551F0A94E2F7A5
:100E70002417350741F0982F8F5F983089F789E064
:100E80008093CB0497CF8093CB04209121023091A3
:100E900022022115310519F040E050E008C02091F0
:100EA0002F02309130024091310250913202209352
:100EB000C3043093C4044093C5045093C604460150
:100EC0005701860E971EA11CB11C8092D1049092EE
:100ED000D204A092D304B092D404E0911C02F09109
:100EE0001D02F093D704E093D604B0E00E94921460
:100EF000860E971EA81EB91E8092D8049092D9041F
:100F0000A092DA04B092DB0485E0EE0FFF1F8A9511
:100F1000E1F7E150FE4FEF2FFF27E6958E0E9F1E63
:100F2000A11CB11C8092CC049092CD04A092CE045E
:100F3000B092CF0420911E0230911F02211531057D
:100F400021F0A90160E070E008C040912B025091AF
:100F50002C0260912D0270912E02D701C6018819D2
:100F60009909AA09BB09840F951FA61FB71F04C0C2
:100F7000B695A79597958795CA95D2F78093C7049C
:100F80009093C804A093C904B093CA04853F2FE08E
:100F90009207A105B10510F48CE018C0853F9F4F62
:100FA000A105B10510F480E111C080913702909144
:100FB0003802A0913902B0913A028093D8049093FC
:100FC000D904A093DA04B093DB0480E28093D504C3
:100FD00081E0DF91CF91FF90EF90DF90CF90BF90B5
:100FE000AF909F908F9008958FB7F89480910702EB
:100FF0008FBF08950F931F93CF93DF93EB010E9450
:10100000FB028B010E9456098F3F49F00E94FB02B0
:10101000601B710B6C177D07A8F380E001C081E0B5
:10102000DF91CF911F910F910895EF92FF920F934F
:101030001F93CF93DF93EC017901411551056105B1
:10104000710511F482E13CC08B85833039F089E071
:10105000440F551F661F771F8A95D1F79A01AB0180
:1010600068E1CE010E945909882311F084E028C06C
:101070008EEF0E944F0987018EEFF81AF8018191D7
:101080008F010E944F090E151F05C1F78FEF0E94B7
:101090004F098FEF0E944F090E9456098A878F716E
:1010A000853031F081E18D83CE010E94440909C071
:1010B00068E572E0CE010E94FA07811107C085E160
:1010C0008D83CE010E94440980E013C020E030E00F
:1010D000A9016DE0CE010E945909811104C00E944E
:1010E0005609882311F084E1EBCFCE010E94440918
:1010F00081E0DF91CF911F910F91FF90EF900895C4
:10110000CF93DF93EC018E81882389F08F819885BE
:101110009C012F5F3F4F38872F838230924018F415
:101120000E945609F3CFCE010E9444091E82DF912E
:10113000CF910895AF92BF92CF92DF92EF92FF923C
:101140000F931F93CF93DF93EC016901C801820FC6
:10115000931F8130924008F070C08E81882371F017
:1011600088819981AA81BB81481759076A077B0743
:1011700029F48F819885C816D906B0F5488359831C
:101180006A837B838B85833039F089E0440F551F58
:10119000661F771F8A95D1F79A01AB0161E1CE01F5
:1011A0000E945909882319F083E08D8346C00E946C
:1011B000FB025B010E9456098A878F3F49F40E9417
:1011C000FB026A197B096D327140A0F38FE003C006
:1011D0008E3F31F08DE08D83CE010E9444092DC0F9
:1011E00018861F8281E08E838F8198858C159D05DE
:1011F00040F40E9456098F819885019698878F83C5
:10120000F3CF6701E00EF11ECE14DF0431F00E942F
:101210005609F60181936F01F7CF8F819885080FEA
:10122000191F18870F838985882319F0011512402B
:1012300048F0CE010E94800805C0CE010E944409FA
:1012400080E001C081E0DF91CF911F910F91FF906D
:10125000EF90DF90CF90BF90AF900895CF93DF9342
:10126000EC0180910602811109C081E080930602A1
:1012700080911304909114040E94BB0960E08C815A
:10128000DF91CF910C94AF0261E0FC0184810E9458
:10129000AF028091060281111092060208958EBD60
:1012A00000000DB407FEFDCF8EB508958FEF0C94AE
:1012B0004F09CF92DF92FF920F931F93CF93DF934B
:1012C00000D000D0CDB7DEB76C01F62E29833A836B
:1012D0004B835C830E948008C6010E942E096CE249
:1012E00071E0C6010E94FA078F2D80640E944F09A9
:1012F00008E110E05C814B813A812981DA01C90162
:10130000002E04C0B695A795979587950A94D2F7B5
:1013100029833A834B835C830E944F09085011094B
:1013200029813A814B815C81083F8FEF180731F7A3
:10133000FF2029F0E8E0FE1204C087E803C085E939
:1013400001C08FEF0E944F0910E00E945609F6017C
:10135000828787FF04C01F3F11F01F5FF6CF0F90F9
:101360000F900F900F90DF91CF911F910F91FF90F1
:10137000DF90CF9008958CBD9DBD0895CF93DF93EE
:10138000EC018D818823A1F18C8187FF2DC06E85B2
:101390007F858889998941E00E946602882341F10E
:1013A000EA8980E2E89FF0011124DF01A55FBD4FCB
:1013B0001097F1F08D81823050F44B895C896D89F2
:1013C0007E895C964D935D936D937C935F978F8937
:1013D000988DA98DBA8DE55FFD4F938F828FB58B68
:1013E000A48B8C818F778C83DF91CF910C942B020F
:1013F00080E0DF91CF910895CF93DF93EC010E94BD
:10140000BE09882311F01D8281E0DF91CF910895FC
:101410004F925F926F927F928F929F92AF92BF9204
:10142000CF92DF92EF92FF920F931F93CF93DF93B0
:10143000EC016A017B012801390142305105610547
:10144000710510F480E073C089859A85AB85BC85F1
:101450000196A11DB11D84179507A607B70790F344
:101460008B889C88AD88BE888F89803129F4BB2702
:10147000AF2D9E2D8D2D09C0DB01CA0147E0B69529
:10148000A795979587954A95D1F7880E991EAA1E1C
:10149000BB1E8091030190910401A0910501B091C0
:1014A000060188169906AA06BB0679F48F89803151
:1014B000A1F4DD24EE24FF24C601880F991FFC014E
:1014C000E55FFD4F5182408219C040E0C501B40183
:1014D0000E9466028111EACFB5CFE894C7F8DD24F7
:1014E000EE24FF24C601880F991F880F991FFC0165
:1014F000E55FFD4F408251826282738280910A02D1
:10150000816080930A028A89823080F08D819E8179
:10151000AF81B885880E991EAA1EBB1E8092160543
:1015200090921705A0921805B092190581E0DF91FD
:10153000CF911F910F91FF90EF90DF90CF90BF90D0
:10154000AF909F908F907F906F905F904F90089595
:101550008F929F92AF92BF92CF92DF92EF92FF92C3
:101560000F931F93CF93DF93FC0181859285A38511
:10157000B4850196A11DB11D84179507A607B7076D
:1015800010F480E05CC083899489A589B689C789F5
:10159000C03129F4852E962EA72EBB2409C04A01FE
:1015A0005B01C7E0B694A79497948794CA95D1F746
:1015B000E9016A017B018F01BC01CD01680D791D34
:1015C0008A1D9B1D8090030190900401A09005014D
:1015D000B0900601681579058A059B0599F4F80114
:1015E00087898031A9F4B701A60155276627772797
:1015F000440F551FFA01E55FFD4F80819181A0E006
:10160000B0E018C040E00E9466028111E8CFB9CF77
:10161000B701A6014F77552766277727440F551F37
:10162000440F551FFA01E55FFD4F80819181A28132
:10163000B381BF7088839983AA83BB8381E0DF91E4
:10164000CF911F910F91FF90EF90DF90CF90BF90BF
:10165000AF909F908F9008958F929F92AF92BF927C
:10166000CF92DF92EF92FF920F931F93CF93DF936E
:10167000EC018D81811102C080E077C00B891C894B
:101680002D893E890417150726073707A8F36A0135
:101690007B01823029F4CA86DB86EC86FD860DC08C
:1016A000C114D104E104F10451F41E821F82188692
:1016B00019861A861B861C861D8681E056C08A8480
:1016C0009B84AC84BD84EB8DFC8D258530E0275F49
:1016D0003F4FB501A4014150510961097109022E22
:1016E00004C076956795579547950A94D2F7D70128
:1016F000C6010197A109B10904C0B695A7959795B0
:1017000087952A95D2F784179507A607B70720F083
:1017100089288A288B2849F44F89588D698D7A8DBC
:101720004E835F836887798704C0841B950BA60B63
:10173000B70B4C015D018E010A5F1F4F81149104AC
:10174000A104B10409F4A7CF4E815F816885798532
:1017500098018B8D9C8D0E94A80A91E0891A9108AE
:10176000A108B1088111EACF87CFDF91CF911F91F6
:101770000F91FF90EF90DF90CF90BF90AF909F9030
:101780008F9008952F923F924F925F926F927F9227
:101790008F929F92AF92BF92CF92DF92EF92FF9281
:1017A0000F931F93CF93DF93EC016B014A018D815F
:1017B000811103C08FEF9FEFD7C08C8180FFFACFDC
:1017C0004B885C886D887E884A855B856C857D85C5
:1017D000C401A0E0B0E093018201041B150B260BAD
:1017E000370B081719072A073B0718F44201841A18
:1017F000950A54011E0126E0220E311CA114B104E9
:1018000009F47EC04A855B856C857D852A0181E06F
:101810005822ED818A019B0189E03695279517951D
:1018200007958A95D1F78B8D9C8DE23061F4FC0190
:10183000828D938DA48DB58DBC01CD01600F711F7C
:10184000821F931F3FC0FC0174807A947022411460
:101850005104C9F4711017C0452B462B472B49F48E
:101860008F89988DA98DBA8D8E839F83A887B9871C
:101870000AC04E815F816885798591010E94A80A1E
:10188000882309F497CFEB8DFC8D8E819F81A885ED
:10189000B9850297A109B109058404C0880F991F71
:1018A000AA1FBB1F0A94D2F74685578560897189A4
:1018B000840F951FA61FB71FBC01CD01670D711DB9
:1018C000811D911D20E032E02419350935012A15CA
:1018D0003B0508F439012C8126FD04C06114F2E0B7
:1018E0007F0681F40091030110910401209105010C
:1018F000309106016017710782079307B1F402C0A7
:10190000C40132C040E00E946602882309F452CF2D
:10191000F201E55FFD4FD601CF01860D971DE81757
:10192000F90789F021912D93FACF76018301920175
:10193000AB01BC0180910802909109020E949A08B3
:10194000882309F437CFC60CD71C8A859B85AC85C4
:10195000BD85860D971DA11DB11D8A879B87AC870C
:10196000BD87A618B7084ACFDF91CF911F910F917D
:10197000FF90EF90DF90CF90BF90AF909F908F90AF
:101980007F906F905F904F903F902F9008953F927F
:101990004F925F926F927F928F929F92AF92BF927F
:1019A000CF92DF92EF92FF920F931F93CF93DF932B
:1019B000CDB7DEB72C970FB6F894DEBF0FBECDBF04
:1019C0005C01DC015B968D909C905C971696CD90A7
:1019D000DD90ED90FC901997C114D104E104F1045D
:1019E00039F0BFEFCB1ADB0AEB0AFB0A312C07C038
:1019F000F401C080D180E280F38033243394F40179
:101A000081859285A385B4859C01AD012F5F3F4FF1
:101A10004F4F5F4F29873A874B875C8726013701F5
:101A20001D821E821F821886F40181859285A385FE
:101A3000B4852D813E814F815885281739074A0783
:101A40005B0708F063C089859A85AB85BC858C15DA
:101A50009D05AE05BF0550F482E0C82ED12CE12CC7
:101A6000F12C92E0492E512C612C712C9E012F5F9C
:101A70003F4FB701A601C4010E94A80A882309F4B8
:101A800045C089819A81AB81BC81892B8A2B8B2BA4
:101A900041F0260137019FEF491A590A690A790A6C
:101AA00005C0C414D504E604F70491F02D813E81ED
:101AB0004F8158852F5F3F4F4F4F5F4F2D833E83A0
:101AC0004F8358873FEFC31AD30AE30AF30AACCF18
:101AD0000FEF1FEF2FEF3FE0B301A201C4010E94FF
:101AE000080A882399F0D50116964D915D916D9164
:101AF0007C911997411551056105710549F09301D4
:101B00008201C4010E94080A811102C080E02AC03B
:101B1000D50116964D925D926D927C921997332065
:101B200051F0D301C2010196A11DB11DF4018083C2
:101B30009183A283B383F5018789908DA18DB28DA6
:101B4000892B8A2B8B2B69F4D50157964D925D9288
:101B50006D927C925A9714968C9114978068149683
:101B60008C9381E02C960FB6F894DEBF0FBECDBFEC
:101B7000DF91CF911F910F91FF90EF90DF90CF9069
:101B8000BF90AF909F908F907F906F905F904F909D
:101B90003F9008952F923F924F925F926F927F9263
:101BA0008F929F92AF92BF92CF92DF92EF92FF926D
:101BB0000F931F93CF93DF9300D000D0CDB7DEB744
:101BC0008C015B011A01DC0115968C91159781300F
:101BD000C9F414968C9181FF15C082FF1BC0F801D7
:101BE000438954896589768982859385A485B585DD
:101BF00084179507A607B70769F0C8010E942C0B48
:101C0000811108C081E090E0F8019383828380E035
:101C100090E039C1610183C0D8015B968D919C91A0
:101C20005C97FC01248121502A013B0139E0769424
:101C30006794579447943A95D1F7722E74207A019D
:101C4000F1E0FF22772009F476C080E092E08E195F
:101C50009F0946018C159D0508F44C01D8015B963F
:101C60002D913C915C9716968D919D910D90BC9114
:101C7000A02D0297A109B109F901058404C0880FBC
:101C8000991FAA1FBB1F0A94D2F746855785608902
:101C90007189840F951FA61FB71F9C01AD01270DE9
:101CA000311D411D511D29013A01811432E0930675
:101CB00009F088C08091030190910401A091050171
:101CC000B091060184159505A605B70559F48FEF67
:101CD0009FEFDC018093030190930401A093050121
:101CE000B09306019501B301A20180910802909181
:101CF00009020E941508882309F484CF9EEFB91ABF
:101D0000C818D908F80182859385A485B585880D02
:101D1000991DA11DB11D82879387A487B587D8011E
:101D20001A964D915D916D917C911D97C114D104CE
:101D300009F072CF87C0E114F10409F086CF16963E
:101D40004D915D916D917C911997411551056105FA
:101D5000710559F457968D919D910D90BC91A02DD0
:101D60000097A105B10541F521C09E012F5F3F4FAE
:101D70000E94A80A882309F44BCF89819A81AB81FC
:101D8000BC81F801238D348DF9012789203129F098
:101D900048EF5FEF6FEF7FE004C048EF5FEF60E078
:101DA00070E084179507A607B70730F0C8010E94B6
:101DB000C70C81114ACF26CFF80186839783A0876D
:101DC000B18743CFE114F10429F5D8011A964D915A
:101DD0005D916D917C911D9753968D919D910D9084
:101DE000BC91A02D481759076A077B0798F00E94FD
:101DF0002B02882309F406CF40920301509204017C
:101E0000609205017092060180910A0281608093C0
:101E10000A0208C041E0C301B2010E9466028823A1
:101E200009F4F0CED501F701E55FFD4FCF01880D34
:101E3000991DE817F90719F02D912193FACFA80CF5
:101E4000B91C5ECF53968D919D910D90BC91A02DA4
:101E500084179507A607B70740F4F801438B548B06
:101E6000658B768B848180688483D80114968C91ED
:101E700083FD02C0C10107C0C8010E94BE098823BA
:101E800009F4C0CEF7CF0F900F900F900F90DF9115
:101E9000CF911F910F91FF90EF90DF90CF90BF9067
:101EA000AF909F908F907F906F905F904F903F90FA
:101EB0002F900895CF93DF931F92CDB7DEB769833C
:101EC00041E050E0BE016F5F7F4F0E94CA0D0F904E
:101ED000DF91CF9108954F925F926F927F92AF9270
:101EE000BF92CF92DF92EF92FF920F931F93CF9307
:101EF000DF9300D000D0CDB7DEB78C0149835A8381
:101F00006B837C835901C12CD12C7601412C82E05A
:101F1000582E612C712C49815A816B817C819E01E4
:101F20002F5F3F4FC8010E94A80A882351F1D301B7
:101F3000C201F801058404C0880F991FAA1FBB1FA6
:101F40000A94D2F7C80ED91EEA1EFB1E49815A8197
:101F50006B817C818789803129F088EF9FEFAFEF1B
:101F6000BFE004C088EF9FEFA0E0B0E0481759073A
:101F70006A077B0780F2F501C082D182E282F38298
:101F800081E00F900F900F900F90DF91CF911F91F4
:101F90000F91FF90EF90DF90CF90BF90AF907F9028
:101FA0006F905F904F900895CF93DF93CDB7DEB7DA
:101FB000C257D1090FB6F894DEBF0FBECDBF7894DB
:101FC00084B5826084BD84B5816084BD85B582603E
:101FD00085BD85B5816085BD80916E0081608093EF
:101FE0006E00109281008091810082608093810058
:101FF0008091810081608093810080918000816068
:10200000809380008091B10084608093B1008091C2
:10201000B00081608093B00080917A0084608093EA
:102020007A0080917A00826080937A0080917A00B1
:10203000816080937A0080917A00806880937A0032
:102040001092C10089E080930B04E0912504F09187
:10205000260482E08083E0912104F0912204108222
:10206000E0912304F09124048FEC808310922D04DE
:10207000E0912904F0912A0486E08083E09127040E
:10208000F0912804808180618083E0912704F091A1
:102090002804808188608083E0912704F0912804DF
:1020A000808180688083E0912704F09128048081FA
:1020B0008F7D80838091E104882321F08CED94E072
:1020C0000E94FC091092BD041092BB041092B80447
:1020D0001092B70484E08093B6040E94FB028B0147
:1020E0008091B6040E94A60661E08091B6040E9429
:1020F000AF02FFB6F89480917501811124C0EAE91E
:10210000F0E08491EEEAF0E09491E82FF0E0EE0F39
:10211000FF1FEA57FF4FA591B491EC91E92321F4F9
:1021200061E08AE00E94AF028AE00E94A6068CB5B8
:1021300080618CBD8CB580648CBD8DE00E94A6064C
:102140008BE00E94A606809175018F5F80937501D8
:10215000FFBE82E58093130410921404809113044F
:10216000909114040E94BB096AE0F62E8FEF0E9442
:102170004F09FA94F110FACF82EB94E00E942E09F5
:1021800020E030E0A90160E082EB94E00E94590970
:10219000F82E8093BC0491E0891749F00E94FB025D
:1021A000601B710B613D774058F381E056C02AEA0D
:1021B00031E040E050E068E082EB94E00E94590991
:1021C00082FF03C0F092BD0410C054E0F52E0E94BF
:1021D00056098093BC04FA94F110F9CF8A3A11F0B1
:1021E00082E03BC082E08093BD048091BD048230D8
:1021F00021F0C12CD12C760105C0C12CD12CE12CB1
:1022000040E4F42E20E030E0A90167E382EB94E0A3
:102210000E945909A701960169E282EB94E00E94AD
:1022200059098093BC04882349F00E94FB02601B7B
:10223000710B613D774030F388E00FC08091BD04A1
:10224000823001F520E030E0A9016AE382EB94E0FE
:102250000E945909882341F086E08093B70482EBFD
:1022600094E00E94440928C00E945609807C803C6A
:1022700019F483E08093BD040E9456090E94560918
:102280000E94560982EB94E00E94440980E5809305
:1022900013041092140481E00E94C506882339F0CB
:1022A0008CED94E00E943F06882331F016C080E058
:1022B0000E94C5068111F4CF47E050E06EE571E061
:1022C00085E194E00E946A0142E050E066E671E038
:1022D00085E194E00E946A01ACC281E08093F8013C
:1022E00090910B0480911204981709F477C0109212
:1022F000FB0180916F008E7D80936F000E944C05E2
:1023000081110E9493068091800087FD1AC0809100
:10231000020180628093020110928100109280007D
:1023200080910B040E94A60680910B04863009F46C
:1023300043C08E3209F444C0853009F043C081E0C7
:102340003CC0209188003091890040E050E08091AD
:1023500010049091110448175907C8F637FD06C0BC
:10236000B9018217930720F4BC0102C060E070E05D
:1023700070938B0060938A0037FD06C0B901821705
:10238000930720F4BC0102C060E070E07093890004
:1023900060938800C2976AE070E0E0918400F09159
:1023A0008500E817F907C8F361507109B1F74F5F6D
:1023B0005F4F21503109CBCF82E08093FC0104C0F4
:1023C00083E0FBCF1092FC018DB581608DBD8CB593
:1023D0008C7F8CBD80910B04809312041092FB01C2
:1023E00080916F008E7D80936F000E944C0581115B
:1023F0000E9493061C821B8206E211E01A83098365
:102400001E82CE0101960E943F068B819C819EAF69
:102410008DAF1CAF0BAF8D818FAF8E8121968FAFAB
:1024200021974F81588569857A8525964CAF5DAF98
:102430006EAF7FAF25974B855C856D857E85299630
:102440004CAF5DAF6EAF7FAF29974F8558896989D3
:102450007A892D964CAF5DAF6EAF7FAF2D979B897C
:102460002E969FAF2E974C895D896E897F896296E3
:102470004CAF5DAF6EAF7FAF6297488D598D6A8D5F
:102480007B8D66964CAF5DAF6EAF7FAF66972C8D40
:102490003D8D68963FAF2EAF689719A218A21F8F87
:1024A0000E8F1BA2811116C06C961FAE1EAE6C97CC
:1024B00088EE93E0A0E0B0E0A0968CAF9DAFAEAF09
:1024C000BFAFA097E3961FAE1EAEE397A5961FAED3
:1024D000A59751C049E651E0BE01655C7F4FCE0132
:1024E0004E960E9458058823F9F2CE01CB960E94A1
:1024F000FC0988A199A19C838B831A8309838AA1F3
:102500008D838BA18E838CA19DA1AEA1BFA18F8352
:102510009887A987BA8788A599A5AAA5BBA58B87FF
:102520009C87AD87BE878CA59DA5AEA5BFA58F87CF
:10253000988BA98BBA8B88A98B8B89A99AA9ABA9EF
:10254000BCA98C8B9D8BAE8BBF8B8DA99EA9AFA98F
:10255000B8AD888F998FAA8FBB8F89AD9AAD9D8FAB
:102560008C8F49E651E0BE016F5F7F4FCE01885AE4
:102570009F4F0E94F6016C968EAD9FAD6C97909325
:10258000FE048093FD04A0968CAD9DADAEADBFADB5
:10259000A0978093FF0490930005A0930105B0934A
:1025A0000205A4968CAD9DADAEADBFADA497809352
:1025B000030590930405A0930505B09306058DE0EF
:1025C000E8E5F0E0EC0FFD1F3C96A7E0B5E00190D8
:1025D0000D928A95E1F7E3968EAD9FADE3979093C8
:1025E0001505809314050E944C05882309F421C128
:1025F00068E070E080E090E00E943A0587E589831A
:1026000081E48A8386E58B8385E48C838E010F5F6A
:102610001F4F34E0F32EF00E8BEF94E00E94C003C6
:10262000F80121918F01022E000C330B82179307C2
:1026300011F4FE12F1CF68E170E080E090E00E94BA
:102640003A058BEF94E00E94C00390930F048093AF
:102650000E048BEF94E00E94C00320E030E0382F9E
:1026600080910E0490910F04822B932B90930F0472
:1026700080930E046CE270E080E090E00E943A05E6
:1026800080E490E09093FA018093F90181E08093D7
:10269000FB0180910201982F9F7790930201209176
:1026A0000E0430910F042B3F3F4A30F020EC3DE503
:1026B00030930F0420930E0420910E0430910F04E8
:1026C00040E050E086FF05C060E075E38CE090E0FC
:1026D00004C060E07AE688E190E00E9473146AE04A
:1026E000629FC001639F900D112490931104809309
:1026F00010048BEF94E00E94C0038C018BEF94E0F8
:102700000E94CA03800F911F97FD019695958795AA
:102710004091F8012091880030918900141634F41A
:1027200002C0369527954A95E2F709C0552741958D
:102730000CF4509502C0220F331F4A95E2F79927F7
:1027400040E050E02817390708F046C0B9016F5F34
:102750007F4F6217730728F09B018617970708F4CD
:102760009C01FA01E858FE4F20834F5F5F4F4034D1
:10277000510561F740E050E0B9016F5F7F4F62178C
:10278000730728F09B018617970708F49C01FA014C
:10279000E854FE4F20834F5F5F4F4034510561F78F
:1027A00010927701109200011092010110927601AF
:1027B000F894809110049091110490938700809375
:1027C000860082EB8093800089E18093810081E222
:1027D00080936F0078942DC0B9016150710968171A
:1027E000790728F06217730718F49B0101C09C0158
:1027F000FA01E858FE4F20834F5F5F4F4034510588
:1028000059F740E050E0B901615071096817790744
:1028100028F06217730718F49B0101C09C01FA01AC
:10282000E854FE4F20834F5F5F4F4034510559F706
:10283000B7CF0E946001FDCFE3E1F4E080E5808343
:102840001182E5E1F4E01382128288EE93E0A0E0C9
:10285000B0E084839583A683B78324E131E031839C
:10286000208325EC30E03587248724EC30E037875F
:10287000268720EC30E0318B208B21EC30E0338B4D
:10288000228B22EC30E0358B248B26EC30E0378B2A
:10289000268B118E128E138E148EE2EBF4E01582CD
:1028A00016821186138642E050E060E070E04487B3
:1028B00055876687778713A215A614A626E231E00E
:1028C00033A722A717A6EBEFF4E0138212828483CA
:1028D0009583A683B78382E391E091838083128EF0
:1028E000118E14860895052E97FB1EF400940E9405
:1028F0008A1457FD07D00E949D1407FC03D04EF4A4
:102900000C948A1450954095309521953F4F4F4F28
:102910005F4F089590958095709561957F4F8F4F8B
:102920009F4F08950E94C514A59F900DB49F900DD0
:10293000A49F800D911D11240895A1E21A2EAA1BB7
:10294000BB1BFD010DC0AA1FBB1FEE1FFF1FA2175F
:10295000B307E407F50720F0A21BB30BE40BF50B5C
:10296000661F771F881F991F1A9469F760957095E5
:10297000809590959B01AC01BD01CF010895EE0FAC
:10298000FF1F0590F491E02D0994A29FB001B39F21
:10299000C001A39F700D811D1124911DB29F700D68
:1029A000811D1124911D0895CF93DF9382309105ED
:1029B00010F482E090E0E0911C05F0911D0520E00C
:1029C00030E0C0E0D0E0309711F1408151814817EC
:1029D0005907C0F04817590761F482819381209705
:1029E00019F09B838A832BC090931D0580931C054F
:1029F00026C02115310519F04217530718F49A0122
:102A0000BE01DF01EF010280F381E02DDCCF211553
:102A1000310509F1281B390B2430310590F4129649
:102A20008D919C9113976115710521F0FB019383A2
:102A3000828304C090931D0580931C05FD0132968E
:102A400044C0FD01E20FF31F81939193225031099D
:102A50002D933C933AC020911A0530911B05232BEE
:102A600041F42091090130910A0130931B05209314
:102A70001A0520910701309108012115310541F413
:102A80002DB73EB740910B0150910C01241B350B23
:102A9000E0911A05F0911B05E217F307A0F42E1B35
:102AA0003F0B2817390778F0AC014E5F5F4F2417B2
:102AB000350748F04E0F5F1F50931B0540931A05D2
:102AC0008193919302C0E0E0F0E0CF01DF91CF91DC
:102AD00008950F931F93CF93DF93009709F48CC051
:102AE000FC0132971382128200911C0510911D0582
:102AF0000115110581F420813181820F931F2091EE
:102B00001A0530911B052817390779F5F0931B0535
:102B1000E0931A0571C0D80140E050E0AE17BF073E
:102B200050F412962D913C911397AD01211531056A
:102B300009F1D901F3CF9D01DA013383228360814A
:102B40007181860F971F8217930769F4EC01288122
:102B50003981260F371F2E5F3F4F318320838A81B3
:102B60009B8193838283452B29F4F0931D05E09389
:102B70001C0542C01396FC93EE931297ED01499108
:102B800059919E01240F351FE217F30771F48081DC
:102B90009181840F951F029611969C938E9382814A
:102BA000938113969C938E931297E0E0F0E0D80106
:102BB00012968D919C911397009719F0F8018C0152
:102BC000F6CF8D919C9198012E5F3F4F820F931FFE
:102BD00020911A0530911B052817390769F43097A1
:102BE00029F410921D0510921C0502C01382128256
:102BF00010931B0500931A05DF91CF911F910F9140
:102C0000089581E090E0F8940C942216FB01DC0119
:102C100004C08D910190801921F441505040C8F7B3
:102C2000881B990B0895FB01DC014150504048F08E
:102C300001900D920020C9F701C01D9241505040F3
:082C4000E0F70895F894FFCFBE
:102C4800010160FFFFFFFF00001E0580000000007B
:102C580000000000F7006A018F003E01C0009E00DE
:102C6800B200000000005A0F6A01CD01CC0100003B
:102C78000000B601DA01CD01D2019501C003CA03F3
:102C880000000000D0016A01CD01CC01D001D001C3
:102C9800D00100000000D0016A01CD01CC015344ED
:102CA800206661696C000D0A00746573742E776183
:022CB8007600A4
:00000001FF
