:100000000C9465000C948D000C948D000C948D0064
:100010000C948D000C948D000C948D000C948D002C
:100020000C948D000C948D000C947B190C948D0015
:100030000C948D000C9408190C948D000C948D0078
:100040000C9407090C948D000C9477090C945109B9
:100050000C948D000C948D000C948D000C948D00EC
:100060000C94170A0C948D00000000080002010097
:100070000003040700000000000000007C3C3E5E1E
:100080002B3D3F2F5B5D3B2C2A225C0000000000D3
:10009000250028002B0000000000240027002A0073
:1000A000040404040404040402020202020203031E
:1000B0000303030301020408102040800102040826
:1000C0001020010204081020451A11241FBECFEF92
:1000D000D8E0DEBFCDBF11E0A0E0B1E0E4E1FEE397
:1000E00002C005900D92A83AB107D9F726E0A8EA18
:1000F000B1E001C01D92A637B207E1F710E0C5E6F6
:10010000D0E004C02197FE010E94A51DC436D1078E
:10011000C9F70E94B71A0C94081F0C94000080E9DC
:1001200091E00895569A08954F925F926F927F9250
:100130008F92AF92BF92CF92EF92FF920F931F9345
:10014000CF93DF933C01EB010E94D608F301278592
:100150003089621B730B6A307105B0F3F894E88143
:10016000F9815BB150648BB18F7B8BB96A859F81BC
:10017000262F291B922F2F83BF844A805B807D8589
:10018000FC84EE847F5FF394E3943E814885A984E8
:10019000CB841181D20120E0C32F022F322F318175
:1001A000112788943111390F08F43FEF9195889405
:1001B00070FD130F1795889471FD130F1795889490
:1001C00072FD130F1795889473FD130F179588947C
:1001D00074FD130F1795889475FD130F1795889468
:1001E00076FD130F1795889477FD130F1795889454
:1001F000232F7111212F960F122F002C5BB900C0F5
:1002000000C017FF8BB930812227889400C0002CD2
:100210008BB931113C0F00C0002C5BB900C000C08D
:1002200016FF8BB908F43FEFC195889400C0002CED
:100230008BB9F0FC230F00C0002C5BB900C000C0DC
:1002400015FF8BB927958894F1FC230F00C0002C73
:100250008BB92795889400C0002C5BB900C000C002
:1002600014FF8BB9F2FC230F2795889400C0002C53
:100270008BB9F3FC230F00C0002C5BB900C000C099
:1002800013FF8BB927958894F4FC230F00C0002C32
:100290008BB92795889400C0002C5BB900C000C0C2
:1002A00012FF8BB9F5FC230F2795889400C0002C12
:1002B0008BB9F6FC230F00C0002C5BB900C000C056
:1002C00011FF8BB927958894F7FC230F00C0002CF1
:1002D0008BB92795889400C0002C5BB900C000C082
:1002E00010FF8BB9132FF110122FCA0D00C0002C74
:1002F0008BB900C000C0002C5BB900C000C017FF64
:100300008BB932812227889400C0002C8BB931111F
:10031000340F00C0002C5BB900C000C016FF8BB9C1
:1003200008F43FEFEB0DF11D00C0002C8BB9E0FC91
:10033000230F00C0002C5BB900C000C015FF8BB9B3
:1003400027958894E1FC230F00C0002C8BB92795DA
:10035000889400C0002C5BB900C000C014FF8BB9AA
:10036000E2FC230F2795889400C0002C8BB9E3FC96
:10037000230F00C0002C5BB900C000C013FF8BB975
:1003800027958894E4FC230F00C0002C8BB9279597
:10039000889400C0002C5BB900C000C012FF8BB96C
:1003A000E5FC230F2795889400C0002C8BB9E6FC50
:1003B000230F00C0002C5BB900C000C011FF8BB937
:1003C00027958894E7FC230F00C0002C8BB9279554
:1003D000889400C0002C5BB900C000C010FF8BB92E
:1003E000132FE110122F419500C0002C8BB94C0D3A
:1003F00000C000C05BB900C000C017FF8BB93181DD
:100400002227889400C0002C8BB93111390F00C00D
:10041000002C5BB900C000C016FF8BB908F43FEF99
:100420009195889400C0002C8BB970FD230F00C0FB
:10043000002C5BB900C000C015FF8BB927958894CC
:1004400071FD230F00C0002C8BB92795889400C044
:10045000002C5BB900C000C014FF8BB972FD230FE4
:100460002795889400C0002C8BB973FD230F00C022
:10047000002C5BB900C000C013FF8BB9279588948E
:1004800074FD230F00C0002C8BB92795889400C001
:10049000002C5BB900C000C012FF8BB975FD230FA3
:1004A0002795889400C0002C8BB976FD230F00C0DF
:1004B000002C5BB900C000C011FF8BB92795889450
:1004C00077FD230F00C0002C8BB92795889400C0BE
:1004D000002C5BB900C000C010FF8BB9132F711145
:1004E000122F960F00C0002C8BB9119709F086CE01
:1004F00020EE31E0D2010E947F1DDC01CB01F4E04F
:10050000B695A79597958795FA95D1F720E030E0B5
:10051000A9016AE9469E040C411D569E400D511DDD
:100520001124450D511D840F951FA11DB11D893E3C
:1005300043E09407A105B10508F434C0885E9340F8
:10054000A109B10942E0B695A795979587954A9577
:10055000D1F747E0849F080E211D949F200D311D87
:100560001124290F311D6091A80170E0860F971F9B
:10057000820F931F409134055091350560913605E7
:1005800070913705292F3327420F531F611D711DAD
:1005900040933405509335056093360570933705C5
:1005A0008093A80178940E94D608F301708B678726
:1005B000DF91CF911F910F91FF90EF90CF90BF905F
:1005C000AF908F907F906F905F904F9008950F93B2
:1005D0001F93CF93DF93CDB7DEB762970FB6F89432
:1005E000DEBF0FBECDBF8C01F901DC011C968C91E2
:1005F0007A8369835C834B835E834D8390819D877F
:1006000091819E8792819F87813029F4CE01019646
:100610000E94F81906C01C861B861A861986188641
:100620001F8283E0888B1A8A198AD801ED91FC9188
:100630000484F585E02DBE016F5F7F4FC8010995E9
:1006400062960FB6F894DEBF0FBECDBFDF91CF919B
:100650001F910F9108950F931F93CF93DF93CDB701
:10066000DEB762970FB6F894DEBF0FBECDBF8C0128
:10067000F901DC011C968C917A8369835C834B833E
:100680005E834D8390819D8791819E8792819F8714
:10069000813029F4CE0101960E94F81906C01C860B
:1006A0001B861A86198618861F82188A1A8A198A42
:1006B000D801ED91FC910484F585E02DBE016F5FBA
:1006C0007F4FC801099562960FB6F894DEBF0FBE42
:1006D000CDBFDF91CF911F910F910895CF93DF93FD
:1006E000EC016A8B8091000190910101A0910201BF
:1006F000B09103018E879F87A88BB98B80E2689F9A
:10070000F0011124EC54FE4F4489558960E070E0FB
:10071000BA01552744274F8B588F698F7A8F828D66
:10072000938DA0E0B0E0482B592B6A2B7B2B4F8B8D
:10073000588F698F7A8F8385887151F4848D958D58
:10074000A68DB78D8B8B9C8BAD8BBE8B81E00EC045
:10075000803111F080E015C09E012D5E3F4F8B8DE2
:100760009C8D0E941F188823A9F384E08D8381E06B
:100770008C831E821F82188619861A861B861C8609
:100780001D86DF91CF910895009769F0FC010190DB
:100790000020E9F73197AF01481B590BBC0186EBEC
:1007A00093E00C94BF0980E090E00895CF93DF932D
:1007B000FC012581222311F080E049C0EC018091E9
:1007C00078048031C1F482E08583178A108E118EFF
:1007D000128E8091790490917A04A0E0B0E025E037
:1007E000880F991FAA1FBB1F2A95D1F7838B948B63
:1007F000A58BB68B19C08032F9F683E085834091D2
:100800007B0450917C0460917D0470917E04478B41
:10081000508F618F728F9F012D5E3F4F81E694E074
:100820000E941F18882341F281E694E09C8F8B8FF1
:1008300081E08C831E821F82188619861A861B8689
:100840001C861D861E861F86188A198A1A8ADF91C1
:10085000CF9108958F929F92AF92BF92CF92DF92E5
:10086000EF92FF92CF93DF93C82F85E594E09093AA
:10087000B5038093B403CC2369F1C53010F080E058
:100880000DC140E060E070E0CB010E94AA14882313
:10089000B1F320E1C29FC00111248C559E4FFC0191
:1008A000E254FE4F20812F7751F73C9640815181D1
:1008B00062817381443651056105710500F33497F7
:1008C000C080D180E280F380C114D104E104F1043E
:1008D00021F4D5CFC12CD12C760140E0C701B6015F
:1008E0000E94AA14882359F28091BF019091C001FF
:1008F0008115924021F6A091C401AA2309F4BFCF2B
:100900006091C2017091C3016115710509F4B7CFFF
:100910002091C101222309F4B2CFA0937304209344
:10092000650480E030E0E1E0F0E0C82FAF01082E80
:1009300002C0440F551F0A94E2F72417350741F00F
:10094000982F8F5F983089F789E080936E0497CF56
:1009500080936E042091CA013091CB01211531059D
:1009600019F040E050E008C02091D8013091D90141
:100970004091DA015091DB012093660430936704C3
:10098000409368045093690446015701860E971EF0
:10099000A11CB11C8092740490927504A0927604FC
:1009A000B0927704E091C501F091C601F0937A040A
:1009B000E0937904B0E00E94861D860E971EA81E63
:1009C000B91E80927B0490927C04A0927D04B09228
:1009D0007E0485E0EE0FFF1F8A95E1F7E150FE4FA0
:1009E000EF2FFF27E6958E0E9F1EA11CB11C809253
:1009F0006F0490927004A0927104B09272042091DE
:100A0000C7013091C8012115310521F0A90160E02D
:100A100070E008C04091D4015091D5016091D60199
:100A20007091D701D701C60188199909AA09BB0994
:100A3000840F951FA61FB71F04C0B695A79597955D
:100A40008795CA95D2F780936A0490936B04A0931C
:100A50006C04B0936D04853F2FE09207A105B105AA
:100A600010F48CE018C0853F9F4FA105B10510F42C
:100A700080E111C08091E0019091E101A091E2013B
:100A8000B091E30180937B0490937C04A0937D0458
:100A9000B0937E0480E28093780481E0DF91CF916F
:100AA000FF90EF90DF90CF90BF90AF909F908F908E
:100AB000089590E0FC01EC54FF4F2491FC01E056B6
:100AC000FF4F8491882399F090E0880F991FFC01D3
:100AD000EA56FF4FA591B491FC01E457FF4F859171
:100AE00094918FB7F894EC91E22BEC938FBF08951B
:100AF0003F924F925F926F927F928F929F92AF92AE
:100B0000BF92CF92DF92EF92FF920F931F93CF93FA
:100B1000DF9300D01F92CDB7DEB7F82E8091A104ED
:100B20009091A204A091A304B091A404892B8A2BD4
:100B30008B2BE9F00E94D6080091D8041091D904BB
:100B40002091DA043091DB04DC01CB01801B910B96
:100B5000A20BB30B0091A1041091A2042091A30455
:100B60003091A40480179107A207B307B8F20E943E
:100B7000D6086093D8047093D9048093DA049093D4
:100B8000DB04E091A904F091AA04309759F0409158
:100B9000A5045091A6046091A7047091A8048F2D1C
:100BA0000995F82E0091B2011091B3014F2C512CF0
:100BB000612C712C0115110509F461C0D8011C9636
:100BC000EC901C9780919F049091A004843691052D
:100BD00010F41C961C92D801ED91FC91A280B38078
:100BE00019821A821B82F11014C0F80145855685BE
:100BF000628173819E012F5F3F4FC801F501099506
:100C0000D8011C96EC921C9714960D911C91159787
:100C1000D1CFF8013996CE0101966C0148019CE0D4
:100C2000890E911CDF0113973C902191332001F133
:100C30002223F1F0822F90E0A0E0B0E09C01AD0112
:100C40002F5F3F4F4F4F5F4FC301B2010E941A1DEC
:100C50009B01AC01832D90E0A0E0B0E0BC01CD0190
:100C60006F5F7F4F8F4F9F4F0E941A1DD6018C934D
:100C7000BFEFCB1ADB0AE815F905A1F6B6CF8091D4
:100C8000D6049091D7048C010F5F1F4F1093D704A7
:100C90000093D60449979CF10E94FB084B015C012C
:100CA00088EE93E0089FB001099F700D189F700DAA
:100CB0001124072E000C880B990BC090D204D09001
:100CC000D304E090D404F090D504A50194012C192C
:100CD0003D094E095F090E943E1D3093A0042093F8
:100CE0009F041092D7041092D6040E94FB086093D0
:100CF000D2047093D3048093D4049093D5040F90BE
:100D00000F900F90DF91CF911F910F91FF90EF9077
:100D1000DF90CF90BF90AF909F908F907F906F901B
:100D20005F904F903F9008952091D0043091D1046E
:100D30002115310541F0AB01BC01C9010E94750DBF
:100D400091E0811101C090E0892F0895E091D004D5
:100D5000F091D104309729F08581882311F081E04A
:100D600008950895AF92BF92CF92DF92EF92FF92D3
:100D70000F931F93CF93DF93CDB7DEB72B970FB6AB
:100D8000F894DEBF0FBECDBF7C01CE0101966C0191
:100D9000FC0190E28BE08C0D91938E13FDCFDA0174
:100DA00020E037E09D91992339F19E3219F0ECE76C
:100DB000F0E00AC03A3009F4AAC028E03AE0F2CFE5
:100DC0003196891709F4A3C084918111F9CF3217A4
:100DD00008F49DC08FED890F8E3508F098C081E032
:100DE000820FF601E20FF11D2FE9290F2A3108F4D5
:100DF00090529083282FD6CF8981803209F487C002
:100E00008B01FB01838D948DF701948F838FFB0100
:100E1000168217821086118612861386148615860E
:100E2000A12CF80182859385A485B58543895489D1
:100E30006589768984179507A607B70708F067C004
:100E400025E0B695A795979587952A95D1F7F82F20
:100E5000FF70BF2EF8018581823008F458C0C801A8
:100E60000E94BD1897FD53C0F80182859385A48523
:100E7000B5854F96A11DB11D82879387A487B5873D
:100E8000F0E2BF9EC0011124BC016C547E4F61157D
:100E90007105E9F1FB0120812223B9F1253EE1F042
:100EA0004BE050E0C6010E94EC1E892B09F0B9CF3F
:100EB0006B2DC7012B960FB6F894DEBF0FBECDBFCA
:100EC000DF91CF911F910F91FF90EF90DF90CF9026
:100ED000BF90AF900C946E03A11014C0F701B28ABA
:100EE0004091000150910101609102017091030154
:100EF00046875787608B718BFC01EC54FE4F8081D5
:100F0000882329F0AA24A3948CCFAA2039F380E067
:100F10002B960FB6F894DEBF0FBECDBFDF91CF91F9
:100F20001F910F91FF90EF90DF90CF90BF90AF9007
:100F300008958091D0049091D104009761F00E94AF
:100F400063148091D0049091D1040E944F1E10929E
:100F5000D1041092D004089590E0FC01E859FF4FAD
:100F60003491FC01EC54FF4F2491FC01E056FF4FFB
:100F7000E491EE2309F43BC0332339F1333091F08F
:100F800038F43130A9F0323001F584B58F7D12C0CC
:100F9000373091F03830A1F03430B9F480918000CE
:100FA0008F7D03C0809180008F77809380000DC07B
:100FB00084B58F7784BD09C08091B0008F7703C05E
:100FC0008091B0008F7D8093B000F0E0EE0FFF1FA6
:100FD000E457FF4FA591B4918FB7F894EC9161114C
:100FE00003C020952E2301C02E2B2C938FBF089574
:100FF0008F929F92AF92BF92CF92DF92EF92FF9229
:101000006B017C010E94D6084B015C01C114D10424
:10101000E104F104F1F00E94D608DC01CB0188194B
:101020009909AA09BB09883E9340A105B10570F34F
:1010300021E0C21AD108E108F10888EE880E83E0A9
:10104000981EA11CB11CC114D104E104F10419F7CC
:10105000DDCFFF90EF90DF90CF90BF90AF909F904B
:101060008F900895FC01538D448D252F30E0842FFF
:1010700090E0821B930B541710F0CF9608950197C0
:101080000895FC01918D828D981761F0828DDF01AA
:10109000A80FB11D5D968C91928D9F5F9F73928F6B
:1010A00090E008958FEF9FEF0895FC01918D828D60
:1010B000981731F0828DE80FF11D858D90E008952D
:1010C0008FEF9FEF089586EB93E00E94A90921E03E
:1010D000892B09F420E0822F0895EF92FF920F935D
:1010E0001F93CF93DF93EC0181E0888F9B8D8C8DD4
:1010F000981305C0E889F989808185FD24C0F62E02
:101100000B8D10E00F5F1F4F0F731127E02E8C8D9A
:10111000E8120CC00FB607FCFACFE889F989808184
:1011200085FFF5CFCE010E94F609F1CF8B8DFE0130
:10113000E80FF11DE35AFF4FF0820B8FEA89FB891C
:101140008081806207C0EE89FF896083E889F98920
:1011500080818064808381E090E0DF91CF911F9156
:101160000F91FF90EF900895CF93DF93EC01888D5E
:101170008823C9F0EA89FB89808185FD05C0A8899B
:10118000B9898C9186FD0FC00FB607FCF5CF808121
:1011900085FFF2CFA889B9898C9185FFEDCFCE016B
:1011A0000E94F609E7CFDF91CF9108953FB7F894F9
:1011B0008091550590915605A0915705B09158051D
:1011C00026B5A89B05C02F3F19F00196A11DB11DA2
:1011D0003FBFBA2FA92F982F8827820F911DA11DDD
:1011E000B11DBC01CD0142E0660F771F881F991F1A
:1011F0004A95D1F708952FB7F8946091340570910E
:10120000350580913605909137052FBF08951F92BF
:101210000F920FB60F9211242F933F938F939F93AA
:10122000AF93BF938091340590913505A091360519
:10123000B09137053091540523E0230F2D3720F46A
:101240000196A11DB11D05C026E8230F0296A11D20
:10125000B11D209354058093340590933505A093D8
:101260003605B09337058091550590915605A091AC
:101270005705B09158050196A11DB11D80935505E4
:1012800090935605A0935705B0935805BF91AF9121
:101290009F918F913F912F910F900FBE0F901F90B4
:1012A00018951F920F920FB60F9211242F933F9310
:1012B0004F935F936F937F938F939F93AF93BF935E
:1012C000EF93FF9386EB93E00E94F609FF91EF9175
:1012D000BF91AF919F918F917F916F915F914F914E
:1012E0003F912F910F900FBE0F901F9018951F9256
:1012F0000F920FB60F9211242F938F939F93EF931A
:10130000FF93E091C603F091C7038081E091CC0385
:10131000F091CD0382FD12C090818091CF038F5F49
:101320008F732091D003821751F0E091CF03F0E04A
:10133000EA54FC4F958F8093CF0301C08081FF91C9
:10134000EF919F918F912F910F900FBE0F901F9053
:101350001895FC01918D228D892F90E0805C9F4F24
:10136000821B91098F739927089580E090E0892B63
:1013700029F00E94630881110C9400000895CF9217
:10138000DF92EF92FF920F931F93CF93DF936C0145
:101390007A018B01C0E0D0E0CE15DF0589F0D801DD
:1013A0006D918D01D601ED91FC910190F081E02DC0
:1013B000C6010995892B11F47E0102C02196ECCF5C
:1013C000C701DF91CF911F910F91FF90EF90DF90B8
:1013D000CF90089585ED8093BC008091BC0084FD82
:1013E000FCCF1092DE0408950E94E71EFC01848D5C
:1013F000DF01A80FB11DA35ABF4F2C91848D90E03F
:1014000001968F739927848FA689B7892C93A08919
:10141000B1898C9180648C93938D848D981306C0D0
:101420000288F389E02D80818F7D808308951F924B
:101430000F920FB60F9211242F933F934F935F9308
:101440006F937F938F939F93AF93BF93EF93FF938C
:101450008091B900887F803609F49CC068F5883295
:1014600009F45BC090F4803109F454C038F4882347
:1014700009F4F6C0883009F44DC0F6C0883109F48B
:101480004CC0803209F45DC0EFC0803409F468C0FC
:1014900048F4803309F455C0883309F0E5C08093DF
:1014A0009E05D8C0803509F44FC0883509F45DC069
:1014B000883409F0D9C0D6C0883909F4C7C0A8F467
:1014C000883709F467C038F4883609F463C0803778
:1014D00009F460C0C9C0883809F4B8C0803909F47B
:1014E0005FC0803809F0C0C05BC0803B09F486C093
:1014F00038F4803A09F466C0883A09F47FC0B4C071
:10150000803C09F4A7C0883C09F4A4C0883B09F4D6
:101510008AC0AAC08091C10510C09091C005809179
:10152000BF05981770F5E091C00581E08E0F80939C
:10153000C005F0E0E156FA4F80818093BB0085EC56
:1015400086C080939E058EC0E091C00581E08E0F1D
:101550008093C0058091BB00F0E0E156FA4F808394
:101560009091C0058091BF056EC0E091C00581E0FB
:101570008E0F8093C0058091BB00F0E0E156FA4FDA
:1015800080838091DD0481116DC081E08093DC0453
:1015900084EA61C083E08093DE0410929D05CFCF82
:1015A00080919D05803208F051C0E0919D0581E059
:1015B0008E0F80939D058091BB00F0E0E358FA4FB9
:1015C0008083BDCF85EC8093BC001092DE048091B7
:1015D0009D05803230F4E0919D05F0E0E358FA4F2C
:1015E000108260919D0570E0E091E304F091E404C5
:1015F0008DE795E0099510929D0536C084E08093B3
:10160000DE0410927C0510927B05E091E504F091D8
:10161000E604099580917B05811105C081E08093E6
:101620007B0510925B05E0917C0581E08E0F809335
:101630007C05F0E0E55AFA4F80818093BB009091E1
:101640007C0580917B05981708F479CF85E8809315
:10165000BC000AC085EC8093BC001092DE0404C07C
:1016600010929E050E94EA09FF91EF91BF91AF9100
:101670009F918F917F916F915F914F913F912F91AA
:101680000F900FBE0F901F90189540917B05262F4D
:1016900030E0240F311D21323105DCF42091DE04CD
:1016A0002430C9F4FC0180E090E0861758F43091B2
:1016B0007B052191DC01A55ABA4FA30FB11D2C93D4
:1016C0000196F3CF80917B05680F60937B0580E0E6
:1016D000089581E0089582E008958FB7F89480918D
:1016E0005A058FBF089561E0FC0184810E94AC0718
:1016F0008091590581111092590508958EBD000001
:101700000DB407FEFDCF8EB508958FEF0C947E0BC0
:101710000F931F93CF93DF93EB010E94FB088B0184
:101720000E94850B8F3F49F00E94FB08601B710BE4
:101730006C177D07A8F380E001C081E0DF91CF91B5
:101740001F910F910895CF93DF93EC018E81882331
:1017500089F08F8198859C012F5F3F4F38872F83B9
:101760008230924018F40E94850BF3CFCE010E9484
:10177000730B1E82DF91CF9108958CBD9DBD08959E
:10178000CF93DF93EC0180915905811109C081E06D
:101790008093590580915304909154040E94BD0B8D
:1017A00060E08C81DF91CF910C94AC07CF92DF92F7
:1017B000FF920F931F93CF93DF9300D000D0CDB74C
:1017C000DEB76C01F62E29833A834B835C830E943B
:1017D000A30BC6010E94C00B6CE271E0C6010E941F
:1017E000880B8F2D80640E947E0B08E110E05C81E5
:1017F0004B813A812981DA01C901002E04C0B695D6
:10180000A795979587950A94D2F729833A834B83B6
:101810005C830E947E0B0850110929813A814B811B
:101820005C81083F8FEF180731F7FF2029F0E8E0CF
:10183000FE1204C087E803C085E901C08FEF0E9453
:101840007E0B10E00E94850BF601828787FF04C0A3
:101850001F3F11F01F5FF6CF0F900F900F900F906A
:10186000DF91CF911F910F91FF90DF90CF9008955E
:10187000AF92BF92CF92DF92EF92FF920F931F939E
:10188000CF93DF93EC016901C801820F931F813070
:10189000924008F070C08E81882371F08881998110
:1018A000AA81BB81481759076A077B0729F48F81F2
:1018B0009885C816D906B0F5488359836A837B8317
:1018C0008B85833039F089E0440F551F661F771FE1
:1018D0008A95D1F79A01AB0161E1CE010E94D60B46
:1018E000882319F083E08D8346C00E94FB085B01CA
:1018F0000E94850B8A878F3F49F40E94FB086A1972
:101900007B096D327140A0F38FE003C08E3F31F050
:101910008DE08D83CE010E94730B2DC018861F822F
:1019200081E08E838F8198858C159D0540F40E94FF
:10193000850B8F819885019698878F83F3CF6701F8
:10194000E00EF11ECE14DF0431F00E94850BF6018B
:1019500081936F01F7CF8F819885080F191F188722
:101960000F838985882319F00115124048F0CE01B4
:101970000E94A30B05C0CE010E94730B80E001C042
:1019800081E0DF91CF911F910F91FF90EF90DF9059
:10199000CF90BF90AF900895EF92FF920F931F9357
:1019A000CF93DF93EC017901411551056105710574
:1019B00011F482E13CC08B85833039F089E0440F1B
:1019C000551F661F771F8A95D1F79A01AB0168E111
:1019D000CE010E94D60B882311F084E028C08EEF40
:1019E0000E947E0B87018EEFF81AF80181918F011A
:1019F0000E947E0B0E151F05C1F78FEF0E947E0B14
:101A00008FEF0E947E0B0E94850B8A878F71853035
:101A100031F081E18D83CE010E94730B09C068E52E
:101A200072E0CE010E94880B811107C085E18D8391
:101A3000CE010E94730B80E013C020E030E0A901CA
:101A40006DE0CE010E94D60B811104C00E94850B6F
:101A5000882311F084E1EBCFCE010E94730B81E06B
:101A6000DF91CF911F910F91FF90EF900895CF9349
:101A7000DF93EC018D818823A1F18C8187FF2DC03C
:101A80006E857F858889998941E00E94AA14882300
:101A900041F1EA8980E2E89FF0011124DF01AC54B2
:101AA000BE4F1097F1F08D81823050F44B895C89E4
:101AB0006D897E895C964D935D936D937C935F9762
:101AC0008F89988DA98DBA8DEC54FE4F938F828F9C
:101AD000B58BA48B8C818F778C83DF91CF910C9405
:101AE0006F1480E0DF91CF9108958F929F92AF9213
:101AF000BF92CF92DF92EF92FF920F931F93CF93FB
:101B0000DF93EC018D81811102C080E077C00B89E9
:101B10001C892D893E890417150726073707A8F366
:101B20006A017B01823029F4CA86DB86EC86FD8659
:101B30000DC0C114D104E104F10451F41E821F82CE
:101B4000188619861A861B861C861D8681E056C05B
:101B50008A849B84AC84BD84EB8DFC8D258530E02C
:101B6000275F3F4FB501A401415051096109710937
:101B7000022E04C076956795579547950A94D2F73B
:101B8000D701C6010197A109B10904C0B695A7956F
:101B9000979587952A95D2F784179507A607B707D3
:101BA00020F089288A288B2849F44F89588D698D1F
:101BB0007A8D4E835F836887798704C0841B950B79
:101BC000A60BB70B4C015D018E010A5F1F4F8114FC
:101BD0009104A104B10409F4A7CF4E815F81688507
:101BE000798598018B8D9C8D0E94931591E0891ABF
:101BF0009108A108B1088111EACF87CFDF91CF9179
:101C00001F910F91FF90EF90DF90CF90BF90AF901A
:101C10009F908F9008952F923F924F925F926F9274
:101C20007F928F929F92AF92BF92CF92DF92EF926C
:101C3000FF920F931F93CF93DF9300D000D0CDB7C7
:101C4000DEB78C015B011A01DC0115968C911597AA
:101C50008130C9F414968C9181FF15C082FF1BC09E
:101C6000F801438954896589768982859385A4859D
:101C7000B58584179507A607B70769F0C8010E94C4
:101C8000750D811108C081E090E0F8019383828393
:101C900080E090E039C1610183C0D8015B968D91ED
:101CA0009C915C97FC01248121502A013B0139E081
:101CB00076946794579447943A95D1F7722E74208E
:101CC0007A01F1E0FF22772009F476C080E092E00B
:101CD0008E199F0946018C159D0508F44C01D80109
:101CE0005B962D913C915C9716968D919D910D90F0
:101CF000BC91A02D0297A109B109F901058404C086
:101D0000880F991FAA1FBB1F0A94D2F746855785D3
:101D100060897189840F951FA61FB71F9C01AD01B3
:101D2000270D311D411D511D29013A01811432E059
:101D3000930609F088C08091000190910101A09163
:101D40000201B091030184159505A605B70559F464
:101D50008FEF9FEFDC018093000190930101A0932E
:101D60000201B09303019501B301A2018091B40374
:101D70009091B5030E94CC0C882309F484CF9EEF88
:101D8000B91AC818D908F80182859385A485B58544
:101D9000880D991DA11DB11D82879387A487B587E2
:101DA000D8011A964D915D916D917C911D97C1144A
:101DB000D10409F072CF87C0E114F10409F086CF95
:101DC00016964D915D916D917C9119974115510534
:101DD0006105710559F457968D919D910D90BC91B7
:101DE000A02D0097A105B10541F521C09E012F5FEF
:101DF0003F4F0E949315882309F44BCF89819A8124
:101E0000AB81BC81F801238D348DF9012789203104
:101E100029F048EF5FEF6FEF7FE004C048EF5FEF1E
:101E200060E070E084179507A607B70730F0C80197
:101E30000E941C1781114ACF26CFF8018683978311
:101E4000A087B18743CFE114F10429F5D8011A9690
:101E50004D915D916D917C911D9753968D919D91C2
:101E60000D90BC91A02D481759076A077B0798F081
:101E70000E946F14882309F406CF4092000150920B
:101E8000010160920201709203018091A9018160B9
:101E90008093A90108C041E0C301B2010E94AA14C5
:101EA000882309F4F0CED501F701EC54FE4FCF01A1
:101EB000880D991DE817F90719F02D912193FACF94
:101EC000A80CB91C5ECF53968D919D910D90BC913D
:101ED000A02D84179507A607B70740F4F801438B98
:101EE000548B658B768B848180688483D8011496AB
:101EF0008C9183FD02C0C10107C0C8010E94370D4B
:101F0000882309F4C0CEF7CF0F900F900F900F9059
:101F1000DF91CF911F910F91FF90EF90DF90CF90C5
:101F2000BF90AF909F908F907F906F905F904F90F9
:101F30003F902F900895CF93DF931F92CDB7DEB7D8
:101F4000698341E050E0BE016F5F7F4F0E940B0E3E
:101F50000F90DF91CF91089580E090E00895FC010B
:101F6000858596850895CF93DF9300D000D000D06B
:101F7000CDB7DEB7AB011C821D821E82DC01ED9164
:101F8000FC910190F081E02D19821A821B829E0142
:101F90002F5F3F4FBE016C5F7F4F099526960FB6AE
:101FA000F894DEBF0FBECDBFDF91CF9108958F9221
:101FB0009F92AF92BF92CF92DF92EF92FF920F93D8
:101FC0001F93CF93DF93CDB7DEB7C657D1090FB6B6
:101FD000F894DEBF0FBECDBF8091E10490E0209168
:101FE000E204821B9109029784F08BEA94E00E943C
:101FF000FA13E091B603F091B7030190F081E02D60
:10200000682F86EB93E00995E7CF8BEA94E00E9476
:10201000FA138C016C01990FEE08FF08F7FE2BC034
:10202000E091B603F091B7030190F081E02D6DE2ED
:1020300086EB93E0099522273327A9012C193D0946
:102040004E095F0919A2CE0181967C017AE0872EA4
:10205000912CA12CB12CCA01B901A50194010E94B7
:102060003E1D605DF70162937F0121153105410539
:10207000510589F71AC0A701960119A2CE018196D0
:102080007C016AE0862E912CA12CB12CCA01B901E9
:10209000A50194010E943E1D605DF70162937F01DE
:1020A000211531054105510589F7C7010E94C40377
:1020B0008AE991E00E94C403083C110509F009C3B4
:1020C00000E010E0E12CF12CDD24DA940931110557
:1020D00084F4F701E751FB4FD08211821282809184
:1020E0009E040E9478050F5F1F4FF3E0EF0EF11C76
:1020F000EDCF81E0809348069091AA018091B101D3
:10210000981709F477C01092C20580916F008E7DF8
:1021100080936F000E94A60681110E94990780910A
:10212000800087FD1AC080910601806280930601BD
:1021300010928100109280008091AA010E9459059E
:102140008091AA01863009F443C08E3209F444C05C
:10215000853009F043C081E03CC020918800309177
:10216000890040E050E08091AF019091B0014817A4
:102170005907C8F637FD06C0B9018217930720F446
:10218000BC0102C060E070E070938B0060938A0035
:1021900037FD06C0B9018217930720F4BC0102C0C5
:1021A00060E070E07093890060938800C2976AE0F5
:1021B00070E0E0918400F0918500E817F907C8F31A
:1021C00061507109B1F74F5F5F4F21503109CBCF9B
:1021D00082E08093470604C083E0FBCF109247065D
:1021E0008DB581608DBD8CB58C7F8CBD8091AA0131
:1021F0008093B1011092C20580916F008E7D809313
:102200006F000E94A60681110E9499071C821B8202
:1022100005E211E01A8309831E82CE0101960E9415
:10222000D6038B819C8123969FAF8EAF23972196F7
:102230001FAF0EAF21978D8124968FAF24978E818B
:1022400025968FAF25974F81588569857A85299680
:102250004CAF5DAF6EAF7FAF29974B855C856D85C9
:102260007E852D964CAF5DAF6EAF7FAF2D974F85BE
:10227000588969897A8961964CAF5DAF6EAF7FAF3F
:1022800061979B8962969FAF62974C895D896E8941
:102290007F8966964CAF5DAF6EAF7FAF6697488D16
:1022A000598D6A8D7B8D6A964CAF5DAF6EAF7FAFF7
:1022B0006A972C8D3D8D6C963FAF2EAF6C971DA20B
:1022C0001CA21BA30AA31FA2811116C0A0961FAEB9
:1022D0001EAEA09788EE93E0A0E0B0E0A4968CAF8D
:1022E0009DAFAEAFBFAFA497E7961FAE1EAEE79708
:1022F000A9961FAEA99751C04DE951E0BE01615C9E
:102300007F4FCE0182960E94B2068823F9F2CE0159
:10231000CF960E9463148CA19DA19C838B831A830A
:1023200009838EA18D838FA18E8388A599A5AAA5E7
:10233000BBA58F839887A987BA878CA59DA5AEA5D5
:10234000BFA58B879C87AD87BE8788A999A9AAA9B5
:10235000BBA98F87988BA98BBA8B8CA98B8B8DA9E6
:102360009EA9AFA9B8AD8C8B9D8BAE8BBF8B89AD71
:102370009AADABADBCAD888F998FAA8FBB8F8DAD59
:102380009EAD9D8F8C8F4DE951E0BE016F5F7F4FF9
:10239000CE01845A9F4F0E948818A0968EAD9FADA3
:1023A000A0979093BA048093B904A4968CAD9DAD88
:1023B000AEADBFADA4978093BB049093BC04A09333
:1023C000BD04B093BE04A8968CAD9DADAEADBFADBF
:1023D000A8978093BF049093C004A093C104B093C6
:1023E000C2048DE0ECE5F0E0EC0FFD1F3C96A3ECA1
:1023F000B4E001900D928A95E1F7E7968EAD9FAD1E
:10240000E7979093D1048093D0040E94A606882376
:1024100009F421C168E070E080E090E00E94940639
:1024200087E5898381E48A8386E58B8385E48C83D1
:102430008E010F5F1F4F34E0F32EF00E87EB94E018
:102440000E94D418F80121918F01022E000C330B49
:102450008217930711F4FE12F1CF68E170E080E07B
:1024600090E00E94940687EB94E00E94D418909329
:10247000AE018093AD0187EB94E00E94D41820E078
:1024800030E0382F8091AD019091AE01822B932BDB
:102490009093AE018093AD016CE270E080E090E03B
:1024A0000E94940680E490E09093C4058093C30555
:1024B00081E08093C20580910601982F9F779093C9
:1024C00006012091AD013091AE012B3F3F4A30F023
:1024D00020EC3DE53093AE012093AD012091AD019C
:1024E0003091AE0140E050E086FF05C060E075E34A
:1024F0008CE090E004C060E07AE688E190E00E9421
:10250000601D6AE0629FC001639F900D112490934B
:10251000B0018093AF0187EB94E00E94D4188C0146
:1025200087EB94E00E94DE18800F911F97FD0196C3
:1025300095958795409148062091880030918900B3
:10254000141634F402C0369527954A95E2F709C06F
:10255000552741950CF4509502C0220F331F4A9520
:10256000E2F7992740E050E02817390708F046C005
:10257000B9016F5F7F4F6217730728F09B018617C1
:10258000970708F49C01FA01EB53FA4F20834F5F41
:102590005F4F4034510561F740E050E0B9016F5F93
:1025A0007F4F6217730728F09B018617970708F47F
:1025B0009C01FA01EB5FF94F20834F5F5F4F40347E
:1025C000510561F710924606109204011092050120
:1025D00010924506F8948091AF019091B0019093CC
:1025E00087008093860082EB8093800089E180934E
:1025F000810081E280936F0078942DC0B901615011
:1026000071096817790728F06217730718F49B019E
:1026100001C09C01FA01EB53FA4F20834F5F5F4FDB
:102620004034510559F740E050E0B901615071095B
:102630006817790728F06217730718F49B0101C027
:102640009C01FA01EB5FF94F20834F5F5F4F4034ED
:10265000510559F7B7CF6CED75E080E090E00E942E
:10266000F807809106019091C20587FF03C0911180
:1026700020C002C0911124C06CED75E080E090E0B4
:102680000E94F80700E010E0E12CF12C093111055F
:1026900004F5F701E751FB4F1082118212828091FD
:1026A0009E040E9478050F5F1F4F83E0E80EF11C27
:1026B000EDCF8F778093060180916F00816206C015
:1026C00080688093060180916F008E7F80936F00F9
:1026D000D3CFCA58DF4F0FB6F894DEBF0FBECDBFC1
:1026E000DF91CF911F910F91FF90EF90DF90CF90EE
:1026F000BF90AF909F908F900895DC015996ED9117
:10270000FC915A973097B9F083899489A589B68945
:102710004285538564857585841B950BA60BB70B85
:10272000811520E89207A105B10538F08FEF9FE7EA
:10273000A0E0B0E0089580E090E00895CF93DF93AB
:102740001F92CDB7DEB76983DC01ED91FC91028069
:10275000F381E02D41E050E0BE016F5F7F4F0995AE
:102760000F90DF91CF910895E0916C06F0916D0686
:10277000309729F01092E0041092DF040994089534
:10278000CF93DF93AC01E091E704F091E804309738
:10279000F1F09091E2048091E1049817C0F090E08C
:1027A000292F30E02617370754F4D901A45BB94F1D
:1027B000EA01C20FD31F88818C939F5FF1CF1092E3
:1027C000E2046093E104CB01DF91CF910994DF91A2
:1027D000CF9108950895E091E2048091E104E81713
:1027E00030F4F0E0E45BF94F808190E008958FEFE2
:1027F0009FEF08959091E2048091E104981750F4BE
:10280000E92FF0E0E45BF94F208130E09F5F909387
:10281000E20402C02FEF3FEFC90108958091E10467
:1028200090E02091E204821B91090895089580E0D0
:1028300090E00895FC01818D928D009711F00C9429
:10284000370D0895CF93DF93EC01898D9A8D009712
:1028500039F481E090E09B838A8380E090E00BC0B4
:10286000FC01138212820E940B0EE98DFA8D2281E7
:102870003381232B71F7DF91CF910895CF93DF93AD
:1028800000D0CDB7DEB7CB01642F49835A830E94B5
:10289000450B4981842F5A81952F0F900F90DF911E
:1028A000CF910895CF93DF931F92CDB7DEB76983A1
:1028B00061E0CE0101960E94450B81E090E00F900F
:1028C000DF91CF910895CF93DF93EC010E94370DF4
:1028D000882311F01D8281E0DF91CF9108958091CE
:1028E000A9018823A9F14091000150910101609153
:1028F00002017091030124EB31E08091B4039091C7
:10290000B5030E94CC0C811102C080E00895409173
:102910006E0650916F0660917006709171064115B8
:1029200051056105710591F024EB31E08091B4030C
:102930009091B5030E94CC0C882339F310926E0657
:1029400010926F0610927006109271061092A901F3
:1029500081E008958F929F92AF92BF92EF92FF9283
:102960000F931F93CF934B015C01C42F8091000103
:1029700090910101A0910201B09103018815990580
:10298000AA05BB0501F10E946F14811102C080E00D
:1029900020C084EBE82E81E0F82E00E012E020E079
:1029A00030E0B501A4018091B4039091B5030E9479
:1029B000380C882361F38092000190920101A0926B
:1029C0000201B09203018091A901C82BC093A90113
:1029D00081E0CF911F910F91FF90EF90BF90AF904A
:1029E0009F908F9008954F925F926F927F928F92F7
:1029F0009F92AF92BF92CF92DF92EF92FF920F938E
:102A00001F93CF93DF93EC016A017B012801390109
:102A1000423051056105710510F480E073C089856D
:102A20009A85AB85BC850196A11DB11D84179507BC
:102A3000A607B70790F38B889C88AD88BE888F89DE
:102A4000803129F4BB27AF2D9E2D8D2D09C0DB01D0
:102A5000CA0147E0B695A795979587954A95D1F70E
:102A6000880E991EAA1EBB1E809100019091010143
:102A7000A0910201B091030188169906AA06BB062F
:102A800079F48F898031A1F4DD24EE24FF24C6017E
:102A9000880F991FFC01EC54FE4F5182408219C0EF
:102AA00040E0C501B4010E94AA148111EACFB5CF5C
:102AB000E894C7F8DD24EE24FF24C601880F991F8F
:102AC000880F991FFC01EC54FE4F408251826282B4
:102AD00073828091A90181608093A9018A898230E3
:102AE00080F08D819E81AF81B885880E991EAA1EC7
:102AF000BB1E80926E0690926F06A0927006B092F6
:102B0000710681E0DF91CF911F910F91FF90EF90BF
:102B1000DF90CF90BF90AF909F908F907F906F90FD
:102B20005F904F9008958F929F92AF92BF92CF92F5
:102B3000DF92EF92FF920F931F93CF93DF93FC01ED
:102B400081859285A385B4850196A11DB11D841749
:102B50009507A607B70710F480E05CC083899489C5
:102B6000A589B689C789C03129F4852E962EA72E4E
:102B7000BB2409C04A015B01C7E0B694A7949794AF
:102B80008794CA95D1F7E9016A017B018F01BC01E5
:102B9000CD01680D791D8A1D9B1D809000019090CC
:102BA0000101A0900201B0900301681579058A0522
:102BB0009B0599F4F80187898031A9F4B701A60132
:102BC000552766277727440F551FFA01EC54FE4F0F
:102BD00080819181A0E0B0E018C040E00E94AA147A
:102BE0008111E8CFB9CFB701A6014F7755276627E6
:102BF0007727440F551F440F551FFA01EC54FE4F21
:102C000080819181A281B381BF7088839983AA83D7
:102C1000BB8381E0DF91CF911F910F91FF90EF90E7
:102C2000DF90CF90BF90AF909F908F9008952F929C
:102C30003F924F925F926F927F928F929F92AF924C
:102C4000BF92CF92DF92EF92FF920F931F93CF9399
:102C5000DF93EC016B014A018D81811103C08FEF7D
:102C60009FEFD7C08C8180FFFACF4B885C886D883E
:102C70007E884A855B856C857D85C401A0E0B0E0D7
:102C800093018201041B150B260B370B081719073C
:102C90002A073B0718F44201841A950A54011E01C1
:102CA00026E0220E311CA114B10409F47EC04A852D
:102CB0005B856C857D852A0181E05822ED818A0142
:102CC0009B0189E036952795179507958A95D1F749
:102CD0008B8D9C8DE23061F4FC01828D938DA48DEF
:102CE000B58DBC01CD01600F711F821F931F3FC0C6
:102CF000FC0174807A94702241145104C9F471105B
:102D000017C0452B462B472B49F48F89988DA98DE9
:102D1000BA8D8E839F83A887B9870AC04E815F8151
:102D20006885798591010E949315882309F497CFCE
:102D3000EB8DFC8D8E819F81A885B9850297A109B5
:102D4000B109058404C0880F991FAA1FBB1F0A94EC
:102D5000D2F74685578560897189840F951FA61F14
:102D6000B71FBC01CD01670D711D811D911D20E0B4
:102D700032E02419350935012A153B0508F43901DB
:102D80002C8126FD04C06114F2E07F0681F40091DD
:102D9000000110910101209102013091030160179F
:102DA000710782079307B1F402C0C40132C040E04A
:102DB0000E94AA14882309F452CFF201EC54FE4F6A
:102DC000D601CF01860D971DE817F90789F02191EB
:102DD0002D93FACF760183019201AB01BC01809162
:102DE000B4039091B5030E94380C882309F437CFBF
:102DF000C60CD71C8A859B85AC85BD85860D971D25
:102E0000A11DB11D8A879B87AC87BD87A618B7080F
:102E10004ACFDF91CF911F910F91FF90EF90DF90FC
:102E2000CF90BF90AF909F908F907F906F905F906A
:102E30004F903F902F9008953F924F925F926F92E4
:102E40007F928F929F92AF92BF92CF92DF92EF923A
:102E5000FF920F931F93CF93DF93CDB7DEB72C97DD
:102E60000FB6F894DEBF0FBECDBF5C01DC015B96F0
:102E70008D909C905C971696CD90DD90ED90FC9097
:102E80001997C114D104E104F10439F0BFEFCB1A52
:102E9000DB0AEB0AFB0A312C07C0F401C080D180A9
:102EA000E280F38033243394F40181859285A385F5
:102EB000B4859C01AD012F5F3F4F4F4F5F4F298776
:102EC0003A874B875C87260137011D821E821F824D
:102ED0001886F40181859285A385B4852D813E8174
:102EE0004F815885281739074A075B0708F063C0E8
:102EF00089859A85AB85BC858C159D05AE05BF057A
:102F000050F482E0C82ED12CE12CF12C92E0492E15
:102F1000512C612C712C9E012F5F3F4FB701A601F0
:102F2000C4010E949315882309F445C089819A81C0
:102F3000AB81BC81892B8A2B8B2B41F02601370179
:102F40009FEF491A590A690A790A05C0C414D504C1
:102F5000E604F70491F02D813E814F8158852F5F63
:102F60003F4F4F4F5F4F2D833E834F8358873FEF37
:102F7000C31AD30AE30AF30AACCF0FEF1FEF2FEF08
:102F80003FE0B301A201C4010E94F314882399F029
:102F9000D50116964D915D916D917C9119974115D2
:102FA00051056105710549F093018201C4010E9438
:102FB000F314811102C080E02AC0D50116964D920B
:102FC0005D926D927C921997332051F0D301C2012A
:102FD0000196A11DB11DF40180839183A283B38367
:102FE000F5018789908DA18DB28D892B8A2B8B2B32
:102FF00069F4D50157964D925D926D927C925A97E5
:1030000014968C911497806814968C9381E02C967A
:103010000FB6F894DEBF0FBECDBFDF91CF911F91E9
:103020000F91FF90EF90DF90CF90BF90AF909F9067
:103030008F907F906F905F904F903F9008954F9248
:103040005F926F927F92AF92BF92CF92DF92EF9298
:10305000FF920F931F93CF93DF9300D000D0CDB793
:10306000DEB78C0149835A836B837C835901C12C61
:10307000D12C7601412C82E0582E612C712C498193
:103080005A816B817C819E012F5F3F4FC8010E9456
:103090009315882351F1D301C201F801058404C0BE
:1030A000880F991FAA1FBB1F0A94D2F7C80ED91EFA
:1030B000EA1EFB1E49815A816B817C8187898031A0
:1030C00029F088EF9FEFAFEFBFE004C088EF9FEFDC
:1030D000A0E0B0E0481759076A077B0780F2F501C6
:1030E000C082D182E282F38281E00F900F900F9034
:1030F0000F90DF91CF911F910F91FF90EF90DF9094
:10310000CF90BF90AF907F906F905F904F90089559
:10311000EF92FF920F931F93CF93DF93EC017B010C
:103120008A011B821A8288EE93E0A0E0B0E08C83D3
:103130009D83AE83BF8383E491E0998388838DE18F
:1031400090E00E94BA1D9A8F898F009779F02DE147
:10315000F701DC0101900D922A95E1F74CE050E077
:10316000B801CE010C960E94F91E188EDF91CF9106
:103170001F910F91FF90EF900895CF93DF931F92CF
:10318000CDB7DEB741E050E0BE016F5F7F4F0E94D8
:103190001716019719F4898190E002C08FEF9FEF15
:1031A0000F90DF91CF910895FC01818D928D009752
:1031B00011F00C94BD188FEF9FEF08950F931F939C
:1031C000CF93DF93FC01818D928D0097B9F0EF01D1
:1031D0000E94BD188C010F3F8FEF180791F0898D69
:1031E0009A8DFC014285538564857585415051094E
:1031F000610971090E94750DC80105C080E090E069
:1032000002C08FEF9FEFDF91CF911F910F91089533
:103210001F920F920FB60F9211242F933F938F930B
:103220009F93EF93FF938091060186FD1CC0209130
:10323000480627FF23C0E09146068091450690E4AA
:10324000E99FF0011124E80FF11DEB53FA4F808143
:1032500090E0332721950CF4309502C09595879521
:103260002A95E2F71EC090914B0681E08927809352
:103270004B0680914B068823D1F232C0E09146067E
:103280008091450690E4E99FF0011124E80FF11DBB
:10329000EB53FA4F808190E002C0880F991F2A9566
:1032A000E2F790938B0080938A009093890080933B
:1032B0008800809145068F5F809345068091450682
:1032C000803470F010924506E0914606F0E0EC5F25
:1032D000FE4F81E0808390914606892780934606C1
:1032E000FF91EF919F918F913F912F910F900FBE82
:1032F0000F901F9018951F920F920FB60F921124E6
:103300002F933F934F935F936F937F938F939F93ED
:10331000AF93BF93EF93FF93E091460681E0E827D8
:10332000F0E0EC5FFE4F9081992309F450C090913A
:103330004606892780934A0680916F008F7D80938F
:103340006F00789487EB94E00E947D132091C30571
:103350003091C40528173907E8F08091060183FFF2
:1033600007C06CE270E080E090E00E9494062AC002
:1033700080916F008E7D80936F00E091D004F0917A
:10338000D104309721F0858181110E949907109214
:10339000C2051DC060914A0680E4689FB0011124F7
:1033A0006B537A4F8091D0049091D104009721F013
:1033B00040E450E00E941716E0914A06F0E0EC5F0E
:1033C000FE4F108280916F00806280936F00FF91AA
:1033D000EF91BF91AF919F918F917F916F915F918D
:1033E0004F913F912F910F900FBE0F901F90189506
:1033F000EF92FF920F931F93CF93DF93EC01909185
:1034000049069F5F292F27702093490690FF02C02D
:1034100090E801C090E021FD9064247009F0906272
:1034200020E1290FFE013C967E018FE0E80EF11CA1
:1034300000E011E06191662331F070E0C8010E9464
:103440002A1D6F5F01C060E0DF0114976C93322F7B
:10345000369F030E30E0311D1124CF010797311143
:1034600003C0EC01188203C03150EC01388366239D
:1034700011F061506C93EE15FF05E1F6DF91CF91ED
:103480001F910F91FF90EF900895E6EBF3E0138208
:10349000128288EE93E0A0E0B0E084839583A68357
:1034A000B78323E131E03183208325EC30E0358799
:1034B000248724EC30E03787268720EC30E0318BFE
:1034C000208B21EC30E0338B228B22EC30E0358BEB
:1034D000248B26EC30E0378B268B118E128E138EC8
:1034E000148EE3E5F4E020E520831182E5E5F4E0C5
:1034F000158216821186138642E050E060E070E08B
:10350000448755876687778713A215A614A625E2F8
:1035100031E033A722A717A6EEE9F4E02FEF2083CE
:1035200012821182148613864FEF5FEFBA01478330
:10353000508761877287EBEAF4E0138212828483FA
:103540009583A683B78321E331E031832083E7EBC2
:10355000F4E01382128284839583A683B78383E485
:1035600091E091838083128E118E14860895789451
:1035700084B5826084BD84B5816084BD85B5826078
:1035800085BD85B5816085BD80916E008160809329
:103590006E00109281008091810082608093810092
:1035A00080918100816080938100809180008160A2
:1035B000809380008091B10084608093B1008091FD
:1035C000B00081608093B00080917A008460809325
:1035D0007A0080917A00826080937A0080917A00EC
:1035E000816080937A0080917A00806880937A006D
:1035F0001092C10068EB7BE080E090E00E94F80749
:1036000080914B05811145C010923D0510923C05FB
:103610008FEF80934005809341058093420580930E
:103620004305809344058093450581E080934605DA
:10363000109248051092470510923F0510923E05E2
:103640008091B2019091B301892B31F48AE395E026
:103650009093B3018093B201E0913805F091390560
:10366000309721F08AE395E0958384838AE395E09F
:10367000909339058093380510924A0510924905B8
:1036800083E891E090933B0580933A0581E0809335
:103690004B05E0913A05F0913B050480F581E02D62
:1036A0008AE395E0099589EE94E090933D05809337
:1036B0003C0589E190E09093480580934705E091AF
:1036C0003A05F0913B050284F385E02D8AE395E00D
:1036D0000995009711F19C0140E050E060E472E42C
:1036E0008FE090E00E94601DC090A104D090A204E1
:1036F000E090A304F090A404C901DA018C159D05A3
:10370000AE05BF0510F4D701C6018093A1049093C4
:10371000A204A093A304B093A4048FEF8093400568
:1037200090EB9093410590EF9093420580939E0417
:1037300089E08093AA0180E18093BA0084EB93E151
:103740009093E6048093E50480EC93E19093E40485
:103750008093E3041092E2041092E1041092E004DA
:103760001092DF041092DE0481E08093DD04109259
:10377000DC0461E082E10E94AC0761E083E10E9429
:10378000AC078091B9008E7F8093B9008091B90019
:103790008D7F8093B90088E48093B80085E480939E
:1037A000BC0087ED9FE09093E8048093E704E091EC
:1037B000C603F091C70382E08083E091C203F091D9
:1037C000C3031082E091C403F091C5038FEC8083A2
:1037D0001092CE03E091CA03F091CB0386E0808380
:1037E000E091C803F091C903808180618083E091FA
:1037F000C803F091C903808188608083E091C80389
:10380000F091C903808180688083E091C803F091C2
:10381000C90380818F7D808380918404882321F077
:103820008FE794E00E9463141092600410925E048B
:1038300010925B0410925A0488E0809359040E940D
:10384000FB08EB01809159040E94590561E08091C9
:1038500059040E94AC071FB7F89480915305811159
:1038600024C0EAEAF0E08491EEEBF0E09491E82FD6
:10387000F0E0EE0FFF1FEA56FF4FA591B491EC91D7
:10388000E92321F461E08AE00E94AC078AE00E940B
:1038900059058CB580618CBD8CB580648CBD8DE084
:1038A0000E9459058BE00E945905809153058F5F56
:1038B000809353051FBF82E58093530410925404F4
:1038C00080915304909154040E94BD0B1AE08FEF35
:1038D0000E947E0B1150D9F785E594E00E94C00B41
:1038E00020E030E0A90160E085E594E00E94D60B7D
:1038F000182F80935F04813049F00E94FB086C1BF5
:103900007D0B613D774060F381E054C02AEA31E0ED
:1039100040E050E068E085E594E00E94D60B82FF2D
:1039200003C0109360040EC014E00E94850B8093C6
:103930005F041150D1F78A3A11F082E03BC082E077
:103940008093600480916004823021F0C12CD12CDE
:10395000760105C0C12CD12CE12C80E4F82E20E0AA
:1039600030E0A90167E385E594E00E94D60BA7014A
:10397000960169E285E594E00E94D60B80935F048E
:10398000882349F00E94FB086C1B7D0B613D77404A
:1039900030F388E00FC080916004823001F520E0B0
:1039A00030E0A9016AE385E594E00E94D60B882304
:1039B00041F086E080935A0485E594E00E94730B01
:1039C00028C00E94850B807C803C19F483E08093A2
:1039D00060040E94850B0E94850B0E94850B85E583
:1039E00094E00E94730B80E580935304109254047A
:1039F00081E00E942A04882339F08FE794E00E9436
:103A0000D603882331F00DC080E00E942A04811182
:103A1000F4CF82E991E00E94C4038AE991E00E9418
:103A2000C40364E670E080E090E00E94F8070E9422
:103A3000B509F7CFDB018F939F930E94861DBF913D
:103A4000AF91A29F800D911DA39F900DB29F900DED
:103A50001124089597FB072E16F4009407D077FDE4
:103A600009D00E94911D07FC05D03EF490958195E8
:103A70009F4F0895709561957F4F0895A1E21A2E8A
:103A8000AA1BBB1BFD010DC0AA1FBB1FEE1FFF1F02
:103A9000A217B307E407F50720F0A21BB30BE40B52
:103AA000F50B661F771F881F991F1A9469F7609599
:103AB0007095809590959B01AC01BD01CF01089553
:103AC000052E97FB1EF400940E94771D57FD07D02A
:103AD0000E943E1D07FC03D04EF40C94771D5095B8
:103AE0004095309521953F4F4F4F5F4F08959095EA
:103AF0008095709561957F4F8F4F9F4F08950E94DD
:103B0000AB1DB7FF0895821B930B08950E94AB1D58
:103B1000A59F900DB49F900DA49F800D911D112421
:103B20000895AA1BBB1B51E107C0AA1FBB1FA61704
:103B3000B70710F0A61BB70B881F991F5A95A9F756
:103B400080959095BC01CD010895EE0FFF1F059063
:103B5000F491E02D0994A29FB001B39FC001A39FEF
:103B6000700D811D1124911DB29F700D811D1124B6
:103B7000911D0895CF93DF938230910510F482E078
:103B800090E0E0917406F091750620E030E0C0E02E
:103B9000D0E0309711F14081518148175907C0F0AA
:103BA0004817590761F482819381209719F09B830C
:103BB0008A832BC0909375068093740626C02115C6
:103BC000310519F04217530718F49A01BE01DF01BD
:103BD000EF010280F381E02DDCCF2115310509F1E1
:103BE000281B390B2430310590F412968D919C914D
:103BF00013976115710521F0FB019383828304C043
:103C00009093750680937406FD01329644C0FD01C1
:103C1000E20FF31F81939193225031092D933C932E
:103C20003AC02091720630917306232B41F4209103
:103C3000090130910A013093730620937206209196
:103C40000701309108012115310541F42DB73EB728
:103C500040910B0150910C01241B350BE091720631
:103C6000F0917306E217F307A0F42E1B3F0B281701
:103C7000390778F0AC014E5F5F4F2417350748F0E5
:103C80004E0F5F1F5093730640937206819391937A
:103C900002C0E0E0F0E0CF01DF91CF9108950F93F3
:103CA0001F93CF93DF93009709F48CC0FC013297E8
:103CB0001382128200917406109175060115110588
:103CC00081F420813181820F931F209172063091FF
:103CD00073062817390779F5F0937306E093720697
:103CE00071C0D80140E050E0AE17BF0750F4129603
:103CF0002D913C911397AD012115310509F1D901A1
:103D0000F3CF9D01DA013383228360817181860FB5
:103D1000971F8217930769F4EC0128813981260FD8
:103D2000371F2E5F3F4F318320838A819B8193838E
:103D30008283452B29F4F0937506E093740642C004
:103D40001396FC93EE931297ED01499159919E01C0
:103D5000240F351FE217F30771F480819181840FDE
:103D6000951F029611969C938E9382819381139650
:103D70009C938E931297E0E0F0E0D80112968D911B
:103D80009C911397009719F0F8018C01F6CF8D9153
:103D90009C9198012E5F3F4F820F931F20917206D6
:103DA000309173062817390769F4309729F4109277
:103DB00075061092740602C0138212821093730665
:103DC00000937206DF91CF911F910F91089581E0CA
:103DD00090E0F8940C94081FFB01DC0104C08D9165
:103DE0000190801921F441505040C8F7881B990B6D
:103DF0000895FB01DC014150504048F001900D92C4
:103E00000020C9F701C01D9241505040E0F70895CD
:043E1000F894FFCF54
:103E1400FFFFFFFF01016000007606800000000044
:103E24000000006D08BF093208B408A9094108550B
:103E340008000000009B0FBF0917141614000000AF
:103E44000052143E141714EA130E14FA13EB130061
:103E54000000009E13221417141A147D13D418DEC4
:103E64001800000000F409BF0917141614F409F42B
:103E740009F40900000000F409BF0917141614001E
:103E8400000000F409F409F409B30FAF0FAC0F00FC
:103E94000000002B03E7029200B30FAF0F8F0094D2
:103EA40000005344206661696C000D0A0073656369
:083EB4007265742E776176003F
:00000001FF
