:100000000C9465000C948D000C948D000C948D0064
:100010000C948D000C948D000C948D000C948D002C
:100020000C948D000C948D000C94D9080C948D00C8
:100030000C948D000C9466080C948D000C948D002B
:100040000C94E7140C948D000C9457150C943115F6
:100050000C948D000C948D000C948D000C948D00EC
:100060000C94C4090C948D000000000800020100EB
:100070000003040700000000000000007C3C3E5E1E
:100080002B3D3F2F5B5D3B2C2A225C0000000000D3
:10009000250028002B0000000000240027002A0073
:1000A000040404040404040402020202020203031E
:1000B0000303030301020408102040800102040826
:1000C0001020010204081020891511241FBECFEF53
:1000D000D8E0DEBFCDBF11E0A0E0B1E0E2EDF2E399
:1000E00002C005900D92A238B107D9F725E0A2E829
:1000F000B1E001C01D92A03DB207E1F710E0C5E6F6
:10010000D0E004C02197FE010E940418C436D10734
:10011000C9F70E94EC150C9467190C940000DC01DF
:100120005996ED91FC915A973097B9F0838994894B
:10013000A589B6894285538564857585841B950B91
:10014000A60BB70B811520E89207A105B10538F081
:100150008FEF9FE7A0E0B0E0089580E090E0089581
:10016000CF93DF931F92CDB7DEB76983DC01ED91AA
:10017000FC910280F381E02D41E050E0BE016F5F11
:100180007F4F09950F90DF91CF910895E0912C0258
:10019000F0912D02309729F01092B9051092B80510
:1001A00009940895CF93DF93AC01E091C005F091DD
:1001B000C1053097F1F09091BB058091BA05981771
:1001C000C0F090E0292F30E02617370754F4D9010A
:1001D000A45FBD4FEA01C20FD31F88818C939F5F3C
:1001E000F1CF1092BB056093BA05CB01DF91CF919F
:1001F0000994DF91CF9108950895E091BB05809116
:10020000BA05E81730F4F0E0E45FFD4F808190E03C
:1002100008958FEF9FEF08959091BB058091BA05E7
:10022000981750F4E92FF0E0E45FFD4F208130E0B3
:100230009F5F9093BB0502C02FEF3FEFC901089568
:100240008091BA0590E02091BB05821B9109089529
:10025000089580E090E00895FC01818D928D0097D3
:1002600011F00C94E40C0895CF93DF93EC01898D89
:100270009A8D009739F481E090E09B838A8380E037
:1002800090E00BC0FC01138212820E94B80DE98D30
:10029000FA8D22813381232B71F7DF91CF9108955D
:1002A000EF92FF920F931F93CF93DF93EC017B01AB
:1002B0008A011B821A8288EE93E0A0E0B0E08C8372
:1002C0009D83AE83BF8383E491E0998388838DE12E
:1002D00090E00E9419189A8F898F009779F02DE18C
:1002E000F701DC0101900D922A95E1F74CE050E016
:1002F000B801CE010C960E945819188EDF91CF914B
:100300001F910F91FF90EF900895CF93DF9300D04E
:10031000CDB7DEB7CB01642F49835A830E94F20A1E
:100320004981842F5A81952F0F900F90DF91CF91A3
:100330000895CF93DF931F92CDB7DEB7698361E055
:10034000CE0101960E94F20A81E090E00F90DF91C9
:10035000CF91089580919B028823A9F140910301D8
:1003600050910401609105017091060124EA32E088
:100370008091A4049091A5040E94790C811102C07F
:1003800080E0089540912E0250912F02609130023A
:1003900070913102411551056105710591F024EA12
:1003A00032E08091A4049091A5040E94790C8823E6
:1003B00039F310922E0210922F02109230021092F6
:1003C000310210929B0281E008958F929F92AF922A
:1003D000BF92EF92FF920F931F93CF934B015C015B
:1003E000C42F8091030190910401A0910501B09167
:1003F000060188159905AA05BB0501F10E94AA010D
:10040000811102C080E020C084EAE82E82E0F82E4C
:1004100000E012E020E030E0B501A4018091A404E6
:100420009091A5040E94E50B882361F3809203015B
:1004300090920401A0920501B092060180919B0266
:10044000C82BC0939B0281E0CF911F910F91FF9029
:10045000EF90BF90AF909F908F9008954F925F92D2
:100460006F927F928F929F92AF92BF92CF92DF92C4
:10047000EF92FF920F931F93CF93DF93EC016A01EA
:100480007B0128013901423051056105710510F4E5
:1004900080E073C089859A85AB85BC850196A11DD6
:1004A000B11D84179507A607B70790F38B889C8822
:1004B000AD88BE888F89803129F4BB27AF2D9E2D52
:1004C0008D2D09C0DB01CA0147E0B695A795979528
:1004D00087954A95D1F7880E991EAA1EBB1E80915A
:1004E000030190910401A0910501B09106018816C5
:1004F0009906AA06BB0679F48F898031A1F4DD2420
:10050000EE24FF24C601880F991FFC01EC55FD4F16
:100510005182408219C040E0C501B4010E94E5014A
:100520008111EACFB5CFE894C7F8DD24EE24FF248B
:10053000C601880F991F880F991FFC01EC55FD4FCC
:10054000408251826282738280919B02816080939B
:100550009B028A89823080F08D819E81AF81B8852F
:10056000880E991EAA1EBB1E80922E0290922F0208
:10057000A0923002B092310281E0DF91CF911F91C1
:100580000F91FF90EF90DF90CF90BF90AF909F9032
:100590008F907F906F905F904F9008958F929F9271
:1005A000AF92BF92CF92DF92EF92FF920F931F9381
:1005B000CF93DF93FC0181859285A385B485019655
:1005C000A11DB11D84179507A607B70710F480E099
:1005D0005CC083899489A589B689C789C03129F40B
:1005E000852E962EA72EBB2409C04A015B01C7E0C9
:1005F000B694A79497948794CA95D1F7E9016A01B4
:100600007B018F01BC01CD01680D791D8A1D9B1DE9
:100610008090030190900401A0900501B090060124
:10062000681579058A059B0599F4F8018789803159
:10063000A9F4B701A601552766277727440F551F50
:10064000FA01EC55FD4F80819181A0E0B0E018C027
:1006500040E00E94E5018111E8CFB9CFB701A601C2
:100660004F77552766277727440F551F440F551F8F
:10067000FA01EC55FD4F80819181A281B381BF7059
:1006800088839983AA83BB8381E0DF91CF911F91F7
:100690000F91FF90EF90DF90CF90BF90AF909F9021
:1006A0008F9008953F924F925F926F927F928F92B8
:1006B0009F92AF92BF92CF92DF92EF92FF920F93F1
:1006C0001F93CF93DF93CDB7DEB72C970FB6F89477
:1006D000DEBF0FBECDBF5C01DC015B968D909C90B0
:1006E0005C971696CD90DD90ED90FC901997C11413
:1006F000D104E104F10439F0BFEFCB1ADB0AEB0AB5
:10070000FB0A312C07C0F401C080D180E280F38065
:1007100033243394F40181859285A385B4859C01AB
:10072000AD012F5F3F4F4F4F5F4F29873A874B8770
:100730005C87260137011D821E821F821886F40104
:1007400081859285A385B4852D813E814F81588511
:10075000281739074A075B0708F063C089859A851F
:10076000AB85BC858C159D05AE05BF0550F482E0B8
:10077000C82ED12CE12CF12C92E0492E512C612C69
:10078000712C9E012F5F3F4FB701A601C4010E944B
:10079000CE02882309F445C089819A81AB81BC814E
:1007A000892B8A2B8B2B41F0260137019FEF491AA9
:1007B000590A690A790A05C0C414D504E604F70485
:1007C00091F02D813E814F8158852F5F3F4F4F4FD4
:1007D0005F4F2D833E834F8358873FEFC31AD30A61
:1007E000E30AF30AACCF0FEF1FEF2FEF3FE0B301A7
:1007F000A201C4010E942E02882399F0D501169609
:100800004D915D916D917C9119974115510561054F
:10081000710549F093018201C4010E942E028111E9
:1008200002C080E02AC0D50116964D925D926D926D
:100830007C921997332051F0D301C2010196A11D7A
:10084000B11DF40180839183A283B383F50187896D
:10085000908DA18DB28D892B8A2B8B2B69F4D501BC
:1008600057964D925D926D927C925A9714968C9108
:100870001497806814968C9381E02C960FB6F894A8
:10088000DEBF0FBECDBFDF91CF911F910F91FF90C3
:10089000EF90DF90CF90BF90AF909F908F907F9020
:1008A0006F905F904F903F9008954F925F926F923C
:1008B0007F92AF92BF92CF92DF92EF92FF920F930F
:1008C0001F93CF93DF9300D000D0CDB7DEB78C015C
:1008D00049835A836B837C835901C12CD12C7601C7
:1008E000412C82E0582E612C712C49815A816B81F8
:1008F0007C819E012F5F3F4FC8010E94CE0288235A
:1009000051F1D301C201F801058404C0880F991F79
:10091000AA1FBB1F0A94D2F7C80ED91EEA1EFB1EDF
:1009200049815A816B817C818789803129F088EFE8
:100930009FEFAFEFBFE004C088EF9FEFA0E0B0E013
:10094000481759076A077B0780F2F501C082D182F8
:10095000E282F38281E00F900F900F900F90DF9171
:10096000CF911F910F91FF90EF90DF90CF90BF90AC
:10097000AF907F906F905F904F900895CF93DF93EB
:100980001F92CDB7DEB741E050E0BE016F5F7F4FF1
:100990000E94590F019719F4898190E002C08FEFEE
:1009A0009FEF0F90DF91CF910895FC01818D928D83
:1009B000009711F00C94BE048FEF9FEF08950F93F2
:1009C0001F93CF93DF93FC01818D928D0097B9F037
:1009D000EF010E94BE048C010F3F8FEF180791F0CA
:1009E000898D9A8DFC0142855385648575854150BA
:1009F0005109610971090E94220DC80105C080E0FA
:100A000090E002C08FEF9FEFDF91CF911F910F9188
:100A100008958F929F92AF92BF92CF92DF92EF9202
:100A2000FF920F931F93CF93DF93CDB7DEB7C657D7
:100A3000D1090FB6F894DEBF0FBECDBF8091BA05C5
:100A400090E02091BB05821B9109029784F08EE80B
:100A500095E00E940C01E091A604F091A70401909A
:100A6000F081E02D682F86EA94E00995E7CF8EE8C3
:100A700095E00E940C018C016C01990FEE08FF08B3
:100A8000F7FE2BC0E091A604F091A7040190F0813D
:100A9000E02D6DE286EA94E0099522273327A9012B
:100AA0002C193D094E095F0919A2CE0181967C01DE
:100AB0007AE0872E912CA12CB12CCA01B901A50195
:100AC00094010E94B817605DF70162937F012115C0
:100AD00031054105510589F71AC0A701960119A2F0
:100AE000CE0181967C016AE0862E912CA12CB12C3E
:100AF000CA01B901A50194010E94B817605DF70110
:100B000062937F01211531054105510589F7C70120
:100B10000E94C0108FE691E00E94C010083C1105B1
:100B200009F0C0C261E086E00E948C1381E08093EE
:100B30000A0290919C028091A302981709F477C051
:100B40001092830180916F008E7D80936F000E94D0
:100B5000861281110E9479138091800087FD1AC04E
:100B600080910201806280930201109281001092B4
:100B7000800080919C020E94551280919C028630D8
:100B800009F443C08E3209F444C0853009F043C0F3
:100B900081E03CC0209188003091890040E050E025
:100BA0008091A1029091A20248175907C8F637FD1B
:100BB00006C0B9018217930720F4BC0102C060E0AF
:100BC00070E070938B0060938A0037FD06C0B90116
:100BD0008217930720F4BC0102C060E070E07093BC
:100BE000890060938800C2976AE070E0E091840019
:100BF000F0918500E817F907C8F361507109B1F762
:100C00004F5F5F4F21503109CBCF82E080930902C3
:100C100004C083E0FBCF109209028DB581608DBDC9
:100C20008CB58C7F8CBD80919C028093A302109226
:100C3000830180916F008E7D80936F000E948612E9
:100C400081110E9479131C821B8205E211E01A8334
:100C500009831E82CE0101960E94D2108B819C8155
:100C600023969FAF8EAF239721961FAF0EAF21978C
:100C70008D8124968FAF24978E8125968FAF2597EF
:100C80004F81588569857A8529964CAF5DAF6EAFE7
:100C90007FAF29974B855C856D857E852D964CAF02
:100CA0005DAF6EAF7FAF2D974F85588969897A897F
:100CB00061964CAF5DAF6EAF7FAF61979B896296D7
:100CC0009FAF62974C895D896E897F8966964CAF2C
:100CD0005DAF6EAF7FAF6697488D598D6A8D7B8D06
:100CE0006A964CAF5DAF6EAF7FAF6A972C8D3D8D2E
:100CF0006C963FAF2EAF6C971DA21CA21BA30AA33C
:100D00001FA2811116C0A0961FAE1EAEA09788EE3E
:100D100093E0A0E0B0E0A4968CAF9DAFAEAFBFAFC4
:100D2000A497E7961FAE1EAEE797A9961FAEA997A8
:100D300051C042E751E0BE01615C7F4FCE01829617
:100D40000E9492128823F9F2CE01CF960E945E1083
:100D50008CA19DA19C838B831A8309838EA18D8393
:100D60008FA18E8388A599A5AAA5BBA58F839887F7
:100D7000A987BA878CA59DA5AEA5BFA58B879C87A3
:100D8000AD87BE8788A999A9AAA9BBA98F87988B87
:100D9000A98BBA8B8CA98B8B8DA99EA9AFA9B8AD55
:100DA0008C8B9D8BAE8BBF8B89AD9AADABADBCAD43
:100DB000888F998FAA8FBB8F8DAD9EAD9D8F8C8FA5
:100DC00042E751E0BE016F5F7F4FCE01845A9F4FD3
:100DD0000E945001A0968EAD9FADA09790939D0567
:100DE00080939C05A4968CAD9DADAEADBFADA49790
:100DF00080939E0590939F05A093A005B093A105B5
:100E0000A8968CAD9DADAEADBFADA8978093A20561
:100E10009093A305A093A405B093A5058DE0ECE500
:100E2000F0E0EC0FFD1F3C96A6EAB5E001900D92B4
:100E30008A95E1F7E7968EAD9FADE7979093B4055D
:100E40008093B3050E948612882309F421C168E0CB
:100E500070E080E090E00E94741287E5898381E46D
:100E60008A8386E58B8385E48C838E010F5F1F4F19
:100E700034E0F32EF00E8AE995E00E94D504F801E3
:100E800021918F01022E000C330B8217930711F46E
:100E9000FE12F1CF68E170E080E090E00E947412F1
:100EA0008AE995E00E94D5049093A00280939F0266
:100EB0008AE995E00E94D50420E030E0382F809147
:100EC0009F029091A002822B932B9093A00280937B
:100ED0009F026CE270E080E090E00E94741280E477
:100EE00090E0909385018093840181E08093830159
:100EF00080910201982F9F779093020120919F0289
:100F00003091A0022B3F3F4A30F020EC3DE530937A
:100F1000A00220939F0220919F023091A00240E006
:100F200050E086FF05C060E075E38CE090E004C00F
:100F300060E07AE688E190E00E94DA176AE0629F5A
:100F4000C001639F900D11249093A2028093A1028F
:100F50008AE995E00E94D5048C018AE995E00E9417
:100F6000DF04800F911F97FD01969595879540911D
:100F70000A022091880030918900141634F402C0CE
:100F8000369527954A95E2F709C0552741950CF407
:100F9000509502C0220F331F4A95E2F7992740E08F
:100FA00050E02817390708F046C0B9016F5F7F4F3E
:100FB0006217730728F09B018617970708F49C01B6
:100FC000FA01E957FE4F20834F5F5F4F40345105D0
:100FD00061F740E050E0B9016F5F7F4F6217730720
:100FE00028F09B018617970708F49C01FA01E95342
:100FF000FE4F20834F5F5F4F4034510561F71092E1
:101000000802109200011092010110920702F89458
:101010008091A1029091A202909387008093860014
:1010200082EB8093800089E18093810081E280934C
:101030006F0078942DC0B901615071096817790764
:1010400028F06217730718F49B0101C09C01FA0194
:10105000E957FE4F20834F5F5F4F4034510559F7EA
:1010600040E050E0B901615071096817790728F034
:101070006217730718F49B0101C09C01FA01E95340
:10108000FE4F20834F5F5F4F4034510559F7B7CF74
:1010900068EC72E380E090E00E94D81360E086E0A4
:1010A0000E948C13CA58DF4F0FB6F894DEBF0FBEF4
:1010B000CDBFDF91CF911F910F91FF90EF90DF9007
:1010C000CF90BF90AF909F908F9008951F920F92F6
:1010D0000FB60F9211242F933F938F939F93EF930B
:1010E000FF938091020186FD1CC020910A0227FF18
:1010F00023C0E09108028091070290E4E99FF0018B
:101100001124E80FF11DE957FE4F808190E033274D
:1011100021950CF4309502C0959587952A95E2F7B4
:101120001EC090910B0281E0892780930B02809171
:101130000B028823D1F232C0E091080280910702AD
:1011400090E4E99FF0011124E80FF11DE957FE4FEB
:10115000808190E002C0880F991F2A95E2F7909352
:101160008B0080938A0090938900809388008091FF
:1011700007028F5F8093070280910702803470F02E
:1011800010920702E0910802F0E0E050FF4F81E08A
:10119000808390910802892780930802FF91EF9144
:1011A0009F918F913F912F910F900FBE0F901F90A5
:1011B00018951F920F920FB60F9211242F933F9301
:1011C0004F935F936F937F938F939F93AF93BF934F
:1011D000EF93FF93E091080281E0E827F0E0E05010
:1011E000FF4F9081992309F450C0909108028927FC
:1011F0008093860180916F008F7D80936F0078943B
:101200008AE995E00E948F00209184013091850148
:1012100028173907E8F08091020183FF07C06CE2CC
:1012200070E080E090E00E9474122AC080916F000C
:101230008E7D80936F00E091B305F091B4053097F7
:1012400021F0858181110E947913109283011DC0C4
:101250006091860180E4689FB001112469577E4F38
:101260008091B3059091B405009721F040E450E0DF
:101270000E94590FE0918601F0E0E050FF4F10828C
:1012800080916F00806280936F00FF91EF91BF911A
:10129000AF919F918F917F916F915F914F913F910E
:1012A0002F910F900FBE0F901F901895FC01918DFC
:1012B000228D892F90E0805C9F4F821B91098F7354
:1012C0009927089580E090E0892B29F00E9443142B
:1012D00081110C9400000895CF92DF92EF92FF925B
:1012E0000F931F93CF93DF936C017A018B01C0E0C2
:1012F000D0E0CE15DF0589F0D8016D918D01D601C2
:10130000ED91FC910190F081E02DC6010995892BAA
:1013100011F47E0102C02196ECCFC701DF91CF917D
:101320001F910F91FF90EF90DF90CF90089585ED82
:101330008093BC008091BC0084FDFCCF1092B70567
:1013400008950E944619FC01848DDF01A80FB11D8C
:10135000A35ABF4F2C91848D90E001968F739927EB
:10136000848FA689B7892C93A089B1898C918064D8
:101370008C93938D848D981306C00288F389E02D99
:1013800080818F7D808308951F920F920FB60F92F8
:1013900011242F933F934F935F936F937F938F937A
:1013A0009F93AF93BF93EF93FF938091B900887F92
:1013B000803609F49CC068F5883209F45BC090F46B
:1013C000803109F454C038F4882309F4F6C0883019
:1013D00009F44DC0F6C0883109F44CC0803209F4DC
:1013E0005DC0EFC0803409F468C048F4803309F46C
:1013F00055C0883309F0E5C080937702D8C08035A6
:1014000009F44FC0883509F45DC0883409F0D9C0AB
:10141000D6C0883909F4C7C0A8F4883709F467C072
:1014200038F4883609F463C0803709F460C0C9C055
:10143000883809F4B8C0803909F45FC0803809F0F1
:10144000C0C05BC0803B09F486C038F4803A09F420
:1014500066C0883A09F47FC0B4C0803C09F4A7C0D4
:10146000883C09F4A4C0883B09F48AC0AAC08091D2
:101470009A0210C09091990280919802981770F585
:10148000E091990281E08E0F80939902F0E0E85894
:10149000FD4F80818093BB0085EC86C080937702EE
:1014A0008EC0E091990281E08E0F80939902809125
:1014B000BB00F0E0E858FD4F808390919902809145
:1014C00098026EC0E091990281E08E0F809399029C
:1014D0008091BB00F0E0E858FD4F80838091B60515
:1014E00081116DC081E08093B50584EA61C083E01D
:1014F0008093B70510927602CFCF8091760280322A
:1015000008F051C0E091760281E08E0F8093760260
:101510008091BB00F0E0EA5AFD4F8083BDCF85EC9F
:101520008093BC001092B70580917602803230F42F
:10153000E0917602F0E0EA5AFD4F10826091760267
:1015400070E0E091BC05F091BD0586E592E009955B
:101550001092760236C084E08093B705109255024F
:1015600010925402E091BE05F091BF05099580915B
:101570005402811105C081E080935402109234021C
:10158000E091550281E08E0F80935502F0E0EC5C13
:10159000FD4F80818093BB00909155028091540251
:1015A000981708F479CF85E88093BC000AC085ECD1
:1015B0008093BC001092B70504C0109277020E947D
:1015C0009709FF91EF91BF91AF919F918F917F917B
:1015D0006F915F914F913F912F910F900FBE0F90A0
:1015E0001F90189540915402262F30E0240F311D92
:1015F00021323105DCF42091B7052430C9F4FC0117
:1016000080E090E0861758F4309154022191DC017B
:10161000AC5CBD4FA30FB11D2C930196F3CF80910D
:101620005402680F6093540280E0089581E00895A9
:1016300082E008958FB7F894809133028FBF0895A8
:1016400061E0FC0184810E948C138091320281113F
:101650001092320208958EBD00000DB407FEFDCF3A
:101660008EB508958FEF0C942B0B0F931F93CF9390
:10167000DF93EB010E94DB148B010E94320B8F3F42
:1016800049F00E94DB14601B710B6C177D07A8F3F7
:1016900080E001C081E0DF91CF911F910F9108950B
:1016A000CF93DF93EC018E81882389F08F81988519
:1016B0009C012F5F3F4F38872F838230924018F470
:1016C0000E94320BF3CFCE010E94200B1E82DF91CD
:1016D000CF9108958CBD9DBD0895CF93DF93EC010C
:1016E00080913202811109C081E0809332028091A1
:1016F0004305909144050E946A0B60E08C81DF9164
:10170000CF910C948C13CF92DF92FF920F931F9383
:10171000CF93DF9300D000D0CDB7DEB76C01F62EAB
:1017200029833A834B835C830E94500BC6010E943D
:101730006D0B6CE271E0C6010E94350B8F2D806449
:101740000E942B0B08E110E05C814B813A812981DA
:10175000DA01C901002E04C0B695A7959795879523
:101760000A94D2F729833A834B835C830E942B0B24
:101770000850110929813A814B815C81083F8FEF24
:10178000180731F7FF2029F0E8E0FE1204C087E8CF
:1017900003C085E901C08FEF0E942B0B10E00E946F
:1017A000320BF601828787FF04C01F3F11F01F5FD5
:1017B000F6CF0F900F900F900F90DF91CF911F9168
:1017C0000F91FF90DF90CF900895AF92BF92CF928C
:1017D000DF92EF92FF920F931F93CF93DF93EC0171
:1017E0006901C801820F931F8130924008F070C0D8
:1017F0008E81882371F088819981AA81BB814817E5
:1018000059076A077B0729F48F819885C816D9067E
:10181000B0F5488359836A837B838B85833039F0A5
:1018200089E0440F551F661F771F8A95D1F79A01EB
:10183000AB0161E1CE010E94830B882319F083E0A4
:101840008D8346C00E94DB145B010E94320B8A87A5
:101850008F3F49F40E94DB146A197B096D32714095
:10186000A0F38FE003C08E3F31F08DE08D83CE0179
:101870000E94200B2DC018861F8281E08E838F81ED
:1018800098858C159D0540F40E94320B8F819885B8
:10189000019698878F83F3CF6701E00EF11ECE1477
:1018A000DF0431F00E94320BF60181936F01F7CF14
:1018B0008F819885080F191F18870F8389858823C2
:1018C00019F00115124048F0CE010E94500B05C0DE
:1018D000CE010E94200B80E001C081E0DF91CF911A
:1018E0001F910F91FF90EF90DF90CF90BF90AF903E
:1018F0000895EF92FF920F931F93CF93DF93EC0124
:101900007901411551056105710511F482E13CC071
:101910008B85833039F089E0440F551F661F771F90
:101920008A95D1F79A01AB0168E1CE010E94830B41
:10193000882311F084E028C08EEF0E942B0B8701D2
:101940008EEFF81AF80181918F010E942B0B0E1572
:101950001F05C1F78FEF0E942B0B8FEF0E942B0BFF
:101960000E94320B8A878F71853031F081E18D833F
:10197000CE010E94200B09C068E572E0CE010E94F2
:10198000350B811107C085E18D83CE010E94200BAC
:1019900080E013C020E030E0A9016DE0CE010E949C
:1019A000830B811104C00E94320B882311F084E163
:1019B000EBCFCE010E94200B81E0DF91CF911F91F0
:1019C0000F91FF90EF900895CF93DF93EC018D81FD
:1019D0008823A1F18C8187FF2DC06E857F85888942
:1019E000998941E00E94E501882341F1EA8980E27A
:1019F000E89FF0011124DF01AC55BD4F1097F1F0C5
:101A00008D81823050F44B895C896D897E895C962A
:101A10004D935D936D937C935F978F89988DA98D7E
:101A2000BA8DEC55FD4F938F828FB58BA48B8C8133
:101A30008F778C83DF91CF910C94AA0180E0DF91A6
:101A4000CF9108958F929F92AF92BF92CF92DF92E3
:101A5000EF92FF920F931F93CF93DF93EC018D8151
:101A6000811102C080E077C00B891C892D893E89D5
:101A70000417150726073707A8F36A017B01823090
:101A800029F4CA86DB86EC86FD860DC0C114D1041C
:101A9000E104F10451F41E821F82188619861A8609
:101AA0001B861C861D8681E056C08A849B84AC847C
:101AB000BD84EB8DFC8D258530E0275F3F4FB50160
:101AC000A4014150510961097109022E04C07695A3
:101AD0006795579547950A94D2F7D701C6010197A4
:101AE000A109B10904C0B695A795979587952A9540
:101AF000D2F784179507A607B70720F089288A2808
:101B00008B2849F44F89588D698D7A8D4E835F8378
:101B10006887798704C0841B950BA60BB70B4C0113
:101B20005D018E010A5F1F4F81149104A104B1046D
:101B300009F4A7CF4E815F816885798598018B8DE7
:101B40009C8D0E94CE0291E0891A9108A108B108EB
:101B50008111EACF87CFDF91CF911F910F91FF9035
:101B6000EF90DF90CF90BF90AF909F908F900895AF
:101B70002F923F924F925F926F927F928F929F929D
:101B8000AF92BF92CF92DF92EF92FF920F931F938B
:101B9000CF93DF9300D000D0CDB7DEB78C015B01CF
:101BA0001A01DC0115968C9115978130C9F41496B1
:101BB0008C9181FF15C082FF1BC0F80143895489B5
:101BC0006589768982859385A485B585841795076F
:101BD000A607B70769F0C8010E94220D811108C04D
:101BE00081E090E0F8019383828380E090E039C146
:101BF000610183C0D8015B968D919C915C97FC013B
:101C0000248121502A013B0139E07694679457944E
:101C100047943A95D1F7722E74207A01F1E0FF22B1
:101C2000772009F476C080E092E08E199F09460182
:101C30008C159D0508F44C01D8015B962D913C91C3
:101C40005C9716968D919D910D90BC91A02D029759
:101C5000A109B109F901058404C0880F991FAA1FC1
:101C6000BB1F0A94D2F74685578560897189840F16
:101C7000951FA61FB71F9C01AD01270D311D411DEA
:101C8000511D29013A01811432E0930609F088C000
:101C90008091030190910401A0910501B09106018A
:101CA00084159505A605B70559F48FEF9FEFDC0164
:101CB0008093030190930401A0930501B093060162
:101CC0009501B301A2018091A4049091A5040E9402
:101CD000790C882309F484CF9EEFB91AC818D90863
:101CE000F80182859385A485B585880D991DA11D70
:101CF000B11D82879387A487B587D8011A964D9125
:101D00005D916D917C911D97C114D10409F072CF42
:101D100087C0E114F10409F086CF16964D915D91CC
:101D20006D917C911997411551056105710559F423
:101D300057968D919D910D90BC91A02D0097A10576
:101D4000B10541F521C09E012F5F3F4F0E94CE0299
:101D5000882309F44BCF89819A81AB81BC81F8013A
:101D6000238D348DF9012789203129F048EF5FEF69
:101D70006FEF7FE004C048EF5FEF60E070E0841732
:101D80009507A607B70730F0C8010E9452038111DA
:101D90004ACF26CFF80186839783A087B18743CFA8
:101DA000E114F10429F5D8011A964D915D916D91D8
:101DB0007C911D9753968D919D910D90BC91A02D76
:101DC000481759076A077B0798F00E94AA018823E1
:101DD00009F406CF4092030150920401609205017C
:101DE0007092060180919B02816080939B0208C0E3
:101DF00041E0C301B2010E94E501882309F4F0CE5D
:101E0000D501F701EC55FD4FCF01880D991DE8175D
:101E1000F90719F02D912193FACFA80CB91C5ECFC8
:101E200053968D919D910D90BC91A02D841795078F
:101E3000A607B70740F4F801438B548B658B768B6C
:101E4000848180688483D80114968C9183FD02C0BC
:101E5000C10107C0C8010E94E40C882309F4C0CE68
:101E6000F7CF0F900F900F900F90DF91CF911F91B0
:101E70000F91FF90EF90DF90CF90BF90AF909F9029
:101E80008F907F906F905F904F903F902F9008952C
:101E9000CF93DF931F92CDB7DEB7698341E050E067
:101EA000BE016F5F7F4F0E94B80D0F90DF91CF9101
:101EB00008952F923F924F925F926F927F928F92EE
:101EC0009F92AF92BF92CF92DF92EF92FF920F93C9
:101ED0001F93CF93DF93EC016B014A018D81811138
:101EE00003C08FEF9FEFD7C08C8180FFFACF4B8864
:101EF0005C886D887E884A855B856C857D85C4019C
:101F0000A0E0B0E093018201041B150B260B370BF8
:101F1000081719072A073B0718F44201841A950A83
:101F200054011E0126E0220E311CA114B10409F453
:101F30007EC04A855B856C857D852A0181E05822BB
:101F4000ED818A019B0189E03695279517950795C4
:101F50008A95D1F78B8D9C8DE23061F4FC01828DE6
:101F6000938DA48DB58DBC01CD01600F711F821FB3
:101F7000931F3FC0FC0174807A9470224114510475
:101F8000C9F4711017C0452B462B472B49F48F8994
:101F9000988DA98DBA8D8E839F83A887B9870AC033
:101FA0004E815F816885798591010E94CE028823E8
:101FB00009F497CFEB8DFC8D8E819F81A885B98523
:101FC0000297A109B109058404C0880F991FAA1FAF
:101FD000BB1F0A94D2F74685578560897189840FA3
:101FE000951FA61FB71FBC01CD01670D711D811D77
:101FF000911D20E032E02419350935012A153B05F1
:1020000008F439012C8126FD04C06114F2E07F063A
:1020100081F4009103011091040120910501309198
:1020200006016017710782079307B1F402C0C4016B
:1020300032C040E00E94E501882309F452CFF2014A
:10204000EC55FD4FD601CF01860D971DE817F90716
:1020500089F021912D93FACF760183019201AB0192
:10206000BC018091A4049091A5040E94E50B8823F3
:1020700009F437CFC60CD71C8A859B85AC85BD85F6
:10208000860D971DA11DB11D8A879B87AC87BD87D3
:10209000A618B7084ACFDF91CF911F910F91FF90FB
:1020A000EF90DF90CF90BF90AF909F908F907F90F8
:1020B0006F905F904F903F902F900895CF93DF9354
:1020C000EC010E94E40C882311F01D8281E0DF9175
:1020D000CF910895CF93DF93EC016A8B8091030138
:1020E00090910401A0910501B09106018E879F8710
:1020F000A88BB98B80E2689FF0011124EC55FD4F4D
:102100004489558960E070E0BA01552744274F8B18
:10211000588F698F7A8F828D938DA0E0B0E0482B25
:10212000592B6A2B7B2B4F8B588F698F7A8F838526
:10213000887151F4848D958DA68DB78D8B8B9C8B7A
:10214000AD8BBE8B81E00EC0803111F080E015C0F8
:102150009E012D5E3F4F8B8D9C8D0E9455048823E0
:10216000A9F384E08D8381E08C831E821F82188610
:1021700019861A861B861C861D86DF91CF910895CD
:10218000009769F0FC0101900020E9F73197AF0159
:10219000481B590BBC0186EA94E00C946C0980E062
:1021A00090E00895CF93DF93FC012581222311F065
:1021B00080E049C0EC01809168058031C1F482E083
:1021C0008583178A108E118E128E809169059091E9
:1021D0006A05A0E0B0E025E0880F991FAA1FBB1F89
:1021E0002A95D1F7838B948BA58BB68B19C080323F
:1021F000F9F683E0858340916B0550916C05609101
:102200006D0570916E05478B508F618F728F9F01A6
:102210002D5E3F4F81E595E00E945504882341F2F1
:1022200081E595E09C8F8B8F81E08C831E821F82DD
:10223000188619861A861B861C861D861E861F8692
:10224000188A198A1A8ADF91CF9108958F929F92E6
:10225000AF92BF92CF92DF92EF92FF92CF93DF9334
:10226000C82F85E495E09093A5048093A404CC2323
:1022700069F1C53010F080E00DC140E060E070E031
:10228000CB010E94E5018823B1F320E1C29FC00188
:1022900011248C569D4FFC01E254FE4F20812F7774
:1022A00051F73C96408151816281738144365105DA
:1022B0006105710500F33497C080D180E280F3801E
:1022C000C114D104E104F10421F4D5CFC12CD12CE7
:1022D000760140E0C701B6010E94E501882359F26A
:1022E0008091AF029091B0028115924021F6A091A9
:1022F000B402AA2309F4BFCF6091B2027091B30275
:102300006115710509F4B7CF2091B102222309F4B8
:10231000B2CFA09363052093550580E030E0E1E063
:10232000F0E0C82FAF01082E02C0440F551F0A94D9
:10233000E2F72417350741F0982F8F5F983089F71F
:1023400089E080935E0597CF80935E052091BA0265
:102350003091BB022115310519F040E050E008C072
:102360002091C8023091C9024091CA025091CB021B
:1023700020935605309357054093580550935905BF
:1023800046015701860E971EA11CB11C8092640560
:1023900090926505A0926605B0926705E091B5023E
:1023A000F091B602F0936A05E0936905B0E00E94EF
:1023B000F917860E971EA81EB91E80926B05909283
:1023C0006C05A0926D05B0926E0585E0EE0FFF1FC3
:1023D0008A95E1F7E150FE4FEF2FFF27E6958E0E2D
:1023E0009F1EA11CB11C80925F0590926005A09277
:1023F0006105B09262052091B7023091B8022115B3
:10240000310521F0A90160E070E008C04091C402EC
:102410005091C5026091C6027091C702D701C601F2
:1024200088199909AA09BB09840F951FA61FB71F10
:1024300004C0B695A79597958795CA95D2F78093CE
:102440005A0590935B05A0935C05B0935D05853FAD
:102450002FE09207A105B10510F48CE018C0853F6C
:102460009F4FA105B10510F480E111C08091D00209
:102470009091D102A091D202B091D30280936B05CA
:1024800090936C05A0936D05B0936E0580E28093E8
:10249000680581E0DF91CF91FF90EF90DF90CF90C2
:1024A000BF90AF909F908F90089590E0FC01EC5406
:1024B000FF4F2491FC01E056FF4F8491882399F04F
:1024C00090E0880F991FFC01EA56FF4FA591B49147
:1024D000FC01E457FF4F859194918FB7F894EC91EC
:1024E000E22BEC938FBF08952091B3053091B40592
:1024F0002115310541F0AB01BC01C9010E94220D3B
:1025000091E0811101C090E0892F0895E091B30519
:10251000F091B405309729F08581882311F081E08E
:1025200008950895AF92BF92CF92DF92EF92FF92FB
:102530000F931F93CF93DF93CDB7DEB72B970FB6D3
:10254000F894DEBF0FBECDBF7C01CE0101966C01B9
:10255000FC0190E28BE08C0D91938E13FDCFDA019C
:1025600020E037E09D91992339F19E3219F0ECE794
:10257000F0E00AC03A3009F4AAC028E03AE0F2CF0D
:102580003196891709F4A3C084918111F9CF3217CC
:1025900008F49DC08FED890F8E3508F098C081E05A
:1025A000820FF601E20FF11D2FE9290F2A3108F4FD
:1025B00090529083282FD6CF8981803209F487C02A
:1025C0008B01FB01838D948DF701948F838FFB0129
:1025D0001682178210861186128613861486158637
:1025E000A12CF80182859385A485B58543895489FA
:1025F0006589768984179507A607B70708F067C02D
:1026000025E0B695A795979587952A95D1F7F82F48
:10261000FF70BF2EF8018581823008F458C0C801D0
:102620000E94BE0497FD53C0F80182859385A4855E
:10263000B5854F96A11DB11D82879387A487B58765
:10264000F0E2BF9EC0011124BC016C557D4F6115A5
:102650007105E9F1FB0120812223B9F1253EE1F06A
:102660004BE050E0C6010E944B19892B09F0B9CF0D
:102670006B2DC7012B960FB6F894DEBF0FBECDBFF2
:10268000DF91CF911F910F91FF90EF90DF90CF904E
:10269000BF90AF900C946A10A11014C0F701B28AD9
:1026A0004091030150910401609105017091060170
:1026B00046875787608B718BFC01EC55FD4F8081FD
:1026C000882329F0AA24A3948CCFAA2039F380E090
:1026D0002B960FB6F894DEBF0FBECDBFDF91CF9122
:1026E0001F910F91FF90EF90DF90CF90BF90AF9030
:1026F00008958091B3059091B405009761F00E9410
:102700005E108091B3059091B4050E94AE181092AE
:10271000B4051092B305089590E0FC01E859FF4F0D
:102720003491FC01EC54FF4F2491FC01E056FF4F23
:10273000E491EE2309F43BC0332339F1333091F0B7
:1027400038F43130A9F0323001F584B58F7D12C0F4
:10275000373091F03830A1F03430B9F480918000F6
:102760008F7D03C0809180008F77809380000DC0A3
:1027700084B58F7784BD09C08091B0008F7703C086
:102780008091B0008F7D8093B000F0E0EE0FFF1FCE
:10279000E457FF4FA591B4918FB7F894EC91611174
:1027A00003C020952E2301C02E2B2C938FBF08959C
:1027B0008F929F92AF92BF92CF92DF92EF92FF9251
:1027C0006B017C010E94B6144B015C01C114D10461
:1027D000E104F104F1F00E94B614DC01CB01881988
:1027E0009909AA09BB09883E9340A105B10570F378
:1027F00021E0C21AD108E108F10888EE880E83E0D2
:10280000981EA11CB11CC114D104E104F10419F7F4
:10281000DDCFFF90EF90DF90CF90BF90AF909F9073
:102820008F900895FC01538D448D252F30E0842F27
:1028300090E0821B930B541710F0CF9608950197E8
:102840000895FC01918D828D981761F0828DDF01D2
:10285000A80FB11D5D968C91928D9F5F9F73928F93
:1028600090E008958FEF9FEF0895FC01918D828D88
:10287000981731F0828DE80FF11D858D90E0089555
:102880008FEF9FEF089586EA94E00E94560921E0B9
:10289000892B09F420E0822F0895EF92FF920F9385
:1028A0001F93CF93DF93EC0181E0888F9B8D8C8DFC
:1028B000981305C0E889F989808185FD24C0F62E2A
:1028C0000B8D10E00F5F1F4F0F731127E02E8C8DC3
:1028D000E8120CC00FB607FCFACFE889F9898081AD
:1028E00085FFF5CFCE010E94A309F1CF8B8DFE01AC
:1028F000E80FF11DE35AFF4FF0820B8FEA89FB8945
:102900008081806207C0EE89FF896083E889F98948
:1029100080818064808381E090E0DF91CF911F917E
:102920000F91FF90EF900895CF93DF93EC01888D86
:102930008823C9F0EA89FB89808185FD05C0A889C3
:10294000B9898C9186FD0FC00FB607FCF5CF808149
:1029500085FFF2CFA889B9898C9185FFEDCFCE0193
:102960000E94A309E7CFDF91CF9108953FB7F89474
:102970008091C8059091C905A091CA05B091CB0579
:1029800026B5A89B05C02F3F19F00196A11DB11DCA
:102990003FBFBA2FA92F982F8827820F911DA11D05
:1029A000B11DBC01CD0142E0660F771F881F991F42
:1029B0004A95D1F708952FB7F8946091C4057091A6
:1029C000C5058091C6059091C7052FBF08951F9238
:1029D0000F920FB60F9211242F933F938F939F93D3
:1029E000AF93BF938091C4059091C505A091C60592
:1029F000B091C7053091C30523E0230F2D3720F494
:102A00000196A11DB11D05C026E8230F0296A11D48
:102A1000B11D2093C3058093C4059093C505A09371
:102A2000C605B093C7058091C8059091C905A091CE
:102A3000CA05B091CB050196A11DB11D8093C805B3
:102A40009093C905A093CA05B093CB05BF91AF91F0
:102A50009F918F913F912F910F900FBE0F901F90DC
:102A600018951F920F920FB60F9211242F933F9338
:102A70004F935F936F937F938F939F93AF93BF9386
:102A8000EF93FF9386EA94E00E94A309FF91EF91F0
:102A9000BF91AF919F918F917F916F915F914F9176
:102AA0003F912F910F900FBE0F901F9018951F927E
:102AB0000F920FB60F9211242F938F939F93EF9342
:102AC000FF93E091B604F091B7048081E091BC04DB
:102AD000F091BD0482FD12C090818091BF048F5F90
:102AE0008F732091C004821751F0E091BF04F0E091
:102AF000EA55FB4F958F8093BF0401C08081FF9101
:102B0000EF919F918F912F910F900FBE0F901F907B
:102B10001895E6EAF4E01382128288EE93E0A0E0D2
:102B2000B0E084839583A683B78323E131E03183CA
:102B3000208325EC30E03587248724EC30E037878C
:102B4000268720EC30E0318B208B21EC30E0338B7A
:102B5000228B22EC30E0358B248B26EC30E0378B57
:102B6000268B118E128E138E148EE3E4F5E020E591
:102B700020831182E5E4F5E0158216821186138622
:102B800042E050E060E070E04487558766877787D1
:102B900013A215A614A625E231E033A722A717A693
:102BA000EEE8F5E01382128284839583A683B783CF
:102BB00021E331E031832083EAE9F5E013821282D8
:102BC00084839583A683B78383E491E09183808394
:102BD000128E118E14860895789484B5826084BD17
:102BE00084B5816084BD85B5826085BD85B5816011
:102BF00085BD80916E00816080936E00109281008F
:102C00008091810082608093810080918100816049
:102C1000809381008091800081608093800080910A
:102C2000B10084608093B1008091B0008160809396
:102C3000B00080917A00846080937A0080917A005D
:102C4000826080937A0080917A00816080937A001C
:102C500080917A00806880937A001092C10089E0A8
:102C600080939C0286E00E94551260E086E00E94FC
:102C70008C1380E18093BA0086EC90E09093BF05BE
:102C80008093BE0582ED90E09093BD058093BC05D6
:102C90001092BB051092BA051092B9051092B805B2
:102CA0001092B70581E08093B6051092B50561E0FA
:102CB00082E10E948C1361E083E10E948C13809179
:102CC000B9008E7F8093B9008091B9008D7F809389
:102CD000B90088E48093B80085E48093BC0089E063
:102CE00095E09093C1058093C005E091B604F09102
:102CF000B70482E08083E091B204F091B3041082C3
:102D0000E091B404F091B5048FEC80831092BE047E
:102D1000E091BA04F091BB0486E08083E091B804AE
:102D2000F091B904808180618083E091B804F091D2
:102D3000B904808188608083E091B804F091B9047F
:102D4000808180688083E091B804F091B90480812B
:102D50008F7D808380917405882321F08FE695E034
:102D60000E945E101092500510924E0510924B0575
:102D700010924A0588E0809349050E94DB14EB011C
:102D8000809149050E94551261E0809149050E9499
:102D90008C131FB7F8948091C205811124C0EAEA10
:102DA000F0E08491EEEBF0E09491E82FF0E0EE0F8C
:102DB000FF1FEA56FF4FA591B491EC91E92321F44E
:102DC00061E08AE00E948C138AE00E9455128CB563
:102DD00080618CBD8CB580648CBD8DE00E945512E5
:102DE0008BE00E9455128091C2058F5F8093C205CF
:102DF0001FBF82E5809343051092440580914305EF
:102E0000909144050E946A0B1AE08FEF0E942B0BF1
:102E10001150D9F785E495E00E946D0B20E030E079
:102E2000A90160E085E495E00E94830B182F809350
:102E30004F05813049F00E94DB146C1B7D0B613D16
:102E4000774060F381E054C02AEA31E040E050E08E
:102E500068E085E495E00E94830B82FF03C0109335
:102E600050050EC014E00E94320B80934F051150A4
:102E7000D1F78A3A11F082E03BC082E0809350059E
:102E800080915005823021F0C12CD12C760105C0F3
:102E9000C12CD12CE12C80E4F82E20E030E0A901F7
:102EA00067E385E495E00E94830BA701960169E240
:102EB00085E495E00E94830B80934F05882349F0B9
:102EC0000E94DB146C1B7D0B613D774030F388E082
:102ED0000FC080915005823001F520E030E0A9015B
:102EE0006AE385E495E00E94830B882341F086E045
:102EF00080934A0585E495E00E94200B28C00E943B
:102F0000320B807C803C19F483E0809350050E9452
:102F1000320B0E94320B0E94320B85E495E00E9436
:102F2000200B80E5809343051092440581E00E94C8
:102F30002611882339F08FE695E00E94D21088236D
:102F400031F00DC080E00E9426118111F4CF8AE794
:102F500091E00E94C0108FE691E00E94C01064E6EC
:102F600070E080E090E00E94D8130E946209F7CFE1
:102F7000A1E21A2EAA1BBB1BFD010DC0AA1FBB1F7D
:102F8000EE1FFF1FA217B307E407F50720F0A21BEF
:102F9000B30BE40BF50B661F771F881F991F1A945C
:102FA00069F760957095809590959B01AC01BD0186
:102FB000CF010895052E97FB1EF400940E94F1178F
:102FC00057FD07D00E94B81707FC03D04EF40C94AD
:102FD000F11750954095309521953F4F4F4F5F4FDA
:102FE000089590958095709561957F4F8F4F9F4F75
:102FF00008950E940A18A59F900DB49F900DA49F5C
:10300000800D911D11240895EE0FFF1F0590F4917E
:10301000E02D0994A29FB001B39FC001A39F700D42
:10302000811D1124911DB29F700D811D1124911DD0
:103030000895CF93DF938230910510F482E090E001
:10304000E091CE05F091CF0520E030E0C0E0D0E087
:10305000309711F14081518148175907C0F0481746
:10306000590761F482819381209719F09B838A83A9
:103070002BC09093CF058093CE0526C02115310536
:1030800019F04217530718F49A01BE01DF01EF014E
:103090000280F381E02DDCCF2115310509F1281BD9
:1030A000390B2430310590F412968D919C91139731
:1030B0006115710521F0FB019383828304C0909315
:1030C000CF058093CE05FD01329644C0FD01E20F8D
:1030D000F31F81939193225031092D933C933AC071
:1030E0002091CC053091CD05232B41F4209109018D
:1030F00030910A013093CD052093CC052091070132
:10310000309108012115310541F42DB73EB74091AA
:103110000B0150910C01241B350BE091CC05F09173
:10312000CD05E217F307A0F42E1B3F0B2817390734
:1031300078F0AC014E5F5F4F2417350748F04E0F13
:103140005F1F5093CD054093CC058193919302C0AE
:10315000E0E0F0E0CF01DF91CF9108950F931F934E
:10316000CF93DF93009709F48CC0FC013297138250
:1031700012820091CE051091CF050115110581F441
:1031800020813181820F931F2091CC053091CD0594
:103190002817390779F5F093CD05E093CC0571C078
:1031A000D80140E050E0AE17BF0750F412962D91C1
:1031B0003C911397AD012115310509F1D901F3CFE8
:1031C0009D01DA013383228360817181860F971F0D
:1031D0008217930769F4EC0128813981260F371F84
:1031E0002E5F3F4F318320838A819B81938382832B
:1031F000452B29F4F093CF05E093CE0542C01396FA
:10320000FC93EE931297ED01499159919E01240F81
:10321000351FE217F30771F480819181840F951FA8
:10322000029611969C938E938281938113969C9320
:103230008E931297E0E0F0E0D80112968D919C9168
:103240001397009719F0F8018C01F6CF8D919C919E
:1032500098012E5F3F4F820F931F2091CC05309134
:10326000CD052817390769F4309729F41092CF0556
:103270001092CE0502C0138212821093CD050093E6
:10328000CC05DF91CF911F910F91089581E090E0DF
:10329000F8940C946719FB01DC0104C08D91019036
:1032A000801921F441505040C8F7881B990B0895AC
:1032B000FB01DC014150504048F001900D9200208C
:1032C000C9F701C01D9241505040E0F70895F894AD
:0232D000FFCF2E
:1032D200010160FFFFFFFF0000D005800000000039
:1032E2000000004D146C091214941456092114356F
:1032F2001400000000480F6C092901280100000099
:1033020000990185012901FC0020010C01FD00004A
:10331200000000B000340129012C018F00D504DF28
:103322000400000000A1096C0929012801A109A1DA
:1033320009A10900000000A1096C09290128010D59
:103342000A0067656D2E77617600534420666169D5
:023352006C000D
:00000001FF
