:100000000C9465000C948D000C948D000C948D0064
:100010000C948D000C948D000C948D000C948D002C
:100020000C948D000C948D000C9488060C948D001B
:100030000C948D000C9415060C948D000C948D007E
:100040000C94C5030C948D000C9435040C940F048F
:100050000C948D000C948D000C948D000C948D00EC
:100060000C9467040C948D007C3C3E5E2B3D3F2F2E
:100070005B5D3B2C2A225C000000000800020100AE
:100080000003040700000000000000000000000062
:10009000250028002B0000000000240027002A0073
:1000A000040404040404040402020202020203031E
:1000B0000303030301020408102040800102040826
:1000C00010200102040810202C1811241FBECFEFAD
:1000D000D8E0DEBFCDBF11E0A0E0B1E0E6E9F4E397
:1000E00002C005900D92A039B107D9F725E0A0E92B
:1000F000B1E001C01D92AE3DB207E1F710E0C5E6E8
:10010000D0E004C02197FE010E94DB18C436D1075D
:10011000C9F70E9460160C94491A0C9400003FB76E
:10012000F89480912F0290913002A0913102B09109
:10013000320226B5A89B05C02F3F19F00196A11DDC
:10014000B11D3FBFBA2FA92F982F8827820F911D6D
:10015000A11DB11DBC01CD0142E0660F771F881FB4
:10016000991F4A95D1F708958F929F92AF92BF92AF
:10017000CF92DF92EF92FF926B017C010E948F0081
:100180004B015C01C114D104E104F104F1F00E94BF
:100190008F00DC01CB0188199909AA09BB09883EA7
:1001A0009340A105B10570F321E0C21AD108E1081E
:1001B000F10888EE880E83E0981EA11CB11CC114C2
:1001C000D104E104F10419F7DDCFFF90EF90DF9047
:1001D000CF90BF90AF909F908F900895E091B30122
:1001E000F091B401309729F01092200210921F0272
:1001F00009940895CF93DF93AC01E0912702F09129
:1002000028023097F1F090912202809121029817F4
:10021000C0F090E0292F30E02617370754F4D901B9
:10022000AD56BE4FEA01C20FD31F88818C939F5FEA
:10023000F1CF1092220260932102CB01DF91CF9186
:100240000994DF91CF910895FC01538D448D252FA2
:1002500030E0842F90E0821B930B541710F0CF9660
:10026000089501970895FC01918D828D981761F092
:10027000828DDF01A80FB11D5D968C91928D9F5FDD
:100280009F73928F90E008958FEF9FEF0895FC0188
:10029000918D828D981731F0828DE80FF11D858D3B
:1002A00090E008958FEF9FEF0895FC01918D228DCE
:1002B000892F90E0805C9F4F821B91098F73992753
:1002C00008958DEC94E00E94550121E0892B09F4FA
:1002D00020E0822F0895FC01848DDF01A80FB11D5D
:1002E000A35ABF4F2C91848D90E001968F7399276C
:1002F000848FA689B7892C93A089B1898C91806459
:100300008C93938D848D981306C00288F389E02D19
:1003100080818F7D80830895EF92FF920F931F93CA
:10032000CF93DF93EC0181E0888F9B8D8C8D9813A8
:1003300005C0E889F989808185FD24C0F62E0B8DE2
:1003400010E00F5F1F4F0F731127E02E8C8DE81206
:100350000CC00FB607FCFACFE889F989808185FFC8
:10036000F5CFCE010E946B01F1CF8B8DFE01E80F1E
:10037000F11DE35AFF4FF0820B8FEA89FB898081E0
:10038000806207C0EE89FF896083E889F9898081EE
:100390008064808381E090E0DF91CF911F910F9185
:1003A000FF90EF900895CF93DF93EC01888D882321
:1003B000C9F0EA89FB89808185FD05C0A889B989D2
:1003C0008C9186FD0FC00FB607FCF5CF808185FFAD
:1003D000F2CFA889B9898C9185FFEDCFCE010E941B
:1003E0006B01E7CFDF91CF91089580E090E0892BFA
:1003F00029F00E94610181110C9400000895CF92B0
:10040000DF92EF92FF920F931F93CF93DF936C01D4
:100410007A018B01C0E0D0E0CE15DF0589F0D8016C
:100420006D918D01D601ED91FC910190F081E02D4F
:10043000C6010995892B11F47E0102C02196ECCFEB
:10044000C701DF91CF911F910F91FF90EF90DF9047
:10045000CF90089585ED8093BC008091BC0084FD11
:10046000FCCF10921E0208954091D501262F30E056
:10047000240F311D21323105DCF420911E0224307D
:10048000C9F4FC0180E090E0861758F43091D50162
:100490002191DC01AB54BE4FA30FB11D2C930196EB
:1004A000F3CF8091D501680F6093D50180E0089566
:1004B00081E0089582E00895DC015996ED91FC9168
:1004C0005A973097B9F083899489A589B68942856E
:1004D000538564857585841B950BA60BB70B811519
:1004E00020E89207A105B10538F08FEF9FE7A0E063
:1004F000B0E0089580E090E00895CF93DF931F92DD
:10050000CDB7DEB76983DC01ED91FC910280F38108
:10051000E02D41E050E0BE016F5F7F4F09950F90E5
:10052000DF91CF9108950895E091220280912102F8
:10053000E81730F4F0E0ED56FE4F808190E008952A
:100540008FEF9FEF089590912202809121029817DA
:1005500050F4E92FF0E0ED56FE4F208130E09F5F30
:100560009093220202C02FEF3FEFC90108958091BE
:10057000210290E020912202821B91090895CF93DD
:10058000DF9300D0CDB7DEB7CB01642F49835A8308
:100590000E9434024981842F5A81952F0F900F9029
:1005A000DF91CF910895CF93DF931F92CDB7DEB740
:1005B000698361E0CE0101960E94340281E090E0FF
:1005C0000F90DF91CF910895089580E090E0089515
:1005D0008F929F92AF92BF92CF92DF92EF92FF9253
:1005E0000F931F93CF93DF93CDB7DEB7A1970FB6CD
:1005F000F894DEBF0FBECDBF8091210290E0209124
:100600002202821B9109029784F083EB95E00E94FD
:10061000A302E091CD04F091CE040190F081E02D91
:10062000682F8DEC94E00995E7CF83EB95E00E946D
:10063000A3028C016C01990FEE08FF08F7FE2BC096
:10064000E091CD04F091CE040190F081E02D6DE2B7
:100650008DEC94E0099522273327A9012C193D0937
:100660004E095F0919A2CE0181967C019AE0892E7C
:10067000912CA12CB12CCA01B901A50194010E94B1
:100680008F18605DF70162937F01211531054105E7
:10069000510589F71AC0A701960119A2CE018196CA
:1006A0007C018AE0882E912CA12CB12CCA01B901C1
:1006B000A50194010E948F18605DF70162937F018C
:1006C000211531054105510589F7C7010E943814EC
:1006D0008DE691E00E943814083C110589F481E010
:1006E0008093B60280E791E00E94FF0768EC72E316
:1006F00080E090E00E94B40089E791E00E94FF074B
:10070000A1960FB6F894DEBF0FBECDBFDF91CF919B
:100710001F910F91FF90EF90DF90CF90BF90AF901F
:100720009F908F9008950E941D1AFC01818D928DDB
:10073000009711F00C94D60D0895CF93DF93EC0140
:10074000898D9A8D009739F481E090E09B838A83AC
:1007500080E090E00BC0FC01138212820E94E21143
:10076000E98DFA8D22813381232B71F7DF91CF91AF
:1007700008952FB7F89460912B0270912C0280910C
:100780002D0290912E022FBF08951F920F920FB647
:100790000F9211242F933F938F939F93AF93BF9307
:1007A00080912B0290912C02A0912D02B0912E02EB
:1007B00030912A0223E0230F2D3720F40196A11D4A
:1007C000B11D05C026E8230F0296A11DB11D20937F
:1007D0002A0280932B0290932C02A0932D02B093B7
:1007E0002E0280912F0290913002A0913102B0919F
:1007F00032020196A11DB11D80932F029093300209
:10080000A0933102B0933202BF91AF919F918F912B
:100810003F912F910F900FBE0F901F9018951F9230
:100820000F920FB60F9211242F933F934F935F9324
:100830006F937F938F939F93AF93BF93EF93FF93A8
:100840008DEC94E00E946B01FF91EF91BF91AF910D
:100850009F918F917F916F915F914F913F912F91D8
:100860000F900FBE0F901F9018951F920F920FB60A
:100870000F9211242F938F939F93EF93FF93E09107
:10088000DD04F091DE048081E091E304F091E40462
:1008900082FD12C090818091E6048F5F8F7320915A
:1008A000E704821751F0E091E604F0E0E353FB4FD8
:1008B000958F8093E60401C08081FF91EF919F9115
:1008C0008F912F910F900FBE0F901F9018951F9230
:1008D0000F920FB60F9211242F933F934F935F9374
:1008E0006F937F938F939F93AF93BF93EF93FF93F8
:1008F0008091B900887F803609F49CC068F5883201
:1009000009F45BC090F4803109F454C038F48823B2
:1009100009F4F6C0883009F44DC0F6C0883109F4F6
:100920004CC0803209F45DC0EFC0803409F468C067
:1009300048F4803309F455C0883309F0E5C080934A
:10094000F801D8C0803509F44FC0883509F45DC07E
:10095000883409F0D9C0D6C0883909F4C7C0A8F4D2
:10096000883709F467C038F4883609F463C08037E3
:1009700009F460C0C9C0883809F4B8C0803909F4E6
:100980005FC0803809F0C0C05BC0803B09F486C0FE
:1009900038F4803A09F466C0883A09F47FC0B4C0DC
:1009A000803C09F4A7C0883C09F4A4C0883B09F442
:1009B0008AC0AAC080911B0210C090911A02809137
:1009C0001902981770F5E0911A0281E08E0F80935A
:1009D0001A02F0E0E750FE4F80818093BB0085EC67
:1009E00086C08093F8018EC0E0911A0281E08E0FDC
:1009F00080931A028091BB00F0E0E750FE4F8083A5
:100A000090911A02809119026EC0E0911A0281E061
:100A10008E0F80931A028091BB00F0E0E750FE4FEA
:100A2000808380911D0281116DC081E080931C0242
:100A300084EA61C083E080931E021092F701CFCF59
:100A40008091F701803208F051C0E091F70181E018
:100A50008E0F8093F7018091BB00F0E0E952FE4FCA
:100A60008083BDCF85EC8093BC0010921E028091E4
:100A7000F701803230F4E091F701F0E0E952FE4FE7
:100A800010826091F70170E0E0912302F09124025E
:100A900087ED91E009951092F70136C084E08093CC
:100AA0001E021092D6011092D501E0912502F0911C
:100AB000260209958091D501811105C081E08093BE
:100AC000D5011092B501E091D60181E08E0F80939F
:100AD000D601F0E0EB54FE4F80818093BB009091F3
:100AE000D6018091D501981708F479CF85E88093D5
:100AF000BC000AC085EC8093BC0010921E0204C0AA
:100B00001092F8010E942A02FF91EF91BF91AF91DC
:100B10009F918F917F916F915F914F913F912F9115
:100B20000F900FBE0F901F901895EF92FF920F93AA
:100B30001F93CF93DF93EC017B018A011B821A8202
:100B400088EE93E0A0E0B0E08C839D83AE83BF830A
:100B500081E491E0998388838DE190E00E94F01810
:100B60009A8F898F009779F02DE1F701DC010190D0
:100B70000D922A95E1F74CE050E0B801CE010C96B9
:100B80000E943A1A188EDF91CF911F910F91FF901A
:100B9000EF900895CF93DF931F92CDB7DEB741E07A
:100BA00050E0BE016F5F7F4F0E94DA0F019719F48A
:100BB000898190E002C08FEF9FEF0F90DF91CF917E
:100BC0000895FC01818D928D009711F00C94CA0557
:100BD0008FEF9FEF08950F931F93CF93DF93FC0147
:100BE000818D928D0097B9F0EF010E94CA058C01AA
:100BF0000F3F8FEF180791F0898D9A8DFC01428588
:100C000053856485758541505109610971090E94B8
:100C1000440FC80105C080E090E002C08FEF9FEF55
:100C2000DF91CF911F910F9108951F920F920FB6F0
:100C30000F9211242F933F938F939F93EF93FF93E2
:100C40008091020186FD1CC02091B60227FF23C0BF
:100C5000E09135028091340290E4E99FF001112483
:100C6000E80FF11DEA5CFD4F808190E0332721956C
:100C70000CF4309502C0959587952A95E2F71EC031
:100C80009091920181E08927809392018091920155
:100C90008823D1F232C0E09135028091340290E491
:100CA000E99FF0011124E80FF11DEA5CFD4F8081FE
:100CB00090E002C0880F991F2A95E2F790938B006D
:100CC00080938A00909389008093880080913402F9
:100CD0008F5F8093340280913402803470F01092E0
:100CE0003402E0913502F0E0E050FF4F81E0808374
:100CF00090913502892780933502FF91EF919F9162
:100D00008F913F912F910F900FBE0F901F901895CC
:100D10001F920F920FB60F9211242F933F934F9370
:100D20005F936F937F938F939F93AF93BF93EF9353
:100D3000FF93E091350281E0E827F0E0E050FF4FBB
:100D40009081992309F450C09091350289278093AE
:100D5000910180916F008F7D80936F0078948FEB6D
:100D600095E00E945C022091B7023091B8022817EA
:100D70003907E8F08091020183FF07C06CE270E060
:100D800080E090E00E94EC152AC080916F008E7D7B
:100D900080936F00E091D805F091D905309721F04C
:100DA000858181110E94EC071092B9021DC06091EB
:100DB000910180E4689FB00111246A5C7D4F8091AD
:100DC000D8059091D905009721F040E450E00E94A9
:100DD000DA0FE0919101F0E0E050FF4F1082809136
:100DE0006F00806280936F00FF91EF91BF91AF9190
:100DF0009F918F917F916F915F914F913F912F9133
:100E00000F900FBE0F901F901895AF92BF92CF9288
:100E1000DF92EF92FF920F931F93CF93DF93CDB7A3
:100E2000DEB72B970FB6F894DEBF0FBECDBF7C01A7
:100E3000CE0101966C01FC0190E28BE08C0D919348
:100E40008E13FDCFDA0120E037E09D91992339F12F
:100E50009E3219F0E8E6F0E00AC03A3009F4AAC080
:100E600028E03AE0F2CF3196891709F4A3C08491C3
:100E70008111F9CF321708F49DC08FED890F8E359F
:100E800008F098C081E0820FF601E20FF11D2FE912
:100E9000290F2A3108F490529083282FD6CF8981C8
:100EA000803209F487C08B01FB01838D948DF7019B
:100EB000948F838FFB01168217821086118612860B
:100EC000138614861586A12CF80182859385A48546
:100ED000B585438954896589768984179507A6075E
:100EE000B70708F067C025E0B695A7959795879551
:100EF0002A95D1F7F82FFF70BF2EF8018581823037
:100F000008F458C0C8010E94CA0597FD53C0F801F3
:100F100082859385A485B5854F96A11DB11D8287D5
:100F20009387A487B587F0E2BF9EC0011124BC015E
:100F300067537D4F61157105E9F1FB012081222383
:100F4000B9F1253EE1F04BE050E0C6010E94221AC3
:100F5000892B09F0B9CF6B2DC7012B960FB6F894EA
:100F6000DEBF0FBECDBFDF91CF911F910F91FF90DC
:100F7000EF90DF90CF90BF90AF900C940A16A11025
:100F800014C0F701B28A40910301509104016091AD
:100F900005017091060146875787608B718BFC01B4
:100FA000E753FD4F8081882329F0AA24A3948CCF96
:100FB000AA2039F380E02B960FB6F894DEBF0FBE5F
:100FC000CDBFDF91CF911F910F91FF90EF90DF90F8
:100FD000CF90BF90AF9008958091D8059091D9059A
:100FE000009761F00E94140E8091D8059091D90568
:100FF0000E9485191092D9051092D80508954F9234
:101000005F926F927F928F929F92AF92BF92CF9298
:10101000DF92EF92FF920F931F93CF93DF93CDB7A1
:10102000DEB7C257D1090FB6F894DEBF0FBECDBFF1
:101030004C019091C1028091C802981709F477C0C1
:101040001092B90280916F008E7D80936F000E9494
:10105000FE1581110E94EC078091800087FD1AC067
:1010600080910201806280930201109281001092AF
:1010700080008091C1020E94CD158091C10286300E
:1010800009F443C08E3209F444C0853009F043C0EE
:1010900081E03CC0209188003091890040E050E020
:1010A0008091C6029091C70248175907C8F637FDCC
:1010B00006C0B9018217930720F4BC0102C060E0AA
:1010C00070E070938B0060938A0037FD06C0B90111
:1010D0008217930720F4BC0102C060E070E07093B7
:1010E000890060938800C2976AE070E0E091840014
:1010F000F0918500E817F907C8F361507109B1F75D
:101100004F5F5F4F21503109CBCF82E08093BA020D
:1011100004C083E0FBCF1092BA028DB581608DBD13
:101120008CB58C7F8CBD8091C1028093C8021092D7
:10113000B90280916F008E7D80936F000E94FE1532
:1011400081110E94EC0719A218A283E291E09F8FFF
:101150008E8F1BA21C821B829A8389831E82CE01E2
:101160004E960E944A143401CE0101966C018E0104
:10117000025E1F4F2C016FE270E0C3010E942F1A24
:10118000009709F441C0F30120812F3221F4FFEFD1
:101190006F1A7F0AF0CF86198D3008F08CE0E82EA8
:1011A000F12CA701B301CE01885A9F4F0E943A1A31
:1011B000E8E5F0E0EC0FFD1FEE0DFF1D1082C6010B
:1011C0000E94140EF6018581882351F01EAE1DAEDB
:1011D00083E291E09CAF8BAF21961FAE219762C056
:1011E000AE01485A5F4FB801C6010E940507882327
:1011F00069F36E0C7F1CC8010E94140E902F812F82
:101200008601C92ED82EB7CF5301A818B908F80106
:10121000828193819EAF8DAF83E291E09CAF8BAFD3
:1012200084818FAF858121968FAF219786819781A9
:10123000A085B18525968CAF9DAFAEAFBFAF25978A
:1012400082859385A485B58529968CAF9DAFAEAF79
:10125000BFAF299786859785A089B1892D968CAFD8
:101260009DAFAEAFBFAF2D9782892E968FAF2E97D1
:1012700083899489A589B68962968CAF9DAFAEAFFC
:10128000BFAF62978789908DA18DB28D66968CAF26
:101290009DAFAEAFBFAF6697838D948D68969FAFBD
:1012A0008EAF6897A80CB91CF501808181114DC0E3
:1012B0008DAD9EAD9C838B8383E291E09A8389837D
:1012C0008FAD8D8321968FAD21978E8325968CAD22
:1012D0009DADAEADBFAD25978F839887A987BA879F
:1012E00029968CAD9DADAEADBFAD29978B879C8700
:1012F000AD87BE872D968CAD9DADAEADBFAD2D97A4
:101300008F87988BA98BBA8B2E968FAD2E978B8B50
:1013100062968CAD9DADAEADBFAD62978C8B9D8B53
:10132000AE8BBF8B66968CAD9DADAEADBFAD6697F7
:10133000888F998FAA8FBB8F68968EAD9FAD689767
:101340009D8F8C8F4EE851E069C019A218A203E26C
:1013500011E01F8F0E8F1BA221968FAD2197811157
:1013600016C06C961FAE1EAE6C9788EE93E0A0E0A0
:10137000B0E0A0968CAF9DAFAEAFBFAFA097E396A5
:101380001FAE1EAEE397A5961FAEA5974DC0A50153
:10139000BE01655C7F4FCE014E960E9405078823F3
:1013A00001F3CE01CB960E94140E88A199A19C83D3
:1013B0008B831A8309838AA18D838BA18E838CA151
:1013C0009DA1AEA1BFA18F839887A987BA8788A561
:1013D00099A5AAA5BBA58B879C87AD87BE878CA541
:1013E0009DA5AEA5BFA58F87988BA98BBA8B88A921
:1013F0008B8B89A99AA9ABA9BCA98C8B9D8BAE8B31
:10140000BF8B8DA99EA9AFA9B8AD888F998FAA8FE0
:10141000BB8F89AD9AAD9D8F8C8FA501B201CE0196
:10142000885A9F4F0E9495056C968EAD9FAD6C9724
:101430009093C2058093C105A0968CAD9DADAEADD5
:10144000BFADA0978093C3059093C405A093C50535
:10145000B093C605A4968CAD9DADAEADBFADA497BF
:101460008093C7059093C805A093C905B093CA059A
:101470008DE0E8E5F0E0EC0FFD1F3C96ABECB5E04D
:1014800001900D928A95E1F7E3968EAD9FADE397BB
:101490009093D9058093D8050E94FE15882309F4FE
:1014A0001FC168E070E080E090E00E94EC1587E5E5
:1014B000898381E48A8386E58B8385E48C8382013A
:1014C00034E0F32EF40C8FEB95E00E94E105F80177
:1014D00021918F01022E000C330B8217930711F418
:1014E000FE12F1CF68E170E080E090E00E94EC1520
:1014F0008FEB95E00E94E1059093C5028093C402B2
:101500008FEB95E00E94E10520E030E0382F8091DC
:10151000C4029091C502822B932B9093C5028093B5
:10152000C4026CE270E080E090E00E94EC1580E480
:1015300090E09093B8028093B70281E08093B90263
:1015400080910201982F9F77909302012091C4020D
:101550003091C5022B3F3F4A30F020EC3DE53093FF
:10156000C5022093C4022091C4023091C50240E01C
:1015700050E086FF05C060E075E38CE090E004C0B9
:1015800060E07AE688E190E00E94B1186AE0629F2C
:10159000C001639F900D11249093C7028093C602EF
:1015A0008FEB95E00E94E1058C018FEB95E00E94A6
:1015B000EB05800F911F97FD0196959587954091BA
:1015C000B6022091880030918900141634F402C0CC
:1015D000369527954A95E2F709C0552741950CF4B1
:1015E000509502C0220F331F4A95E2F7992740E039
:1015F00050E02817390708F046C0B9016F5F7F4FE8
:101600006217730728F09B018617970708F49C015F
:10161000FA01EA5CFD4F20834F5F5F4F4034510574
:1016200061F740E050E0B9016F5F7F4F62177307C9
:1016300028F09B018617970708F49C01FA01EA58E5
:10164000FD4F20834F5F5F4F4034510561F710928B
:101650003502109200011092010110923402F894A8
:101660008091C6029091C702909387008093860074
:1016700082EB8093800089E18093810081E28093F6
:101680006F0078942DC0B90161507109681779070E
:1016900028F06217730718F49B0101C09C01FA013E
:1016A000EA5CFD4F20834F5F5F4F4034510559F78F
:1016B00040E050E0B901615071096817790728F0DE
:1016C0006217730718F49B0101C09C01FA01EA58E4
:1016D000FD4F20834F5F5F4F4034510559F7B7CF1F
:1016E000CE58DF4F0FB6F894DEBF0FBECDBFDF91EF
:1016F000CF911F910F91FF90EF90DF90CF90BF900F
:10170000AF909F908F907F906F905F904F900895D3
:101710008FB7F894809133028FBF0895CF93DF93F2
:10172000EC018091BC02811109C081E08093BC0270
:101730008091CB049091CC040E944F0D60E08C818D
:10174000DF91CF910C94EC1361E0FC0184810E9445
:10175000EC138091BC0281111092BC0208958FEFAE
:101760000C94480D0F931F93CF93DF93EB010E94CE
:10177000B9038B010E94AF0B8F3F49F00E94B90360
:10178000601B710B6C177D07A8F380E001C081E03E
:10179000DF91CF911F910F910895CF93DF93EC01CB
:1017A0008E81882389F08F8198859C012F5F3F4F20
:1017B00038872F838230924018F40E94AF0BF3CF0A
:1017C000CE010E94A40B1E82DF91CF910895CF928B
:1017D000DF92FF920F931F93CF93DF9300D000D03F
:1017E000CDB7DEB76C01F62E29833A834B835C8339
:1017F0000E94CD0BC6010E948E0B6CE271E0C60107
:101800000E94B20B8F2D80640E94480D08E110E009
:101810005C814B813A812981DA01C901002E04C023
:10182000B695A795979587950A94D2F729833A8319
:101830004B835C830E94480D0850110929813A812D
:101840004B815C81083F8FEF180731F7FF2029F0AB
:10185000E8E0FE1204C087E803C085E901C08FEF0D
:101860000E94480D10E00E94AF0BF601828787FFAF
:1018700004C01F3F11F01F5FF6CF0F900F900F9025
:101880000F90DF91CF911F910F91FF90DF90CF903C
:101890000895AF92BF92CF92DF92EF92FF920F9393
:1018A0001F93CF93DF93EC016901C801820F931F4F
:1018B0008130924008F070C08E81882371F0888159
:1018C0009981AA81BB81481759076A077B0729F4C8
:1018D0008F819885C816D906B0F5488359836A83E5
:1018E0007B838B85833039F089E0440F551F661F59
:1018F000771F8A95D1F79A01AB0161E1CE010E9471
:10190000E70B882319F083E08D8346C00E94B9035A
:101910005B010E94AF0B8A878F3F49F40E94B90395
:101920006A197B096D327140A0F38FE003C08E3FCE
:1019300031F08DE08D83CE010E94A40B2DC018865E
:101940001F8281E08E838F8198858C159D0540F4E0
:101950000E94AF0B8F819885019698878F83F3CF74
:101960006701E00EF11ECE14DF0431F00E94AF0BD0
:10197000F60181936F01F7CF8F819885080F191FAA
:1019800018870F838985882319F00115124048F0C4
:10199000CE010E94CD0B05C0CE010E94A40B80E0B9
:1019A00001C081E0DF91CF911F910F91FF90EF90E7
:1019B000DF90CF90BF90AF900895EF92FF920F937A
:1019C0001F93CF93DF93EC01790141155105610518
:1019D000710511F482E13CC08B85833039F089E0D8
:1019E000440F551F661F771F8A95D1F79A01AB01E7
:1019F00068E1CE010E94E70B882311F084E028C043
:101A00008EEF0E94480D87018EEFF81AF801819140
:101A10008F010E94480D0E151F05C1F78FEF0E9420
:101A2000480D8FEF0E94480D0E94AF0B8A878F717F
:101A3000853031F081E18D83CE010E94A40B09C075
:101A400068E572E0CE010E94B20B811107C085E10A
:101A50008D83CE010E94A40B80E013C020E030E013
:101A6000A9016DE0CE010E94E70B811104C00E9424
:101A7000AF0B882311F084E1EBCFCE010E94A40BC1
:101A800081E0DF91CF911F910F91FF90EF9008952A
:101A90008EBD00000DB407FEFDCF8EB508958CBD40
:101AA0009DBD08958091BB028823A9F14091030157
:101AB00050910401609105017091060129EC32E01A
:101AC0008091C9049091CA040E94DD0C811102C06A
:101AD00080E008954091BD025091BE026091BF0226
:101AE0007091C002411551056105710591F029EC15
:101AF00032E08091C9049091CA040E94DD0C8823D1
:101B000039F31092BD021092BE021092BF021092E1
:101B1000C0021092BB0281E008958F929F92AF9213
:101B2000BF92EF92FF920F931F93CF934B015C01F3
:101B3000C42F8091030190910401A0910501B091FF
:101B4000060188159905AA05BB0501F10E94520DF1
:101B5000811102C080E020C089ECE82E82E0F82EDE
:101B600000E012E020E030E0B501A4018091C9045A
:101B70009091CA040E94490C882361F3809203016A
:101B800090920401A0920501B09206018091BB02DF
:101B9000C82BC093BB0281E0CF911F910F91FF90A2
:101BA000EF90BF90AF909F908F900895CF93DF9369
:101BB000EC018D818823A1F18C8187FF2DC06E857A
:101BC0007F858889998941E00E948D0D882341F1A4
:101BD000EA8980E2E89FF0011124DF01A753BD4F9D
:101BE0001097F1F08D81823050F44B895C896D89BA
:101BF0007E895C964D935D936D937C935F978F89FF
:101C0000988DA98DBA8DE753FD4F938F828FB58B39
:101C1000A48B8C818F778C83DF91CF910C94520DA4
:101C200080E0DF91CF910895CF93DF93EC010E9484
:101C3000D60D882311F01D8281E0DF91CF910895A8
:101C40004F925F926F927F928F929F92AF92BF92CC
:101C5000CF92DF92EF92FF920F931F93CF93DF9378
:101C6000EC016A017B01280139014230510561050F
:101C7000710510F480E073C089859A85AB85BC85B9
:101C80000196A11DB11D84179507A607B70790F30C
:101C90008B889C88AD88BE888F89803129F4BB27CA
:101CA000AF2D9E2D8D2D09C0DB01CA0147E0B695F1
:101CB000A795979587954A95D1F7880E991EAA1EE4
:101CC000BB1E8091030190910401A0910501B09188
:101CD000060188169906AA06BB0679F48F89803119
:101CE000A1F4DD24EE24FF24C601880F991FFC0116
:101CF000E753FD4F5182408219C040E0C501B40155
:101D00000E948D0D8111EACFB5CFE894C7F8DD248C
:101D1000EE24FF24C601880F991F880F991FFC012C
:101D2000E753FD4F40825182628273828091BB02F1
:101D300081608093BB028A89823080F08D819E8190
:101D4000AF81B885880E991EAA1EBB1E8092BD0267
:101D50009092BE02A092BF02B092C00281E0DF91D9
:101D6000CF911F910F91FF90EF90DF90CF90BF9098
:101D7000AF909F908F907F906F905F904F9008955D
:101D80008F929F92AF92BF92CF92DF92EF92FF928B
:101D90000F931F93CF93DF93FC0181859285A385D9
:101DA000B4850196A11DB11D84179507A607B70735
:101DB00010F480E05CC083899489A589B689C789BD
:101DC000C03129F4852E962EA72EBB2409C04A01C6
:101DD0005B01C7E0B694A79497948794CA95D1F70E
:101DE000E9016A017B018F01BC01CD01680D791DFC
:101DF0008A1D9B1D8090030190900401A090050115
:101E0000B0900601681579058A059B0599F4F801DB
:101E100087898031A9F4B701A6015527662777275E
:101E2000440F551FFA01E753FD4F80819181A0E0D7
:101E3000B0E018C040E00E948D0D8111E8CFB9CF0D
:101E4000B701A6014F77552766277727440F551FFF
:101E5000440F551FFA01E753FD4F80819181A28104
:101E6000B381BF7088839983AA83BB8381E0DF91AC
:101E7000CF911F910F91FF90EF90DF90CF90BF9087
:101E8000AF909F908F9008958F929F92AF92BF9244
:101E9000CF92DF92EF92FF920F931F93CF93DF9336
:101EA000EC018D81811102C080E077C00B891C8913
:101EB0002D893E890417150726073707A8F36A01FD
:101EC0007B01823029F4CA86DB86EC86FD860DC054
:101ED000C114D104E104F10451F41E821F8218865A
:101EE00019861A861B861C861D8681E056C08A8448
:101EF0009B84AC84BD84EB8DFC8D258530E0275F11
:101F00003F4FB501A4014150510961097109022EE9
:101F100004C076956795579547950A94D2F7D701EF
:101F2000C6010197A109B10904C0B695A795979577
:101F300087952A95D2F784179507A607B70720F04B
:101F400089288A288B2849F44F89588D698D7A8D84
:101F50004E835F836887798704C0841B950BA60B2B
:101F6000B70B4C015D018E010A5F1F4F8114910474
:101F7000A104B10409F4A7CF4E815F8168857985FA
:101F800098018B8D9C8D0E94C00E91E0891A91085A
:101F9000A108B1088111EACF87CFDF91CF911F91BE
:101FA0000F91FF90EF90DF90CF90BF90AF909F90F8
:101FB0008F9008952F923F924F925F926F927F92EF
:101FC0008F929F92AF92BF92CF92DF92EF92FF9249
:101FD0000F931F93CF93DF93EC016B014A018D8127
:101FE000811103C08FEF9FEFD7C08C8180FFFACFA4
:101FF0004B885C886D887E884A855B856C857D858D
:10200000C401A0E0B0E093018201041B150B260B74
:10201000370B081719072A073B0718F44201841ADF
:10202000950A54011E0126E0220E311CA114B104B0
:1020300009F47EC04A855B856C857D852A0181E037
:102040005822ED818A019B0189E0369527951795E5
:1020500007958A95D1F78B8D9C8DE23061F4FC0158
:10206000828D938DA48DB58DBC01CD01600F711F44
:10207000821F931F3FC0FC0174807A947022411428
:102080005104C9F4711017C0452B462B472B49F456
:102090008F89988DA98DBA8D8E839F83A887B987E4
:1020A0000AC04E815F816885798591010E94C00ECA
:1020B000882309F497CFEB8DFC8D8E819F81A885B5
:1020C000B9850297A109B109058404C0880F991F39
:1020D000AA1FBB1F0A94D2F746855785608971896C
:1020E000840F951FA61FB71FBC01CD01670D711D81
:1020F000811D911D20E032E02419350935012A1592
:102100003B0508F439012C8126FD04C06114F2E07E
:102110007F0681F4009103011091040120910501D3
:10212000309106016017710782079307B1F402C06E
:10213000C40132C040E00E948D0D882309F452CFC3
:10214000F201E753FD4FD601CF01860D971DE81729
:10215000F90789F021912D93FACF7601830192013D
:10216000AB01BC018091C9049091CA040E94490C42
:10217000882309F437CFC60CD71C8A859B85AC858C
:10218000BD85860D971DA11DB11D8A879B87AC87D4
:10219000BD87A618B7084ACFDF91CF911F910F9145
:1021A000FF90EF90DF90CF90BF90AF909F908F9077
:1021B0007F906F905F904F903F902F9008953F9247
:1021C0004F925F926F927F928F929F92AF92BF9247
:1021D000CF92DF92EF92FF920F931F93CF93DF93F3
:1021E000CDB7DEB72C970FB6F894DEBF0FBECDBFCC
:1021F0005C01DC015B968D909C905C971696CD906F
:10220000DD90ED90FC901997C114D104E104F10424
:1022100039F0BFEFCB1ADB0AEB0AFB0A312C07C0FF
:10222000F401C080D180E280F38033243394F40140
:1022300081859285A385B4859C01AD012F5F3F4FB9
:102240004F4F5F4F29873A874B875C8726013701BD
:102250001D821E821F821886F40181859285A385C6
:10226000B4852D813E814F815885281739074A074B
:102270005B0708F063C089859A85AB85BC858C15A2
:102280009D05AE05BF0550F482E0C82ED12CE12C8F
:10229000F12C92E0492E512C612C712C9E012F5F64
:1022A0003F4FB701A601C4010E94C00E882309F464
:1022B00045C089819A81AB81BC81892B8A2B8B2B6C
:1022C00041F0260137019FEF491A590A690A790A34
:1022D00005C0C414D504E604F70491F02D813E81B5
:1022E0004F8158852F5F3F4F4F4F5F4F2D833E8368
:1022F0004F8358873FEFC31AD30AE30AF30AACCFE0
:102300000FEF1FEF2FEF3FE0B301A201C4010E94C6
:10231000200E882399F0D50116964D915D916D910F
:102320007C911997411551056105710549F093019B
:102330008201C4010E94200E811102C080E02AC0E7
:10234000D50116964D925D926D927C92199733202D
:1023500051F0D301C2010196A11DB11DF40180838A
:102360009183A283B383F5018789908DA18DB28D6E
:10237000892B8A2B8B2B69F4D50157964D925D9250
:102380006D927C925A9714968C911497806814964B
:102390008C9381E02C960FB6F894DEBF0FBECDBFB4
:1023A000DF91CF911F910F91FF90EF90DF90CF9031
:1023B000BF90AF909F908F907F906F905F904F9065
:1023C0003F9008952F923F924F925F926F927F922B
:1023D0008F929F92AF92BF92CF92DF92EF92FF9235
:1023E0000F931F93CF93DF9300D000D0CDB7DEB70C
:1023F0008C015B011A01DC0115968C9115978130D7
:10240000C9F414968C9181FF15C082FF1BC0F8019E
:10241000438954896589768982859385A485B585A4
:1024200084179507A607B70769F0C8010E94440FF3
:10243000811108C081E090E0F8019383828380E0FD
:1024400090E039C1610183C0D8015B968D919C9168
:102450005C97FC01248121502A013B0139E07694EC
:102460006794579447943A95D1F7722E74207A0165
:10247000F1E0FF22772009F476C080E092E08E1927
:102480009F0946018C159D0508F44C01D8015B9607
:102490002D913C915C9716968D919D910D90BC91DC
:1024A000A02D0297A109B109F901058404C0880F84
:1024B000991FAA1FBB1F0A94D2F7468557856089CA
:1024C0007189840F951FA61FB71F9C01AD01270DB1
:1024D000311D411D511D29013A01811432E093063D
:1024E00009F088C08091030190910401A091050139
:1024F000B091060184159505A605B70559F48FEF2F
:102500009FEFDC018093030190930401A0930501E8
:10251000B09306019501B301A2018091C904909185
:10252000CA040E94DD0C882309F484CF9EEFB91AF7
:10253000C818D908F80182859385A485B585880DCA
:10254000991DA11DB11D82879387A487B587D801E6
:102550001A964D915D916D917C911D97C114D10496
:1025600009F072CF87C0E114F10409F086CF169606
:102570004D915D916D917C911997411551056105C2
:10258000710559F457968D919D910D90BC91A02D98
:102590000097A105B10541F521C09E012F5F3F4F76
:1025A0000E94C00E882309F44BCF89819A81AB81A8
:1025B000BC81F801238D348DF9012789203129F060
:1025C00048EF5FEF6FEF7FE004C048EF5FEF60E040
:1025D00070E084179507A607B70730F0C8010E947E
:1025E000DF1081114ACF26CFF80186839783A08719
:1025F000B18743CFE114F10429F5D8011A964D9122
:102600005D916D917C911D9753968D919D910D904B
:10261000BC91A02D481759076A077B0798F00E94C4
:10262000520D882309F406CF409203015092040111
:1026300060920501709206018091BB0281608093D7
:10264000BB0208C041E0C301B2010E948D0D882386
:1026500009F4F0CED501F701E753FD4FCF01880D06
:10266000991DE817F90719F02D912193FACFA80CBD
:10267000B91C5ECF53968D919D910D90BC91A02D6C
:1026800084179507A607B70740F4F801438B548BCE
:10269000658B768B848180688483D80114968C91B5
:1026A00083FD02C0C10107C0C8010E94D60D882366
:1026B00009F4C0CEF7CF0F900F900F900F90DF91DD
:1026C000CF911F910F91FF90EF90DF90CF90BF902F
:1026D000AF909F908F907F906F905F904F903F90C2
:1026E0002F900895CF93DF931F92CDB7DEB7698304
:1026F00041E050E0BE016F5F7F4F0E94E2110F90FA
:10270000DF91CF9108954F925F926F927F92AF9237
:10271000BF92CF92DF92EF92FF920F931F93CF93CE
:10272000DF9300D000D0CDB7DEB78C0149835A8348
:102730006B837C835901C12CD12C7601412C82E022
:10274000582E612C712C49815A816B817C819E01AC
:102750002F5F3F4FC8010E94C00E882351F1D30163
:10276000C201F801058404C0880F991FAA1FBB1F6E
:102770000A94D2F7C80ED91EEA1EFB1E49815A815F
:102780006B817C818789803129F088EF9FEFAFEFE3
:10279000BFE004C088EF9FEFA0E0B0E04817590702
:1027A0006A077B0780F2F501C082D182E282F38260
:1027B00081E00F900F900F900F90DF91CF911F91BC
:1027C0000F91FF90EF90DF90CF90BF90AF907F90F0
:1027D0006F905F904F90089590E0FC01E858FF4F94
:1027E0003491FC01EC54FF4F2491FC01E056FF4F63
:1027F000E491EE2309F43BC0332339F1333091F0F7
:1028000038F43130A9F0323001F584B58F7D12C033
:10281000373091F03830A1F03430B9F48091800035
:102820008F7D03C0809180008F77809380000DC0E2
:1028300084B58F7784BD09C08091B0008F7703C0C5
:102840008091B0008F7D8093B000F0E0EE0FFF1F0D
:10285000E457FF4FA591B4918FB7F894EC916111B3
:1028600003C020952E2301C02E2B2C938FBF0895DB
:10287000009769F0FC0101900020E9F73197AF0162
:10288000481B590BBC018DEC94E00C94FF0180E0D7
:1028900090E00895CF93DF93FC012581222311F06E
:1028A00080E049C0EC0180918D058031C1F482E067
:1028B0008583178A108E118E128E80918E059091CD
:1028C0008F05A0E0B0E025E0880F991FAA1FBB1F6D
:1028D0002A95D1F7838B948BA58BB68B19C0803248
:1028E000F9F683E0858340919005509191056091C0
:1028F000920570919305478B508F618F728F9F0166
:102900002D5E3F4F86E795E00E948313882341F2B6
:1029100086E795E09C8F8B8F81E08C831E821F82DF
:10292000188619861A861B861C861D861E861F869B
:10293000188A198A1A8ADF91CF9108958F929F92EF
:10294000AF92BF92CF92DF92EF92FF92CF93DF933D
:10295000C82F8AE695E09093CA048093C904CC23DB
:1029600069F1C53010F080E00DC140E060E070E03A
:10297000CB010E948D0D8823B1F320E1C29FC001DD
:10298000112487549D4FFC01E254FE4F20812F7784
:1029900051F73C96408151816281738144365105E3
:1029A0006105710500F33497C080D180E280F38027
:1029B000C114D104E104F10421F4D5CFC12CD12CF0
:1029C000760140E0C701B6010E948D0D882359F2BF
:1029D0008091D4029091D5028115924021F6A09168
:1029E000D902AA2309F4BFCF6091D7027091D8020F
:1029F0006115710509F4B7CF2091D602222309F49D
:102A0000B2CFA093880520937A0580E030E0E1E022
:102A1000F0E0C82FAF01082E02C0440F551F0A94E2
:102A2000E2F72417350741F0982F8F5F983089F728
:102A300089E08093830597CF809383052091DF02FF
:102A40003091E0022115310519F040E050E008C056
:102A50002091ED023091EE024091EF025091F00290
:102A600020937B0530937C0540937D0550937E0534
:102A700046015701860E971EA11CB11C8092890544
:102A800090928A05A0928B05B0928C05E091DA02B3
:102A9000F091DB02F0938F05E0938E05B0E00E9489
:102AA000D018860E971EA81EB91E8092900590928F
:102AB0009105A0929205B092930585E0EE0FFF1F5D
:102AC0008A95E1F7E150FE4FEF2FFF27E6958E0E36
:102AD0009F1EA11CB11C8092840590928505A09236
:102AE0008605B09287052091DC023091DD02211528
:102AF000310521F0A90160E070E008C04091E902D1
:102B00005091EA026091EB027091EC02D701C6018C
:102B100088199909AA09BB09840F951FA61FB71F19
:102B200004C0B695A79597958795CA95D2F78093D7
:102B30007F0590938005A0938105B0938205853F22
:102B40002FE09207A105B10510F48CE018C0853F75
:102B50009F4FA105B10510F480E111C08091F502ED
:102B60009091F602A091F702B091F802809390053F
:102B700090939105A0939205B093930580E2809382
:102B80008D0581E0DF91CF91FF90EF90DF90CF90A6
:102B9000BF90AF909F908F90089590E0FC01EC540F
:102BA000FF4F2491FC01E056FF4F8491882399F058
:102BB00090E0880F991FFC01EA56FF4FA591B49150
:102BC000FC01E457FF4F859194918FB7F894EC91F5
:102BD000E22BEC938FBF08952091D8053091D90551
:102BE0002115310541F0AB01BC01C9010E94440F20
:102BF00091E0811101C090E0892F0895E091D805FE
:102C0000F091D905309729F08581882311F081E072
:102C100008950895CF93DF93EC016A8B80910301AF
:102C200090910401A0910501B09106018E879F87C4
:102C3000A88BB98B80E2689FF0011124E753FD4F08
:102C40004489558960E070E0BA01552744274F8BCD
:102C5000588F698F7A8F828D938DA0E0B0E0482BDA
:102C6000592B6A2B7B2B4F8B588F698F7A8F8385DB
:102C7000887151F4848D958DA68DB78D8B8B9C8B2F
:102C8000AD8BBE8B81E00EC0803111F080E015C0AD
:102C90009E012D5E3F4F8B8D9C8D0E948313882358
:102CA000A9F384E08D8381E08C831E821F821886C5
:102CB00019861A861B861C861D86DF91CF91089582
:102CC000789484B5826084BD84B5816084BD85B507
:102CD000826085BD85B5816085BD80916E00816013
:102CE00080936E00109281008091810082608093B9
:102CF00081008091810081608093810080918000BB
:102D00008160809380008091B10084608093B100E5
:102D10008091B00081608093B00080917A008460DF
:102D200080937A0080917A00826080937A0080910B
:102D30007A00816080937A0080917A008068809325
:102D40007A001092C10089E08093C10280E18093F3
:102D5000BA008EEE90E090932602809325028AEFCF
:102D600090E090932402809323021092220210920A
:102D700021021092200210921F0210921E0281E086
:102D800080931D0210921C0261E082E10E94EC130C
:102D900061E083E10E94EC138091B9008E7F809303
:102DA000B9008091B9008D7F8093B90088E4809349
:102DB000B80085E48093BC0088EE92E090932802EE
:102DC00080932702E091DD04F091DE0482E08083AD
:102DD000E091D904F091DA041082E091DB04F091E3
:102DE000DC048FEC80831092E504E091E104F09123
:102DF000E20486E08083E091DF04F091E0048081CA
:102E000080618083E091DF04F091E004808188603C
:102E10008083E091DF04F091E0048081806880830A
:102E2000E091DF04F091E00480818F7D80838091C8
:102E30009905882321F084E995E00E94140E1092F0
:102E40007505109273051092700510926F0584E05D
:102E500080936E050E94B903EB0180916E050E947C
:102E6000CD1561E080916E050E94EC131FB7F894B8
:102E700080912902811124C0EAEAF0E08491EEEB0E
:102E8000F0E09491E82FF0E0EE0FFF1FEA56FF4FBD
:102E9000A591B491EC91E92321F461E08AE00E94CC
:102EA000EC138AE00E94CD158CB580618CBD8CB589
:102EB00080648CBD8DE00E94CD158BE00E94CD1505
:102EC000809129028F5F809329021FBF82E5809342
:102ED000CB041092CC048091CB049091CC040E943E
:102EE0004F0D1AE08FEF0E94480D1150D9F78AE676
:102EF00095E00E948E0B20E030E0A90160E08AE6B8
:102F000095E00E94E70B182F80937405813049F0FB
:102F10000E94B9036C1B7D0B613D774060F381E03B
:102F200054C02AEA31E040E050E068E08AE695E0EB
:102F30000E94E70B82FF03C0109375050EC014E0DA
:102F40000E94AF0B809374051150D1F78A3A11F0AB
:102F500082E03BC082E080937505809175058230E8
:102F600021F0C12CD12C760105C0C12CD12CE12C33
:102F700080E4F82E20E030E0A90167E38AE695E0DE
:102F80000E94E70BA701960169E28AE695E00E949C
:102F9000E70B80937405882349F00E94B9036C1BEA
:102FA0007D0B613D774030F388E00FC0809175055F
:102FB000823001F520E030E0A9016AE38AE695E07D
:102FC0000E94E70B882341F086E080936F058AE634
:102FD00095E00E94A40B28C00E94AF0B807C803C2F
:102FE00019F483E0809375050E94AF0B0E94AF0B2C
:102FF0000E94AF0B8AE695E00E94A40B80E58093C7
:10300000CB041092CC0481E00E949E14882339F0F6
:1030100084E995E00E944A14882331F00DC080E0D5
:103020000E949E148111F4CF86E891E00E9438142A
:103030008DE691E00E943814C1E0C093B60289E7A2
:1030400091E00E94FF0760E477E78BE190E00E9447
:10305000B4000E94F501F1CFEBECF4E080E5808351
:103060001182EDECF4E01382128288EE93E0A0E08E
:10307000B0E084839583A683B78321E131E0318377
:10308000208325EC30E03587248724EC30E0378737
:10309000268720EC30E0318B208B21EC30E0338B25
:1030A000228B22EC30E0358B248B26EC30E0378B02
:1030B000268B118E128E138E148EEAE6F5E01582A1
:1030C00016821186138642E050E060E070E044878B
:1030D00055876687778713A215A614A623E231E0E9
:1030E00033A722A717A6E3EBF5E0138212828483AD
:1030F0009583A683B7832FE231E031832083EFEB02
:10310000F5E01382128284839583A683B78381E4DA
:1031100091E091838083128E118E14860895A1E22E
:103120001A2EAA1BBB1BFD010DC0AA1FBB1FEE1F41
:10313000FF1FA217B307E407F50720F0A21BB30B8C
:10314000E40BF50B661F771F881F991F1A9469F708
:1031500060957095809590959B01AC01BD01CF0164
:103160000895052E97FB1EF400940E94C81857FD81
:1031700007D00E948F1807FC03D04EF40C94C81897
:1031800050954095309521953F4F4F4F5F4F089593
:1031900090958095709561957F4F8F4F9F4F0895C3
:1031A0000E94E118A59F900DB49F900DA49F800DE3
:1031B000911D11240895EE0FFF1F0590F491E02D4D
:1031C0000994A29FB001B39FC001A39F700D811D00
:1031D0001124911DB29F700D811D1124911D089520
:1031E000CF93DF938230910510F482E090E0E0917C
:1031F000DC05F091DD0520E030E0C0E0D0E0309764
:1032000011F14081518148175907C0F048175907FB
:1032100061F482819381209719F09B838A832BC06C
:103220009093DD058093DC0526C02115310519F04A
:103230004217530718F49A01BE01DF01EF01028023
:10324000F381E02DDCCF2115310509F1281B390B65
:103250002430310590F412968D919C91139761154D
:10326000710521F0FB019383828304C09093DD05F7
:103270008093DC05FD01329644C0FD01E20FF31F8F
:1032800081939193225031092D933C933AC0209120
:10329000DA053091DB05232B41F4209109013091AF
:1032A0000A013093DB052093DA0520910701309164
:1032B00008012115310541F42DB73EB740910B01AE
:1032C00050910C01241B350BE091DA05F091DB05E0
:1032D000E217F307A0F42E1B3F0B2817390778F0ED
:1032E000AC014E5F5F4F2417350748F04E0F5F1F4C
:1032F0005093DB054093DA058193919302C0E0E09F
:10330000F0E0CF01DF91CF9108950F931F93CF93FA
:10331000DF93009709F48CC0FC013297138212826C
:103320000091DC051091DD050115110581F4208166
:103330003181820F931F2091DA053091DB05281728
:10334000390779F5F093DB05E093DA0571C0D80110
:1033500040E050E0AE17BF0750F412962D913C911B
:103360001397AD012115310509F1D901F3CF9D0165
:10337000DA013383228360817181860F971F821760
:10338000930769F4EC0128813981260F371F2E5FDE
:103390003F4F318320838A819B8193838283452B96
:1033A00029F4F093DD05E093DC0542C01396FC930D
:1033B000EE931297ED01499159919E01240F351F0B
:1033C000E217F30771F480819181840F951F0296B3
:1033D00011969C938E938281938113969C938E93E6
:1033E0001297E0E0F0E0D80112968D919C9113972E
:1033F000009719F0F8018C01F6CF8D919C919801FE
:103400002E5F3F4F820F931F2091DA053091DB052D
:103410002817390769F4309729F41092DD051092C6
:10342000DC0502C0138212821093DB050093DA05DB
:10343000DF91CF911F910F91089581E090E0F89472
:103440000C94491AFB01DC0104C08D910190801994
:1034500021F441505040C8F7881B990B0895FC0196
:103460008191861721F08823D9F7992708953197FC
:10347000CF010895FB01DC014150504048F001901C
:103480000D920020C9F701C01D9241505040E0F755
:063490000895F894FFCF3F
:10349600010160FFFFFFFF0000DE05800000000065
:1034A600008C01FF012401D30155013301470100BE
:1034B6000000007213FF01E502E40200000000D3E1
:1034C60002BF02E5029302B702A3029402000000C3
:1034D600007D029D03E50295035C02E105EB050014
:1034E6000000009303FF01E502E4029303930393B4
:1034F60003000000009303FF01E502E4020D0A0049
:10350600746573742E776176007477696C69676881
:10351600742E776176005344206661696C002F0033
:00000001FF
