:100000000C9465000C948D000C948D000C948D0064
:100010000C948D000C948D000C948D000C948D002C
:100020000C948D000C948D000C94DB050C948D00C9
:100030000C948D000C9468050C948D000C948D002C
:100040000C941E160C948D000C9488030C9462037F
:100050000C948D000C948D000C948D000C948D00EC
:100060000C94BA030C948D000000000025002800B9
:100070002B0000000000240027002A0004040404D0
:100080000404040402020202020203030303030342
:10009000010204081020408001020408102001021F
:1000A000040810207C3C3E5E2B3D3F2F5B5D3B2CCB
:1000B0002A225C000000000800020100000304077F
:1000C0000000000000000000501811241FBECFEFF8
:1000D000D8E0DEBFCDBF11E0A0E0B1E0EEEDF4E38B
:1000E00002C005900D92A239B107D9F725E0A2E927
:1000F000B1E001C01D92A03EB207E1F710E0C5E6F5
:10010000D0E004C02197FE010E94FF18C436D10739
:10011000C9F70E9468160C946D1A0C940000E091C7
:10012000B501F091B601309729F010922202109299
:10013000210209940895CF93DF93AC01E091290245
:10014000F0912A023097F1F09091240280912302DD
:100150009817C0F090E0292F30E02617370754F4A5
:10016000D901AB56BE4FEA01C20FD31F88818C93D1
:100170009F5FF1CF1092240260932302CB01DF91A5
:10018000CF910994DF91CF910895FC01538D448D57
:10019000252F30E0842F90E0821B930B541710F032
:1001A000CF96089501970895FC01918D828D98173F
:1001B00061F0828DDF01A80FB11D5D968C91928D4B
:1001C0009F5F9F73928F90E008958FEF9FEF089548
:1001D000FC01918D828D981731F0828DE80FF11D11
:1001E000858D90E008958FEF9FEF0895FC01918D2C
:1001F000228D892F90E0805C9F4F821B91098F7325
:100200009927089582EC94E00E94F60021E0892B62
:1002100009F420E0822F0895FC01848DDF01A80FEE
:10022000B11DA35ABF4F2C91848D90E001968F731E
:100230009927848FA689B7892C93A089B1898C913D
:1002400080648C93938D848D981306C00288F38903
:10025000E02D80818F7D80830895EF92FF920F9330
:100260001F93CF93DF93EC0181E0888F9B8D8C8D62
:10027000981305C0E889F989808185FD24C0F62E90
:100280000B8D10E00F5F1F4F0F731127E02E8C8D29
:10029000E8120CC00FB607FCFACFE889F989808113
:1002A00085FFF5CFCE010E940C01F1CF8B8DFE01B1
:1002B000E80FF11DE35AFF4FF0820B8FEA89FB89AB
:1002C0008081806207C0EE89FF896083E889F989AF
:1002D00080818064808381E090E0DF91CF911F91E5
:1002E0000F91FF90EF900895CF93DF93EC01888DED
:1002F0008823C9F0EA89FB89808185FD05C0A8892A
:10030000B9898C9186FD0FC00FB607FCF5CF8081AF
:1003100085FFF2CFA889B9898C9185FFEDCFCE01F9
:100320000E940C01E7CFDF91CF91089580E090E02B
:10033000892B29F00E94020181110C94000008957C
:10034000CF92DF92EF92FF920F931F93CF93DF93A1
:100350006C017A018B01C0E0D0E0CE15DF0589F099
:10036000D8016D918D01D601ED91FC910190F08144
:10037000E02DC6010995892B11F47E0102C021965A
:10038000ECCFC701DF91CF911F910F91FF90EF90BC
:10039000DF90CF90089585ED8093BC008091BC00E4
:1003A00084FDFCCF1092200208954091D701262FA2
:1003B00030E0240F311D21323105DCF42091200280
:1003C0002430C9F4FC0180E090E0861758F43091A5
:1003D000D7012191DC01A954BE4FA30FB11D2C936D
:1003E0000196F3CF8091D701680F6093D70180E029
:1003F000089581E0089582E00895DC015996ED9119
:10040000FC915A973097B9F083899489A589B68968
:100410004285538564857585841B950BA60BB70BA8
:10042000811520E89207A105B10538F08FEF9FE70D
:10043000A0E0B0E0089580E090E00895CF93DF93CE
:100440001F92CDB7DEB76983DC01ED91FC9102808C
:10045000F381E02D41E050E0BE016F5F7F4F0995D1
:100460000F90DF91CF9108950895E091240280913B
:100470002302E81730F4F0E0EB56FE4F808190E065
:1004800008958FEF9FEF08959091240280912302A9
:10049000981750F4E92FF0E0EB56FE4F208130E042
:1004A0009F5F9093240202C02FEF3FEFC901089590
:1004B0008091230290E020912402821B91090895EB
:1004C000CF93DF9300D0CDB7DEB7CB01642F498344
:1004D0005A830E94D5014981842F5A81952F0F900C
:1004E0000F90DF91CF910895CF93DF931F92CDB7F7
:1004F000DEB7698361E0CE0101960E94D50181E0FB
:1005000090E00F90DF91CF910895089580E090E002
:1005100008958F929F92AF92BF92CF92DF92EF9207
:10052000FF920F931F93CF93DF93CDB7DEB7A197C1
:100530000FB6F894DEBF0FBECDBF8091230290E0CE
:1005400020912402821B9109029784F088EA95E0A9
:100550000E944402E091C204F091C3040190F08132
:10056000E02D682F82EC94E00995E7CF88EA95E0CA
:100570000E9444028C016C01990FEE08FF08F7FEFF
:100580002BC0E091C204F091C3040190F081E02DF2
:100590006DE282EC94E0099522273327A9012C19FA
:1005A0003D094E095F0919A2CE0181967C019AE0AE
:1005B000892E912CA12CB12CCA01B901A50194015D
:1005C0000E94B318605DF70162937F012115310528
:1005D0004105510589F71AC0A701960119A2CE015C
:1005E00081967C018AE0882E912CA12CB12CCA0125
:1005F000B901A50194010E94B318605DF7016293EF
:100600007F01211531054105510589F7C7010E9478
:10061000E1098FE691E00E94E109083C1105C9F467
:1006200060E087E00E948C1581E08093B00282E751
:1006300091E00E94580660EE7EE280E090E00E9429
:10064000D81561E087E00E948C158BE791E00E944D
:100650005806A1960FB6F894DEBF0FBECDBFDF914E
:10066000CF911F910F91FF90EF90DF90CF90BF90AF
:10067000AF909F908F9008950E94411AFC01818D48
:10068000928D009711F00C94EC0C0895CF93DF93AA
:10069000EC01898D9A8D009739F481E090E09B837D
:1006A0008A8380E090E00BC0FC01138212820E94DA
:1006B0002A0DE98DFA8D22813381232B71F7DF9189
:1006C000CF9108951F920F920FB60F9211242F937E
:1006D0003F934F935F936F937F938F939F93AF93CA
:1006E000BF93EF93FF9382EC94E00E940C01FF9183
:1006F000EF91BF91AF919F918F917F916F915F919A
:100700004F913F912F910F900FBE0F901F90189512
:100710001F920F920FB60F9211242F938F939F93D6
:10072000EF93FF93E091D204F091D3048081E091A4
:10073000D804F091D90482FD12C090818091DB042D
:100740008F5F8F732091DC04821751F0E091DB04FE
:10075000F0E0EE53FB4F958F8093DB0401C0808166
:10076000FF91EF919F918F912F910F900FBE0F905E
:100770001F9018951F920F920FB60F9211242F936E
:100780003F934F935F936F937F938F939F93AF9319
:10079000BF93EF93FF938091B900887F803609F46F
:1007A0009CC068F5883209F45BC090F4803109F48C
:1007B00054C038F4882309F4F6C0883009F44DC0D9
:1007C000F6C0883109F44CC0803209F45DC0EFC036
:1007D000803409F468C048F4803309F455C0883384
:1007E00009F0E5C08093FA01D8C0803509F44FC004
:1007F000883509F45DC0883409F0D9C0D6C088397D
:1008000009F4C7C0A8F4883709F467C038F48836FB
:1008100009F463C0803709F460C0C9C0883809F49E
:10082000B8C0803909F45FC0803809F0C0C05BC02F
:10083000803B09F486C038F4803A09F466C0883AEF
:1008400009F47FC0B4C0803C09F4A7C0883C09F417
:10085000A4C0883B09F48AC0AAC080911D0210C0C0
:1008600090911C0280911B02981770F5E0911C0278
:1008700081E08E0F80931C02F0E0E550FE4F8081F6
:100880008093BB0085EC86C08093FA018EC0E09116
:100890001C0281E08E0F80931C028091BB00F0E06F
:1008A000E550FE4F808390911C0280911B026EC028
:1008B000E0911C0281E08E0F80931C028091BB00AE
:1008C000F0E0E550FE4F808380911F0281116DC0E2
:1008D00081E080931E0284EA61C083E0809320025D
:1008E0001092F901CFCF8091F901803208F051C008
:1008F000E091F90181E08E0F8093F9018091BB00B6
:10090000F0E0E752FE4F8083BDCF85EC8093BC00C2
:10091000109220028091F901803230F4E091F901C7
:10092000F0E0E752FE4F10826091F90170E0E09133
:100930002502F091260289ED91E009951092F901C6
:1009400036C084E0809320021092D8011092D70123
:10095000E0912702F091280209958091D701811139
:1009600005C081E08093D7011092B701E091D801D2
:1009700081E08E0F8093D801F0E0E954FE4F808132
:100980008093BB009091D8018091D701981708F40B
:1009900079CF85E88093BC000AC085EC8093BC00C9
:1009A0001092200204C01092FA010E94CB01FF9124
:1009B000EF91BF91AF919F918F917F916F915F91D7
:1009C0004F913F912F910F900FBE0F901F90189550
:1009D000EF92FF920F931F93CF93DF93EC017B0174
:1009E0008A011B821A8288EE93E0A0E0B0E08C833B
:1009F0009D83AE83BF8383E491E0998388838DE1F7
:100A000090E00E9414199A8F898F009779F02DE158
:100A1000F701DC0101900D922A95E1F74CE050E0DE
:100A2000B801CE010C960E945E1A188EDF91CF910C
:100A30001F910F91FF90EF900895CF93DF931F9236
:100A4000CDB7DEB741E050E0BE016F5F7F4F0E943F
:100A50001B13019719F4898190E002C08FEF9FEF7B
:100A60000F90DF91CF910895FC01818D928D0097B9
:100A700011F00C941D058FEF9FEF08950F931F93B6
:100A8000CF93DF93FC01818D928D0097B9F0EF0138
:100A90000E941D058C010F3F8FEF180791F0898D83
:100AA0009A8DFC01428553856485758541505109B5
:100AB000610971090E948512C80105C080E090E0BB
:100AC00002C08FEF9FEFDF91CF911F910F9108959B
:100AD0001F920F920FB60F9211242F933F938F9373
:100AE0009F93EF93FF938091020186FD1CC020919C
:100AF000B00227FF23C0E0912F0280912E0290E4E4
:100B0000E99FF0011124E80FF11DE05DFD4F8081A8
:100B100090E0332721950CF4309502C09595879588
:100B20002A95E2F71EC09091940181E08927809375
:100B30009401809194018823D1F232C0E0912F0278
:100B400080912E0290E4E99FF0011124E80FF11D3D
:100B5000E05DFD4F808190E002C0880F991F2A95CB
:100B6000E2F790938B0080938A00909389008093A2
:100B7000880080912E028F5F80932E0280912E023A
:100B8000803470F010922E02E0912F02F0E0E050DD
:100B9000FF4F81E0808390912F02892780932F025D
:100BA000FF91EF919F918F913F912F910F900FBEE9
:100BB0000F901F9018951F920F920FB60F9211244D
:100BC0002F933F934F935F936F937F938F939F9355
:100BD000AF93BF93EF93FF93E0912F0281E0E8275B
:100BE000F0E0E050FF4F9081992309F450C09091BC
:100BF0002F0289278093930180916F008F7D8093CE
:100C00006F00789484EB95E00E94FD012091B10281
:100C10003091B20228173907E8F08091020183FF72
:100C200007C06CE270E080E090E00E94210F2AC0D3
:100C300080916F008E7D80936F00E091CD05F091E3
:100C4000CE05309721F0858181110E947A10109293
:100C5000B3021DC06091930180E4689FB00111242C
:100C6000605D7D4F8091CD059091CE05009721F07C
:100C700040E450E00E941B13E0919301F0E0E0504B
:100C8000FF4F108280916F00806280936F00FF9110
:100C9000EF91BF91AF919F918F917F916F915F91F4
:100CA0004F913F912F910F900FBE0F901F9018956D
:100CB0004F925F926F927F928F929F92AF92BF926C
:100CC000CF92DF92EF92FF920F931F93CF93DF9318
:100CD000CDB7DEB7C257D1090FB6F894DEBF0FBE4D
:100CE000CDBF4C019091B8048091BF04981709F4CE
:100CF00077C01092B30280916F008E7D80936F0059
:100D00000E94330F81110E947A108091800087FD2C
:100D10001AC08091020180628093020110928100CA
:100D2000109280008091B8040E948D108091B804C8
:100D3000863009F443C08E3209F444C0853009F08E
:100D400043C081E03CC0209188003091890040E0A0
:100D500050E08091BD049091BE0448175907C8F631
:100D600037FD06C0B9018217930720F4BC0102C009
:100D700060E070E070938B0060938A0037FD06C0DE
:100D8000B9018217930720F4BC0102C060E070E053
:100D90007093890060938800C2976AE070E0E091E8
:100DA0008400F0918500E817F907C8F361507109D4
:100DB000B1F74F5F5F4F21503109CBCF82E0809375
:100DC000B40204C083E0FBCF1092B4028DB5816001
:100DD0008DBD8CB58C7F8CBD8091B8048093BF0491
:100DE0001092B30280916F008E7D80936F000E94FD
:100DF000330F81110E947A1019A218A285E291E0A6
:100E00009F8F8E8F1BA21C821B829A8389831E82D6
:100E1000CE014E960E9426103401CE0101966C013F
:100E20008E01025E1F4F2C016FE270E0C3010E9431
:100E3000531A009709F441C0F30120812F3221F4A5
:100E4000FFEF6F1A7F0AF0CF86198D3008F08CE023
:100E5000E82EF12CA701B301CE01885A9F4F0E94C2
:100E60005E1AE8E5F0E0EC0FFD1FEE0DFF1D1082AD
:100E7000C6010E94D110F6018581882351F01EAE73
:100E80001DAE85E291E09CAF8BAF21961FAE2197FE
:100E900062C0AE01485A5F4FB801C6010E943F0FC1
:100EA000882369F36E0C7F1CC8010E94D110902F1B
:100EB000812F8601C92ED82EB7CF5301A818B908A3
:100EC000F801828193819EAF8DAF85E291E09CAF66
:100ED0008BAF84818FAF858121968FAF21978681DB
:100EE0009781A085B18525968CAF9DAFAEAFBFAF82
:100EF000259782859385A485B58529968CAF9DAF6E
:100F0000AEAFBFAF299786859785A089B1892D9609
:100F10008CAF9DAFAEAFBFAF2D9782892E968FAFAE
:100F20002E9783899489A589B68962968CAF9DAFE7
:100F3000AEAFBFAF62978789908DA18DB28D669657
:100F40008CAF9DAFAEAFBFAF6697838D948D689623
:100F50009FAF8EAF6897A80CB91CF50180818111F5
:100F60004DC08DAD9EAD9C838B8385E291E09A83CD
:100F700089838FAD8D8321968FAD21978E832596A2
:100F80008CAD9DADAEADBFAD25978F839887A987FA
:100F9000BA8729968CAD9DADAEADBFAD29978B8735
:100FA0009C87AD87BE872D968CAD9DADAEADBFAD98
:100FB0002D978F87988BA98BBA8B2E968FAD2E97F6
:100FC0008B8B62968CAD9DADAEADBFAD62978C8BB9
:100FD0009D8BAE8BBF8B66968CAD9DADAEADBFAD20
:100FE0006697888F998FAA8FBB8F68968EAD9FADBD
:100FF00068979D8F8C8F40E951E069C019A218A2B3
:1010000005E211E01F8F0E8F1BA221968FAD219755
:10101000811116C06C961FAE1EAE6C9788EE93E0E1
:10102000A0E0B0E0A0968CAF9DAFAEAFBFAFA097F1
:10103000E3961FAE1EAEE397A5961FAEA5974DC0D3
:10104000A501BE01655C7F4FCE014E960E943F0F09
:10105000882301F3CE01CB960E94D11088A199A1DB
:101060009C838B831A8309838AA18D838BA18E83B2
:101070008CA19DA1AEA1BFA18F839887A987BA87B4
:1010800088A599A5AAA5BBA58B879C87AD87BE8798
:101090008CA59DA5AEA5BFA58F87988BA98BBA8B74
:1010A00088A98B8B89A99AA9ABA9BCA98C8B9D8B8C
:1010B000AE8BBF8B8DA99EA9AFA9B8AD888F998F34
:1010C000AA8FBB8F89AD9AAD9D8F8C8FA501B20180
:1010D000CE01885A9F4F0E94E8046C968EAD9FAD5A
:1010E0006C979093B7058093B605A0968CAD9DAD97
:1010F000AEADBFADA0978093B8059093B905A0930E
:10110000BA05B093BB05A4968CAD9DADAEADBFAD99
:10111000A4978093BC059093BD05A093BE05B093A2
:10112000BF058DE0E8E5F0E0EC0FFD1F3C96A0EC7C
:10113000B5E001900D928A95E1F7E3968EAD9FADF3
:10114000E3979093CE058093CD050E94330F8823BB
:1011500009F41FC168E070E080E090E00E94210F78
:1011600087E5898381E48A8386E58B8385E48C83A4
:10117000820134E0F32EF40C84EB95E00E943405F8
:10118000F80121918F01022E000C330B8217930777
:1011900011F4FE12F1CF68E170E080E090E00E946F
:1011A000210F84EB95E00E9434059093BC0480935A
:1011B000BB0484EB95E00E94340520E030E0382F3A
:1011C0008091BB049091BC04822B932B9093BC0420
:1011D0008093BB046CE270E080E090E00E94210FFD
:1011E00080E490E09093B2028093B10281E080931A
:1011F000B30280910201982F9F7790930201209172
:10120000BB043091BC042B3F3F4A30F020EC3DE55D
:101210003093BC042093BB042091BB043091BC04E8
:1012200040E050E086FF05C060E075E38CE090E0B0
:1012300004C060E07AE688E190E00E94D5186AE098
:10124000629FC001639F900D11249093BE04809310
:10125000BD0484EB95E00E9434058C0184EB95E09D
:101260000E943E05800F911F97FD019695958795E9
:101270004091B0022091880030918900141634F416
:1012800002C0369527954A95E2F709C05527419542
:101290000CF4509502C0220F331F4A95E2F79927AC
:1012A00040E050E02817390708F046C0B9016F5FE9
:1012B0007F4F6217730728F09B018617970708F482
:1012C0009C01FA01E05DFD4F20834F5F5F4F40348A
:1012D000510561F740E050E0B9016F5F7F4F621741
:1012E000730728F09B018617970708F49C01FA0101
:1012F000E059FD4F20834F5F5F4F4034510561F748
:1013000010922F02109200011092010110922E02F1
:10131000F8948091BD049091BE04909387008093CF
:10132000860082EB8093800089E18093810081E2D6
:1013300080936F0078942DC0B901615071096817CE
:10134000790728F06217730718F49B0101C09C010C
:10135000FA01E05DFD4F20834F5F5F4F4034510540
:1013600059F740E050E0B9016150710968177907F9
:1013700028F06217730718F49B0101C09C01FA0161
:10138000E059FD4F20834F5F5F4F4034510559F7BF
:10139000B7CFCE58DF4F0FB6F894DEBF0FBECDBF2C
:1013A000DF91CF911F910F91FF90EF90DF90CF9041
:1013B000BF90AF909F908F907F906F905F904F9075
:1013C0000895009769F0FC0101900020E9F731973A
:1013D000AF01481B590BBC0182EC94E00C94A001B6
:1013E00080E090E008958F929F92AF92BF92CF924B
:1013F000DF92EF92FF92CF93DF93C82F8FE595E0B6
:1014000090932D0280932C02CC2369F1C53010F00B
:1014100080E00DC140E060E070E0CB010E94181157
:101420008823B1F320E1C29FC001112488559D4F4C
:10143000FC01E254FE4F20812F7751F73C9640810A
:10144000518162817381443651056105710500F354
:101450003497C080D180E280F380C114D104E104CC
:10146000F10421F4D5CFC12CD12C760140E0C70185
:10147000B6010E941811882359F28091C3029091FD
:10148000C4028115924021F6A091C802AA2309F452
:10149000BFCF6091C6027091C7026115710509F452
:1014A000B7CF2091C502222309F4B2CFA0937D05C6
:1014B00020936F0580E030E0E1E0F0E0C82FAF015D
:1014C000082E02C0440F551F0A94E2F7241735076F
:1014D00041F0982F8F5F983089F789E080937805E5
:1014E00097CF809378052091CE023091CF022115BD
:1014F000310519F040E050E008C02091DC02309145
:10150000DD024091DE025091DF022093700530939E
:101510007105409372055093730546015701860E7D
:10152000971EA11CB11C80927E0590927F05A0920F
:101530008005B0928105E091C902F091CA02F09352
:101540008405E0938305B0E00E94F418860E971E90
:10155000A81EB91E8092850590928605A0928705E7
:10156000B092880585E0EE0FFF1F8A95E1F7E15004
:10157000FE4FEF2FFF27E6958E0E9F1EA11CB11C7C
:101580008092790590927A05A0927B05B0927C05B5
:101590002091CB023091CC022115310521F0A90117
:1015A00060E070E008C04091D8025091D90260918B
:1015B000DA027091DB02D701C60188199909AA09DC
:1015C000BB09840F951FA61FB71F04C0B695A7952A
:1015D00097958795CA95D2F7809374059093750572
:1015E000A0937605B0937705853F2FE09207A1057C
:1015F000B10510F48CE018C0853F9F4FA105B105DF
:1016000010F480E111C08091E4029091E502A09174
:10161000E602B091E7028093850590938605A0933A
:101620008705B093880580E28093820581E0DF9191
:10163000CF91FF90EF90DF90CF90BF90AF909F90B1
:101640008F9008958FB7F8948091B6028FBF089558
:1016500061E0FC0184810E948C158091B5028111AA
:101660001092B50208958EBD00000DB407FEFDCFA7
:101670008EB508958FEF0C94330B0F931F93CF9378
:10168000DF93EB010E9412168B010E943A0B8F3FF1
:1016900049F00E941216601B710B6C177D07A8F3AE
:1016A00080E001C081E0DF91CF911F910F910895FB
:1016B000CF93DF93EC018E81882389F08F81988509
:1016C0009C012F5F3F4F38872F838230924018F460
:1016D0000E943A0BF3CFCE010E94280B1E82DF91AD
:1016E000CF9108958CBD9DBD0895CF93DF93EC01FC
:1016F0008091B502811109C081E08093B50280918B
:10170000C0049091C1040E94720B60E08C81DF9153
:10171000CF910C948C15CF92DF92FF920F931F9371
:10172000CF93DF9300D000D0CDB7DEB76C01F62E9B
:1017300029833A834B835C830E94580BC6010E9425
:10174000750B6CE271E0C6010E943D0B8F2D806429
:101750000E94330B08E110E05C814B813A812981C2
:10176000DA01C901002E04C0B695A7959795879513
:101770000A94D2F729833A834B835C830E94330B0C
:101780000850110929813A814B815C81083F8FEF14
:10179000180731F7FF2029F0E8E0FE1204C087E8BF
:1017A00003C085E901C08FEF0E94330B10E00E9457
:1017B0003A0BF601828787FF04C01F3F11F01F5FBD
:1017C000F6CF0F900F900F900F90DF91CF911F9158
:1017D0000F91FF90DF90CF900895AF92BF92CF927C
:1017E000DF92EF92FF920F931F93CF93DF93EC0161
:1017F0006901C801820F931F8130924008F070C0C8
:101800008E81882371F088819981AA81BB814817D4
:1018100059076A077B0729F48F819885C816D9066E
:10182000B0F5488359836A837B838B85833039F095
:1018300089E0440F551F661F771F8A95D1F79A01DB
:10184000AB0161E1CE010E948B0B882319F083E08C
:101850008D8346C00E9412165B010E943A0B8A8754
:101860008F3F49F40E9412166A197B096D3271404C
:10187000A0F38FE003C08E3F31F08DE08D83CE0169
:101880000E94280B2DC018861F8281E08E838F81D5
:1018900098858C159D0540F40E943A0B8F819885A0
:1018A000019698878F83F3CF6701E00EF11ECE1467
:1018B000DF0431F00E943A0BF60181936F01F7CFFC
:1018C0008F819885080F191F18870F8389858823B2
:1018D00019F00115124048F0CE010E94580B05C0C6
:1018E000CE010E94280B80E001C081E0DF91CF9102
:1018F0001F910F91FF90EF90DF90CF90BF90AF902E
:101900000895EF92FF920F931F93CF93DF93EC0113
:101910007901411551056105710511F482E13CC061
:101920008B85833039F089E0440F551F661F771F80
:101930008A95D1F79A01AB0168E1CE010E948B0B29
:10194000882311F084E028C08EEF0E94330B8701BA
:101950008EEFF81AF80181918F010E94330B0E155A
:101960001F05C1F78FEF0E94330B8FEF0E94330BDF
:101970000E943A0B8A878F71853031F081E18D8327
:10198000CE010E94280B09C068E572E0CE010E94DA
:101990003D0B811107C085E18D83CE010E94280B8C
:1019A00080E013C020E030E0A9016DE0CE010E948C
:1019B0008B0B811104C00E943A0B882311F084E143
:1019C000EBCFCE010E94280B81E0DF91CF911F91D8
:1019D0000F91FF90EF900895CF93DF93EC018D81ED
:1019E0008823A1F18C8187FF2DC06E857F85888932
:1019F000998941E00E941811882341F1EA8980E227
:101A0000E89FF0011124DF01A854BD4F1097F1F0B9
:101A10008D81823050F44B895C896D897E895C961A
:101A20004D935D936D937C935F978F89988DA98D6E
:101A3000BA8DE854FD4F938F828FB58BA48B8C8128
:101A40008F778C83DF91CF910C94DD1080E0DF9154
:101A5000CF9108952F923F924F925F926F927F9213
:101A60008F929F92AF92BF92CF92DF92EF92FF92AE
:101A70000F931F93CF93DF9300D000D0CDB7DEB785
:101A80008C015B011A01DC0115968C911597813050
:101A9000C9F414968C9181FF15C082FF1BC0F80118
:101AA000438954896589768982859385A485B5851E
:101AB00084179507A607B70769F0C8010E94851229
:101AC000811108C081E090E0F8019383828380E077
:101AD00090E039C1610183C0D8015B968D919C91E2
:101AE0005C97FC01248121502A013B0139E0769466
:101AF0006794579447943A95D1F7722E74207A01DF
:101B0000F1E0FF22772009F476C080E092E08E19A0
:101B10009F0946018C159D0508F44C01D8015B9680
:101B20002D913C915C9716968D919D910D90BC9155
:101B3000A02D0297A109B109F901058404C0880FFD
:101B4000991FAA1FBB1F0A94D2F746855785608943
:101B50007189840F951FA61FB71F9C01AD01270D2A
:101B6000311D411D511D29013A01811432E09306B6
:101B700009F088C08091030190910401A0910501B2
:101B8000B091060184159505A605B70559F48FEFA8
:101B90009FEFDC018093030190930401A093050162
:101BA000B09306019501B301A20180912C0290919E
:101BB0002D020E94810C882309F484CF9EEFB91A6C
:101BC000C818D908F80182859385A485B585880D44
:101BD000991DA11DB11D82879387A487B587D80160
:101BE0001A964D915D916D917C911D97C114D10410
:101BF00009F072CF87C0E114F10409F086CF169680
:101C00004D915D916D917C9119974115510561053B
:101C1000710559F457968D919D910D90BC91A02D11
:101C20000097A105B10541F521C09E012F5F3F4FEF
:101C30000E940112882309F44BCF89819A81AB81DC
:101C4000BC81F801238D348DF9012789203129F0D9
:101C500048EF5FEF6FEF7FE004C048EF5FEF60E0B9
:101C600070E084179507A607B70730F0C8010E94F7
:101C7000201481114ACF26CFF80186839783A0874D
:101C8000B18743CFE114F10429F5D8011A964D919B
:101C90005D916D917C911D9753968D919D910D90C5
:101CA000BC91A02D481759076A077B0798F00E943E
:101CB000DD10882309F406CF4092030150920401FD
:101CC00060920501709206018091B7028160809355
:101CD000B70208C041E0C301B2010E941811882375
:101CE00009F4F0CED501F701E854FD4FCF01880D7E
:101CF000991DE817F90719F02D912193FACFA80C37
:101D0000B91C5ECF53968D919D910D90BC91A02DE5
:101D100084179507A607B70740F4F801438B548B47
:101D2000658B768B848180688483D80114968C912E
:101D300083FD02C0C10107C0C8010E94EC0C8823CA
:101D400009F4C0CEF7CF0F900F900F900F90DF9156
:101D5000CF911F910F91FF90EF90DF90CF90BF90A8
:101D6000AF909F908F907F906F905F904F903F903B
:101D70002F900895CF93DF931F92CDB7DEB769837D
:101D800041E050E0BE016F5F7F4F0E942A0D0F902F
:101D9000DF91CF910895CF93DF93EC016A8B80910F
:101DA000030190910401A0910501B09106018E8775
:101DB0009F87A88BB98B80E2689FF0011124E854BB
:101DC000FD4F4489558960E070E0BA0155274427EA
:101DD0004F8B588F698F7A8F828D938DA0E0B0E002
:101DE000482B592B6A2B7B2B4F8B588F698F7A8FFF
:101DF0008385887151F4848D958DA68DB78D8B8BDD
:101E00009C8BAD8BBE8B81E00EC0803111F080E0E9
:101E100015C09E012D5E3F4F8B8D9C8D0E9423151A
:101E20008823A9F384E08D8381E08C831E821F8246
:101E3000188619861A861B861C861D86DF91CF910F
:101E400008952091CD053091CE052115310541F041
:101E5000AB01BC01C9010E94851291E0811101C052
:101E600090E0892F0895E091CD05F091CE0530974F
:101E700029F08581882311F081E008950895AF92BB
:101E8000BF92CF92DF92EF92FF920F931F93CF9367
:101E9000DF93CDB7DEB72B970FB6F894DEBF0FBE3A
:101EA000CDBF7C01CE0101966C01FC0190E28BE07C
:101EB0008C0D91938E13FDCFDA0120E037E09D91D8
:101EC000992339F19E3219F0E4EAF0E00AC03A3081
:101ED00009F4AAC028E03AE0F2CF3196891709F454
:101EE000A3C084918111F9CF321708F49DC08FED02
:101EF000890F8E3508F098C081E0820FF601E20F5D
:101F0000F11D2FE9290F2A3108F490529083282FD0
:101F1000D6CF8981803209F487C08B01FB01838D84
:101F2000948DF701948F838FFB01168217821086A0
:101F300011861286138614861586A12CF8018285D7
:101F40009385A485B58543895489658976898417E5
:101F50009507A607B70708F067C025E0B695A795CF
:101F6000979587952A95D1F7F82FFF70BF2EF80126
:101F70008581823008F458C0C8010E941D0597FD74
:101F800053C0F80182859385A485B5854F96A11D20
:101F9000B11D82879387A487B587F0E2BF9EC001F9
:101FA0001124BC0168547D4F61157105E9F1FB01F5
:101FB00020812223B9F1253EE1F04BE050E0C6013B
:101FC0000E94461A892B09F0B9CF6B2DC7012B96B9
:101FD0000FB6F894DEBF0FBECDBFDF91CF911F913A
:101FE0000F91FF90EF90DF90CF90BF90AF900C9447
:101FF000CB0EA11014C0F701B28A40910301509199
:102000000401609105017091060146875787608B36
:10201000718BFC01E854FD4F8081882329F0AA24AC
:10202000A3948CCFAA2039F380E02B960FB6F894B6
:10203000DEBF0FBECDBFDF91CF911F910F91FF90FB
:10204000EF90DF90CF90BF90AF900895CF93DF9344
:10205000FC012581222311F080E049C0EC01809130
:1020600082058031C1F482E08583178A108E118E3B
:10207000128E8091830590918405A0E0B0E025E068
:10208000880F991FAA1FBB1F2A95D1F7838B948BAA
:10209000A58BB68B19C08032F9F683E08583409119
:1020A0008505509186056091870570918805478B5D
:1020B000508F618F728F9F012D5E3F4F8BE695E0B1
:1020C0000E942315882341F28BE695E09C8F8B8F2D
:1020D00081E08C831E821F82188619861A861B86D1
:1020E0001C861D861E861F86188A198A1A8ADF9109
:1020F000CF9108958091CD059091CE05009761F024
:102100000E94D1108091CD059091CE050E94A91911
:102110001092CE051092CD05089590E0FC01E05795
:10212000FF4F2491FC01E458FF4F8491882399F0DC
:1021300090E0880F991FFC01EE58FF4FA591B491D4
:10214000FC01E859FF4F859194918FB7F894EC9179
:10215000E22BEC938FBF08953FB7F8948091D4059C
:102160009091D505A091D605B091D70526B5A89B2D
:1021700005C02F3F19F00196A11DB11D3FBFBA2F19
:10218000A92F982F8827820F911DA11DB11DBC0179
:10219000CD0142E0660F771F881F991F4A95D1F73E
:1021A0000895CF93DF93EC010E94EC0C882311F08B
:1021B0001D8281E0DF91CF9108958091B70288233D
:1021C000A9F14091030150910401609105017091C2
:1021D000060128EB32E080912C0290912D020E94A2
:1021E000810C811102C080E008954091D805509182
:1021F000D9056091DA057091DB054115510561053E
:10220000710591F028EB32E080912C0290912D0223
:102210000E94810C882339F31092D8051092D905B9
:102220001092DA051092DB051092B70281E0089552
:102230008F929F92AF92BF92EF92FF920F931F9354
:10224000CF934B015C01C42F809103019091040155
:10225000A0910501B091060188159905AA05BB0555
:1022600001F10E94DD10811102C080E020C088EBE6
:10227000E82E82E0F82E00E012E020E030E0B50128
:10228000A40180912C0290912D020E94ED0B8823D5
:1022900061F38092030190920401A0920501B09233
:1022A00006018091B702C82BC093B70281E0CF919D
:1022B0001F910F91FF90EF90BF90AF909F908F90E4
:1022C00008954F925F926F927F928F929F92AF92FA
:1022D000BF92CF92DF92EF92FF920F931F93CF9313
:1022E000DF93EC016A017B0128013901423051057D
:1022F0006105710510F480E073C089859A85AB850E
:10230000BC850196A11DB11D84179507A607B707C7
:1023100090F38B889C88AD88BE888F89803129F4A2
:10232000BB27AF2D9E2D8D2D09C0DB01CA0147E0D3
:10233000B695A795979587954A95D1F7880E991EDA
:10234000AA1EBB1E8091030190910401A09105017A
:10235000B091060188169906AA06BB0679F48F8902
:102360008031A1F4DD24EE24FF24C601880F991FDB
:10237000FC01E854FD4F5182408219C040E0C50184
:10238000B4010E9418118111EACFB5CFE894C7F8C3
:10239000DD24EE24FF24C601880F991F880F991FA2
:1023A000FC01E854FD4F4082518262827382809129
:1023B000B70281608093B7028A89823080F08D8174
:1023C0009E81AF81B885880E991EAA1EBB1E809281
:1023D000D8059092D905A092DA05B092DB0581E08C
:1023E000DF91CF911F910F91FF90EF90DF90CF90F1
:1023F000BF90AF909F908F907F906F905F904F9025
:1024000008958F929F92AF92BF92CF92DF92EF92F8
:10241000FF920F931F93CF93DF93FC0181859285E9
:10242000A385B4850196A11DB11D84179507A60744
:10243000B70710F480E05CC083899489A589B689C8
:10244000C789C03129F4852E962EA72EBB2409C03A
:102450004A015B01C7E0B694A79497948794CA9504
:10246000D1F7E9016A017B018F01BC01CD01680D43
:10247000791D8A1D9B1D8090030190900401A090FE
:102480000501B0900601681579058A059B0599F448
:10249000F80187898031A9F4B701A601552766277D
:1024A0007727440F551FFA01E854FD4F8081918131
:1024B000A0E0B0E018C040E00E9418118111E8CF00
:1024C000B9CFB701A6014F77552766277727440F65
:1024D000551F440F551FFA01E854FD4F808191812B
:1024E000A281B381BF7088839983AA83BB8381E073
:1024F000DF91CF911F910F91FF90EF90DF90CF90E0
:10250000BF90AF909F908F9008958F929F92AF92BF
:10251000BF92CF92DF92EF92FF920F931F93CF93D0
:10252000DF93EC018D81811102C080E077C00B89BF
:102530001C892D893E890417150726073707A8F33C
:102540006A017B01823029F4CA86DB86EC86FD862F
:102550000DC0C114D104E104F10451F41E821F82A4
:10256000188619861A861B861C861D8681E056C031
:102570008A849B84AC84BD84EB8DFC8D258530E002
:10258000275F3F4FB501A40141505109610971090D
:10259000022E04C076956795579547950A94D2F711
:1025A000D701C6010197A109B10904C0B695A79545
:1025B000979587952A95D2F784179507A607B707A9
:1025C00020F089288A288B2849F44F89588D698DF5
:1025D0007A8D4E835F836887798704C0841B950B4F
:1025E000A60BB70B4C015D018E010A5F1F4F8114D2
:1025F0009104A104B10409F4A7CF4E815F816885DD
:10260000798598018B8D9C8D0E94011291E0891A29
:102610009108A108B1088111EACF87CFDF91CF914E
:102620001F910F91FF90EF90DF90CF90BF90AF90F0
:102630009F908F9008952F923F924F925F926F924A
:102640007F928F929F92AF92BF92CF92DF92EF9242
:10265000FF920F931F93CF93DF93EC016B014A011D
:102660008D81811103C08FEF9FEFD7C08C8180FFD8
:10267000FACF4B885C886D887E884A855B856C853F
:102680007D85C401A0E0B0E093018201041B150B1D
:10269000260B370B081719072A073B0718F44201C6
:1026A000841A950A54011E0126E0220E311CA11441
:1026B000B10409F47EC04A855B856C857D852A015D
:1026C00081E05822ED818A019B0189E036952795AA
:1026D000179507958A95D1F78B8D9C8DE23061F423
:1026E000FC01828D938DA48DB58DBC01CD01600F51
:1026F000711F821F931F3FC0FC0174807A94702267
:1027000041145104C9F4711017C0452B462B472BB7
:1027100049F48F89988DA98DBA8D8E839F83A88760
:10272000B9870AC04E815F816885798591010E94D1
:102730000112882309F497CFEB8DFC8D8E819F8148
:10274000A885B9850297A109B109058404C0880F3D
:10275000991FAA1FBB1F0A94D2F746855785608927
:102760007189840F951FA61FB71FBC01CD01670D8E
:10277000711D811D911D20E032E0241935093501BC
:102780002A153B0508F439012C8126FD04C061148B
:10279000F2E07F0681F40091030110910401209181
:1027A0000501309106016017710782079307B1F4A4
:1027B00002C0C40132C040E00E941811882309F40D
:1027C00052CFF201E854FD4FD601CF01860D971D7F
:1027D000E817F90789F021912D93FACF760183014B
:1027E0009201AB01BC0180912C0290912D020E94BC
:1027F000ED0B882309F437CFC60CD71C8A859B853F
:10280000AC85BD85860D971DA11DB11D8A879B874F
:10281000AC87BD87A618B7084ACFDF91CF911F912B
:102820000F91FF90EF90DF90CF90BF90AF909F906F
:102830008F907F906F905F904F903F902F90089572
:102840003F924F925F926F927F928F929F92AF9240
:10285000BF92CF92DF92EF92FF920F931F93CF938D
:10286000DF93CDB7DEB72C970FB6F894DEBF0FBE5F
:10287000CDBF5C01DC015B968D909C905C971696B9
:10288000CD90DD90ED90FC901997C114D104E10436
:10289000F10439F0BFEFCB1ADB0AEB0AFB0A312C4B
:1028A00007C0F401C080D180E280F38033243394E8
:1028B000F40181859285A385B4859C01AD012F5FCC
:1028C0003F4F4F4F5F4F29873A874B875C872601E1
:1028D00037011D821E821F821886F4018185928530
:1028E000A385B4852D813E814F81588528173907EE
:1028F0004A075B0708F063C089859A85AB85BC856C
:102900008C159D05AE05BF0550F482E0C82ED12C74
:10291000E12CF12C92E0492E512C612C712C9E015E
:102920002F5F3F4FB701A601C4010E940112882307
:1029300009F445C089819A81AB81BC81892B8A2B9E
:102940008B2B41F0260137019FEF491A590A690A7A
:10295000790A05C0C414D504E604F70491F02D816A
:102960003E814F8158852F5F3F4F4F4F5F4F2D83E3
:102970003E834F8358873FEFC31AD30AE30AF30A13
:10298000ACCF0FEF1FEF2FEF3FE0B301A201C40167
:102990000E946111882399F0D50116964D915D91A1
:1029A0006D917C911997411551056105710549F0AB
:1029B00093018201C4010E946111811102C080E073
:1029C0002AC0D50116964D925D926D927C92199710
:1029D000332051F0D301C2010196A11DB11DF401B4
:1029E00080839183A283B383F5018789908DA18D24
:1029F000B28D892B8A2B8B2B69F4D50157964D927A
:102A00005D926D927C925A9714968C91149780687F
:102A100014968C9381E02C960FB6F894DEBF0FBE0F
:102A2000CDBFDF91CF911F910F91FF90EF90DF907D
:102A3000CF90BF90AF909F908F907F906F905F905E
:102A40004F903F9008954F925F926F927F92AF9216
:102A5000BF92CF92DF92EF92FF920F931F93CF938B
:102A6000DF9300D000D0CDB7DEB78C0149835A8305
:102A70006B837C835901C12CD12C7601412C82E0DF
:102A8000582E612C712C49815A816B817C819E0169
:102A90002F5F3F4FC8010E940112882351F1D301DB
:102AA000C201F801058404C0880F991FAA1FBB1F2B
:102AB0000A94D2F7C80ED91EEA1EFB1E49815A811C
:102AC0006B817C818789803129F088EF9FEFAFEFA0
:102AD000BFE004C088EF9FEFA0E0B0E048175907BF
:102AE0006A077B0780F2F501C082D182E282F3821D
:102AF00081E00F900F900F900F90DF91CF911F9179
:102B00000F91FF90EF90DF90CF90BF90AF907F90AC
:102B10006F905F904F90089590E0FC01EC54FF4F50
:102B20003491FC01E057FF4F2491FC01E458FF4F22
:102B3000E491EE2309F43BC0332339F1333091F0B3
:102B400038F43130A9F0323001F584B58F7D12C0F0
:102B5000373091F03830A1F03430B9F480918000F2
:102B60008F7D03C0809180008F77809380000DC09F
:102B700084B58F7784BD09C08091B0008F7703C082
:102B80008091B0008F7D8093B000F0E0EE0FFF1FCA
:102B9000E859FF4FA591B4918FB7F894EC9161116A
:102BA00003C020952E2301C02E2B2C938FBF089598
:102BB0008F929F92AF92BF92CF92DF92EF92FF924D
:102BC0006B017C010E94AC104B015C01C114D1046B
:102BD000E104F104F1F00E94AC10DC01CB01881992
:102BE0009909AA09BB09883E9340A105B10570F374
:102BF00021E0C21AD108E108F10888EE880E83E0CE
:102C0000981EA11CB11CC114D104E104F10419F7F0
:102C1000DDCFFF90EF90DF90CF90BF90AF909F906F
:102C20008F9008952FB7F8946091D0057091D105D9
:102C30008091D2059091D3052FBF08951F920F92D6
:102C40000FB60F9211242F933F938F939F93AF93BF
:102C5000BF938091D0059091D105A091D205B091FC
:102C6000D3053091CF0523E0230F2D3720F40196B3
:102C7000A11DB11D05C026E8230F0296A11DB11D9F
:102C80002093CF058093D0059093D105A093D205D2
:102C9000B093D3058091D4059091D505A091D60528
:102CA000B091D7050196A11DB11D8093D4059093D5
:102CB000D505A093D605B093D705BF91AF919F914D
:102CC0008F913F912F910F900FBE0F901F901895ED
:102CD000789484B5826084BD84B5816084BD85B5F7
:102CE000826085BD85B5816085BD80916E00816003
:102CF00080936E00109281008091810082608093A9
:102D000081008091810081608093810080918000AA
:102D10008160809380008091B10084608093B100D5
:102D20008091B00081608093B00080917A008460CF
:102D300080937A0080917A00826080937A008091FB
:102D40007A00816080937A0080917A008068809315
:102D50007A001092C10084E00E948D1085E00E94EC
:102D60008D1086E00E948D1087E00E948D1061E03A
:102D700084E00E948C1561E085E00E948C1561E082
:102D800086E00E948C1561E087E00E948C1589E046
:102D90008093B80480E18093BA008FE890E090932C
:102DA0002802809327028BE990E09093260280937B
:102DB00025021092240210922302109222021092F5
:102DC00021021092200281E080931F0210921E02C5
:102DD00061E082E10E948C1561E083E10E948C1524
:102DE0008091B9008E7F8093B9008091B9008D7F6A
:102DF0008093B90088E48093B80085E48093BC0098
:102E000089E892E090932A0280932902E091D2040B
:102E1000F091D30482E08083E091CE04F091CF045E
:102E20001082E091D004F091D1048FEC8083109255
:102E3000DA04E091D604F091D70486E08083E09133
:102E4000D404F091D504808180618083E091D40422
:102E5000F091D504808188608083E091D404F09162
:102E6000D504808180688083E091D404F091D504FA
:102E700080818F7D808380918E05882321F089E871
:102E800095E00E94D11010926A0510926805109288
:102E900065051092640588E0809363050E94121610
:102EA000EB01809163050E948D1061E080916305C4
:102EB0000E948C151FB7F89480912B02811124C0B9
:102EC000E6E8F0E08491EAE9F0E09491E82FF0E0A0
:102ED000EE0FFF1FEE58FF4FA591B491EC91E9233F
:102EE00021F461E08AE00E948C158AE00E948D1036
:102EF0008CB580618CBD8CB580648CBD8DE00E94EA
:102F00008D108BE00E948D1080912B028F5F80933B
:102F10002B021FBF82E58093C0041092C1048091F0
:102F2000C0049091C1040E94720B1AE08FEF0E94BE
:102F3000330B1150D9F78FE595E00E94750B20E017
:102F400030E0A90160E08FE595E00E948B0B182F1F
:102F500080936905813049F00E9412166C1B7D0B2D
:102F6000613D774060F381E054C02AEA31E040E0FF
:102F700050E068E08FE595E00E948B0B82FF03C074
:102F800010936A050EC014E00E943A0B8093690505
:102F90001150D1F78A3A11F082E03BC082E0809371
:102FA0006A0580916A05823021F0C12CD12C76010E
:102FB00005C0C12CD12CE12C80E4F82E20E030E0BB
:102FC000A90167E38FE595E00E948B0BA7019601AD
:102FD00069E28FE595E00E948B0B80936905882359
:102FE00049F00E9412166C1B7D0B613D774030F357
:102FF00088E00FC080916A05823001F520E030E062
:10300000A9016AE38FE595E00E948B0B882341F0CC
:1030100086E0809364058FE595E00E94280B28C028
:103020000E943A0B807C803C19F483E080936A050F
:103030000E943A0B0E943A0B0E943A0B8FE595E0F2
:103040000E94280B80E58093C0041092C10481E0A7
:103050000E94F309882339F089E895E00E94261040
:10306000882331F00DC080E00E94F3098111F4CF74
:1030700088E891E00E94E1098FE691E00E94E10971
:10308000C1E0C093B0028BE791E00E94580660E473
:1030900077E78BE190E00E94D8150E949601F1CF6E
:1030A000E0ECF4E080E580831182E2ECF4E013824E
:1030B000128288EE93E0A0E0B0E084839583A6833B
:1030C000B78323E131E03183208325EC30E035877D
:1030D000248724EC30E03787268720EC30E0318BE2
:1030E000208B21EC30E0338B228B22EC30E0358BCF
:1030F000248B26EC30E0378B268B118E128E138EAC
:10310000148EEFE5F5E0158216821186138642E0F3
:1031100050E060E070E0448755876687778713A2A8
:1031200015A614A625E231E033A722A717A6E8EAE0
:10313000F5E01382128284839583A683B78321E30B
:1031400031E031832083E4EBF5E013821282848343
:103150009583A683B78383E491E091838083128E65
:10316000118E14860895A1E21A2EAA1BBB1BFD0125
:103170000DC0AA1FBB1FEE1FFF1FA217B307E40756
:10318000F50720F0A21BB30BE40BF50B661F771FAE
:10319000881F991F1A9469F760957095809590958E
:1031A0009B01AC01BD01CF010895052E97FB1EF4D4
:1031B00000940E94EC1857FD07D00E94B31807FC3A
:1031C00003D04EF40C94EC18509540953095219511
:1031D0003F4F4F4F5F4F0895909580957095619543
:1031E0007F4F8F4F9F4F08950E940519A59F900D07
:1031F000B49F900DA49F800D911D11240895EE0F92
:10320000FF1F0590F491E02D0994A29FB001B39F98
:10321000C001A39F700D811D1124911DB29F700DDF
:10322000811D1124911D0895CF93DF938230910564
:1032300010F482E090E0E091DE05F091DF0520E0FF
:1032400030E0C0E0D0E0309711F140815181481763
:103250005907C0F04817590761F48281938120977C
:1032600019F09B838A832BC09093DF058093DE0542
:1032700026C02115310519F04217530718F49A0199
:10328000BE01DF01EF010280F381E02DDCCF2115CB
:10329000310509F1281B390B2430310590F41296C1
:1032A0008D919C9113976115710521F0FB0193831A
:1032B000828304C09093DF058093DE05FD01329682
:1032C00044C0FD01E20FF31F819391932250310915
:1032D0002D933C933AC02091DC053091DD05232BE2
:1032E00041F42091090130910A013093DD052093CA
:1032F000DC0520910701309108012115310541F4C9
:103300002DB73EB740910B0150910C01241B350B9A
:10331000E091DC05F091DD05E217F307A0F42E1B28
:103320003F0B2817390778F0AC014E5F5F4F241729
:10333000350748F04E0F5F1F5093DD054093DC05C5
:103340008193919302C0E0E0F0E0CF01DF91CF9153
:1033500008950F931F93CF93DF93009709F48CC0C8
:10336000FC013297138212820091DE051091DF0575
:103370000115110581F420813181820F931F209165
:10338000DC053091DD052817390779F5F093DD0567
:10339000E093DC0571C0D80140E050E0AE17BF07F4
:1033A00050F412962D913C911397AD0121153105E2
:1033B00009F1D901F3CF9D01DA01338322836081C2
:1033C0007181860F971F8217930769F4EC0128819A
:1033D0003981260F371F2E5F3F4F318320838A812B
:1033E0009B8193838283452B29F4F093DF05E0933F
:1033F000DE0542C01396FC93EE931297ED014991BE
:1034000059919E01240F351FE217F30771F4808153
:103410009181840F951F029611969C938E938281C1
:10342000938113969C938E931297E0E0F0E0D8017D
:1034300012968D919C911397009719F0F8018C01C9
:10344000F6CF8D919C9198012E5F3F4F820F931F75
:103450002091DC053091DD052817390769F4309794
:1034600029F41092DF051092DE0502C01382128249
:103470001093DD050093DC05DF91CF911F910F9133
:10348000089581E090E0F8940C946D1AFB01DC0142
:1034900004C08D910190801921F441505040C8F72B
:1034A000881B990B0895FC018191861721F08823D0
:1034B000D9F7992708953197CF010895FB01DC01D1
:1034C0004150504048F001900D920020C9F701C0D2
:0E34D0001D9241505040E0F70895F894FFCF50
:1034DE00010160FFFFFFFF0000E00580000000001B
:1034EE000000002D01A001C5007401F600D400E813
:1034FE000000000000BA0EA0018602850200000046
:10350E000074026002860234025802440235020040
:10351E000000001E02460386023E03FD0134053EF6
:10352E0005000000003C03A001860285023C033C1E
:10353E00033C03000000003C03A001860285020D3F
:10354E000A00746573742E776176007477696C69FE
:10355E006768742E776176005344206661696C004B
:02356E002F002C
:00000001FF
