:100000000C94D5000C94FD000C94FD000C94FD00A4
:100010000C94FD000C94FD000C94FD000C94FD006C
:100020000C94FD000C94FD000C94FD000C94FD005C
:100030000C94FD000C94FD000C94FD000C94FD004C
:100040000C94AE060C94FD000C94FD000C94FD0085
:100050000C94FD000C94FD000C94FD000C94FD002C
:100060000C94FD000C94FD000000FF0080808000D7
:10007000FF000000000000000000FF008080800002
:10008000FF000000000000000000FF000000FF0073
:100090008080800080808000FF000000FF00000062
:1000A0000000000000000000AB0055007C00840050
:1000B0004B00B5001B00E5000017E8000047B80042
:1000C0000077AB0000ABAB000055AB000022DD00B9
:1000D0000E00F2003E00C20071008F00A1005F0020
:1000E000D0002F00F9070000FF0000008B00000087
:1000F0008B0000008B0000008B0000008B000000D4
:100100008B0000008B000000FF0000008B0000004F
:10011000EBCE8700EBCE8700E6D8AD00FFFFFF00F7
:10012000E6D8AD00EBCE87000000FF000000000025
:100130000055AB000000000000ABAB000000000069
:1001400000FF00000000000055AB000000000000B0
:10015000FF00000000000000AB00550000000000A0
:100160005500AB00000000000000FF00002AD50091
:100170000055AB00007FAB0000ABAB0000D55600D4
:1001800000FF00002AD5000055AB0000AA56000071
:10019000FF000000D5002A00AB00550081007F0061
:1001A0005500AB002B00D500F80611241FBECFEF81
:1001B000D8E0DEBFCDBF11E0A0E0B1E0E8E4F4E1BB
:1001C00002C005900D92A632B107D9F723E0A6E24E
:1001D000B1E001C01D92AA35B207E1F710E0C5ED0C
:1001E000D0E004C02197FE010E94080AC43DD10757
:1001F000C9F70E9408070C94220A0C940000EF92A1
:10020000FF920F931F93CF93DF93EC0190912701FF
:100210009F5F292F27702093270190FF02C090E84D
:1002200001C090E021FD9064247009F0906220E10B
:10023000290FFE013C967E018FE0E80EF11C00E0E4
:1002400011E06191662331F070E0C8010E948D09D0
:100250006F5F01C060E0DF0114976C93322F369F0F
:10026000030E30E0311D1124CF010797311103C077
:10027000EC01188203C03150EC013883662311F081
:1002800061506C93EE15FF05E1F6DF91CF911F9160
:100290000F91FF90EF90089580E991E00895559AAD
:1002A00008950F931F93CF93DF93CDB7DEB7629777
:1002B0000FB6F894DEBF0FBECDBF8C01F901DC0193
:1002C0001C968C917A8369835C834B835E834D8318
:1002D00090819D8791819E8792819F87813029F4AB
:1002E000CE0101960E94FF0006C01C861B861A865E
:1002F000198618861F8283E0888B1A8A198AD8018A
:10030000ED91FC910484F585E02DBE016F5F7F4F78
:10031000C801099562960FB6F894DEBF0FBECDBF37
:10032000DF91CF911F910F9108950F931F93CF935A
:10033000DF93CDB7DEB762970FB6F894DEBF0FBE7E
:10034000CDBF8C01F901DC011C968C917A83698305
:100350005C834B835E834D8390819D8791819E87D3
:1003600092819F87813029F4CE0101960E94FF007F
:1003700006C01C861B861A86198618861F82188A54
:100380001A8A198AD801ED91FC910484F585E02D33
:10039000BE016F5F7F4FC801099562960FB6F89452
:1003A000DEBF0FBECDBFDF91CF911F910F9108959A
:1003B00080E090E00895FC01858596850895CF93AF
:1003C000DF9300D000D000D0CDB7DEB7AB011C82E8
:1003D0001D821E82DC01ED91FC910190F081E02DE7
:1003E00019821A821B829E012F5F3F4FBE016C5FF4
:1003F0007F4F099526960FB6F894DEBF0FBECDBF8E
:10040000DF91CF9108950E941D0A4F925F926F92E3
:100410007F928F92AF92BF92CF92EF92FF920F9303
:100420001F93CF93DF933C01EB010E943305F3014F
:1004300027853089621B730B6A307105B0F3F8941D
:10044000E881F9815BB150628BB18F7D8BB96A8590
:100450009F81262F291B922F2F83BF844A805B8088
:100460007D85FC84EE847F5FF394E3943E81488530
:10047000A984CB841181D20120E0C32F022F322F17
:100480003181112788943111390F08F43FEF91958C
:10049000889470FD130F1795889471FD130F1795AD
:1004A000889472FD130F1795889473FD130F179599
:1004B000889474FD130F1795889475FD130F179585
:1004C000889476FD130F1795889477FD130F179571
:1004D0008894232F7111212F960F122F002C5BB9B6
:1004E00000C000C017FF8BB930812227889400C05C
:1004F000002C8BB931113C0F00C0002C5BB900C03F
:1005000000C016FF8BB908F43FEFC195889400C076
:10051000002C8BB9F0FC230F00C0002C5BB900C08D
:1005200000C015FF8BB927958894F1FC230F00C0FC
:10053000002C8BB92795889400C0002C5BB900C0B3
:1005400000C014FF8BB9F2FC230F2795889400C0DC
:10055000002C8BB9F3FC230F00C0002C5BB900C04A
:1005600000C013FF8BB927958894F4FC230F00C0BB
:10057000002C8BB92795889400C0002C5BB900C073
:1005800000C012FF8BB9F5FC230F2795889400C09B
:10059000002C8BB9F6FC230F00C0002C5BB900C007
:1005A00000C011FF8BB927958894F7FC230F00C07A
:1005B000002C8BB92795889400C0002C5BB900C033
:1005C00000C010FF8BB9132FF110122FCA0D00C0FD
:1005D000002C8BB900C000C0002C5BB900C000C06B
:1005E00017FF8BB932812227889400C0002C8BB969
:1005F0003111340F00C0002C5BB900C000C016FFE1
:100600008BB908F43FEFEB0DF11D00C0002C8BB946
:10061000E0FC230F00C0002C5BB900C000C015FF38
:100620008BB927958894E1FC230F00C0002C8BB96F
:100630002795889400C0002C5BB900C000C014FF4F
:100640008BB9E2FC230F2795889400C0002C8BB94E
:10065000E3FC230F00C0002C5BB900C000C013FFF7
:100660008BB927958894E4FC230F00C0002C8BB92C
:100670002795889400C0002C5BB900C000C012FF11
:100680008BB9E5FC230F2795889400C0002C8BB90B
:10069000E6FC230F00C0002C5BB900C000C011FFB6
:1006A0008BB927958894E7FC230F00C0002C8BB9E9
:1006B0002795889400C0002C5BB900C000C010FFD3
:1006C0008BB9132FE110122F419500C0002C8BB96C
:1006D0004C0D00C000C05BB900C000C017FF8BB953
:1006E00031812227889400C0002C8BB93111390F39
:1006F00000C0002C5BB900C000C016FF8BB908F425
:100700003FEF9195889400C0002C8BB970FD230FAA
:1007100000C0002C5BB900C000C015FF8BB9279545
:10072000889471FD230F00C0002C8BB92795889405
:1007300000C0002C5BB900C000C014FF8BB972FD73
:10074000230F2795889400C0002C8BB973FD230FCD
:1007500000C0002C5BB900C000C013FF8BB9279507
:10076000889474FD230F00C0002C8BB927958894C2
:1007700000C0002C5BB900C000C012FF8BB975FD32
:10078000230F2795889400C0002C8BB976FD230F8A
:1007900000C0002C5BB900C000C011FF8BB92795C9
:1007A000889477FD230F00C0002C8BB9279588947F
:1007B00000C0002C5BB900C000C010FF8BB9132F24
:1007C0007111122F960F00C0002C8BB9119709F0F0
:1007D00086CE20EE31E0D2010E94E209DC01CB019D
:1007E000F4E0B695A79597958795FA95D1F720E00F
:1007F00030E0A9016AE9469E040C411D569E400D59
:10080000511D1124450D511D840F951FA11DB11DB2
:10081000893E43E09407A105B10508F434C0885E21
:100820009340A109B10942E0B695A79597958795A0
:100830004A95D1F747E0849F080E211D949F200D13
:10084000311D1124290F311D6091260170E0860FA2
:10085000971F820F931F40912801509129016091A9
:100860002A0170912B01292F3327420F531F611D3D
:10087000711D409328015093290160932A017093C0
:100880002B018093260178940E943305F301708B2D
:100890006787DF91CF911F910F91FF90EF90CF90DD
:1008A000BF90AF908F907F906F905F904F90089522
:1008B00080E090E0FC01E75CFE4F10821182128222
:1008C000039680339105B1F78FEF809339018093C0
:1008D0003A0180933B0180934501809346018093C8
:1008E000470180935101809352018093530180937B
:1008F0005D0180935E0180935F01089520E330E005
:1009000049E351E0FC01DA0120FF05C002C001907B
:100910000D9201900D922250D0F73040C0F7CA01DD
:10092000089520E030E0FC01459155916591749166
:10093000F901E75CFE4F60835183428304962D5F8B
:100940003F4F2033310579F789E391E00895FB01AA
:10095000DC014C9112966C91242F2F71220F220FE3
:10096000822F880F35E5282F239F020E20E0211DBE
:100970001124542F5074942F907247FD21C05111AF
:100980000BC0911104C0822F8095422F11C045E504
:10099000420F30E02BEA34C091110DC0382F4AEAE3
:1009A000349F030E30E0311D11248BEA831B420F6C
:1009B000282F30E025C080E0422F4095322F0FC015
:1009C000511112C091110DC0282F3AEA239F020E37
:1009D00020E0211D11244BEA421B35E5320F20E0B7
:1009E0000FC0322F30950BC0911104C085E5820FE6
:1009F0003BEA03C08AEA820F90E0321B282F40E0D6
:100A00006F3F09F420C050E0662321F0669F512D0E
:100A100009F05F5F5523A1F0222321F0259F020EEC
:100A200020E0211D442321F0459F040E40E0411D9C
:100A3000332321F0359F030E30E0311D112403C014
:100A400030E040E020E020834183328308952FB7D7
:100A5000F894609128017091290180912A01909168
:100A60002B012FBF08953FB7F89480914A039091CE
:100A70004B03A0914C03B0914D0326B5A89B05C034
:100A80002F3F19F00196A11DB11D3FBFBA2FA92F0D
:100A9000982F8827820F911DA11DB11DBC01CD018A
:100AA00042E0660F771F881F991F4A95D1F7089576
:100AB0003F924F925F926F927F928F929F92AF92EE
:100AC000BF92CF92DF92EF92FF920F931F93CF933B
:100AD000DF9300D01F92CDB7DEB7F82E80912F01A3
:100AE00090913001A0913101B0913201892B8A2B74
:100AF0008B2BE9F00E9433050091560310915703A8
:100B00002091580330915903DC01CB01801B910BDC
:100B1000A20BB30B00912F011091300120913101F4
:100B20003091320180179107A207B307B8F20E94F3
:100B30003305609356037093570380935803909343
:100B40005903E0913701F0913801309759F0409105
:100B500033015091340160913501709136018F2D30
:100B60000995F82E00915403109155034F2C512CE8
:100B7000612C712C0115110509F461C0D8011C9676
:100B8000EC901C9780912D0190912E018436910557
:100B900010F41C961C92D801ED91FC91A280B380B8
:100BA00019821A821B82F11014C0F80145855685FE
:100BB000628173819E012F5F3F4FC801F501099546
:100BC000D8011C96EC921C9714960D911C911597C8
:100BD000D1CFF8013996CE0101966C0148019CE015
:100BE000890E911CDF0113973C902191332001F174
:100BF0002223F1F0822F90E0A0E0B0E09C01AD0153
:100C00002F5F3F4F4F4F5F4FC301B2010E947D09DD
:100C10009B01AC01832D90E0A0E0B0E0BC01CD01D0
:100C20006F5F7F4F8F4F9F4F0E947D09D6018C933E
:100C3000BFEFCB1ADB0AE815F905A1F6B6CF809114
:100C40005203909153038C010F5F1F4F1093530376
:100C50000093520349979CF10E9427054B015C01C8
:100C600088EE93E0089FB001099F700D189F700DEA
:100C70001124072E000C880B990BC0904E03D090C6
:100C80004F03E0905003F0905103A50194012C19FB
:100C90003D094E095F090E94A10930932E0120935E
:100CA0002D0110925303109252030E942705609366
:100CB0004E0370934F0380935003909351030F9012
:100CC0000F900F90DF91CF911F910F91FF90EF90B8
:100CD000DF90CF90BF90AF909F908F907F906F905C
:100CE0005F904F903F9008958F929F92AF92BF92E6
:100CF000CF92DF92EF92FF926B017C010E9433054D
:100D00004B015C01C114D104E104F104F1F00E9433
:100D10003305DC01CB0188199909AA09BB09883E72
:100D20009340A105B10570F321E0C21AD108E10892
:100D3000F10888EE880E83E0981EA11CB11CC11436
:100D4000D104E104F10419F7DDCFFF90EF90DF90BB
:100D5000CF90BF90AF909F908F9008951F920F9269
:100D60000FB60F9211242F933F938F939F93AF93BE
:100D7000BF938091280190912901A0912A01B091FF
:100D80002B013091490323E0230F2D3720F40196E6
:100D9000A11DB11D05C026E8230F0296A11DB11D9E
:100DA000209349038093280190932901A0932A015D
:100DB000B0932B0180914A0390914B03A0914C0377
:100DC000B0914D030196A11DB11D80934A039093EC
:100DD0004B03A0934C03B0934D03BF91AF919F91F0
:100DE0008F913F912F910F900FBE0F901F901895EC
:100DF000ECE2F1E08FEF8083128211821486138679
:100E00008FEF9FEFDC0187839087A187B2870895DA
:100E1000CF93DF93CDB7DEB7E6970FB6F894DEBF7A
:100E20000FBECDBF789484B5826084BD84B58160E7
:100E300084BD85B5826085BD85B5816085BD8091A5
:100E40006E00816080936E0010928100809181001D
:100E50008260809381008091810081608093810015
:100E6000809180008160809380008091B1008460D7
:100E70008093B1008091B00081608093B000809138
:100E80007A00846080937A0080917A0082608093F7
:100E90007A0080917A00816080937A0080917A0054
:100EA000806880937A001092C10068EB7BE080E05C
:100EB00090E00E94740680917C01811145C01092DF
:100EC0006E0110926D018FEF80937101809372011A
:100ED00080937301809374018093750180937601F0
:100EE00081E080937701109279011092780110923D
:100EF000700110926F018091540390915503892BDA
:100F000031F48BE691E09093550380935403E09184
:100F10006901F0916A01309721F08BE691E09583A9
:100F200084838BE691E090936A018093690110922B
:100F30007B0110927A0187E191E090936C0180939C
:100F40006B0181E080937C01E0916B01F0916C0179
:100F50000480F581E02D8BE691E0099584E891E02D
:100F600090936E0180936D0186E990E090937901F2
:100F700080937801E0916B01F0916C010284F3851C
:100F8000E02D8BE691E00995009729F19C0140E066
:100F900050E060E472E48FE090E00E94C309722F99
:100FA000632F00912F011091300120913101309178
:100FB0003201872F962FDA0180179107A207B30716
:100FC00010F4D901C80180932F0190933001A093B0
:100FD0003101B09332018FEF8093710180EB8093E8
:100FE000720180EF8093730180E480932C0188E686
:100FF00091E00E94910481E090E0909347038093F8
:1010000046032CE3822E912CA12CB12C9E012F5F44
:101010003F4F790101E010E0DD24DA941E0131E355
:10102000230E311C0E94270528EE33E040E050E0FB
:101030000E94A109CA01B901A50194010E94A10958
:1010400090910201961709F4D5C0609302016111D5
:1010500003C088E691E0C8C06A3019F488E291E0E4
:10106000B8C06F3019F488E291E0BEC0643109F075
:1010700064C080EC8983DA82DB82BE016C5C7F4FC6
:10108000C7010E94A70480E68983DA82DB82B1016E
:10109000C7010E94A70459A959834AA94A833BA9B9
:1010A0003B835C834D833E831F82188619861A8694
:1010B0001B861C862CA92D879DA99E878EA98F87AC
:1010C000288B998B8A8B1B8A1C8A1D8A1E8A1F8AF1
:1010D000188E598F4A8F3B8F5C8F4D8F3E8F1F8E9E
:1010E00018A219A21AA21BA21CA22DA39EA38FA311
:1010F00028A799A78AA71BA61CA61DA61EA61FA6E1
:1011000018AA49E3E41641E0F40629F020F0C701EB
:101110000E947E046BC080E390E029E631E0F1019B
:10112000D90180FF05C002C002900E9202900E927B
:101130008250D0F79040C0F759C0693191F599E3DA
:10114000692E91E0792E209100013091010145E056
:1011500058E0249FC001259F900D349F900D1124CD
:10116000875E994C849F9001859F300D949F300D30
:101170001124275E394C3093010120930001230F85
:101180002983DA82890F8B83B301C7010E94A704E8
:1011900053E0650E711C89E6681681E0780699F6C1
:1011A00025C06E3119F40E94580415C0633219F439
:1011B0000E9458041BC0683219F488EE90E014C0F5
:1011C0006D3219F488EA90E00FC0623349F488E682
:1011D00090E00E94910410924703109246030AC0C7
:1011E000673341F488E690E00E949104109347032E
:1011F000009346033091480321E0230F20934803D6
:10120000A6E8B1E083EC782E730E809146039091AE
:101210004703622F62956F70422F4F70E62FEE0FDB
:10122000E60FF0E0E75CFE4F442319F071E0892BF4
:1012300009F470E0508191818281772309F42DC0F7
:101240006F3011F0339602C0E9E3F1E04295407F40
:10125000742F70956081579F050E50E0511D649F5B
:10126000060E60E0611D560F6181392F379F030E16
:1012700030E0311D932F649F060E60E0611D960FD4
:101280006281382F379F030E30E0311D832F649F1A
:10129000060E60E0611D860F1124FD013297508318
:1012A000319690838C932D5F13962711AECF80914A
:1012B0002C010E9458050E9427052B013C0161E08A
:1012C00070E080E090E00E94740680912C010E9402
:1012D00058050E942705DC01CB0184199509A60950
:1012E000B7090A97A105B10550F380E090E0892B7A
:1012F00009F498CE0E9400008DCEDB018F939F935E
:101300000E94E909BF91AF91A29F800D911DA39FFB
:10131000900DB29F900D1124089597FB072E16F49F
:10132000009407D077FD09D00E94F40907FC05D08E
:101330003EF4909581959F4F0895709561957F4FEC
:101340000895A1E21A2EAA1BBB1BFD010DC0AA1F06
:10135000BB1FEE1FFF1FA217B307E407F50720F01E
:10136000A21BB30BE40BF50B661F771F881F991F99
:101370001A9469F760957095809590959B01AC01E2
:10138000BD01CF010895052E97FB1EF400940E9425
:10139000DA0957FD07D00E94A10907FC03D04EF4DB
:1013A0000C94DA0950954095309521953F4F4F4F59
:1013B0005F4F089590958095709561957F4F8F4F01
:1013C0009F4F08950E940E0AB7FF0895821B930B4A
:1013D00008950E940E0AA59F900DB49F900DA49FA2
:1013E000800D911D11240895AA1BBB1B51E107C05C
:1013F000AA1FBB1FA617B70710F0A61BB70B881FA5
:10140000991F5A95A9F780959095BC01CD01089533
:10141000EE0FFF1F0590F491E02D0994A29FB001FB
:10142000B39FC001A39F700D811D1124911DB29F18
:10143000700D811D1124911D089581E090E0F894B4
:081440000C94220AF894FFCF7E
:1014480039056300000000030203020302DF01DB29
:1014580001D80100000000950151014F01DF01DBB7
:06146800014C0105020029
:00000001FF
