:100000000C9465000C948D000C948D000C948D0064
:100010000C948D000C948D000C948D000C948D002C
:100020000C948D000C948D000C945E110C948D003A
:100030000C948D000C94EB100C948D000C948D009E
:100040000C94D2010C948D000C9442020C941C026E
:100050000C948D000C948D000C948D000C948D00EC
:100060000C9474020C948D00000000080002010042
:100070000003040700000000000000000000000072
:10008000250028002B0000000000240027002A0083
:10009000040404040404040402020202020203032E
:1000A0000303030301020408102040800102040836
:1000B00010200102040810207C3C3E5E2B3D3F2FA7
:1000C0005B5D3B2C2A225C00641711241FBECFEF1E
:1000D000D8E0DEBFCDBF11E0A0E0B1E0E0EFF2E399
:1000E00002C005900D92A838B107D9F725E0A8E81D
:1000F000B1E001C01D92A63DB207E1F710E0C5E6F0
:10010000D0E004C02197FE010E941318C436D10725
:10011000C9F70E9483150C9476190C940000FC0119
:10012000538D448D252F30E0842F90E0821B930B5C
:10013000541710F0CF96089501970895FC01918D02
:10014000828D981761F0828DDF01A80FB11D5D9639
:100150008C91928D9F5F9F73928F90E008958FEFA7
:100160009FEF0895FC01918D828D981731F0828D5B
:10017000E80FF11D858D90E008958FEF9FEF0895B2
:10018000FC01918D228D892F90E0805C9F4F821B16
:1001900091098F739927089583EC94E00E94C00021
:1001A00021E0892B09F420E0822F0895FC01848D41
:1001B000DF01A80FB11DA35ABF4F2C91848D90E091
:1001C00001968F739927848FA689B7892C93A0896C
:1001D000B1898C9180648C93938D848D981306C023
:1001E0000288F389E02D80818F7D80830895EF92CE
:1001F000FF920F931F93CF93DF93EC0181E0888FE1
:100200009B8D8C8D981305C0E889F989808185FDC7
:1002100024C0F62E0B8D10E00F5F1F4F0F731127B8
:10022000E02E8C8DE8120CC00FB607FCFACFE889DF
:10023000F989808185FFF5CFCE010E94D600F1CFEC
:100240008B8DFE01E80FF11DE35AFF4FF0820B8FFB
:10025000EA89FB898081806207C0EE89FF8960831B
:10026000E889F98980818064808381E090E0DF9172
:10027000CF911F910F91FF90EF900895CF93DF934F
:10028000EC01888D8823C9F0EA89FB89808185FD8E
:1002900005C0A889B9898C9186FD0FC00FB607FCEF
:1002A000F5CF808185FFF2CFA889B9898C9185FF30
:1002B000EDCFCE010E94D600E7CFDF91CF91089518
:1002C00080E090E0892B29F00E94CC0081110C94F1
:1002D00000000895CF92DF92EF92FF920F931F9349
:1002E000CF93DF936C017A018B01C0E0D0E0CE1593
:1002F000DF0589F0D8016D918D01D601ED91FC915A
:100300000190F081E02DC6010995892B11F47E0141
:1003100002C02196ECCFC701DF91CF911F910F91C1
:10032000FF90EF90DF90CF90089585ED8093BC0013
:100330008091BC0084FDFCCF1092F70108950E94CB
:1003400055193FB7F8948091020290910302A09151
:100350000402B091050226B5A89B05C02F3F19F0F5
:100360000196A11DB11D3FBFBA2FA92F982F882735
:10037000820F911DA11DB11DBC01CD0142E0660F90
:10038000771F881F991F4A95D1F708952FB7F894C2
:100390006091FE017091FF01809100029091010235
:1003A0002FBF08951F920F920FB60F9211242F9313
:1003B0003F938F939F93AF93BF938091FE01909152
:1003C000FF01A0910002B09101023091FD0123E0F4
:1003D000230F2D3720F40196A11DB11D05C026E87D
:1003E000230F0296A11DB11D2093FD018093FE01F4
:1003F0009093FF01A0930002B0930102809102024A
:1004000090910302A0910402B09105020196A11DF2
:10041000B11D8093020290930302A0930402B09353
:100420000502BF91AF919F918F913F912F910F90B6
:100430000FBE0F901F9018951F920F920FB60F923C
:1004400011242F933F934F935F936F937F938F93D9
:100450009F93AF93BF93EF93FF9383EC94E00E943D
:10046000D600FF91EF91BF91AF919F918F917F91B6
:100470006F915F914F913F912F910F900FBE0F9011
:100480001F9018951F920F920FB60F9211242F9361
:100490008F939F93EF93FF93E091D304F091D40453
:1004A0008081E091D904F091DA0482FD12C090813C
:1004B0008091DC048F5F8F732091DD04821751F0EF
:1004C000E091DC04F0E0ED53FB4F958F8093DC046A
:1004D00001C08081FF91EF919F918F912F910F909B
:1004E0000FBE0F901F9018951F920F920FB60F928C
:1004F00011242F933F934F935F936F937F938F9329
:100500009F93AF93BF93EF93FF938091B900887F40
:10051000803609F49CC068F5883209F45BC090F419
:10052000803109F454C038F4882309F4F6C08830C7
:1005300009F44DC0F6C0883109F44CC0803209F48A
:100540005DC0EFC0803409F468C048F4803309F41A
:1005500055C0883309F0E5C08093D101D8C08035FB
:1005600009F44FC0883509F45DC0883409F0D9C05A
:10057000D6C0883909F4C7C0A8F4883709F467C021
:1005800038F4883609F463C0803709F460C0C9C004
:10059000883809F4B8C0803909F45FC0803809F0A0
:1005A000C0C05BC0803B09F486C038F4803A09F4CF
:1005B00066C0883A09F47FC0B4C0803C09F4A7C083
:1005C000883C09F4A4C0883B09F48AC0AAC0809181
:1005D000F40110C09091F3018091F201981770F529
:1005E000E091F30181E08E0F8093F301F0E0EE5291
:1005F000FE4F80818093BB0085EC86C08093D10143
:100600008EC0E091F30181E08E0F8093F301809121
:10061000BB00F0E0EE52FE4F80839091F301809199
:10062000F2016EC0E091F30181E08E0F8093F3013F
:100630008091BB00F0E0EE52FE4F80838091F60186
:1006400081116DC081E08093F50184EA61C083E08F
:100650008093F7011092D001CFCF8091D0018032EA
:1006600008F051C0E091D00181E08E0F8093D0015D
:100670008091BB00F0E0E055FE4F8083BDCF85EC5C
:100680008093BC001092F7018091D001803230F449
:10069000E091D001F0E0E055FE4F10826091D00172
:1006A00070E0E091F801F091F90180EB91E009959B
:1006B0001092D00136C084E08093F7011092AF0110
:1006C0001092AE01E091FA01F091FB010995809141
:1006D000AE01811105C081E08093AE0110928E01C0
:1006E000E091AF0181E08E0F8093AF01F0E0E2571F
:1006F000FE4F80818093BB009091AF018091AE014D
:10070000981708F479CF85E88093BC000AC085EC7F
:100710008093BC001092F70104C01092D1010E9496
:100720009501FF91EF91BF91AF919F918F917F9133
:100730006F915F914F913F912F910F900FBE0F904E
:100740001F9018954091AE01262F30E0240F311DE7
:1007500021323105DCF42091F7012430C9F4FC0189
:1007600080E090E0861758F43091AE012191DC01D1
:10077000A257BE4FA30FB11D2C930196F3CF8091CA
:10078000AE01680F6093AE0180E0089581E00895A6
:1007900082E00895DC015996ED91FC915A973097CB
:1007A000B9F083899489A589B68942855385648582
:1007B0007585841B950BA60BB70B811520E8920756
:1007C000A105B10538F08FEF9FE7A0E0B0E00895F4
:1007D00080E090E00895CF93DF931F92CDB7DEB70E
:1007E0006983DC01ED91FC910280F381E02D41E011
:1007F00050E0BE016F5F7F4F09950F90DF91CF9161
:100800000895E0912602F0912702309729F0109286
:1008100089011092880109940895AC01E0918C013E
:10082000F0918D013097E1F090918B0180918A01D8
:100830009817B0F090E0292F30E02617370754F4CE
:10084000DA01A20FB31F8C91D901AA5FBD4F8C931F
:100850009F5FF1CF10928B0160938A01CB010994C5
:1008600008950895E0918B0180918A01E81730F492
:10087000F0E0EA5FFD4F808190E008958FEF9FEFF9
:1008800008958FB7F89480912D028FBF089561E08D
:10089000FC0184810E94FD1480912C028111109230
:1008A0002C0208958EBD00000DB407FEFDCF8EB55D
:1008B00008958FEF0C9452040F931F93CF93DF93FF
:1008C000EB010E94C6018B010E9459048F3F49F041
:1008D0000E94C601601B710B6C177D07A8F380E0B6
:1008E00001C081E0DF91CF911F910F910895CF93C7
:1008F000DF93EC018E81882389F08F8198859C019C
:100900002F5F3F4F38872F838230924018F40E9428
:100910005904F3CFCE010E9447041E82DF91CF918C
:1009200008958CBD9DBD0895CF93DF93EC01809118
:100930002C02811109C081E080932C028091600516
:10094000909161050E94910460E08C81DF91CF91CC
:100950000C94FD14CF92DF92FF920F931F93CF93CD
:10096000DF9300D000D0CDB7DEB76C01F62E29831F
:100970003A834B835C830E947704C6010E949404EF
:100980006CE271E0C6010E945C048F2D80640E94BD
:10099000520408E110E05C814B813A812981DA013F
:1009A000C901002E04C0B695A795979587950A941E
:1009B000D2F729833A834B835C830E945204085008
:1009C000110929813A814B815C81083F8FEF18071B
:1009D00031F7FF2029F0E8E0FE1204C087E803C0E9
:1009E00085E901C08FEF0E94520410E00E94590473
:1009F000F601828787FF04C01F3F11F01F5FF6CF0B
:100A00000F900F900F900F90DF91CF911F910F914A
:100A1000FF90DF90CF900895AF92BF92CF92DF9278
:100A2000EF92FF920F931F93CF93DF93EC01690135
:100A3000C801820F931F8130924008F070C08E81F0
:100A4000882371F088819981AA81BB814817590751
:100A50006A077B0729F48F819885C816D906B0F5F7
:100A6000488359836A837B838B85833039F089E09F
:100A7000440F551F661F771F8A95D1F79A01AB0166
:100A800061E1CE010E94AA04882319F083E08D83DE
:100A900046C00E94C6015B010E9459048A878F3FAD
:100AA00049F40E94C6016A197B096D327140A0F3B6
:100AB0008FE003C08E3F31F08DE08D83CE010E9428
:100AC00047042DC018861F8281E08E838F81988510
:100AD0008C159D0540F40E9459048F8198850196DC
:100AE00098878F83F3CF6701E00EF11ECE14DF04E9
:100AF00031F00E945904F60181936F01F7CF8F8185
:100B00009885080F191F18870F838985882319F086
:100B10000115124048F0CE010E94770405C0CE01B5
:100B20000E94470480E001C081E0DF91CF911F91D6
:100B30000F91FF90EF90DF90CF90BF90AF9008950E
:100B4000EF92FF920F931F93CF93DF93EC01790104
:100B5000411551056105710511F482E13CC08B8599
:100B6000833039F089E0440F551F661F771F8A953F
:100B7000D1F79A01AB0168E1CE010E94AA04882353
:100B800011F084E028C08EEF0E94520487018EEF9E
:100B9000F81AF80181918F010E9452040E151F0569
:100BA000C1F78FEF0E9452048FEF0E9452040E94FF
:100BB00059048A878F71853031F081E18D83CE01B0
:100BC0000E94470409C068E572E0CE010E945C04FF
:100BD000811107C085E18D83CE010E94470480E02A
:100BE00013C020E030E0A9016DE0CE010E94AA040C
:100BF000811104C00E945904882311F084E1EBCFD5
:100C0000CE010E94470481E0DF91CF911F910F91A7
:100C1000FF90EF9008958091BA028823A9F1409146
:100C200003015091040160910501709106012BEBC5
:100C300032E08091B8029091B9020E94A005811122
:100C400002C080E0089540912802509129026091ED
:100C50002A0270912B02411551056105710591F031
:100C60002BEB32E08091B8029091B9020E94A0056E
:100C7000882339F3109228021092290210922A0236
:100C800010922B021092BA0281E008958F929F92E7
:100C9000AF92BF92EF92FF920F931F93CF934B01AE
:100CA0005C01C42F8091030190910401A091050182
:100CB000B091060188159905AA05BB0501F10E94AE
:100CC0000B06811102C080E020C08BEBE82E82E091
:100CD000F82E00E012E020E030E0B501A4018091A0
:100CE000B8029091B9020E940C05882361F38092AA
:100CF000030190920401A0920501B0920601809137
:100D0000BA02C82BC093BA0281E0CF911F910F9114
:100D1000FF90EF90BF90AF909F908F900895CF93EA
:100D2000DF93EC018D818823A1F18C8187FF2DC099
:100D30006E857F858889998941E00E9446068823CF
:100D400041F1EA8980E2E89FF0011124DF01A55416
:100D5000BD4F1097F1F08D81823050F44B895C8942
:100D60006D897E895C964D935D936D937C935F97BF
:100D70008F89988DA98DBA8DE554FD4F938F828F01
:100D8000B58BA48B8C818F778C83DF91CF910C9462
:100D90000B0680E0DF91CF910895CF93DF93EC01B4
:100DA0000E948F06882311F01D8281E0DF91CF9190
:100DB0000895FC01818D928D009711F00C948F069F
:100DC00008954F925F926F927F928F929F92AF920F
:100DD000BF92CF92DF92EF92FF920F931F93CF9328
:100DE000DF93EC016A017B01280139014230510592
:100DF0006105710510F480E073C089859A85AB8523
:100E0000BC850196A11DB11D84179507A607B707DC
:100E100090F38B889C88AD88BE888F89803129F4B7
:100E2000BB27AF2D9E2D8D2D09C0DB01CA0147E0E8
:100E3000B695A795979587954A95D1F7880E991EEF
:100E4000AA1EBB1E8091030190910401A09105018F
:100E5000B091060188169906AA06BB0679F48F8917
:100E60008031A1F4DD24EE24FF24C601880F991FF0
:100E7000FC01E554FD4F5182408219C040E0C5019C
:100E8000B4010E9446068111EACFB5CFE894C7F8B5
:100E9000DD24EE24FF24C601880F991F880F991FB7
:100EA000FC01E554FD4F4082518262827382809141
:100EB000BA0281608093BA028A89823080F08D8183
:100EC0009E81AF81B885880E991EAA1EBB1E809296
:100ED000280290922902A0922A02B0922B0281E06D
:100EE000DF91CF911F910F91FF90EF90DF90CF9006
:100EF000BF90AF909F908F907F906F905F904F903A
:100F000008958F929F92AF92BF92CF92DF92EF920D
:100F1000FF920F931F93CF93DF93FC0181859285FE
:100F2000A385B4850196A11DB11D84179507A60759
:100F3000B70710F480E05CC083899489A589B689DD
:100F4000C789C03129F4852E962EA72EBB2409C04F
:100F50004A015B01C7E0B694A79497948794CA9519
:100F6000D1F7E9016A017B018F01BC01CD01680D58
:100F7000791D8A1D9B1D8090030190900401A09013
:100F80000501B0900601681579058A059B0599F45D
:100F9000F80187898031A9F4B701A6015527662792
:100FA0007727440F551FFA01E554FD4F8081918149
:100FB000A0E0B0E018C040E00E9446068111E8CFF2
:100FC000B9CFB701A6014F77552766277727440F7A
:100FD000551F440F551FFA01E554FD4F8081918143
:100FE000A281B381BF7088839983AA83BB8381E088
:100FF000DF91CF911F910F91FF90EF90DF90CF90F5
:10100000BF90AF909F908F9008958F929F92AF92D4
:10101000BF92CF92DF92EF92FF920F931F93CF93E5
:10102000DF93EC018D81811102C080E077C00B89D4
:101030001C892D893E890417150726073707A8F351
:101040006A017B01823029F4CA86DB86EC86FD8644
:101050000DC0C114D104E104F10451F41E821F82B9
:10106000188619861A861B861C861D8681E056C046
:101070008A849B84AC84BD84EB8DFC8D258530E017
:10108000275F3F4FB501A401415051096109710922
:10109000022E04C076956795579547950A94D2F726
:1010A000D701C6010197A109B10904C0B695A7955A
:1010B000979587952A95D2F784179507A607B707BE
:1010C00020F089288A288B2849F44F89588D698D0A
:1010D0007A8D4E835F836887798704C0841B950B64
:1010E000A60BB70B4C015D018E010A5F1F4F8114E7
:1010F0009104A104B10409F4A7CF4E815F816885F2
:10110000798598018B8D9C8D0E94810791E0891AC9
:101110009108A108B1088111EACF87CFDF91CF9163
:101120001F910F91FF90EF90DF90CF90BF90AF9005
:101130009F908F9008952F923F924F925F926F925F
:101140007F928F929F92AF92BF92CF92DF92EF9257
:10115000FF920F931F93CF93DF93EC016B014A0132
:101160008D81811103C08FEF9FEFD7C08C8180FFED
:10117000FACF4B885C886D887E884A855B856C8554
:101180007D85C401A0E0B0E093018201041B150B32
:10119000260B370B081719072A073B0718F44201DB
:1011A000841A950A54011E0126E0220E311CA11456
:1011B000B10409F47EC04A855B856C857D852A0172
:1011C00081E05822ED818A019B0189E036952795BF
:1011D000179507958A95D1F78B8D9C8DE23061F438
:1011E000FC01828D938DA48DB58DBC01CD01600F66
:1011F000711F821F931F3FC0FC0174807A9470227C
:1012000041145104C9F4711017C0452B462B472BCC
:1012100049F48F89988DA98DBA8D8E839F83A88775
:10122000B9870AC04E815F816885798591010E94E6
:101230008107882309F497CFEB8DFC8D8E819F81E8
:10124000A885B9850297A109B109058404C0880F52
:10125000991FAA1FBB1F0A94D2F74685578560893C
:101260007189840F951FA61FB71FBC01CD01670DA3
:10127000711D811D911D20E032E0241935093501D1
:101280002A153B0508F439012C8126FD04C06114A0
:10129000F2E07F0681F40091030110910401209196
:1012A0000501309106016017710782079307B1F4B9
:1012B00002C0C40132C040E00E944606882309F4FF
:1012C00052CFF201E554FD4FD601CF01860D971D97
:1012D000E817F90789F021912D93FACF7601830160
:1012E0009201AB01BC018091B8029091B9020E94B9
:1012F0000C05882309F437CFC60CD71C8A859B853B
:10130000AC85BD85860D971DA11DB11D8A879B8764
:10131000AC87BD87A618B7084ACFDF91CF911F9140
:101320000F91FF90EF90DF90CF90BF90AF909F9084
:101330008F907F906F905F904F903F902F90089587
:101340003F924F925F926F927F928F929F92AF9255
:10135000BF92CF92DF92EF92FF920F931F93CF93A2
:10136000DF93CDB7DEB72C970FB6F894DEBF0FBE74
:10137000CDBF5C01DC015B968D909C905C971696CE
:10138000CD90DD90ED90FC901997C114D104E1044B
:10139000F10439F0BFEFCB1ADB0AEB0AFB0A312C60
:1013A00007C0F401C080D180E280F38033243394FD
:1013B000F40181859285A385B4859C01AD012F5FE1
:1013C0003F4F4F4F5F4F29873A874B875C872601F6
:1013D00037011D821E821F821886F4018185928545
:1013E000A385B4852D813E814F8158852817390703
:1013F0004A075B0708F063C089859A85AB85BC8581
:101400008C159D05AE05BF0550F482E0C82ED12C89
:10141000E12CF12C92E0492E512C612C712C9E0173
:101420002F5F3F4FB701A601C4010E9481078823A7
:1014300009F445C089819A81AB81BC81892B8A2BB3
:101440008B2B41F0260137019FEF491A590A690A8F
:10145000790A05C0C414D504E604F70491F02D817F
:101460003E814F8158852F5F3F4F4F4F5F4F2D83F8
:101470003E834F8358873FEFC31AD30AE30AF30A28
:10148000ACCF0FEF1FEF2FEF3FE0B301A201C4017C
:101490000E94E106882399F0D50116964D915D9141
:1014A0006D917C911997411551056105710549F0C0
:1014B00093018201C4010E94E106811102C080E013
:1014C0002AC0D50116964D925D926D927C92199725
:1014D000332051F0D301C2010196A11DB11DF401C9
:1014E00080839183A283B383F5018789908DA18D39
:1014F000B28D892B8A2B8B2B69F4D50157964D928F
:101500005D926D927C925A9714968C911497806894
:1015100014968C9381E02C960FB6F894DEBF0FBE24
:10152000CDBFDF91CF911F910F91FF90EF90DF9092
:10153000CF90BF90AF909F908F907F906F905F9073
:101540004F903F9008952F923F924F925F926F92EB
:101550007F928F929F92AF92BF92CF92DF92EF9243
:10156000FF920F931F93CF93DF9300D000D0CDB79E
:10157000DEB78C015B011A01DC0115968C91159781
:101580008130C9F414968C9181FF15C082FF1BC075
:10159000F801438954896589768982859385A48574
:1015A000B58584179507A607B70769F0C8010E949B
:1015B0000508811108C081E090E0F80193838283DF
:1015C00080E090E039C1610183C0D8015B968D91C4
:1015D0009C915C97FC01248121502A013B0139E058
:1015E00076946794579447943A95D1F7722E742065
:1015F0007A01F1E0FF22772009F476C080E092E0E2
:101600008E199F0946018C159D0508F44C01D801DF
:101610005B962D913C915C9716968D919D910D90C6
:10162000BC91A02D0297A109B109F901058404C05C
:10163000880F991FAA1FBB1F0A94D2F746855785AA
:1016400060897189840F951FA61FB71F9C01AD018A
:10165000270D311D411D511D29013A01811432E030
:10166000930609F088C08091030190910401A09134
:101670000501B091060184159505A605B70559F435
:101680008FEF9FEFDC018093030190930401A093FF
:101690000501B09306019501B301A2018091B80242
:1016A0009091B9020E94A005882309F484CF9EEF8F
:1016B000B91AC818D908F80182859385A485B5851B
:1016C000880D991DA11DB11D82879387A487B587B9
:1016D000D8011A964D915D916D917C911D97C11421
:1016E000D10409F072CF87C0E114F10409F086CF6C
:1016F00016964D915D916D917C911997411551050B
:101700006105710559F457968D919D910D90BC918D
:10171000A02D0097A105B10541F521C09E012F5FC5
:101720003F4F0E948107882309F44BCF89819A811A
:10173000AB81BC81F801238D348DF90127892031DB
:1017400029F048EF5FEF6FEF7FE004C048EF5FEFF5
:1017500060E070E084179507A607B70730F0C8016E
:101760000E94A00981114ACF26CFF8018683978372
:10177000A087B18743CFE114F10429F5D8011A9667
:101780004D915D916D917C911D9753968D919D9199
:101790000D90BC91A02D481759076A077B0798F058
:1017A0000E940B06882309F406CF40920301509251
:1017B000040160920501709206018091BA02816075
:1017C0008093BA0208C041E0C301B2010E944606FC
:1017D000882309F4F0CED501F701E554FD4FCF0180
:1017E000880D991DE817F90719F02D912193FACF6B
:1017F000A80CB91C5ECF53968D919D910D90BC9114
:10180000A02D84179507A607B70740F4F801438B6E
:10181000548B658B768B848180688483D801149681
:101820008C9183FD02C0C10107C0C8010E948F06D0
:10183000882309F4C0CEF7CF0F900F900F900F9030
:10184000DF91CF911F910F91FF90EF90DF90CF909C
:10185000BF90AF909F908F907F906F905F904F90D0
:101860003F902F900895CF93DF931F92CDB7DEB7AF
:10187000698341E050E0BE016F5F7F4F0E94A30A81
:101880000F90DF91CF910895CF93DF93EC01898D75
:101890009A8D009739F481E090E09B838A8380E001
:1018A00090E00BC0FC01138212820E94A30AE98D12
:1018B000FA8D22813381232B71F7DF91CF91089527
:1018C0004F925F926F927F92AF92BF92CF92DF92D0
:1018D000EF92FF920F931F93CF93DF9300D000D02E
:1018E000CDB7DEB78C0149835A836B837C83590162
:1018F000C12CD12C7601412C82E0582E612C712C08
:1019000049815A816B817C819E012F5F3F4FC801C5
:101910000E948107882351F1D301C201F801058497
:1019200004C0880F991FAA1FBB1F0A94D2F7C80EC4
:10193000D91EEA1EFB1E49815A816B817C818789F1
:10194000803129F088EF9FEFAFEFBFE004C088EF50
:101950009FEFA0E0B0E0481759076A077B0780F2C5
:10196000F501C082D182E282F38281E00F900F9074
:101970000F900F90DF91CF911F910F91FF90EF90FB
:10198000DF90CF90BF90AF907F906F905F904F901F
:101990000895EF92FF920F931F93CF93DF93EC0183
:1019A0007B018A011B821A8288EE93E0A0E0B0E0FE
:1019B0008C839D83AE83BF8383E491E09983888386
:1019C0008DE190E00E9428189A8F898F009779F016
:1019D0002DE1F701DC0101900D922A95E1F74CE031
:1019E00050E0B801CE010C960E946719188EDF9165
:1019F000CF911F910F91FF90EF900895CF93DF93B8
:101A00001F92CDB7DEB741E050E0BE016F5F7F4F60
:101A10000E949B08019719F4898190E002C08FEF22
:101A20009FEF0F90DF91CF910895FC01818D928DF2
:101A3000009711F00C94FE0C8FEF9FEF08950F9319
:101A40001F93CF93DF93FC01818D928D0097B9F0A6
:101A5000EF010E94FE0C8C010F3F8FEF180791F0F1
:101A6000898D9A8DFC014285538564857585415029
:101A70005109610971090E940508C80105C080E08B
:101A800090E002C08FEF9FEFDF91CF911F910F91F8
:101A9000089590918B0180918A01981750F4E92F55
:101AA000F0E0EA5FFD4F208130E09F5F90938B0173
:101AB00002C02FEF3FEFC901089580918A0190E0A5
:101AC00020918B01821B91090895089580E090E098
:101AD0000895CF93DF9300D0CDB7DEB7CB01642F4D
:101AE00049835A830E94A2034981842F5A81952FEA
:101AF0000F900F90DF91CF910895CF93DF931F92B6
:101B0000CDB7DEB7698361E0CE0101960E94A203E2
:101B100081E090E00F90DF91CF9108958F929F9296
:101B2000AF92BF92CF92DF92EF92FF920F931F93EB
:101B3000CF93DF93CDB7DEB7C657D1090FB6F89470
:101B4000DEBF0FBECDBF80918A0190E020918B0156
:101B5000821B9109029784F08BEA95E00E94490D5F
:101B6000E091C304F091C4040190F081E02D682F4E
:101B700083EC94E00995E7CF8BEA95E00E94490D4C
:101B80008C016C01990FEE08FF08F7FE2BC0E09165
:101B9000C304F091C4040190F081E02D6DE283EC68
:101BA00094E0099522273327A9012C193D094E09F4
:101BB0005F0919A2CE0181967C017AE0872E912CD3
:101BC000A12CB12CCA01B901A50194010E94C7172B
:101BD000605DF70162937F012115310541055105D3
:101BE00089F71AC0A701960119A2CE0181967C013E
:101BF0006AE0862E912CA12CB12CCA01B901A50155
:101C000094010E94C717605DF70162937F0121155F
:101C100031054105510589F7C7010E94BC1387E7CB
:101C200091E00E94BC13083C110509F0C0C260E0BD
:101C300084E00E94FD1481E08093B6029091BB0481
:101C40008091C204981709F477C010922F028091F6
:101C50006F008E7D80936F000E94431281110E945D
:101C60008A138091800087FD1AC0809102018062F2
:101C70008093020110928100109280008091BB0439
:101C80000E949D138091BB04863009F443C08E32BC
:101C900009F444C0853009F043C081E03CC0209184
:101CA00088003091890040E050E08091C00490911C
:101CB000C10448175907C8F637FD06C0B901821795
:101CC000930720F4BC0102C060E070E070938B00C9
:101CD00060938A0037FD06C0B9018217930720F48C
:101CE000BC0102C060E070E07093890060938800DE
:101CF000C2976AE070E0E0918400F0918500E817F7
:101D0000F907C8F361507109B1F74F5F5F4F215078
:101D10003109CBCF82E08093B50204C083E0FBCFD2
:101D20001092B5028DB581608DBD8CB58C7F8CBD58
:101D30008091BB048093C20410922F0280916F00A7
:101D40008E7D80936F000E94431281110E948A133E
:101D50001C821B8205E211E01A8309831E82CE01D8
:101D600001960E9436138B819C8123969FAF8EAF84
:101D7000239721961FAF0EAF21978D8124968FAFA9
:101D800024978E8125968FAF25974F815885698539
:101D90007A8529964CAF5DAF6EAF7FAF29974B85A3
:101DA0005C856D857E852D964CAF5DAF6EAF7FAF48
:101DB0002D974F85588969897A8961964CAF5DAFB7
:101DC0006EAF7FAF61979B8962969FAF62974C8998
:101DD0005D896E897F8966964CAF5DAF6EAF7FAFD0
:101DE0006697488D598D6A8D7B8D6A964CAF5DAF35
:101DF0006EAF7FAF6A972C8D3D8D6C963FAF2EAF47
:101E00006C971DA21CA21BA30AA31FA2811116C0BE
:101E1000A0961FAE1EAEA09788EE93E0A0E0B0E0C3
:101E2000A4968CAF9DAFAEAFBFAFA497E7961FAEA1
:101E30001EAEE797A9961FAEA99751C04AE751E099
:101E4000BE01615C7F4FCE0182960E944F128823B3
:101E5000F9F2CE01CF960E94CD068CA19DA19C8364
:101E60008B831A8309838EA18D838FA18E8388A58E
:101E700099A5AAA5BBA58F839887A987BA878CA5A2
:101E80009DA5AEA5BFA58B879C87AD87BE8788A97A
:101E900099A9AAA9BBA98F87988BA98BBA8B8CA962
:101EA0008B8B8DA99EA9AFA9B8AD8C8B9D8BAE8B6A
:101EB000BF8B89AD9AADABADBCAD888F998FAA8F22
:101EC000BB8F8DAD9EAD9D8F8C8F4AE751E0BE01DB
:101ED0006F5F7F4FCE01845A9F4F0E94C90CA0961E
:101EE0008EAD9FADA0979093BA058093B905A49647
:101EF0008CAD9DADAEADBFADA4978093BB05909367
:101F0000BC05A093BD05B093BE05A8968CAD9DAD54
:101F1000AEADBFADA8978093BF059093C005A093C9
:101F2000C105B093C2058DE0ECE5F0E0EC0FFD1FBC
:101F30003C96A3ECB5E001900D928A95E1F7E79607
:101F40008EAD9FADE7979093D1058093D0050E9409
:101F50004312882309F421C168E070E080E090E03A
:101F60000E94311287E5898381E48A8386E58B8329
:101F700085E48C838E010F5F1F4F34E0F32EF00E4B
:101F800087EB95E00E94150DF80121918F01022E3B
:101F9000000C330B8217930711F4FE12F1CF68E1A6
:101FA00070E080E090E00E94311287EB95E00E94A3
:101FB000150D9093BF048093BE0487EB95E00E94BB
:101FC000150D20E030E0382F8091BE049091BF04C1
:101FD000822B932B9093BF048093BE046CE270E03D
:101FE00080E090E00E94311280E490E09093310212
:101FF0008093300281E080932F0280910201982F1C
:102000009F77909302012091BE043091BF042B3F33
:102010003F4A30F020EC3DE53093BF042093BE04EE
:102020002091BE043091BF0440E050E086FF05C01F
:1020300060E075E38CE090E004C060E07AE688E15F
:1020400090E00E94E9176AE0629FC001639F900DD3
:1020500011249093C1048093C00487EB95E00E9403
:10206000150D8C0187EB95E00E941F0D800F911FCD
:1020700097FD0196959587954091B602209188002D
:1020800030918900141634F402C0369527954A958C
:10209000E2F709C0552741950CF4509502C0220F74
:1020A000331F4A95E2F7992740E050E02817390797
:1020B00008F046C0B9016F5F7F4F6217730728F0C1
:1020C0009B018617970708F49C01FA01ED5CFD4F10
:1020D00020834F5F5F4F4034510561F740E050E08F
:1020E000B9016F5F7F4F6217730728F09B01861756
:1020F000970708F49C01FA01ED58FD4F20834F5FCC
:102100005F4F4034510561F71092B4021092000104
:10211000109201011092B302F8948091C004909142
:10212000C104909387008093860082EB80938000A7
:1021300089E18093810081E280936F0078942DC0C3
:10214000B901615071096817790728F062177307A0
:1021500018F49B0101C09C01FA01ED5CFD4F208346
:102160004F5F5F4F4034510559F740E050E0B901EF
:10217000615071096817790728F06217730718F41E
:102180009B0101C09C01FA01ED58FD4F20834F5F78
:102190005F4F4034510559F7B7CF68E672E480E0ED
:1021A00090E00E94491561E084E00E94FD14CA5845
:1021B000DF4F0FB6F894DEBF0FBECDBFDF91CF91DA
:1021C0001F910F91FF90EF90DF90CF90BF90AF9055
:1021D0009F908F9008951F920F920FB60F92112427
:1021E0002F933F938F939F93EF93FF9380910201DF
:1021F00086FD1CC02091B60227FF23C0E091B402E7
:102200008091B30290E4E99FF0011124E80FF11DE1
:10221000ED5CFD4F808190E0332721950CF43095E3
:1022200002C0959587952A95E2F71EC09091B70256
:1022300081E089278093B7028091B7028823D1F289
:1022400032C0E091B4028091B30290E4E99FF001C2
:102250001124E80FF11DED5CFD4F808190E002C07C
:10226000880F991F2A95E2F790938B0080938A003C
:1022700090938900809388008091B3028F5F809350
:10228000B3028091B302803470F01092B302E091F7
:10229000B402F0E0E050FF4F81E080839091B402FF
:1022A00089278093B402FF91EF919F918F913F9185
:1022B0002F910F900FBE0F901F9018951F920F92A5
:1022C0000FB60F9211242F933F934F935F936F9309
:1022D0007F938F939F93AF93BF93EF93FF93E0917F
:1022E000B40281E0E827F0E0E050FF4F90819923AD
:1022F00009F450C09091B4028927809332028091F2
:102300006F008F7D80936F00789487EB95E00E943B
:10231000CA03209130023091310228173907E8F0C2
:102320008091020183FF07C06CE270E080E090E0E2
:102330000E9431122AC080916F008E7D80936F00C1
:10234000E091D005F091D105309721F08581811180
:102350000E948A1310922F021DC06091320280E405
:10236000689FB00111246D5C7D4F8091D0059091E4
:10237000D105009721F040E450E00E949B08E091D5
:102380003202F0E0E050FF4F108280916F008062D7
:1023900080936F00FF91EF91BF91AF919F918F91CB
:1023A0007F916F915F914F913F912F910F900FBE51
:1023B0000F901F901895CF93DF93EC016A8B80915B
:1023C000030190910401A0910501B09106018E874F
:1023D0009F87A88BB98B80E2689FF0011124E55498
:1023E000FD4F4489558960E070E0BA0155274427C4
:1023F0004F8B588F698F7A8F828D938DA0E0B0E0DC
:10240000482B592B6A2B7B2B4F8B588F698F7A8FD8
:102410008385887151F4848D958DA68DB78D8B8BB6
:102420009C8BAD8BBE8B81E00EC0803111F080E0C3
:1024300015C09E012D5E3F4F8B8D9C8D0E94600CC0
:102440008823A9F384E08D8381E08C831E821F8220
:10245000188619861A861B861C861D86DF91CF91E9
:1024600008952091D0053091D1052115310541F015
:10247000AB01BC01C9010E94050891E0811101C0B6
:1024800090E0892F0895E091D005F091D105309723
:1024900029F08581882311F081E008950895AF9295
:1024A000BF92CF92DF92EF92FF920F931F93CF9341
:1024B000DF93CDB7DEB72B970FB6F894DEBF0FBE14
:1024C000CDBF7C01CE0101966C01FC0190E28BE056
:1024D0008C0D91938E13FDCFDA0120E037E09D91B2
:1024E000992339F19E3219F0E8EBF0E00AC03A3056
:1024F00009F4AAC028E03AE0F2CF3196891709F42E
:10250000A3C084918111F9CF321708F49DC08FEDDB
:10251000890F8E3508F098C081E0820FF601E20F36
:10252000F11D2FE9290F2A3108F490529083282FAA
:10253000D6CF8981803209F487C08B01FB01838D5E
:10254000948DF701948F838FFB011682178210867A
:1025500011861286138614861586A12CF8018285B1
:102560009385A485B58543895489658976898417BF
:102570009507A607B70708F067C025E0B695A795A9
:10258000979587952A95D1F7F82FFF70BF2EF80100
:102590008581823008F458C0C8010E94FE0C97FD66
:1025A00053C0F80182859385A485B5854F96A11DFA
:1025B000B11D82879387A487B587F0E2BF9EC001D3
:1025C0001124BC0165547D4F61157105E9F1FB01D2
:1025D00020812223B9F1253EE1F04BE050E0C60115
:1025E0000E945A19892B09F0B9CF6B2DC7012B9680
:1025F0000FB6F894DEBF0FBECDBFDF91CF911F9114
:102600000F91FF90EF90DF90CF90BF90AF900C9420
:10261000DB11A11014C0F701B28A4091030150915F
:102620000401609105017091060146875787608B10
:10263000718BFC01E554FD4F8081882329F0AA2489
:10264000A3948CCFAA2039F380E02B960FB6F89490
:10265000DEBF0FBECDBFDF91CF911F910F91FF90D5
:10266000EF90DF90CF90BF90AF900895CF93DF931E
:10267000FC012581222311F080E049C0EC0180910A
:1026800085058031C1F482E08583178A108E118E12
:10269000128E8091860590918705A0E0B0E025E03C
:1026A000880F991FAA1FBB1F2A95D1F7838B948B84
:1026B000A58BB68B19C08032F9F683E085834091F3
:1026C00088055091890560918A0570918B05478B2B
:1026D000508F618F728F9F012D5E3F4F8EE695E088
:1026E0000E94600C882341F28EE695E09C8F8B8FD0
:1026F00081E08C831E821F82188619861A861B86AB
:102700001C861D861E861F86188A198A1A8ADF91E2
:10271000CF9108958091D0059091D105009761F0F7
:102720000E94CD068091D0059091D1050E94BD18E0
:102730001092D1051092D005089590E0FC01EC555F
:10274000FF4F2491FC01E057FF4F8491882399F0BB
:1027500090E0880F991FFC01EA57FF4FA591B491B3
:10276000FC01E458FF4F859194918FB7F894EC9158
:10277000E22BEC938FBF0895009769F0FC01019064
:102780000020E9F73197AF01481B590BBC0183ECDE
:1027900094E00C946A0180E090E008958F929F92FB
:1027A000AF92BF92CF92DF92EF92FF92CF93DF93DF
:1027B000C82F82E695E09093B9028093B802CC23AB
:1027C00069F1C53010F080E00DC140E060E070E0DC
:1027D000CB010E9446068823B1F320E1C29FC001CD
:1027E000112485559D4FFC01E254FE4F20812F7727
:1027F00051F73C9640815181628173814436510585
:102800006105710500F33497C080D180E280F380C8
:10281000C114D104E104F10421F4D5CFC12CD12C91
:10282000760140E0C701B6010E944606882359F2AE
:102830008091C6029091C7028115924021F6A09125
:10284000CB02AA2309F4BFCF6091C9027091CA02DA
:102850006115710509F4B7CF2091C802222309F44C
:10286000B2CFA09380052093720580E030E0E1E0D4
:10287000F0E0C82FAF01082E02C0440F551F0A9484
:10288000E2F72417350741F0982F8F5F983089F7CA
:1028900089E080937B0597CF80937B052091D102BF
:1028A0003091D2022115310519F040E050E008C006
:1028B0002091DF023091E0024091E1025091E2026A
:1028C00020937305309374054093750550937605F6
:1028D00046015701860E971EA11CB11C80928105EE
:1028E00090928205A0928305B0928405E091CC027B
:1028F000F091CD02F0938705E0938605B0E00E9449
:102900000818860E971EA81EB91E80928805909200
:102910008905A0928A05B0928B0585E0EE0FFF1F16
:102920008A95E1F7E150FE4FEF2FFF27E6958E0ED7
:102930009F1EA11CB11C80927C0590927D05A092E7
:102940007E05B0927F052091CE023091CF022115F5
:10295000310521F0A90160E070E008C04091DB0280
:102960005091DC026091DD027091DE02D701C60158
:1029700088199909AA09BB09840F951FA61FB71FBB
:1029800004C0B695A79597958795CA95D2F7809379
:10299000770590937805A0937905B0937A05853FE4
:1029A0002FE09207A105B10510F48CE018C0853F17
:1029B0009F4FA105B10510F480E111C08091E7029D
:1029C0009091E802A091E902B091EA028093880513
:1029D00090938905A0938A05B0938B0580E280933C
:1029E000850581E0DF91CF91FF90EF90DF90CF9050
:1029F000BF90AF909F908F90089590E0FC01E859B0
:102A0000FF4F3491FC01EC55FF4F2491FC01E0573E
:102A1000FF4FE491EE2309F43BC0332339F1333007
:102A200091F038F43130A9F0323001F584B58F7D62
:102A300012C0373091F03830A1F03430B9F48091C1
:102A400080008F7D03C0809180008F77809380000D
:102A50000DC084B58F7784BD09C08091B0008F7799
:102A600003C08091B0008F7D8093B000F0E0EE0F46
:102A7000FF1FE458FF4FA591B4918FB7F894EC91E4
:102A8000611103C020952E2301C02E2B2C938FBFE4
:102A900008958F929F92AF92BF92CF92DF92EF9262
:102AA000FF926B017C010E94A1014B015C01C114EA
:102AB000D104E104F104F1F00E94A101DC01CB0199
:102AC00088199909AA09BB09883E9340A105B10557
:102AD00070F321E0C21AD108E108F10888EE880EEF
:102AE00083E0981EA11CB11CC114D104E104F104BF
:102AF00019F7DDCFFF90EF90DF90CF90BF90AF90B0
:102B00009F908F900895789484B5826084BD84B539
:102B1000816084BD85B5826085BD85B5816085BDD8
:102B200080916E00816080936E0010928100809190
:102B30008100826080938100809181008160809318
:102B40008100809180008160809380008091B1003D
:102B500084608093B1008091B00081608093B00068
:102B600080917A00846080937A0080917A008260FC
:102B700080937A0080917A00816080937A008091BE
:102B80007A00806880937A001092C10084E00E94ED
:102B90009D1385E00E949D1386E00E949D1387E0AF
:102BA0000E949D1361E084E00E94FD1461E085E0D5
:102BB0000E94FD1461E086E00E94FD1461E087E060
:102BC0000E94FD1489E08093BB0480E18093BA00E9
:102BD00081E094E09093FB018093FA018DE094E012
:102BE0009093F9018093F80110928B0110928A0161
:102BF00010928901109288011092F70181E0809370
:102C0000F6011092F50161E082E10E94FD1461E09D
:102C100083E10E94FD148091B9008E7F8093B900FA
:102C20008091B9008D7F8093B90088E48093B800CB
:102C300085E48093BC008EE89DE090938D018093A5
:102C40008C01E091D304F091D40482E08083E09180
:102C5000CF04F091D0041082E091D104F091D2041D
:102C60008FEC80831092DB04E091D704F091D804BC
:102C700086E08083E091D504F091D6048081806164
:102C80008083E091D504F091D604808188608083B0
:102C9000E091D504F091D604808180688083E09132
:102CA000D504F091D60480818F7D80838091910539
:102CB000882321F08CE895E00E94CD0610926D05E6
:102CC00010926B05109268051092670588E080935A
:102CD00066050E94C601EB01809166050E949D1366
:102CE00061E0809166050E94FD141FB7F894809101
:102CF000FC01811124C0EAE9F0E08491EEEAF0E001
:102D00009491E82FF0E0EE0FFF1FEA57FF4FA591D7
:102D1000B491EC91E92321F461E08AE00E94FD1472
:102D20008AE00E949D138CB580618CBD8CB5806457
:102D30008CBD8DE00E949D138BE00E949D138091BD
:102D4000FC018F5F8093FC011FBF82E580936005CB
:102D50001092610580916005909161050E94910437
:102D60001AE08FEF0E9452041150D9F782E695E0E5
:102D70000E94940420E030E0A90160E082E695E042
:102D80000E94AA04182F80936C05813049F00E949C
:102D9000C6016C1B7D0B613D774060F381E054C040
:102DA0002AEA31E040E050E068E082E695E00E94E7
:102DB000AA0482FF03C010936D050EC014E00E94A8
:102DC000590480936C051150D1F78A3A11F082E0D2
:102DD0003BC082E080936D0580916D05823021F0CB
:102DE000C12CD12C760105C0C12CD12CE12C80E462
:102DF000F82E20E030E0A90167E382E695E00E942A
:102E0000AA04A701960169E282E695E00E94AA045D
:102E100080936C05882349F00E94C6016C1B7D0BD2
:102E2000613D774030F388E00FC080916D058230BE
:102E300001F520E030E0A9016AE382E695E00E9416
:102E4000AA04882341F086E08093670582E695E036
:102E50000E94470428C00E945904807C803C19F4D9
:102E600083E080936D050E9459040E9459040E94DA
:102E7000590482E695E00E94470480E5809360054E
:102E80001092610581E00E94CE13882339F08CE80E
:102E900095E00E943613882331F00DC080E00E9437
:102EA000CE138111F4CF8FE691E00E94BC1387E727
:102EB00091E00E94BC1364E670E080E090E00E9424
:102EC00049150E946001F7CFE3ECF4E0138212820F
:102ED00088EE93E0A0E0B0E084839583A683B78377
:102EE00023E131E03183208325EC30E035872487EE
:102EF00024EC30E03787268720EC30E0318B208BC4
:102F000021EC30E0338B228B22EC30E0358B248BAC
:102F100026EC30E0378B268B118E128E138E148E9A
:102F2000E0E6F5E020E520831182E2E6F5E0158297
:102F300016821186138642E050E060E070E044871C
:102F400055876687778713A215A614A625E231E078
:102F500033A722A717A6EBEAF5E013821282848337
:102F60009583A683B78321E331E031832083E7EBA8
:102F7000F5E01382128284839583A683B78383E46A
:102F800091E091838083128E118E14860895A1E2C0
:102F90001A2EAA1BBB1BFD010DC0AA1FBB1FEE1FD3
:102FA000FF1FA217B307E407F50720F0A21BB30B1E
:102FB000E40BF50B661F771F881F991F1A9469F79A
:102FC00060957095809590959B01AC01BD01CF01F6
:102FD0000895052E97FB1EF400940E94001857FDDB
:102FE00007D00E94C71707FC03D04EF40C940018BA
:102FF00050954095309521953F4F4F4F5F4F089525
:1030000090958095709561957F4F8F4F9F4F089554
:103010000E941918A59F900DB49F900DA49F800D3C
:10302000911D11240895EE0FFF1F0590F491E02DDE
:103030000994A29FB001B39FC001A39F700D811D91
:103040001124911DB29F700D811D1124911D0895B1
:10305000CF93DF938230910510F482E090E0E0910D
:10306000D405F091D50520E030E0C0E0D0E0309705
:1030700011F14081518148175907C0F0481759078D
:1030800061F482819381209719F09B838A832BC0FE
:103090009093D5058093D40526C02115310519F0EC
:1030A0004217530718F49A01BE01DF01EF010280B5
:1030B000F381E02DDCCF2115310509F1281B390BF7
:1030C0002430310590F412968D919C9113976115DF
:1030D000710521F0FB019383828304C09093D50591
:1030E0008093D405FD01329644C0FD01E20FF31F29
:1030F00081939193225031092D933C933AC02091B2
:10310000D2053091D305232B41F420910901309150
:103110000A013093D3052093D20520910701309105
:1031200008012115310541F42DB73EB740910B013F
:1031300050910C01241B350BE091D205F091D30581
:10314000E217F307A0F42E1B3F0B2817390778F07E
:10315000AC014E5F5F4F2417350748F04E0F5F1FDD
:103160005093D3054093D2058193919302C0E0E040
:10317000F0E0CF01DF91CF9108950F931F93CF938C
:10318000DF93009709F48CC0FC01329713821282FE
:103190000091D4051091D5050115110581F4208108
:1031A0003181820F931F2091D2053091D3052817CA
:1031B000390779F5F093D305E093D20571C0D801B2
:1031C00040E050E0AE17BF0750F412962D913C91AD
:1031D0001397AD012115310509F1D901F3CF9D01F7
:1031E000DA013383228360817181860F971F8217F2
:1031F000930769F4EC0128813981260F371F2E5F70
:103200003F4F318320838A819B8193838283452B27
:1032100029F4F093D505E093D40542C01396FC93AE
:10322000EE931297ED01499159919E01240F351F9C
:10323000E217F30771F480819181840F951F029644
:1032400011969C938E938281938113969C938E9377
:103250001297E0E0F0E0D80112968D919C911397BF
:10326000009719F0F8018C01F6CF8D919C9198018F
:103270002E5F3F4F820F931F2091D2053091D305CF
:103280002817390769F4309729F41092D505109260
:10329000D40502C0138212821093D3050093D20585
:1032A000DF91CF911F910F91089581E090E0F89404
:1032B0000C947619FB01DC0104C08D9101908019FA
:1032C00021F441505040C8F7881B990B0895FB0129
:1032D000DC014150504048F001900D920020C9F7A8
:1032E00001C01D9241505040E0F70895F894FFCF7F
:1032F000010160FFFFFFFF0000D605800000000015
:10330000000000F7006A018F003E01C0009E00B27D
:103310000000000000330C6A01660D650D0000001E
:10332000007D0D690D660D31045D0D490D320400FF
:10333000000000EB03440C660DD906CA03150D1FEF
:103340000D000000009F016A01660D650D9F019F41
:10335000019F01000000009F016A01660D650D5389
:1033600044206661696C000D0A0066797275734CC1
:0833700069742E7761760000FC
:00000001FF
