:100000000C945D000C9485000C9485000C94850084
:100010000C9485000C9485000C9485000C9485004C
:100020000C9485000C9485000C9485000C9485003C
:100030000C9485000C9485000C9485000C9485002C
:100040000C945A020C9485000C94CA020C94A402DD
:100050000C9485000C9485000C9485000C9485000C
:100060000C9485000C9485000000000024002700FB
:100070002A0000000000250028002B0004040404CE
:100080000404040402020202020203030303030342
:10009000010204081020408001020408102001021F
:1000A00004081020000000080002010000030407FB
:1000B0000000000000000000A40311241FBECFEFC9
:1000C000D8E0DEBFCDBF11E0A0E0B1E0ECEBF7E09F
:1000D00002C005900D92A832B107D9F721E0A8E23D
:1000E000B1E001C01D92AE3CB207E1F710E0CDE5F2
:1000F000D0E004C02197FE010E94D103CC35D10786
:10010000C9F70E94FC020C94DC030C940000EBEA9B
:10011000F0E02491E7E9F0E09491E3E8F0E0E49185
:10012000EE2309F43BC0222339F1233091F038F457
:100130002130A9F0223001F524B52F7D12C02730DF
:1001400091F02830A1F02430B9F4209180002F7D67
:1001500003C0209180002F77209380000DC024B52C
:100160002F7724BD09C02091B0002F7703C02091C4
:10017000B0002F7D2093B000F0E0EE0FFF1FEE588F
:10018000FF4FA591B4912FB7F894EC91811103C062
:1001900090959E2301C09E2B9C932FBF08953FB73F
:1001A000F89480912D0190912E01A0912F01B09192
:1001B000300126B5A89B05C02F3F19F00196A11D5F
:1001C000B11D3FBFBA2FA92F982F8827820F911DED
:1001D000A11DB11DBC01CD0142E0660F771F881F34
:1001E000991F4A95D1F708958F929F92AF92BF922F
:1001F000CF92DF92EF92FF920E94CF004B015C0101
:1002000080EDC82E87E0D82EE12CF12C0E94CF0083
:10021000DC01CB0188199909AA09BB09883E9340E2
:10022000A105B10558F021E0C21AD108E108F10892
:1002300088EE880E83E0981EA11CB11CC114D10465
:10024000E104F10419F7FF90EF90DF90CF90BF9099
:10025000AF909F908F900895FC01538D448D252F72
:1002600030E0842F90E0821B930B541710F0CF9650
:10027000089501970895FC01918D828D981761F082
:10028000828DDF01A80FB11D5D968C91928D9F5FCD
:100290009F73928F90E008958FEF9FEF0895FC0178
:1002A000918D828D981731F0828DE80FF11D858D2B
:1002B00090E008958FEF9FEF0895FC01918D228DBE
:1002C000892F90E0805C9F4F821B91098F73992743
:1002D000089581E391E00E945D0121E0892B09F4FA
:1002E00020E0822F0895FC01848DDF01A80FB11D4D
:1002F000A35ABF4F2C91848D90E001968F7399275C
:10030000848FA689B7892C93A089B1898C91806448
:100310008C93938D848D981306C00288F389E02D09
:1003200080818F7D80830895EF92FF920F931F93BA
:10033000CF93DF93EC0181E0888F9B8D8C8D981398
:1003400005C0E889F989808185FD24C0F62E0B8DD2
:1003500010E00F5F1F4F0F731127E02E8C8DE812F6
:100360000CC00FB607FCFACFE889F989808185FFB8
:10037000F5CFCE010E947301F1CF8B8DFE01E80F06
:10038000F11DE35AFF4FF0820B8FEA89FB898081D0
:10039000806207C0EE89FF896083E889F9898081DE
:1003A0008064808381E090E0DF91CF911F910F9175
:1003B000FF90EF900895CF93DF93EC01888D882311
:1003C000C9F0EA89FB89808185FD05C0A889B989C2
:1003D0008C9186FD0FC00FB607FCF5CF808185FF9D
:1003E000F2CFA889B9898C9185FFEDCFCE010E940B
:1003F0007301E7CFDF91CF91089580E090E0892BE2
:1004000029F00E94690181110C9400000895CF9297
:10041000DF92EF92FF920F931F93CF93DF936C01C4
:100420007A018B01C0E0D0E0CE15DF0589F0D8015C
:100430006D918D01D601ED91FC910190F081E02D3F
:10044000C6010995892B11F47E0102C02196ECCFDB
:10045000C701DF91CF911F910F91FF90EF90DF9037
:10046000CF900895089580E090E00895CF93DF93B2
:10047000009779F0FC0101900020E9F73197AF0176
:10048000481B590BBC0181E391E00E940702EC017B
:1004900002C0C0E0D0E042E050E062E171E081E300
:1004A00091E00E9407028C0F9D1FDF91CF9108956C
:1004B0000E94D7031F920F920FB60F9211242F9311
:1004C0003F938F939F93AF93BF9380912901909116
:1004D0002A01A0912B01B0912C013091280123E039
:1004E000230F2D3720F40196A11DB11D05C026E86C
:1004F000230F0296A11DB11D20932801809329018D
:1005000090932A01A0932B01B0932C0180912D018F
:1005100090912E01A0912F01B09130010196A11D63
:10052000B11D80932D0190932E01A0932F01B093C4
:100530003001BF91AF919F918F913F912F910F907B
:100540000FBE0F901F9018951F920F920FB60F922B
:1005500011242F933F934F935F936F937F938F93C8
:100560009F93AF93BF93EF93FF9381E391E00E943A
:100570007301FF91EF91BF91AF919F918F917F9107
:100580006F915F914F913F912F910F900FBE0F9000
:100590001F9018951F920F920FB60F9211242F9350
:1005A0008F939F93EF93FF93E0914101F09142016C
:1005B0008081E0914701F091480182FD12C0908155
:1005C00080914A018F5F8F7320914B01821751F008
:1005D000E0914A01F0E0EF5CFE4F958F80934A0175
:1005E00001C08081FF91EF919F918F912F910F908A
:1005F0000FBE0F901F901895789484B5826084BDCB
:1006000084B5816084BD85B5826085BD85B5816016
:1006100085BD80916E00816080936E001092810094
:10062000809181008260809381008091810081604F
:100630008093810080918000816080938000809110
:10064000B10084608093B1008091B000816080939C
:10065000B00080917A00846080937A0080917A0063
:10066000826080937A0080917A00816080937A0022
:1006700080917A00806880937A001092C100E091A6
:100680004101F091420182E08083E0913D01F091CF
:100690003E011082E0913F01F09140018FEC808398
:1006A00010924901E0914501F091460186E0808376
:1006B000E0914301F0914401808180618083E09169
:1006C0004301F0914401808188608083E09143017F
:1006D000F0914401808180688083E0914301F09132
:1006E000440180818F7D8083E7E9F0E02491E3E895
:1006F000F0E08491882399F090E0880F991FFC0125
:10070000E859FF4FA591B491FC01EE58FF4F859138
:1007100094918FB7F894EC91E22BEC938FBF80E02B
:100720000E94870085E191E00E9436020E94F40059
:1007300081E00E9487008EE191E00E9436020E94D3
:10074000F4000E94FD01EBCFE1E3F1E0138212829D
:1007500088EE93E0A0E0B0E084839583A683B7831E
:1007600084E091E09183808385EC90E09587848795
:1007700084EC90E09787868780EC90E0918B808B6B
:1007800081EC90E0938B828B82EC90E0958B848B54
:1007900086EC90E0978B868B118E128E138E148EC2
:1007A0000895EE0FFF1F0590F491E02D099481E06C
:0C07B00090E0F8940C94DC03F894FFCF68
:1007BC0000000000940107022C01DB015D013B01EC
:1007CC004F010D0A004C69676874204F4E004C694C
:0807DC00676874204F464600D7
:00000001FF
