:100000000C9458000C9480000C9480000C94800098
:100010000C9480000C9480000C9480000C94800060
:100020000C9480000C9480000C9480000C94800050
:100030000C9480000C9480000C9480000C94800040
:100040000C9411030C9480000C9481030C945B03BA
:100050000C9480000C9480000C9480000C94800020
:100060000C94B3030C9480000000000025002800CD
:100070002B00040404040404040402020202020229
:10008000030303030303010204081020408001025C
:1000900004081020010204081020000000080002DB
:1000A0000100000304070000000000000000E1045C
:1000B00011241FBECFEFD8E0DEBFCDBF11E0A0E01E
:1000C000B1E0E2E2FDE002C005900D92A237B10777
:1000D000D9F722E0A2E7B1E001C01D92A83BB20728
:1000E000E1F710E0C8E5D0E004C02197FE010E94CE
:1000F0008406C735D107C9F70E941A050C948F06EC
:100100000C94000090E0FC01E656FF4F2491FC01A6
:10011000EA57FF4F3491FC01EE58FF4FE491EE2374
:10012000B1F1222339F1233091F038F42130A9F0D4
:10013000223001F584B58F7D12C0273091F0283030
:10014000A1F02430B9F4809180008F7D03C08091AC
:1001500080008F77809380000DC084B58F7784BD39
:1001600009C08091B0008F7703C08091B0008F7D6F
:100170008093B000F0E0EE0FFF1FE859FF4FA5910C
:10018000B4918FB7F894EC913E2B3C938FBF0895B8
:100190003FB7F89480910B0290910C02A0910D0250
:1001A000B0910E0226B5A89B05C02F3F19F001960D
:1001B000A11DB11D3FBFBA2FA92F982F8827820FED
:1001C000911DA11DB11DBC01CD0142E0660F771F3D
:1001D000881F991F4A95D1F70895FC01538D448DCE
:1001E000252F30E0842F90E0821B930B541710F0E2
:1001F000CF96089501970895FC01918D828D9817EF
:1002000061F0828DDF01A80FB11D5D968C91928DFA
:100210009F5F9F73928F90E008958FEF9FEF0895F7
:10022000FC01918D828D981731F0828DE80FF11DC0
:10023000858D90E008958FEF9FEF0895FC01918DDB
:10024000228D892F90E0805C9F4F821B91098F73D4
:10025000992708958FE092E00E941E0121E0892BEA
:1002600009F420E0822F0895FC01848DDF01A80F9E
:10027000B11DA35ABF4F2C91848D90E001968F73CE
:100280009927848FA689B7892C93A089B1898C91ED
:1002900080648C93938D848D981306C00288F389B3
:1002A000E02D80818F7D80830895EF92FF920F93E0
:1002B0001F93CF93DF93EC0181E0888F9B8D8C8D12
:1002C000981305C0E889F989808185FD24C0F62E40
:1002D0000B8D10E00F5F1F4F0F731127E02E8C8DD9
:1002E000E8120CC00FB607FCFACFE889F9898081C3
:1002F00085FFF5CFCE010E943401F1CF8B8DFE0139
:10030000E80FF11DE35AFF4FF0820B8FEA89FB895A
:100310008081806207C0EE89FF896083E889F9895E
:1003200080818064808381E090E0DF91CF911F9194
:100330000F91FF90EF900895CF93DF93EC01888D9C
:100340008823C9F0EA89FB89808185FD05C0A889D9
:10035000B9898C9186FD0FC00FB607FCF5CF80815F
:1003600085FFF2CFA889B9898C9185FFEDCFCE01A9
:100370000E943401E7CFDF91CF91089580E090E0B3
:10038000892B29F00E942A0181110C940000089504
:10039000CF92DF92EF92FF920F931F93CF93DF9351
:1003A0006C017A018B01C0E0D0E0CE15DF0589F049
:1003B000D8016D918D01D601ED91FC910190F081F4
:1003C000E02DC6010995892B11F47E0102C021960A
:1003D000ECCFC701DF91CF911F910F91FF90EF906C
:1003E000DF90CF90089585ED8093BC008091BC0094
:1003F00084FDFCCF1092E101089540919401262FD5
:1004000030E0240F311D21323105DCF42091E1016F
:100410002430C9F4FC0180E090E0861758F4309154
:1004200094012191DC01AE58BE4FA30FB11D2C9356
:100430000196F3CF80919401680F6093940180E05E
:10044000089581E0089582E00895089581E090E0A4
:100450003091BA012091B901321710F480E090E098
:1004600091958195910908958091BA019091B90172
:10047000891730F48F5F8093BA0180E090E008958F
:100480008FEF9FEF08958091B90190E02091BA011C
:10049000821B91090895CF92DF92EF92FF920F9302
:1004A0001F93CF93DF937C01262F972F8A01809192
:1004B000E201882391F0C62FD72F6E01C40ED51EFE
:1004C000CC15DD0571F06991D701ED91FC9101909A
:1004D000F081E02DC7010995F3CF642F822F0E9490
:1004E000FD01C801DF91CF911F910F91FF90EF9017
:1004F000DF90CF900895CF93DF931F92CDB7DEB7F3
:1005000069832091E2012223D1F02091050220325B
:1005100040F021E030E0FC013383228380E090E072
:1005200015C08091E301E82FF0E0EC51FE4F998176
:1005300090838F5F8093E3018093050205C061E0A3
:10054000CE0101960E94FD0181E090E00F90DF91C5
:10055000CF910895089580E090E00895009769F0A4
:10056000FC0101900020E9F73197AF01481B590BBE
:10057000BC018FE092E00C94C80180E090E0089507
:10058000CF93DF930E94AE02EC0184E291E00E94DF
:10059000AE028C0F9D1FDF91CF9108958F929F9295
:1005A000AF92BF920F931F93CF93DF93CDB7DEB778
:1005B000A1970FB6F894DEBF0FBECDBF19A242308F
:1005C00008F44AE08E010F5D1F4F842E912CA12C60
:1005D000B12CA50194010E946206E62FB901CA015F
:1005E00001501109EA3014F4E05D01C0E95CD80162
:1005F000EC93232B242B252B61F7C8010E94AE021C
:10060000A1960FB6F894DEBF0FBECDBFDF91CF919C
:100610001F910F91BF90AF909F908F9008950E946F
:100620008A061F920F920FB60F9211242F933F93B9
:100630008F939F93AF93BF9380910702909108028D
:10064000A0910902B0910A023091060223E0230F23
:100650002D3720F40196A11DB11D05C026E8230FFA
:100660000296A11DB11D209306028093070290936C
:100670000802A0930902B0930A0280910B029091A4
:100680000C02A0910D02B0910E020196A11DB11DA8
:1006900080930B0290930C02A0930D02B0930E0274
:1006A000BF91AF919F918F913F912F910F900FBE6E
:1006B0000F901F9018951F920F920FB60F92112452
:1006C0002F933F934F935F936F937F938F939F935A
:1006D000AF93BF93EF93FF938FE092E00E943401BA
:1006E000FF91EF91BF91AF919F918F917F916F910A
:1006F0005F914F913F912F910F900FBE0F901F90E0
:1007000018951F920F920FB60F9211242F938F936B
:100710009F93EF93FF93E0911F02F091200280815D
:10072000E0912502F091260282FD12C09081809115
:1007300028028F5F8F7320912902821751F0E09178
:100740002802F0E0E15FFD4F958F8093280201C001
:100750008081FF91EF919F918F912F910F900FBE0C
:100760000F901F9018951F920F920FB60F921124A1
:100770002F933F934F935F936F937F938F939F93A9
:10078000AF93BF93EF93FF938091B900887F80363A
:1007900009F49CC068F5883209F45BC090F480319C
:1007A00009F454C038F4882309F4F6C0883009F4F9
:1007B0004DC0F6C0883109F44CC0803209F45DC0E8
:1007C000EFC0803409F468C048F4803309F455C0A0
:1007D000883309F0E5C08093DF01D8C0803509F483
:1007E0004FC0883509F45DC0883409F0D9C0D6C03F
:1007F000883909F4C7C0A8F4883709F467C038F409
:10080000883609F463C0803709F460C0C9C08838ED
:1008100009F4B8C0803909F45FC0803809F0C0C05D
:100820005BC0803B09F486C038F4803A09F466C0A6
:10083000883A09F47FC0B4C0803C09F4A7C0883C62
:1008400009F4A4C0883B09F48AC0AAC08091BC0105
:1008500010C09091DE018091DD01981770F5E09154
:10086000DE0181E08E0F8093DE01F0E0E354FE4F65
:1008700080818093BB0085EC86C08093DF018EC0B1
:10088000E091DE0181E08E0F8093DE018091BB005C
:10089000F0E0E354FE4F80839091DE018091DD0112
:1008A0006EC0E091DE0181E08E0F8093DE018091C9
:1008B000BB00F0E0E354FE4F80838091E0018111A2
:1008C0006DC081E08093BB0184EA61C083E08093C6
:1008D000E1011092B801CFCF8091B801803208F0C9
:1008E00051C0E091B80181E08E0F8093B8018091F2
:1008F000BB00F0E0E856FE4F8083BDCF85EC8093CF
:10090000BC001092E1018091B801803230F4E09196
:10091000B801F0E0E856FE4F10826091B80170E037
:10092000E0919601F091970188E991E00995109284
:10093000B80136C084E08093E101109295011092D5
:100940009401E0919201F0919301099580919401B5
:10095000811105C081E08093940110927201E091B1
:10096000950181E08E0F80939501F0E0EE58FE4FE7
:1009700080818093BB00909195018091940198179C
:1009800008F479CF85E88093BC000AC085EC809399
:10099000BC001092E10104C01092DF010E94F3013B
:1009A000FF91EF91BF91AF919F918F917F916F9147
:1009B0005F914F913F912F910F900FBE0F901F901D
:1009C0001895EFE0F2E01382128288EE93E0A0E047
:1009D000B0E084839583A683B78324E031E031833C
:1009E000208325EC30E03587248724EC30E03787FE
:1009F000268720EC30E0318B208B21EC30E0338BEC
:100A0000228B22EC30E0358B248B26EC30E0378BC8
:100A1000268B118E128E138E148EECEAF2E0138266
:100A2000128284839583A683B78386E191E09183C4
:100A300080830895789484B5826084BD84B5816094
:100A400084BD85B5826085BD85B5816085BD809199
:100A50006E00816080936E00109281008091810011
:100A60008260809381008091810081608093810009
:100A7000809180008160809380008091B1008460CB
:100A80008093B1008091B00081608093B00080912C
:100A90007A00846080937A0080917A0082608093EB
:100AA0007A0080917A00816080937A0080917A0048
:100AB000806880937A001092C100E0911F02F0914B
:100AC000200282E08083E0911B02F0911C021082E0
:100AD000E0911D02F0911E028FEC8083109227029C
:100AE000E0912302F091240286E08083E0912102CC
:100AF000F0912202808180618083E0912102F09157
:100B00002202808188608083E0912102F09122029C
:100B1000808180688083E0912102F09122028081AF
:100B20008F7D808387E291E00E94C0021092BA011B
:100B30001092B9011092E301109205021092E101A6
:100B400081E08093E0011092BB0182E10E9482006B
:100B500083E10E9482008091B9008E7F8093B9006A
:100B60008091B9008D7F8093B90088E48093B800AC
:100B700085E48093BC0058E0C52ED12CE12CF12CEB
:100B8000C0E0D1E012E00FEF65EEB62E75ECA72EB7
:100B9000D093E201C09204021092E3011092050288
:100BA0008091E1018111FCCF1093E101D093E0012C
:100BB0000093DF011092DE011092DD011092BC0162
:100BC0009091BC019601220F331F292B2093BC0169
:100BD0009091BB01913069F41092BB019091BC01DE
:100BE0009093BB009091BC0093FDF8CFA092BC0005
:100BF00002C0B092BC009091E1019230E1F390917B
:100C0000DF019F3F69F08091DF01803231F08091F8
:100C1000DF01803321F084E003C082E001C083E083
:100C20001092E301109205021092E201811128C096
:100C300081E491E00E94AE024AE0C701B6010E9441
:100C4000CE0281E591E00E94AE0240E1C701B6010B
:100C50000E94CE0286E591E00E94C002CF5F0E9412
:100C6000C8002B013C010E94C800DC01CB018419A3
:100C70009509A609B709883E9340A105B10598F3E7
:100C80008FEFC81AD80AE80AF80A28E7C216D10472
:100C9000E104F10409F07CCF88E591E00E94C002F4
:100CA0008EE591E00E94AE026C2F70E080E090E053
:100CB0004AE00E94CE0285E691E00E94C0020E94B6
:100CC000BE01FDCFA1E21A2EAA1BBB1BFD010DC068
:100CD000AA1FBB1FEE1FFF1FA217B307E407F507EC
:100CE00020F0A21BB30BE40BF50B661F771F881FC8
:100CF000991F1A9469F760957095809590959B015E
:100D0000AC01BD01CF010895EE0FFF1F0590F491D6
:100D1000E02D099481E090E0F8940C948F06F8940B
:020D2000FFCF03
:100D2200000000005501C801ED009C011E01FC00FD
:100D32001001000000007B024B02AB0225024302BD
:100D4200340226020D0A00493243207363616E6E3B
:100D520065722E205363616E6E696E67202E2E2E91
:100D620000466F756E6420616464726573733A2025
:100D72000020283078002900446F6E652E00466FEF
:100D8200756E642000206465766963652873292E78
:020D920000005F
:00000001FF
