:100000000C94BA010C94E2010C94E2010C94E2010C
:100010000C94E2010C94E2010C94E2010C94E201D4
:100020000C94E2010C94E2010C94E2010C94E201C4
:100030000C94E2010C94E2010C94E2010C94E201B4
:100040000C942A100C94E2010C94FA050C94D4053B
:100050000C94E2010C94E2010C94E2010C94E20194
:100060000C94F3070C94E20100000000230026002A
:1000700029004245574152453A2044617461207736
:10008000696C6C206265207772697474656E207487
:100090006F2074686520504943432C20696E20739B
:1000A0006563746F72202331005573696E67206B2E
:1000B00065792028666F72204120616E6420422994
:1000C0003A005363616E2061204D494641524520FC
:1000D000436C61737369632050494343000000FF20
:1000E0000000A5FF0000FFFF00000000000000FF6F
:1000F00000000000000000FF0000A5FF0000FFFF5F
:10010000000000FF000000FF0000A5FF0000FFFF4F
:10011000000000FF0000FFFF00000000004D494606
:100120004152455F57726974652829206661696C80
:1001300065643A20002057726974696E672E2E2E0E
:100140000057726974696E67206461746120696E1A
:10015000746F20626C6F636B20005043445F417585
:100160007468656E746963617465282920666169C5
:100170006C65643A200041757468656E74696361EA
:1001800074696E6720616761696E207573696E6757
:10019000206B657920422E2E2E003A004461746156
:1001A00020696E20626C6F636B20004D494641529E
:1001B000455F526561642829206661696C65643A0F
:1001C0002000202E2E2E0052656164696E67206427
:1001D0006174612066726F6D20626C6F636B2000CA
:1001E0005043445F41757468656E746963617465FA
:1001F0002829206661696C65643A2000417574683D
:10020000656E7469636174696E67207573696E6782
:10021000206B657920412E2E2E00556E6B6E6F7708
:100220006E206572726F720041204D494641524501
:10023000205049434320726573706F6E646564207B
:1002400077697468204E414B2E00546865204352F4
:10025000435F4120646F6573206E6F74206D61741D
:1002600063682E00496E76616C69642061726775FF
:100270006D656E742E00496E7465726E616C2065DA
:1002800072726F7220696E2074686520636F646596
:100290002E2053686F756C64206E6F7420686170D7
:1002A00070656E2E00412062756666657220697306
:1002B000206E6F742062696720656E6F7567682EA7
:1002C0000054696D656F757420696E20636F6D6D84
:1002D000756E69636174696F6E2E00436F6C6C6933
:1002E0007373696F6E2064657465637465642E0052
:1002F0004572726F7220696E20636F6D6D756E69E5
:10030000636174696F6E2E00537563636573732E3A
:1003100000000000080002010000030407000000C4
:10032000000000000000000000250028002B000055
:10033000000000240027002A00040404040404042C
:100340000402020202020203030303030301020484
:100350000810204080010204081020010204081047
:10036000200000000080FFFF00BFFF8C00FFFF00A7
:100370000000701511241FBECFEFD8E0DEBFCDBF47
:1003800011E0A0E0B1E0E4E3FEE202C005900D92CE
:10039000AC35B107D9F726E0ACE5B1E001C01D925C
:1003A000A63DB207E1F711E0CAEBD1E004C0219706
:1003B000FE010E94F516C93BD107C9F70E947410CF
:1003C0000C9418170C940000EF92FF920F931F9358
:1003D000CF93DF93EC0190915D019F5F292F2770F0
:1003E00020935D0190FF02C090E801C090E021FDE4
:1003F0009064247009F0906220E1290FFE013C9680
:100400007E018FE0E80EF11C00E011E061916623AF
:1004100031F070E0C8010E947A166F5F01C060E0A1
:10042000DF0114976C93322F369F030E30E0311D9D
:100430001124CF010797311103C0EC01188203C0CA
:100440003150EC013883662311F061506C93EE1546
:10045000FF05E1F6DF91CF911F910F91FF90EF9093
:10046000089580E991E00895389A08950F931F93B5
:10047000CF93DF93CDB7DEB762970FB6F894DEBFA8
:100480000FBECDBF8C01F901DC011C968C917A83E3
:1004900069835C834B835E834D8390819D879181CB
:1004A0009E8792819F87813029F4CE0101960E9418
:1004B000E40106C01C861B861A86198618861F82D0
:1004C00083E0888B1A8A198AD801ED91FC91048403
:1004D000F585E02DBE016F5F7F4FC80109956296DB
:1004E0000FB6F894DEBF0FBECDBFDF91CF911F9145
:1004F0000F9108950F931F93CF93DF93CDB7DEB77E
:1005000062970FB6F894DEBF0FBECDBF8C01F90124
:10051000DC011C968C917A8369835C834B835E83B8
:100520004D8390819D8791819E8792819F878130A5
:1005300029F4CE0101960E94E40106C01C861B86A8
:100540001A86198618861F82188A1A8A198AD8016B
:10055000ED91FC910484F585E02DBE016F5F7F4F26
:10056000C801099562960FB6F894DEBF0FBECDBFE5
:10057000DF91CF911F910F91089580E090E0089551
:10058000FC01858596850895CF93DF9300D000D038
:1005900000D0CDB7DEB7AB011C821D821E82DC010C
:1005A000ED91FC910190F081E02D19821A821B825D
:1005B0009E012F5F3F4FBE016C5F7F4F09952696CE
:1005C0000FB6F894DEBF0FBECDBFDF91CF91089577
:1005D0004F925F926F927F928F92AF92BF92CF9223
:1005E000EF92FF920F931F93CF93DF933C01EB01A8
:1005F0000E94A30EF30127853089621B730B6A30BA
:100600007105B0F3F894E881F98158B1516088B16F
:100610008E7F88B96A859F81262F291B922F2F8371
:10062000BF844A805B807D85FC84EE847F5FF39489
:10063000E3943E814885A984CB841181D20120E0D6
:10064000C32F022F322F3181112788943111390F96
:1006500008F43FEF9195889470FD130F17958894D7
:1006600071FD130F1795889472FD130F17958894D9
:1006700073FD130F1795889474FD130F17958894C5
:1006800075FD130F1795889476FD130F17958894B1
:1006900077FD130F17958894232F7111212F960F33
:1006A000122F002C58B900C000C017FF88B9308144
:1006B0002227889400C0002C88B931113C0F00C05B
:1006C000002C58B900C000C016FF88B908F43FEFED
:1006D000C195889400C0002C88B9F0FC230F00C09D
:1006E000002C58B900C000C015FF88B92795889420
:1006F000F1FC230F00C0002C88B92795889400C016
:10070000002C58B900C000C014FF88B9F2FC230FB8
:100710002795889400C0002C88B9F3FC230F00C0F3
:10072000002C58B900C000C013FF88B927958894E1
:10073000F4FC230F00C0002C88B92795889400C0D2
:10074000002C58B900C000C012FF88B9F5FC230F77
:100750002795889400C0002C88B9F6FC230F00C0B0
:10076000002C58B900C000C011FF88B927958894A3
:10077000F7FC230F00C0002C88B92795889400C08F
:10078000002C58B900C000C010FF88B9132FF11019
:10079000122FCA0D00C0002C88B900C000C0002C68
:1007A00058B900C000C017FF88B932812227889449
:1007B00000C0002C88B93111340F00C0002C58B98A
:1007C00000C000C016FF88B908F43FEFEB0DF11D23
:1007D00000C0002C88B9E0FC230F00C0002C58B9E1
:1007E00000C000C015FF88B927958894E1FC230F4D
:1007F00000C0002C88B92795889400C0002C58B9F7
:1008000000C000C014FF88B9E2FC230F279588942C
:1008100000C0002C88B9E3FC230F00C0002C58B99D
:1008200000C000C013FF88B927958894E4FC230F0B
:1008300000C0002C88B92795889400C0002C58B9B6
:1008400000C000C012FF88B9E5FC230F27958894EB
:1008500000C0002C88B9E6FC230F00C0002C58B95A
:1008600000C000C011FF88B927958894E7FC230FCA
:1008700000C0002C88B92795889400C0002C58B976
:1008800000C000C010FF88B9132FE110122F41954E
:1008900000C0002C88B94C0D00C000C058B900C081
:1008A00000C017FF88B931812227889400C0002C2E
:1008B00088B93111390F00C0002C58B900C000C0F0
:1008C00016FF88B908F43FEF9195889400C0002C7A
:1008D00088B970FD230F00C0002C58B900C000C0BB
:1008E00015FF88B92795889471FD230F00C0002C4F
:1008F00088B92795889400C0002C58B900C000C062
:1009000014FF88B972FD230F2795889400C0002C2E
:1009100088B973FD230F00C0002C58B900C000C077
:1009200013FF88B92795889474FD230F00C0002C0D
:1009300088B92795889400C0002C58B900C000C021
:1009400012FF88B975FD230F2795889400C0002CED
:1009500088B976FD230F00C0002C58B900C000C034
:1009600011FF88B92795889477FD230F00C0002CCC
:1009700088B92795889400C0002C58B900C000C0E1
:1009800010FF88B9132F7111122F960F00C0002C81
:1009900088B9119709F086CE20EE31E0D2010E948D
:1009A000CF16DC01CB01F4E0B695A7959795879516
:1009B000FA95D1F720E030E0A9016AE9469E040CDF
:1009C000411D569E400D511D1124450D511D840F92
:1009D000951FA11DB11D893E43E09407A105B105F6
:1009E00008F434C0885E9340A109B10942E0B6958D
:1009F000A795979587954A95D1F747E0849F080E6C
:100A0000211D949F200D311D1124290F311D60914E
:100A10005C0170E0860F971F820F931F4091C50500
:100A20005091C6056091C7057091C805292F3327DD
:100A3000420F531F611D711D4093C5055093C6059C
:100A40006093C7057093C80580935C0178940E94F9
:100A5000A30EF301708B6787DF91CF911F910F91E8
:100A6000FF90EF90CF90BF90AF908F907F906F905E
:100A70005F904F90089508958EBD00000DB407FE5D
:100A8000FDCF8EB508958CBD9DBD08951F93CF9366
:100A9000DF93EC01162F83E590E00E94430560E0B0
:100AA0008E850E94380E812F80680E943C0580E070
:100AB0000E943C05182F61E08E850E94380E812F20
:100AC000DF91CF911F910895EF92FF921F93CF93E3
:100AD000DF931F92CDB7DEB77C01162F83E590E040
:100AE00049830E94430560E0F70186850E94380E25
:100AF000812F0E943C054981842F0E943C0561E0C2
:100B0000F70186850F90DF91CF911F91FF90EF90B5
:100B10000C94380E6115710579F0FB0101900020ED
:100B2000E9F73197AF01461B570BDC01ED91FC91C2
:100B30000280F381E02D099480E090E00895EF9227
:100B4000FF920F931F93CF93DF93162F082FEC0183
:100B50008C2F801B8117B8F47E018881803118F0BA
:100B600067E571E002C060E571E081ED95E00E940B
:100B70008A052196F701608170E080E090E040E115
:100B80000E94C80CE5CFDF91CF911F910F91FF908C
:100B9000EF90089581ED95E00E945D0621E0892B9C
:100BA00009F420E0822F08951F920F920FB60F9242
:100BB00011242F933F934F935F936F937F938F9362
:100BC0009F93AF93BF93EF93FF9381ED95E00E94C6
:100BD0006907FF91EF91BF91AF919F918F917F91A5
:100BE0006F915F914F913F912F910F900FBE0F909A
:100BF0001F9018951F920F920FB60F9211242F93EA
:100C00008F939F93EF93FF93E091E105F091E205BD
:100C10008081E091E705F091E80582FD12C09081A6
:100C20008091EA058F5F8F732091EB05821751F059
:100C3000E091EA05F0E0EF52FA4F958F8093EA05D4
:100C400001C08081FF91EF919F918F912F910F9023
:100C50000FBE0F901F901895FC01538D448D252FCA
:100C600030E0842F90E0821B930B541710F0CF9646
:100C7000089501970895FC01918D828D981761F078
:100C8000828DDF01A80FB11D5D968C91928D9F5FC3
:100C90009F73928F90E008958FEF9FEF0895FC016E
:100CA000918D828D981731F0828DE80FF11D858D21
:100CB00090E008958FEF9FEF0895FC01918D228DB4
:100CC000892F90E0805C9F4F821B91098F73992739
:100CD000089580E090E0892B29F00E94CA058111D7
:100CE0000C9400000895CF92DF92EF92FF920F9341
:100CF0001F93CF93DF936C017A018B01C0E0D0E0AA
:100D0000CE15DF0589F0D8016D918D01D601ED91E9
:100D1000FC910190F081E02DC6010995892B11F419
:100D20007E0102C02196ECCFC701DF91CF911F91C8
:100D30000F91FF90EF90DF90CF90089585ED809315
:100D4000BC008091BC0084FDFCCF10928601089508
:100D50004091A005262F30E0240F311D21323105AE
:100D6000DCF4209186012430C9F4FC0180E090E09D
:100D7000861758F43091A0052191DC01A258BA4F92
:100D8000A30FB11D2C930196F3CF8091A005680F9E
:100D90006093A00580E0089581E0089582E00895C1
:100DA000089581E090E030915F0120915E0132175B
:100DB00010F480E090E091958195910908958091DB
:100DC0005F0190915E01891730F48F5F80935F011E
:100DD00080E090E008958FEF9FEF089580915E018D
:100DE00090E020915F01821B91090895CF92DF92DC
:100DF000EF92FF920F931F93CF93DF937C01262FE7
:100E0000972F8A0180918701882391F0C62FD72FD1
:100E10006E01C40ED51ECC15DD0571F06991D701A8
:100E2000ED91FC910190F081E02DC7010995F3CF80
:100E3000642F822F0E94A806C801DF91CF911F91D5
:100E40000F91FF90EF90DF90CF900895CF93DF93B5
:100E50001F92CDB7DEB76983209187012223D1F09D
:100E60002091A901203240F021E030E0FC013383E1
:100E7000228380E090E015C080918801E82FF0E0A7
:100E8000E757FE4F998190838F5F8093880180930D
:100E9000A90105C061E0CE0101960E94A80681E08B
:100EA00090E00F90DF91CF910895089580E090E059
:100EB0000895DC01ED91FD91BD010190F081E02DDF
:100EC00040E0099591E0811190E0892F08950E94FA
:100ED0000A17FC01848DDF01A80FB11DA35ABF4F73
:100EE0002C91848D90E001968F739927848FA68929
:100EF000B7892C93A089B1898C9180648C93938D50
:100F0000848D981306C00288F389E02D80818F7D3F
:100F100080830895EF92FF920F931F93CF93DF93F7
:100F2000EC0181E0888F9B8D8C8D981305C0E8893A
:100F3000F989808185FD24C0F62E0B8D10E00F5FAE
:100F40001F4F0F731127E02E8C8DE8120CC00FB6C7
:100F500007FCFACFE889F989808185FFF5CFCE01BA
:100F60000E946907F1CF8B8DFE01E80FF11DE35A56
:100F7000FF4FF0820B8FEA89FB898081806207C076
:100F8000EE89FF896083E889F989808180648083A4
:100F900081E090E0DF91CF911F910F91FF90EF9052
:100FA0000895CF93DF93EC01888D8823C9F0EA89F7
:100FB000FB89808185FD05C0A889B9898C9186FD52
:100FC0000FC00FB607FCF5CF808185FFF2CFA8894F
:100FD000B9898C9185FFEDCFCE010E946907E7CFDB
:100FE000DF91CF9108951F920F920FB60F921124A7
:100FF0002F933F934F935F936F937F938F939F9321
:10100000AF93BF93EF93FF938091B900887F8036B1
:1010100009F49CC068F5883209F45BC090F4803113
:1010200009F454C038F4882309F4F6C0883009F470
:101030004DC0F6C0883109F44CC0803209F45DC05F
:10104000EFC0803409F468C048F4803309F455C017
:10105000883309F0E5C080938401D8C0803509F455
:101060004FC0883509F45DC0883409F0D9C0D6C0B6
:10107000883909F4C7C0A8F4883709F467C038F480
:10108000883609F463C0803709F460C0C9C0883865
:1010900009F4B8C0803909F45FC0803809F0C0C0D5
:1010A0005BC0803B09F486C038F4803A09F466C01E
:1010B000883A09F47FC0B4C0803C09F4A7C0883CDA
:1010C00009F4A4C0883B09F48AC0AAC080916101D8
:1010D00010C09091830180918201981770F5E09182
:1010E000830181E08E0F80938301F0E0EE59FE4F83
:1010F00080818093BB0085EC86C0809384018EC084
:10110000E091830181E08E0F809383018091BB0089
:10111000F0E0EE59FE4F808390918301809182012F
:101120006EC0E091830181E08E0F809383018091F6
:10113000BB00F0E0EE59FE4F808380918501811164
:101140006DC081E08093600184EA61C083E0809398
:1011500086011092C405CFCF8091C405803208F07B
:1011600051C0E091C40581E08E0F8093C405809149
:10117000BB00F0E0EC55FA4F8083BDCF85EC809347
:10118000BC00109286018091C405803230F4E09159
:10119000C405F0E0EC55FA4F10826091C40570E090
:1011A000E091A205F091A30584EA95E009951092DB
:1011B000C40536C084E0809386011092A105109288
:1011C000A005E0919E05F0919F0509958091A005ED
:1011D000811105C081E08093A00510927E05E09109
:1011E000A10581E08E0F8093A105F0E0E258FA4F4F
:1011F00080818093BB009091A1058091A0059817F4
:1012000008F479CF85E88093BC000AC085EC809310
:10121000BC001092860104C0109284010E949E06B8
:10122000FF91EF91BF91AF919F918F917F916F91BE
:101230005F914F913F912F910F900FBE0F901F9094
:1012400018958430D9F050F4813091F030F182302B
:1012500091F08330F9F481EC92E008958630A1F0AA
:1012600080F08730A1F08F3FA9F488E292E00895E2
:1012700080EF92E008958BED92E0089585EA92E088
:10128000089586E792E0089584E692E008958AE45E
:1012900092E008958AE192E0089588E093E008954D
:1012A000CF92DF92EF92FF920F931F93CF93DF9332
:1012B000EC016B01142F790140E062E00E946405AB
:1012C00044E06AE0CE010E94640540E864E1CE019A
:1012D0000E946405A601612FCE010E94680E43E0C2
:1012E00062E0CE010E94640508E813E16AE0CE01E5
:1012F0000E94460582FF13C040E062E0CE010E94DA
:10130000640564E4CE010E944605F701808362E42F
:10131000CE010E944605F701818380E004C00150A0
:10132000110921F783E0DF91CF911F910F91FF9079
:10133000EF90DF90CF9008953F924F925F926F921F
:101340007F928F929F92AF92BF92CF92DF92EF9255
:10135000FF920F931F93CF93DF9300D0CDB7DEB7EB
:101360003C01162F942E2901A114B10419F0F501A6
:10137000408101C040E0342EF0E18F9E300C1124FA
:1013800040E062E0C3010E9464054FE768E0C301EA
:101390000E94640540E864E1C3010E946405A20163
:1013A000602FC3010E94680E432D6AE1C3010E94B1
:1013B0006405412F62E0C3010E9464051C3051F4B2
:1013C0006AE1C3010E944605482F40686AE1C301F3
:1013D0000E94640500ED17E068E0C3010E94460525
:1013E000982F992139F480FD03C001501109A1F70C
:1013F00083E0A5C06CE0C3010E944605982E83716E
:1014000009F09CC0E114F10409F45DC0C114D104D9
:1014100009F459C064E1C3010E944605182FF60182
:101420008081811708F484C01083112309F440C01F
:1014300083E590E00E94430560E0F30186850E9409
:10144000380E82E90E943C058820A1F08FEF90E0E1
:101450002C0101C0440C8A94EAF782E90E943C0501
:1014600084214094F70190814922482A40828824AF
:10147000839401C0812C55245A94510E282D30E0BC
:101480008701020F131F851438F482E90E943C057E
:10149000F80180838394F2CF80E00E943C05F8013C
:1014A000808361E0F30186850E94380E0E943B052F
:1014B00068E1C3010E9446058770A114B10421F0C0
:1014C000F501808301C080E093FC34C0E114F10495
:1014D00099F1C114D10481F19E89992369F1F60132
:1014E0004081413019F4843019F420C0423010F4A6
:1014F00087E025C08111FCCF42509E012F5F3F4FF6
:10150000B701C3010E945009811119C0F601808101
:10151000E80EF11CF7013297908189819813E8CF8A
:10152000319690818A819813E3CF06C08FEF07C070
:1015300084E005C082E003C080E001C081E00F903C
:101540000F90DF91CF911F910F91FF90EF90DF905F
:10155000CF90BF90AF909F908F907F906F905F9053
:101560004F903F900895EF92FF921F93CF93DF9398
:101570001F92CDB7DEB77C01162F49830E94460526
:10158000498140954823612FC7010F90DF91CF918A
:101590001F91FF90EF900C9464056F927F928F9251
:1015A000AF92BF92CF92DF92EF92FF920F93CF93C1
:1015B000DF9300D000D01F92CDB7DEB73C0182E0B0
:1015C0008D8340E064E2C3010E94640540E066E26E
:1015D000C3010E94640546E268E4C3010E946405F9
:1015E00086E28C838D81823020F140E86CE1C3017A
:1015F0000E94B30A87E08B831F92812CCE01039651
:101600005C0102966C0104977C0101E09E012C5F55
:101610003F4F40E36CE0C3010E949C090F90811191
:101620000BC08D81823039F481E09B81911104C01F
:1016300008C084E001C081E091E0823019F090E0C0
:1016400001C091E0892F0F900F900F900F900F9095
:10165000DF91CF910F91FF90EF90DF90CF90BF90EF
:10166000AF908F907F906F9008952F923F924F92FE
:101670005F926F927F928F929F92AF92BF92CF9222
:10168000DF92EF92FF920F931F93CF93DF93CDB72B
:10169000DEB72D970FB6F894DEBF0FBECDBF413534
:1016A00008F00BC14C872B013C0140E86CE10E9423
:1016B000B30A51E0523091F05330F1F0513009F05B
:1016C00000C183E989832C852223D9F081E0F201CE
:1016D0009081953008F480E0912C18C085E98983C9
:1016E000FC85FF2381F081E0F2019081983008F4BD
:1016F00080E043E0942E0AC087E9898336E0932E88
:1017000004C0912C02C023E0922E80E01C85F8EFEB
:101710009F9E100D112417FD10E0882321F098E8FA
:101720009B8343E001C042E021E0912F977009F4D0
:1017300020E0912F959595959595290F29F488236B
:1017400009F499C0185F97C0811102C094E001C0EC
:1017500093E0291708F4922F20E030E0692D70E023
:10176000E42FE20FA1E0B0E0AC0FBD1FAE0FB11D42
:10177000F901E60FF71FE40DF51DE181EC932F5FF2
:101780003F4F291768F3DBCF8111E9C010320CF00D
:101790009AC010E220E72A839C818B8189279D8152
:1017A00089279E8189278F839E01285F3F4F47E0CD
:1017B000BE016F5F7F4FC3015D870E9450095D8549
:1017C0008111CDC01B8633E03A87CE0107961C01FC
:1017D00009E08B84482D4295407F480D6AE1C301A2
:1017E0005D870E9464051F929E01255F3F4F59014E
:1017F000CE010A966C0171012A50310940E36CE078
:10180000C3010E949C090F905D85823009F0BCCF16
:101810006CE1C3010E9446055D8585FD50C08F7156
:1018200009F480E2282F30E0612F110F770B621747
:1018300073070CF046C0182FC901019787709927CC
:1018400025952595259531E0320F21E0009709F483
:1018500020E0230FE1E0F0E0EC0FFD1FE20FF11DAF
:1018600021E030E002C0220F331F8A95E2F7C90160
:101870009081892B808310320CF08CCF912F977040
:101880009B87212F25952595259582E0820F392F5D
:10189000E0E18E9F300D11243A8301E0911101C0E7
:1018A00000E0080F22242394312C2C0E3D1E280E1C
:1018B000311C87E0821B8A878CCF86E050C082E093
:1018C0004EC085E04CC08B81883809F045C033E0BC
:1018D00023E080E090E0692D70E0FC01E60FF71F47
:1018E000E40DF51D432F480FA1E0B0E0AC0FBD1F84
:1018F000A40FB11D4C9141830196821770F38A8524
:10190000833031F58B85811123C09E012D5F3F4FC0
:1019100041E0B101C3015D870E9450095D858111DD
:101920001EC09B81F1018181981314C09C8182812A
:10193000981310C0808182FF02C05F5FBBCEF201AE
:101940008387852F880F580F5F5F508380E007C023
:1019500081E005C087E003C032E024E0BACF2D96D5
:101960000FB6F894DEBF0FBECDBFDF91CF911F91B0
:101970000F91FF90EF90DF90CF90BF90AF909F902E
:101980008F907F906F905F904F903F902F90089531
:101990008F929F92AF92BF920F931F93CF93DF933B
:1019A000CDB7DEB7A1970FB6F894DEBF0FBECDBF9F
:1019B00019A2423008F44AE08E010F5D1F4F842EB9
:1019C000912CA12CB12CA50194010E948E16E62F1A
:1019D000B901CA0101501109EA3014F4E05D01C0F7
:1019E000E95CD801EC93232B242B252B61F7B8015C
:1019F00081ED95E00E948A05A1960FB6F894DEBFAE
:101A00000FBECDBFDF91CF911F910F91BF90AF90CF
:101A10009F908F90089569E571E081ED95E00C94B9
:101A20008A050F931F93CF93DF938C01C0E0D0E022
:101A3000F801EC0FFD1F6491662371F0E091D10570
:101A4000F091D2050190F081E02D81ED95E00995AE
:101A5000892B11F02196ECCFCE01DF91CF911F9110
:101A60000F910895CF93DF930E94110DEC010E9416
:101A70000B0D8C0F9D1FDF91CF91089590E0FC011D
:101A8000E35BFC4F2491FC01E75CFC4F84918823CD
:101A900099F090E0880F991FFC01E15DFC4FA59142
:101AA000B491FC01EB5DFC4F859194918FB7F89454
:101AB000EC91E22BEC938FBF08958F92AF92BF927F
:101AC000CF92DF92EF92FF920F93CF93DF93CDB738
:101AD000DEB764970FB6F894DEBF0FBECDBF062FFA
:101AE000E62EF12CA701BC01CE0101960E940F1732
:101AF00021E030E02C0F3D1F2E0D3F1D402FBE0179
:101B00006F5F7F4F87E896E00E945009811125C0E2
:101B100082E18C8B1B8A0E5F1F92812CCE01439633
:101B20005C0101966C0143977C019C0140E36CE0F1
:101B300087E896E00E949C090F9081110EC08C8965
:101B4000813051F48B89843039F481E099819A3065
:101B500009F480E0819501C081E064960FB6F894A5
:101B6000DEBF0FBECDBFDF91CF910F91FF90EF9001
:101B7000DF90CF90BF90AF908F9008958F92AF92EB
:101B8000BF92CF92DF92EF92FF920F93CF93DF93AA
:101B9000CDB7DEB72C970FB6F894DEBF0FBECDBF22
:101BA000898387E08A83DE011396E9ECF5E086E01D
:101BB0008E0F91919D938E13FCCFE0918906F0E0FA
:101BC000EA57F94FDE011996CE010D9621912D931A
:101BD000A817B907D9F71F92812CA12CB12CC12CC1
:101BE000D12CE12CF12C0CE09E012F5F3F4F40E106
:101BF0006EE087E896E00E949C090F902C960FB645
:101C0000F894DEBF0FBECDBFDF91CF910F91FF9053
:101C1000EF90DF90CF90BF90AF908F90089583307A
:101C200081F028F4813099F08230A1F00895873056
:101C3000A9F08830B9F08430D1F4809180008F7D94
:101C400003C0809180008F7780938000089584B5D1
:101C50008F7702C084B58F7D84BD08958091B000D8
:101C60008F7703C08091B0008F7D8093B00008957E
:101C70001F93CF93DF93282F30E0F901EF5EFC4FE5
:101C80008491F901E35BFC4FD491F901E75CFC4FCF
:101C9000C491CC23C9F0162F81110E940F0EEC2F96
:101CA000F0E0EE0FFF1FEB5DFC4FA591B4918FB7F5
:101CB000F894111105C09C91ED2FE095E92302C025
:101CC000EC91ED2BEC938FBFDF91CF911F91089595
:101CD000CF92DF92EF92FF920F931F93CF93DF93F8
:101CE00000D0CDB7DEB78C01F62E83E590E04983B6
:101CF0005A830E94430560E0F80186850E94380EF1
:101D000082E10E943C054981E42EC42E5A81D52EE1
:101D10008C2D8E198F1530F4F60181916F010E9480
:101D20003C05F6CF61E0F80186850E94380E0F90E1
:101D30000F90DF91CF911F910F91FF90EF90DF9067
:101D4000CF900C943B053FB7F89480919806909102
:101D50009906A0919A06B0919B0626B5A89B05C04E
:101D60002F3F19F00196A11DB11D3FBFBA2FA92F1A
:101D7000982F8827820F911DA11DB11DBC01CD0197
:101D800042E0660F771F881F991F4A95D1F7089583
:101D90008F929F92AF92BF92CF92DF92EF92FF927B
:101DA0006B017C010E94A30E4B015C01C114D104A4
:101DB000E104F104F1F00E94A30EDC01CB018819CB
:101DC0009909AA09BB09883E9340A105B10570F3A2
:101DD00021E0C21AD108E108F10888EE880E83E0FC
:101DE000981EA11CB11CC114D104E104F10419F71F
:101DF000DDCFFF90EF90DF90CF90BF90AF909F909E
:101E00008F9008952FB7F8946091C5057091C6051D
:101E10008091C7059091C8052FBF08953F924F92BA
:101E20005F926F927F928F929F92AF92BF92CF926A
:101E3000DF92EF92FF920F931F93CF93DF9300D027
:101E40001F92CDB7DEB7F82E809171069091720681
:101E5000A0917306B0917406892B8A2B8B2BE9F025
:101E60000E94A30E0091A2061091A3062091A40641
:101E70003091A506DC01CB01801B910BA20BB30BAB
:101E800000917106109172062091730630917406CC
:101E900080179107A207B307B8F20E94A30E6093C0
:101EA000A2067093A3068093A4069093A506E091E2
:101EB0007906F0917A06309759F040917506509165
:101EC000760660917706709178068F2D0995F82E29
:101ED0000091CF051091D0054F2C512C612C712C05
:101EE0000115110509F461C0D8011C96EC901C97EE
:101EF00080916F06909170068436910510F41C96BF
:101F00001C92D801ED91FC91A280B38019821A82B3
:101F10001B82F11014C0F8014585568562817381DA
:101F20009E012F5F3F4FC801F5010995D8011C960E
:101F3000EC921C9714960D911C911597D1CFF80136
:101F40003996CE0101966C0148019CE0890E911CE6
:101F5000DF0113973C902191332001F12223F1F00E
:101F6000822F90E0A0E0B0E09C01AD012F5F3F4FD9
:101F70004F4F5F4FC301B2010E946A169B01AC0133
:101F8000832D90E0A0E0B0E0BC01CD016F5F7F4FFA
:101F90008F4F9F4F0E946A16D6018C93BFEFCB1ACA
:101FA000DB0AE815F905A1F6B6CF8091A00690915D
:101FB000A1068C010F5F1F4F1093A1060093A0068E
:101FC00049979CF10E94020F4B015C0188EE93E05F
:101FD000089FB001099F700D189F700D1124072EE6
:101FE000000C880B990BC0909C06D0909D06E09049
:101FF0009E06F0909F06A50194012C193D094E09FB
:102000005F090E948E163093700620936F0610921F
:10201000A1061092A0060E94020F60939C06709386
:102020009D0680939E0690939F060F900F900F90B1
:10203000DF91CF911F910F91FF90EF90DF90CF90A4
:10204000BF90AF909F908F907F906F905F904F90D8
:102050003F9008951F920F920FB60F9211242F9365
:102060003F938F939F93AF93BF938091C5059091BA
:10207000C605A091C705B091C8053091970623E029
:10208000230F2D3720F40196A11DB11D05C026E8B0
:10209000230F0296A11DB11D209397068093C505BD
:1020A0009093C605A093C705B093C8058091980684
:1020B00090919906A0919A06B0919B060196A11D58
:1020C000B11D8093980690939906A0939A06B093B9
:1020D0009B06BF91AF919F918F913F912F910F9050
:1020E0000FBE0F901F901895CF93DF93CDB7DEB73B
:1020F000A7970FB6F894DEBF0FBECDBF789484B516
:10210000826084BD84B5816084BD85B5826085BDF3
:1021100085B5816085BD80916E00816080936E0081
:102120001092810080918100826080938100809173
:102130008100816080938100809180008160809324
:1021400080008091B10084608093B1008091B000E4
:1021500081608093B00080917A00846080937A00DF
:1021600080917A00826080937A0080917A00816009
:1021700080937A0080917A00806880937A00109230
:10218000C10068EB7BE080E090E00E94C80E809187
:10219000BD01811145C01092AF011092AE018FEFC9
:1021A0008093B2018093B3018093B4018093B50111
:1021B0008093B6018093B70181E08093B8011092BB
:1021C000BA011092B9011092B1011092B001809140
:1021D000CF059091D005892B31F48CEA91E0909352
:1021E000D0058093CF05E091AA01F091AB01309723
:1021F00021F08CEA91E0958384838CEA91E09093BE
:10220000AB018093AA011092BC011092BB0184E142
:1022100091E09093AD018093AC0181E08093BD018A
:10222000E091AC01F091AD010480F581E02D8CEAE4
:1022300091E0099589EF91E09093AF018093AE0111
:102240008CE291E09093BA018093B901E091AC01E6
:10225000F091AD010284F385E02D8CEA91E00995BF
:10226000009729F19C0140E050E060E472E48FE0C7
:1022700090E00E94B016722F632F009171061091AA
:1022800072062091730630917406872F962FDA011B
:1022900080179107A207B30710F4D901C8018093F2
:1022A000710690937206A0937306B09374068FEF35
:1022B0008093B20190EB9093B30190EF9093B401AF
:1022C00080936E062DED30E080E090E0F9014591BD
:1022D000559165917491FC01E953FE4F60835183E0
:1022E00042832C5F3F4F03968033910579F781E05D
:1022F00090E09093F8018093F701E091E105F0916F
:10230000E20582E08083E091DD05F091DE05108238
:10231000E091DF05F091E0058FEC80831092E905F4
:10232000E091E505F091E60586E08083E091E30524
:10233000F091E405808180618083E091E305F09174
:10234000E405808188608083E091E305F091E405F5
:10235000808180688083E091E305F091E4058081CD
:102360008F7D808310925F0110925E011092880130
:102370001092A9011092860181E08093850110924C
:10238000600161E082E10E94380E61E083E10E9419
:10239000380E8091B9008E7F8093B9008091B9008A
:1023A0008D7F8093B90088E48093B80085E48093A2
:1023B000BC001FB7F8948091C501811124C0E3E4EB
:1023C000F3E08491E7E5F3E09491E82FF0E0EE0F7D
:1023D000FF1FE15DFC4FA591B491EC91E92321F43D
:1023E00061E08AE00E94380E8AE00E943E0D8CB5C2
:1023F00080618CBD8CB580648CBD8DE00E943E0DEB
:102400008BE00E943E0D8091C5018F5F8093C501D6
:102410001FBF809195060E943E0D61E08091950658
:102420000E94380E809196068F3F69F44FE062E07B
:1024300087E896E00E94640562E370E080E090E047
:102440000E94C80E24C00E943E0D2091960630E0E6
:10245000F901EF5EFC4F8491F901E35BFC4F0491BD
:10246000F901E75CFC4F1491112309F48BC281112F
:102470000E940F0EE12FF0E0EE0FFF1FE859FF4F13
:10248000A591B491EC91E02309F47CC2CFCF62E036
:1024900087E896E00E94460584FDF9CF40E064E2BB
:1024A00087E896E00E94640540E066E287E896E0EF
:1024B0000E94640546E268E487E896E00E946405AD
:1024C00040E864E587E896E00E94640549EA66E52D
:1024D00087E896E00E94640543E068E587E896E0B7
:1024E0000E94640548EE6AE587E896E00E9464056C
:1024F00040E46AE287E896E00E9464054DE362E208
:1025000087E896E00E94640568E287E896E00E940A
:102510004605982F9370933039F0482F436068E256
:1025200087E896E00E9464058FEF8093C905809349
:10253000CA058093CB058093CC058093CD0580930D
:10254000CE0582EC90E00E94320D89EA90E00E9474
:10255000110D66E089EC95E00E949F050E940B0D2D
:1025600082E790E00E94320D3E0133E1630E711C60
:102570002E0161E1460E511C87E896E00E94CD0ACB
:10258000882309F4FCC187E896E00E945907882354
:1025900009F4F5C180E1F30111928A95E9F78FEF13
:1025A0008E8B82E18FA38CEF91E00E94320D80E64A
:1025B0000E94BE0D182F882319F080EE91E069C0AB
:1025C00087EC91E00E94110D4AE064E070E080E049
:1025D00090E00E94C80C82EC91E00E94320D8FA125
:1025E000823108F4DBC180E3898384E08A839E0121
:1025F0002D5F3F4F42E0BE016F5F7F4F87E896E05F
:102600000E9450098111CCC181E08F93812CA12CB3
:10261000B12CBE01695D7F4F6B01CE0101967C013B
:1026200004E09C0140E36CE087E896E00E949C098E
:10263000182F0F90882349F08BEA91E00E94110D2A
:10264000812F0E9421090E94320D8CE991E00E94A5
:10265000110D4AE064E070E080E090E00E94C80C58
:102660008AE991E00E94320D60E1CE0101960E945C
:102670009F050E940B0D0E940B0D86E791E00E94C2
:10268000320D81E60E94BE0D182F882351F08AE595
:1026900091E00E94110D812F0E9421090E94320DAC
:1026A0006EC1FE013196D30181918D93E415F5053C
:1026B000D9F78FEF8E8B81E491E00E94110D4AE0F3
:1026C00064E070E080E090E00E94C80C85E391E057
:1026D0000E94320D60E1C3010E949F050E940B0D14
:1026E00080EA8BA384E08CA362E0CE0183960E94F3
:1026F0005D0D182F811105C060E1C3010E945D0DC1
:10270000182F112349F08DE191E00E94110D812FC6
:102710000E9421090E94320D0E940B0D80E58BA3BF
:102720001CA29E012B5D3F4F42E0BE016D5D7F4FBD
:1027300087E896E00E945009811113C01F92812CF6
:10274000A12CB12CC12CD12CE12CF12C04E09E0148
:102750002D5D3F4F40E36CE087E896E00E949C09C6
:102760000F9048E060E187E896E00E94B30A81E0BC
:102770008093870188E08093C601109288011092AF
:10278000A90163E571E08BE796E00E948A0568EC99
:102790008BE796E00E9426079091A9018091C601DF
:1027A000913208F046C0209186012111FCCF22E031
:1027B0002093860121E0209385012FEF209384014F
:1027C0001092830190938201A9E8B1E042E651E0C2
:1027D000FA012E2F241B291718F42D912193F9CFDC
:1027E0001092610190916101880F892B80936101A2
:1027F00080916001813061F41092600180916101EB
:102800008093BB008091BC0083FDF8CF85EC01C0B4
:1028100085EE8093BC00809186018230E1F3809147
:1028200084018F3F31F080918401803211F08091DA
:102830008401109288011092A9011092870160ED25
:1028400077E080E090E00E94C80E0EEE12E07091FA
:102850007D05FF24F394F70EF0927D0540E050E0F3
:102860008091F7019091F8012F2D240F322F32958E
:102870003F702F70E32FEE0FE30FF0E0E953FE4FB0
:10288000222319F0B1E0892B09F4B0E06081A18125
:102890008281BB2309F434C03F3011F0339602C06B
:1028A000E7ECF1E02295207FB22FB0959081362F92
:1028B0006B2F369F030E30E0311D692F629F060E8D
:1028C00060E0611D630F91817A2F3B2F739F070E8C
:1028D00070E0711DA72F392F329F030E30E0311D9C
:1028E000A30F9281782F3B2F739F070E70E0711D0D
:1028F000872F392F329F030E30E0311D830F1124B3
:10290000FA01E750FE4F6083A18382834D5F5F4FE2
:10291000443863E0560709F0A3CF80916E060E9409
:102920000E0F0E94020F6B017C0161E070E080E0FD
:1029300090E00E94C80E80916E060E940E0F0E94C9
:10294000020FDC01CB018C199D09AE09BF090A9762
:10295000A105B10550F30150110909F078CFF80134
:10296000E750FE4F1082118212820D5F1F4F043814
:1029700073E01707A1F780916E060E940E0F0E9468
:102980006906FACD61E0809196060E94380E62E3F6
:1029900070E080E090E00E94C80E80CD14E04CCE44
:1029A000182F4ACE7F928F929F92AF92BF92CF9272
:1029B000DF92EF92FF920F931F93CF93DF93FC016F
:1029C000EB017A01D90148175907C8F42C911196E7
:1029D0009C91119712968C91129738813C93398172
:1029E00011963C9311973A8112963C931297288343
:1029F00099838A839E2F8F2FFA01E92EF82EC880A3
:102A0000D12C8C9190E08C199D099695982F882750
:102A100097958795098110E01196AC901197B12C8C
:102A2000A01AB10AB694BA2CAA24B794A7942A8102
:102A300030E01296CC91D0E0C21BD30BD695DC2FA0
:102A4000CC27D795C795A7014E1B5F0B19F0742EA5
:102A5000452F03C07724739440E0672D742F0E94A4
:102A60007A164B01C501672D742F0E947A165B01FF
:102A7000CE01672D742F0E947A16880C991CAA0C1F
:102A8000BB1C660F771FDC2CCC24102F0027322FA5
:102A90002227DF01AA0FBB1FAE0FBF1FA855B94FDA
:102AA000EE16FF0678F0ED012297D8822196188362
:102AB0003C93C80CD91C0A0D1B1D260F371F3196DD
:102AC0001396EECFDF91CF911F910F91FF90EF9072
:102AD000DF90CF90BF90AF909F908F907F900895A0
:102AE0007F928F929F92AF92BF92CF92DF92EF929E
:102AF000FF920F931F93CF93DF9300D000D000D0AD
:102B0000CDB7DEB71092D4051092D30588EE93E0CE
:102B1000A0E0B0E08093D5059093D605A093D705AB
:102B2000B093D80526E231E03093D2052093D10549
:102B300025EC30E03093DE052093DD0524EC30E019
:102B40003093E0052093DF0520EC30E03093E20580
:102B50002093E10521EC30E03093E4052093E30578
:102B600022EC30E03093E6052093E50526EC30E0DA
:102B70003093E8052093E7051092EA051092EB05E3
:102B80001092EC051092ED052FEF20936E06109237
:102B9000700610926F0610927A06109279064FEF27
:102BA0005FEFBA01409375065093760660937706FF
:102BB0007093780610927E0610927D0680937F06B1
:102BC00090938006A0938106B093820688E391E0FB
:102BD00090937C0680937B0681E693E000E010E012
:102BE000FC0145915591659174910F5F1F4F0496BB
:102BF0004F3FB1F7E1E6F3E0C590D590E590F49052
:102C00009F2D5E2DAD2D77247A94812C912C21E679
:102C1000A22E23E0B22E24E0A20EB11CF501C59035
:102C2000D590E590F490940184E0359527958A95A8
:102C3000E1F7822F8C2C912C4C2D42954F70003156
:102C4000110580F4672D072C000C770B62177307B2
:102C500044F02EE027152CF081E0870D481708F48A
:102C6000482F742EDC82ED82FE82A9835A839B83D7
:102C700050E09E012C5F3F4FBE016F5F7F4F90E0A1
:102C80000E94D214AD2D5E2D9F2D8FEF88169104DA
:102C900009F0C1CF8AE491E090938806809387067B
:102CA0008AE08093950689E08093960626960FB673
:102CB000F894DEBF0FBECDBFDF91CF911F910F9172
:102CC000FF90EF90DF90CF90BF90AF909F908F904C
:102CD0007F900895DB018F939F930E94D616BF913A
:102CE000AF91A29F800D911DA39F900DB29F900D5B
:102CF0001124089597FB072E16F4009407D077FD52
:102D000009D00E94E11607FC05D03EF4909581950C
:102D10009F4F0895709561957F4F0895A1E21A2EF7
:102D2000AA1BBB1BFD010DC0AA1FBB1FEE1FFF1F6F
:102D3000A217B307E407F50720F0A21BB30BE40BBF
:102D4000F50B661F771F881F991F1A9469F7609506
:102D50007095809590959B01AC01BD01CF010895C0
:102D6000052E97FB1EF400940E94C71657FD07D04E
:102D70000E948E1607FC03D04EF40C94C716509593
:102D80004095309521953F4F4F4F5F4F0895909557
:102D90008095709561957F4F8F4F9F4F08950E944A
:102DA000FB16B7FF0895821B930B08950E94FB1634
:102DB000A59F900DB49F900DA49F800D911D11248F
:102DC0000895AA1BBB1B51E107C0AA1FBB1FA61772
:102DD000B70710F0A61BB70B881F991F5A95A9F7C4
:102DE00080959095BC01CD010895EE0FFF1F0590D1
:102DF000F491E02D0994A29FB001B39FC001A39F5D
:102E0000700D811D1124911DB29F700D811D112423
:102E1000911D089581E090E0F8940C941817FB013F
:102E2000DC0102C001900D9241505040D8F7089546
:042E3000F894FFCF44
:102E340000000000670767076707C402C002BD02FD
:102E4400000000007A0236023402C402C0023102D9
:102E5400E802000000008A0773062C06D1075D060D
:102E64003B064F06000000002607F6065607D0066C
:102E7400EE06DF06D10600000000350BCD0A590727
:0C2E84002030007820697320000D0A0047
:00000001FF
